:100000000C940D050C9454050C9454050C94540553
:100010000C9454050C9454050C9454050C945405FC
:100020000C9454050C9454050C941D220C94F1224C
:100030000C94A8190C9454050C9454050C94540574
:100040000C9454050C9454050C9454050C945405CC
:100050000C9454050C94FF190C9454050C945405FD
:100060000C9454050C9454050C9454050C945405AC
:100070000C9454050C9454050C9454050C9454059C
:100080000C9454050C9454050C9454050C9454058C
:100090000C9454050C9454050C9454050C9454057C
:1000A0000C9454050C9454050C9454052900350007
:1000B0001E001F0020002100220023002400250034
:1000C000260027002D002E002B0014001A00080027
:1000D000150017001C0018000C00120013002F0060
:1000E00030002A00390004001600070009000A0049
:1000F0000B000D000E000F0033003400320028000A
:10010000E10036021D001B00060019000500110069
:100110001000360037003800E500E600E000E2009D
:10012000E3002C00E70001510251E40001204C00E3
:100130000000000000000000005C01003A003B00ED
:100140003C003D003E003F004000410042004300B3
:1001500044004500010001005200010001000100BF
:1001600001000100010001000100010001004C003C
:100170000100500051004F000100010050005100EB
:1001800052004F00010001000100AE00010001001B
:100190000100010001000100010001000100010057
:1001A0000100010001000100E000E200E3002C007A
:1001B000E70001000100E400010001000000000070
:1001C0000000000001000100010001000100010029
:1001D0000100010001000100010001000100010017
:1001E0000100010001000100010001000100010007
:1001F00001000100010001000100010001000100F7
:1002000001000100010001000100010001000100E6
:1002100001000100010001000100010001000100D6
:1002200001000100010001000100010001000100C6
:1002300001000100010001000100010001000100B6
:1002400001000100010001000000000000000000AA
:1002500044454255473A2064697361626C65642E77
:100260000A0044454255473A20656E61626C6564F8
:100270002E0A000A002530313662003A200025306F
:100280003258000A722F632030313233343536371A
:1002900038394142434445460A000A002530325865
:1002A00020006B6579626F6172645F7265706F7256
:1002B000743A20000A0025303258006B6579626F6D
:1002C0006172645F7365745F6C65643A2000646595
:1002D0006C5F6B65795F6269743A2063616E277445
:1002E0002064656C3A20253032580A006164645FEE
:1002F0006B65795F6269743A2063616E277420616F
:1003000064643A20253032580A003F00433E200002
:100310004C25640A0074696D65725F7265616433AF
:100320003228293A202530346C580A006B65796DE3
:1003300061705F636F6E6669672E6E6B726F3A20D5
:1003400025580A006B6579626F6172645F69646C3D
:10035000653A2025580A006B6579626F6172645FA7
:1003600070726F746F636F6C3A2025580A00686F63
:1003700073745F6B6579626F6172645F6C656473DF
:1003800028293A2025580A000A092D20537461743F
:100390007573202D0A004743433A20382E332E3000
:1003A000204156522D4C4942433A20322E302E30B5
:1003B000204156525F415243483A20617672350AD5
:1003C000004F5054494F4E533A204C55464120451A
:1003D000585452414B455920434F4E534F4C4520A2
:1003E000434F4D4D414E44204E4B524F20343039F7
:1003F000360A004255494C443A2022302E382E31DC
:1004000033322D32362D673831303035302D646936
:1004100072747922202831353A32323A3034204110
:1004200070722032372032303230290A0056494467
:100430003A203078303345422855414329205049ED
:10044000443A203078324646342841546D33325590
:100450003444465529205645523A203078303030C1
:10046000320A00444553433A205A6564656B696516
:100470006C204B6579626F6172640A000A092D2055
:1004800056657273696F6E202D0A000A092D20438C
:100490006F6E736F6C65202D0A4553432F713A09B7
:1004A000717569740A000A092D204D61676963201E
:1004B0002D0A443A094465627567204D657373617E
:1004C000676520546F67676C650A583A094D617417
:1004D000726978204465627567204D6F64652054A9
:1004E0006F67676C65202D2053686F77206B657987
:1004F0007072657373657320696E206D61747269C3
:100500007820677269640A4B3A094B6579626F61BA
:10051000726420446562756720546F67676C65205C
:100520002D2053686F77206B657970726573732027
:100530007265706F72740A4D3A094465627567207E
:100540004D6F75736520546F67676C650A563A097D
:1005500056657273696F6E0A533A09537461747504
:10056000730A433A09416374697661746520436F85
:100570006E736F6C65204D6F64650A46312D463190
:10058000303A0953776974636820746F204C61793D
:10059000657220302D392028463130203D204C30E6
:1005A000290A302D393A0953776974636820746FCA
:1005B000204C6179657220302D390A4752415645E9
:1005C0003A0953776974636820746F204C617965C8
:1005D0007220302028616C7465726E617465290A1E
:1005E000423A094A756D7020746F20426F6F746CC7
:1005F0006F616465720A4553433A094A756D70200C
:10060000746F20426F6F746C6F6164657220286133
:100610006C7465726E617465290A453A0950726995
:100620006E7420454550524F4D2053657474696E69
:1006300067730A4253504143453A09436C656172FE
:1006400020454550524F4D0A4E3A094E4B524F20CD
:10065000546F67676C650A000A002575002E6E6B83
:10066000726F3A20000A002575002E737761705F63
:100670006261636B736C6173685F6261636B7370FB
:100680006163653A20000A002575002E737761705A
:100690005F67726176655F6573633A20000A0025C3
:1006A00075002E6E6F5F6775693A20000A00257528
:1006B000002E737761705F72616C745F7267756929
:1006C0003A20000A002575002E737761705F6C6117
:1006D0006C745F6C6775693A20000A002575002EFE
:1006E000737761705F7263746C5F726775693A20CB
:1006F000000A002575002E737761705F6C63746C5F
:100700005F6C6775693A20000A002575002E6361E9
:1007100070736C6F636B5F746F5F636F6E74726F17
:100720006C3A20000A002575002E737761705F63B4
:100730006F6E74726F6C5F636170736C6F636B3A32
:1007400020000A0025303258006B65796D61705FBA
:10075000636F6E6669672E7261773A20000A002522
:1007600075002E6D6F7573653A20000A00257500BF
:100770002E6B6579626F6172643A20000A002575FC
:10078000002E6D61747269783A20000A00257500A8
:100790002E656E61626C653A20000A002530325881
:1007A0000064656275675F636F6E6669672E72616C
:1007B000773A20000A0025750064656661756C74DF
:1007C0005F6C617965723A20003F004E4B524F3AA0
:1007D000206F66660A004E4B524F3A206F6E0A0039
:1007E0000A6D6F7573653A206F66660A000A6D6F51
:1007F0007573653A206F6E0A000A6B6579626F61E6
:1008000072643A206F66660A000A6B6579626F61EE
:1008100072643A206F6E0A000A6D61747269783AE8
:10082000206F66660A000A6D61747269783A206FFB
:100830006E0A000A64656275673A206F66660A0090
:100840000A64656275673A206F6E0A000A0A4A7583
:100850006D70696E6720746F20626F6F746C6F616A
:100860006465722E2E2E2000433E2000436C65618D
:1008700072696E6720454550524F4D0A00656563A9
:100880006F6E6669673A0A005B735D004B6579625B
:100890006F6172642073746172742E0A005B575D1D
:1008A000005B535D005B525D005B445D005B435D3C
:1008B000000403300000001603410054006D0033B3
:1008C0000032005500340044004600550000000886
:1008D0000355004100430000000403090409025BC2
:1008E00000030100A0FA090400000103010100094E
:1008F00021110100012240000705810308000A09B7
:100900000401000103000000092111010001226D12
:10091000000705820320000A090402000203000008
:100920000009211101000122220007058303200094
:100930000107050303200001120110010000000857
:10094000EB03F42F0200010203010631FF0974A139
:10095000010975150026FF009520750881020976AA
:10096000150026FF00952075089102C00501098039
:10097000A101850319012AB700150126B7009501C9
:1009800075108100C0050C0901A101850419012A17
:10099000A002150126A002950175108100C0050175
:1009A0000906A1018505050719E029E715002501BC
:1009B0009508750181020507190029EF1500250129
:1009C00095F0750181020508190129059505750144
:1009D0009102950175039101C005010906A1010568
:1009E0000719E029E7150025019508750181029591
:1009F00001750881010507190029FF150026FF0070
:100A000095067508810005081901290595057501E8
:100A10009102950175039101C00011241FBECFEF13
:100A2000DAE0DEBFCDBF04B603FE27C080918F029F
:100A300090919002A0919102B09192028730904BD8
:100A4000A740B04BD1F410928F02109290021092F6
:100A500091021092920214BE84B7877F84BF0FB6B2
:100A6000F894A8958091600088618093600010924E
:100A700060000FBEE0E0F8E3099511E0A0E0B1E00E
:100A8000EEEBFAE402C005900D92A239B107D9F756
:100A900022E0A2E9B1E001C01D92AF38B207E1F750
:100AA0000E94431F0C94F6240C940000FF93EF93D4
:100AB000E0919201F0919301309709F00995EF913F
:100AC000FF910895FC018591803011F0EFDFFBCF9D
:100AD0000895FF27E0E230E247FF0CC0419597FF01
:100AE00009C0EDE26095709580959095611D711D2E
:100AF000811D911D27FF02C0219530E350E2AA27F6
:100B0000660F771F881F991FAA1FA41710F0A41B38
:100B100063955A95A9F7AA3008F0A95FA05DAF9335
:100B2000F395611571058105910541F7ED3211F4D9
:100B3000EF93F395F21718F43F93F395FBCF8F9152
:100B4000B5DFFA95E1F70895E991F9918591803043
:100B500021F0853219F0AADFF9CF089520E0E8945A
:100B600055915532C1F3503311F4689455915A336D
:100B700048F4505390F3220F022E220F220F200D23
:100B8000250FF4CF0EF4219589919991533619F3DD
:100B9000533729F1533559F1BC0188279927E89437
:100BA0005C3621F48991999168945591543639F4C1
:100BB00046EF7EF077FF0DC08FEF9FEF0AC05537ED
:100BC0004AE039F0583540E121F0523642E009F070
:100BD0000895FF93EF937DDFEF91FF91B7CFFF93E0
:100BE000EF93FC0181918030B9F360DFFBCFFF937D
:100BF000EF9368DFF1CFDF93CF93CDB7DEB72596C4
:100C0000A3DFCF91DF9108950C94D9080C94DA08F2
:100C100081E0089581E008950C940A0608950C94EB
:100C20000E061F93CF93DF9300D000D00F92CDB765
:100C3000DEB749835A836B833091AC0189819A81F5
:100C400031111DC06623B9F02223A9F00E9463165A
:100C5000182F682F89819A810E940F1669817A81E5
:100C6000812F0F900F900F900F900F90DF91CF91E9
:100C70001F910C94D7060E943B16182FEFCF0E94AD
:100C8000631669817A81EDCFFC01262F4081518165
:100C90006281738184810C941106CF93DF93EC0100
:100CA00060E00E944406BE01DF91CF910C940F06D4
:100CB0000E94D117811102C00E946E180C94040684
:100CC0000C94060608950C94620681E008950C9435
:100CD0006506CF93C82F0E9463068C2FCF910C948A
:100CE000670608950E9479110E9471062FEF84E330
:100CF0009CE0215080409040E1F700C000000C943F
:100D0000231A0F931F93CF93DF93EC0161E00E94AE
:100D100044068C01BE010E940C06882311F1BE011D
:100D2000C8010E94E00A8823E1F0BE01C8010E94C8
:100D3000210B8823B1F0BE01C8010E94440C882316
:100D400081F08A81882341F101308CE5180779F020
:100D50000E3D8CE51807E9F001151C45E9F40E94E9
:100D6000720680E0DF91CF911F910F9108959091CD
:100D70003F02892F8E7F90FF816080933F0280FF2A
:100D800005C082E692E00E946205EBCF80E592E02A
:100D9000FACF0E946E18E5CFCE01DF91CF911F915F
:100DA0000F910C94080690E080E008950895972F25
:100DB00070E02EE0929F600D711D1124FB0196E4FE
:100DC000899FE00DF11D1124EE0FFF1FE455FF4F29
:100DD000859194910895FC01EE0FFF1FED58FD4F92
:100DE000859194910895CF93DF930E94D7060E9436
:100DF000FF07EC01811520E5920708F041C081153D
:100E000030E4930708F0B4C0803E910518F5803CAB
:100E1000910508F09DC0883A910570F4853A9105D6
:100E200008F08EC081309105F9F00097E9F0049741
:100E3000D8F4D0E0C0E018C08F3B9105D0F7C85A75
:100E4000D0E0CC0FDD1FC35FDE4F0990D881C02DED
:100E5000D4640AC08115904258F4C11581E0D807C6
:100E600018F4C83ED10528F7CE01DF91CF9108953F
:100E7000C11590E3D90708F071C0CE019F706AC018
:100E8000811525E5920758F5811534E5930708F09B
:100E90009EC0811542E5940750F4C11581E5D8073D
:100EA00008F469C0DC2FCC27C16FD06ADDCF982F42
:100EB000969596959E0123703327C115D34508F06A
:100EC00077C0C1E0D0E002C0CC0FDD1F2A95E2F769
:100ED00020E2929FC0011124C82BD92B67C0C115F5
:100EE00089E5D807A8F4C11598E5D90708F074C0BA
:100EF000C11526E5D20708F09CCF8C2F0E949608DA
:100F0000C82FD0E0DC2FCC27CC27DF71D062ACCF4C
:100F1000C1153AE5D30708F464C0CE019056811597
:100F2000904208F086CF8D2F8F710E94960890E036
:100F3000982F882788279F719C012C2BE901E6CFE9
:100F4000C55AD0E0C55CDE4FC881D0E0D0648CCFFC
:100F5000805C91090E94EB06EC0186CFCE019927B7
:100F6000D3FF03C0EC01D86C7FCFEC01D06C7CCFF9
:100F7000DF70D06A79CFCE01E4E096958795EA9547
:100F8000E1F783702C2F26952695237090E2299FF8
:100F900090011124382B8C2F8370C1E0D0E002C067
:100FA000CC0FDD1F8A95E2F7C22BD32BDC685CCF18
:100FB000C1E0D0E002C0CC0FDD1F2A95E2F730E29D
:100FC000939FC0011124C82BD92BDA684DCFD82F9D
:100FD000CC27C46FD06A48CFDC2FCC27C06FD06A33
:100FE00043CF8C2F8F700E94960834E0D695C7951A
:100FF0003A95E1F7CF709C2FEC01D06935CF82385C
:101000009105B1F1B0F48133910509F475C048F44C
:101010008932910509F469C08A32910509F473C0D7
:1010200008958533910509F459C08933910501F17B
:101030000895833E9105A9F138F4803E9105F9F0B9
:10104000823E910549F10895863E9105A9F1873EBA
:101050009105C9F1843E910519F52091810221FF86
:101060001FC08091800284FD14C087EE90E0089537
:10107000209180022370A1F080EE90E008952091ED
:10108000800220FD47C03091810230FF09C024FF5B
:1010900044C090E080E004C02091800222FDF7CFA0
:1010A00008952091800222FD3BC03091810230FDE5
:1010B000E3CF24FFF5CFEDCF2091800223FFF0CFC7
:1010C00024FDE7CFD2CF2091800223FD2CC03091A8
:1010D000810231FFEECF84EE90E0089520918002EE
:1010E00025FFDECF89E290E008952091800225FF60
:1010F000D7CF85E390E008952091800226FFD0CFDE
:101100008AE290E008952091800226FFC9CF81E312
:1011100090E0089589E390E0089583EE90E00895CB
:1011200082EE90E0089586EE90E00895909180021E
:1011300092FF06C0282F28712830F9F4877F846039
:1011400093FF06C0282F28712831F1F4877E84612F
:101150002091810220FF06C0382F38713830D9F431
:10116000877F816021FF06C0282F28712831D1F4A4
:10117000877E816194FD877E0895282F2471243015
:10118000F9F68B7F8860DCCF282F2471243101F79A
:101190008B7E8861DDCF382F3171313019F78E7F2A
:1011A0008860E0CF282F2171213121F78E7E886160
:1011B000E1CF08950895E82FF0E0EE0FFF1FEE58FD
:1011C000FD4F808191810895CF92DF92EF92FF923F
:1011D0000F931F93CF93DF9383E892E00E94620501
:1011E00082E7E82E82E0F82ED0E0C0E09EE7C92E2C
:1011F00092E0D92E05E712E0DF93CF93DF92CF92F2
:101200000E94FB058BE792E00E946205F701819145
:1012100091917F010E94C4179F938F931F930F9307
:101220000E94FB0583E792E00E94620521968DB73C
:101230009EB708960FB6F8949EBF0FBE8DBFC530FF
:10124000D105D1F6DF91CF911F910F91FF90EF90D3
:10125000DF90CF90089580EA8A95F1F70895CF93B3
:10126000DF93AEE3B1E04CE451E0C1E0D0E08D911A
:10127000E82FE295EF70F0E061A18F709E0101C050
:10128000220F8A95EAF7922F9095962391A382A137
:10129000822B82A34A175B0751F7ACE4B1E061E00F
:1012A00070E08D91E82FE295EF70F0E041A18F7032
:1012B0009B0101C0220F8A95EAF7922F9095942303
:1012C00091A382A1822B82A381E0A135B80749F7BF
:1012D00010926902109268021092730210927202C8
:1012E00010926B0210926A021092750210927402B0
:1012F00010926D0210926C02109277021092760298
:1013000010926F0210926E0210927902109278027F
:10131000109271021092700210927B0210927A0267
:1013200085E00E94390ADF91CF910C9458067F9294
:101330008F929F92AF92BF92CF92DF92EF92FF92E5
:101340000F931F93CF93DF938EE3C82E81E0D82EA7
:1013500010E000E0C0E0EE24E394F12C22E7822EBE
:1013600022E0922ED6018D916D01E82FE295EF706B
:10137000F0E021A18F70A70102C0440F551F8A958C
:10138000E2F7CA01922F982B91A392A1809589230D
:1013900082A30E942B099701002E02C0220F331F47
:1013A0000A94E2F75901A094B094E8E6F2E04CE424
:1013B00051E0D0E081919191DA017D90AD01A72DAE
:1013C000A295AF70B0E090966C9170E0A72DAF70D1
:1013D00002C075956795AA95E2F7DF01129760FD47
:1013E00044C0BC01622B732B11967C936E936D915C
:1013F0007C918617970709F0D1E08E169F06D1F6EB
:10140000F60131978081E82FE295EF70F0E041A17D
:101410008F70970101C0220F8A95EAF7922F90955D
:10142000942391A382A1822B82A3CD2B0F5F1F4F08
:101430000E30110509F096CF2C2F45E062E772E0DF
:1014400088E692E00E943A0A0E9460068C2FDF91A3
:10145000CF911F910F91FF90EF90DF90CF90BF90B1
:10146000AF909F908F907F900895BC016A217B215F
:10147000BBCF0895FF920F931F93CF93DF93F82E66
:10148000092F162FD72FC42F222349F081E08093F4
:1014900096010E94D81990939501809394018091B0
:1014A00096018823A1F080919401909195010E946A
:1014B000F019069760F0EF2DF02FA12FBD2F90E0CF
:1014C00080E0D0E08C179D0744F010929601DF91E8
:1014D000CF911F910F91FF900895219131912D93FC
:1014E0003D930196EFCF0F931F93CF93DF93C62FBA
:1014F000D42F022FFC0182818823C9F060939901C7
:101500000E94D819909398018093970180E28C0FE4
:10151000883008F050C0C77081E001C0880FCA95BC
:10152000EAF7DF91CF911F910F910C941C0F10914E
:101530009901161335C080919701909198010E94EE
:10154000F019883C910560F5C0E2CD0F1D17B9F088
:1015500080E2810F883040F4177081E001C0880F6D
:101560001A95EAF70E94230FC83048F481E09D2FB6
:10157000977001C0880F9A95EAF70E941C0F802F80
:101580000E94090FC830B8F4D77081E001C0880FFD
:10159000DA95EAF7DF91CF911F910F910C94230F09
:1015A00080E28C0F883038F4C77081E001C0880F6A
:1015B000CA95EAF7EFCFDF91CF911F910F91089570
:1015C0009C01CB01233F4CE5340731F190F4283DD9
:1015D000FCE53F07E9F0293D4CE5340769F1273D7B
:1015E0003C4579F426E241EE61EE0E94730A80E008
:1015F0000895253FFCE53F07B9F090F0263F3C45B4
:10160000B9F0FC0182818823D1F0109299010895EC
:1016100027E245EE65EEE9CF26E241EE60EEE5CF4A
:1016200027E245EE64EEE1CF26E241EE62EEDDCF49
:1016300027E245EE66EED9CF28E241E0EBCF81E02C
:101640000895CF93DF93EC01FB018281882309F495
:1016500019C1C230FCE5DF07C0F1C6319CE5D907EE
:1016600030F09E012A5F3C452930310570F50E941B
:10167000E4179093810280938002C031ECE5DE078D
:1016800009F4CFC008F05BC0C8308CE5D80709F476
:10169000B6C088F5C430ECE5DE0709F4A8C0C0F494
:1016A000C2308CE5D80709F49CC08091800282602A
:1016B000C330DC4509F498C080918002909181028A
:1016C0000E94F2170E94791180E0DF91CF91089576
:1016D000809180028061C630ECE5DE0709F484C0A9
:1016E000809180028860C730DC4508F47DC080911D
:1016F0008002806279C0CC308CE5D80709F489C0BB
:1017000070F4809180028C60CA30ECE5DE0709F449
:101710006BC008F478C0809180028E7F65C0CE30A7
:101720008CE5D80709F479C0809180028B7FCF3097
:10173000DC4508F459C0809180028F7E55C0CB3FB4
:10174000ECE5DE0709F457C030F5C3318CE5D80766
:1017500009F46FC078F4C131ECE5DE0709F465C027
:10176000C231DC4509F0A8CF0E9479118091800236
:101770008F773AC0C5318CE5D80709F462C008F408
:1017800076C0809181028160CA3FDC4509F094CF28
:101790008093810291CFCF3FFCE5DF0709F44DC074
:1017A00088F4809181028D7FCD3F9CE5D90781F33C
:1017B000809181028E7FCE3FDC4550F38091810283
:1017C0008360E6CFC130FDE5DF0709F459C008F4B6
:1017D00044C080E0C230DD4509F06ECF0E94701831
:1017E0006BCF8091800281608093800265CF809171
:1017F00080028460F9CF809181028260C9CF80919C
:1018000080028064F1CF0E9479118091800280680B
:10181000EBCF809180028D7FE7CF80918002877F20
:10182000E3CF809180028F7DDFCF809180028F7B1C
:10183000DBCF80918002837FD7CF809181028C7F24
:10184000A7CF8091800282FB992790F921E092270F
:1018500090FB82F990FB83F9C7CF80918102982F8A
:10186000909591708E7F892B90FB81F991CF0E948A
:10187000791190918002892F97FB87F98058B4CF16
:1018800081E0ACCF81E021CFCF93DF93EB018631B4
:101890009C4511F50E94F8169A81992399F08A7A4D
:1018A00091E009F490E090939A01811109C089E2D6
:1018B0000E94D3160E94441780E0DF91CF910895D3
:1018C00085E3F6CF80919A01811104C089E20E94DC
:1018D000DA16F0CF85E3FBCF81E0EFCF9093A00144
:1018E00080939F010895E0919F01F091A0013097AE
:1018F00021F00190F081E02D099480E00895EF92AD
:10190000FF920F931F93CF93DF93EC01E0919F0120
:10191000F091A001309709F446C080910C01882312
:1019200041F08091800287FF04C08881898385E02F
:1019300088830280F381E02DCE01099580913F02DA
:1019400082FF31C080FF04C082EA92E00E946205FB
:1019500010E000E08CE9E82E82E0F82E80913F0252
:1019600080FF0EC0FE01E00FF11F80811F928F9358
:10197000FF92EF920E94FB050F900F900F900F9037
:101980000F5F1F4F0830110549F780913F0280FF1C
:101990000AC08AE992E0DF91CF911F910F91FF90E9
:1019A000EF900C946205DF91CF911F910F91FF9002
:1019B000EF90089520919D0130919E0128173907DD
:1019C00071F090939E0180939D01E0919F01F091B1
:1019D000A001309721F00680F781E02D0994089549
:1019E00020919B0130919C012817390771F0909349
:1019F0009C0180939B01E0919F01F091A0013097A1
:101A000021F00084F185E02D0994089585B7806860
:101A100085BF85B7806885BF0895089508950C94A3
:101A20000D0D08950C94110D0E94060D0E940E0DCF
:101A30000C940F0D81E008950E94CF190E942F0988
:101A40000E94471A0C94120DCF93C82F80913F0229
:101A500082FF1EC080FF1CC08BEB92E00E946205DB
:101A600080913F0280FF14C01F92CF9386EB92E0DB
:101A70009F938F930E94FB0580913F020F900F90E0
:101A80000F900F9080FF04C084EB92E00E946205EB
:101A90008C2FCF910C9469067F928F929F92AF9278
:101AA000BF92CF92DF92EF92FF920F931F93CF934B
:101AB000DF93CDB7DEB72A970FB6F894DEBF0FBE1F
:101AC000CDBF0E9497090E941A0D882309F46FC0A8
:101AD00042EAA42E41E0B42E10E000E0702E802FE8
:101AE0000E94DB086C01F501819091905F018816DE
:101AF000990609F456C080913F0281FD0E94E408D6
:101B000080E0EE24E394F12C8C249D2494012E217A
:101B10003F21232B09F43FC08E837F82CE20DF201C
:101B200081E0CD2809F480E088870E94D81981607F
:101B3000782F9A8789874E815F8168858A850E9480
:101B4000FC0D000F111FF801EE55FE4F80819181B1
:101B5000E826F926F182E0820E94730C9091A1019F
:101B60008917B1F10E94730C8093A1012A960FB6D8
:101B7000F894DEBF0FBECDBFDF91CF911F910F91C3
:101B8000FF90EF90DF90CF90BF90AF909F908F909D
:101B90007F900C94240D8F5FEE0CFF1C8E3009F0AB
:101BA000B5CF0F5F1F4F0530110509F097CF8FEFAD
:101BB00089838A831B820E94D8198160782F9D8334
:101BC0008C8349815A816B818D810E94FC0DC4CF29
:101BD0002A960FB6F894DEBF0FBECDBFDF91CF912E
:101BE0001F910F91FF90EF90DF90CF90BF90AF903B
:101BF0009F908F907F900895CF93DF93CDB7DEB7FE
:101C00002B970FB6F894DEBF0FBECDBF4F8358871A
:101C100069877A878B871E821D8285E0FE01379651
:101C2000DE01119601900D928A95E1F749815A8162
:101C30006B817C818D819E812B960FB6F894DEBFDF
:101C40000FBECDBFDF91CF910C94EF13FC018081CB
:101C500091810C94A516CF93C82F882309F488C0CE
:101C60008238C1F40E94730C81FD82C089E30E9416
:101C7000D3160E9444172FEF81EE94E0215080404C
:101C80009040E1F700C0000089E30E94DA16CF918E
:101C90000C9444178338A1F40E94730C80FD68C033
:101CA00083E50E94D3160E9444172FEF81EE94E043
:101CB000215080409040E1F700C0000083E5E5CF6F
:101CC0008438A1F40E94730C82FD52C087E40E9404
:101CD000D3160E9444172FEF81EE94E021508040EC
:101CE0009040E1F700C0000087E4CFCF8CEF8C0F6D
:101CF000813AB8F48C2F0E94DD1C811139C06C2F01
:101D000080910001909101010E948918882329F097
:101D10008C2F0E94DA160E9444178C2F0E94D31633
:101D2000B6CF80E28C0F883048F4C77081E001C0E4
:101D3000880FCA95EAF70E94FB16A9CFEBE5EC0FD6
:101D4000E33040F4F0E0E158FE4F808190E0CF9125
:101D50000C94DA0CC85AC73158F4EC2FF0E0EE0FAF
:101D6000FF1FEF5AFE4F80819181CF910C94F00CB0
:101D7000CF910895882309F44BC0823871F40E94F2
:101D8000730C81FF45C089E30E94D3160E9444175B
:101D900089E30E94DA160C944417833859F40E94A0
:101DA000730C80FF35C083E50E94D3160E94441750
:101DB00083E5EFCF843859F40E94730C82FF28C06A
:101DC00087E40E94D3160E94441787E4E2CF9CEF79
:101DD000980F913AF0F290E2980F983050F4877093
:101DE00091E001C0990F8A95EAF7892F0E940117A7
:101DF000D2CF9BE5980F933020F490E080E00C94D4
:101E0000DA0C885A873120F490E080E00C94F00CD2
:101E10000895CF93C82F0E942B0EC93349F42FEF9A
:101E200087EE93E0215080409040E1F700C0000031
:101E30008C2FCF910C94BA0E882321F00E94FB16B0
:101E40000C9444170895882321F00E9401170C94E4
:101E500044170895BF92CF92DF92EF92FF920F93B3
:101E60001F93CF93DF936C01D62FC72FFC01058101
:101E700002950F70128111110E9418170E94F1161D
:101E8000E82E882371F01123B1F080E28D0F8830A5
:101E900090F082E00E948F170E94F11691E0E82EE8
:101EA000E926BC2EB2949FE0B922EB2DF0E0E85079
:101EB000FB4D0C94AE24E12CF4CF0C2F0F70C07F9F
:101EC00011F00295007F1123A9F0002359F080E260
:101ED0008D0F883010F0D11109C0802F0E94FB16A1
:101EE0000E9444178D2F0E942B0E14C0802F0E9439
:101EF0000B17F6CF8D2F0E94BA0E002359F080E207
:101F00008D0F883010F0D1112CC0802F0E94011746
:101F10000E9444172B2D2850330B2430310520F418
:101F20000E94730C0E946906EE2009F493C10E947E
:101F3000ED1680FD8FC1F60112820E94E7160E9405
:101F40007315C6010E944B110E94E716DF91CF91D5
:101F50001F910F91FF90EF90DF90CF90BF900C9466
:101F60009415802F0E941117D3CFFC2FFF70FF2EE6
:101F7000C07FC03219F0F29480EFF822DD2369F0BF
:101F8000D13049F1112391F1002351F1F6018581FE
:101F900080FFA8CF8F70858323C0112381F00111AA
:101FA00006C00E942B178F290E941C0FB3CF01304F
:101FB000C1F70E942B178F290E943117ABCF011157
:101FC00006C00E943A178F2D0E94230FA3CF013025
:101FD00009F4A0CFF6CF112329F0063008F09ACFEC
:101FE0008F2DE2CF053008F095CFEDCF002359F3C8
:101FF000D93349F4FFEF27EE33E0F1502040304071
:10200000E1F700C000008D2F0E94BA0E83CF8C2F05
:1020100086958695837069F0813009F07BCF8D2F8E
:102020009C2F9370111102C090E080E00E94F00C90
:1020300071CF8D2F9C2F9370111102C090E080E022
:102040000E94DA0C67CF8C2F837009F041C0111108
:1020500061CF4D2F429546954770440F440F0D2F89
:102060000F7010E030E020E0042E04C0000F111FBC
:10207000221F331F0A94D2F760E070E0CB01D4FF37
:102080000FC06FE070E080E090E004C0660F771F43
:10209000881F991F4A95D2F7609570958095909505
:1020A000C695C695C370602B712B822B932BC230C3
:1020B00049F058F4C13019F00E9425152BCF0E9429
:1020C000131528CF0E94371525CF0E94111522CF56
:1020D0008695112311F08C2F8170882309F41ACF73
:1020E0004D2F429546954770440F440F0D2F0F70AA
:1020F00010E030E020E0042E04C0000F111F221F6A
:10210000331F0A94D2F760E070E0CB01D4FF0FC018
:102110006FE070E080E090E004C0660F771F881FDA
:10212000991F4A95D2F76095709580959095C695C0
:10213000C695C370602B712B822B932BC23049F054
:1021400058F4C13019F00E94EA15E4CE0E94D81567
:10215000E1CE0E94FC15DECE0E944D15DBCECF7085
:10216000112329F08C2F0E9473158D2F1DCF8D2FD9
:102170000E94230F8C2F0E949415CCCED23F89F160
:1021800060F4D03FC9F0D13F29F1112309F442C0D6
:102190000111A8CE8C2F8F7121C0D33F39F1D43FCC
:1021A000A1F7112369F1CF718C2F0E94731563E0A1
:1021B0008C2F0E947A17AECE112341F0053008F023
:1021C000A9CE8C2F8F710E94B715A4CE063008F0CF
:1021D000A1CEF7CF8C2F8F71112369F20E94731556
:1021E00099CE8C2F8F711123C9F3C5CF112329F0FC
:1021F0008C2F8F710E945E158DCE0E9459158ACE4C
:1022000081E00E948F17023008F484CE82E00E94A1
:102210008F1780CE002359F0D93309F0F4CE8FEF19
:1022200097EEE3E081509040E040E1F7EACE8C2F5A
:102230008F71A1CF4C2F4F706D2FC6010E94D30616
:102240000E94891467CE4C2F4F706D2FC6010E94DB
:10225000D60660CEDF91CF911F910F91FF90EF9046
:10226000DF90CF90BF9008950F931F93CF93DF938C
:10227000EC01688179818A810E94AF168C010E94ED
:102280000E160E941015B801CE01DF91CF911F915B
:102290000F910C942A0FCF93DF93EC018B819C81DB
:1022A000892B29F08881998189238F3F19F4DF9147
:1022B000CF910895CE010E9481068823C1F3CE01FB
:1022C0000E943411CE01DF91CF910C944D060E94F3
:1022D00018170E9428170E94441790E080E00E947F
:1022E000DA0C90E080E00C94F00C0E94E1160C9463
:1022F00067110E9408170C947511E92FE295EF7091
:10230000E250EE3070F4F0E0E85FFA4D0C94AE2449
:10231000803F19F020F4883E20F481E00895843F46
:10232000E1F380E00895883EC0F3813FD1F7F5CF17
:1023300093FB882780F908950E94A5160C947D11BF
:10234000CF93DF9300D000D00F92CDB7DEB70F90C0
:102350000F900F900F900F90DF91CF910895CF9332
:10236000DF9300D000D000D0CDB7DEB726960FB6F1
:10237000F894DEBF0FBECDBFDF91CF9108951F93BC
:10238000CF93DF93C091AD0116E08091AE018C1325
:1023900004C0DF91CF911F910895D0E01C9FF00100
:1023A0001D9FF00D1124E155FE4F40815181628146
:1023B0007381848195810E94AF112196C770E5CF0A
:1023C0004091DF015091E0016091E1017091E201E3
:1023D0008091E3019091E4010C94AF111F93CF938E
:1023E000DF938091E401807FA9F48091E10188234B
:1023F00089F08091AD01C091AE016091DF017091D3
:10240000E001A091E201B091E301D62FD72316E0BD
:10241000C81304C0DF91CF911F91089590E01097E9
:1024200011F0DF3F19F401968770F2CF189F9001E9
:10243000199F300D1124F901E155FE4F41814713D9
:10244000F2CF40814613EFCF42814111ECCF43815F
:1024500054814A1B5B0B483C510528F78091E401ED
:102460008F7080618093E401F901EC54FE4F80810C
:102470008F70806180838FED91E00E944B11DF911E
:10248000CF911F910C94BF11AF92BF92CF92DF9268
:10249000EF92FF920F931F93CF93DF93CDB7DEB7E9
:1024A00061970FB6F894DEBF0FBECDBF8C0185E0FB
:1024B000F801DE011D9601900D928A95E1F7F80171
:1024C00040815181E2808FEDC82E81E0D82E60914D
:1024D000E2017091E3016115710509F461C1909108
:1024E000DF012091E001892F82238F3F09F458C139
:1024F000A380B480F090E101F501E61BF70BFF200B
:1025000009F4FCC08091E401382F307FE83CF105EC
:1025100008F0B2C0311179C0FE2C251323C09413EA
:1025200021C0E1101FC08F7080618093E4010E9480
:10253000E011C6010E944B118091E401F8018583EE
:102540008F2D61960FB6F894DEBF0FBECDBFDF9121
:10255000CF911F910F91FF90EF90DF90CF90BF90A0
:10256000AF900895AB2829F0842F85238F3F09F081
:1025700033C180E0F82FF170DF2E80FF3CC08091E6
:10258000AD012091AE0136E0821315C04D875E8704
:102590008D859E850E94A516292F22952F702230A9
:1025A000F0F0243018F59F70F1F0F8019581907FDC
:1025B000D1F4D12C1EC090E0389FF001399FF00D6E
:1025C0001124E155FE4F6181651306C060816413DB
:1025D00003C062816E110FC001968770D5CF9F70C6
:1025E00011F0882331F3805E883018F3C8010E940F
:1025F0004B11FD2CA5CFEE2009F4A2CF8091E40170
:1026000081608093E401F12C9BCF251306C09413C5
:1026100004C0F801EE2009F48DC04D875E878D85DA
:102620009E850E949C11882319F1EE2009F180916A
:10263000E401803270F02091DF013091E0013887B1
:102640002F831986BB86AA868C87CE0107960E94A7
:102650004B1186E0F801AFEDB1E001900D928A9543
:10266000E1F70E94EE110E94E011FF24F39468CF7D
:10267000C8010E944B11F9CF311113C07A2DB98ACC
:10268000A88A6E2D89890E94A0118FED91E00E9489
:102690004B1186E0F60111928A95E9F70E94E0114C
:1026A000B2CF25130FC094130DC0E1100BC0F80179
:1026B0008583C8010E944B1186E0F60111928A952C
:1026C000E9F73ECF4D875E878D859E850E949C11E0
:1026D000882371F2EE2061F28091E401803208F4E7
:1026E000B8CF2091DF013091E0013A8329831B822A
:1026F000BD82AC828E83CE010196A9CFE83CF10564
:1027000008F041C0FE2CEE2009F4B2CF25132AC0F8
:10271000941328C08091E40180FD1BC0982F907F06
:10272000C1F0F8018583903F31F0982F907F905F42
:102730008F70892B8583C8010E944B1186E0F801B8
:10274000AFEDB1E001900D928A95E1F70E94E011A2
:10275000F7CE86E0F801AFEDB1E001900D928A95D9
:10276000E1F7EECE4D875E878D859E850E949C1198
:1027700081116FCF8091E40181608093E401C801F1
:102780000E944B11DDCE7A2DB98AA88A6E2D8989D7
:102790000E94A01186E0F60111928A95E9F7D6CF42
:1027A000EE2009F465CF4D875E878D859E850E945A
:1027B0009C11F82E882309F45BCF86E0F801AFED79
:1027C000B1E001900D928A95E1F78FED91E00E94C2
:1027D000260E0E94EE11BACF81E08E25CBCE1F933C
:1027E000CF93DF93CDB7DEB72C970FB6F894DEBF4B
:1027F0000FBECDBF4F83588769877A878B879C87A9
:10280000CE0107960E944412882369F08A859B8531
:10281000892B39F04F815885842F85238F3F09F00C
:1028200071C016E05FC086E0FE013796DE011196AA
:1028300001900D928A95E1F78A859B85892B89F312
:1028400088859F8189238F3F61F32091AE0130E01D
:10285000C9010196877099274091AD014817190663
:1028600071F40E9479111092AE011092AD0186E0D0
:10287000EFEDF1E0DF011D928A95E9F7D2CF96E006
:10288000929FD001939FB00D1124A155BE4FFE0120
:10289000319601900D929A95E1F78093AE010E94D6
:1028A000BF11BFCF819FC001112481559E4F0E944F
:1028B00044128823E9F0E091AD011E9FF00111243C
:1028C000E155FE4F40815181628173818481958100
:1028D0000E94AF118091AD0190E001968770992719
:1028E0008093AD018091AD019091AE018913DACF53
:1028F0002C960FB6F894DEBF0FBECDBFDF91CF91FF
:102900001F91089569857A858B859C850E94AF11FA
:1029100088CFEF92FF920F931F93CF93DF938C0199
:10292000892B81F0F12CEE24E394E8012196F80143
:102930008491843770F4843008F05FC08130B1F046
:102940008230A1F1DF91CF911F910F91FF90EF9015
:102950000895853709F44CC008F43DC09CE7980FF2
:10296000903780F78F770E94BA0E49C00E5F1F4FD5
:10297000FE01849190E2980F983060F48770FE2DEC
:1029800001C0FF0F8A95EAF78F2F0E941B170E9444
:10299000441702C00E942B0E8F2D815030F2EFE9B8
:1029A000FFE03197F1F700C00000F7CF0E5F1F4F37
:1029B000FE01849190E2980F983050F48770FE2DBC
:1029C00001C0FF0F8A95EAF78F2F0E942117DFCFF2
:1029D0000E94BA0EE1CF0E5F1F4FFE01C491C1509D
:1029E000D8F28FE99FE00197F1F700C00000F7CF20
:1029F0000E5F1F4FFE01F490CFCF0E942B0E8E0171
:102A0000CBCF08950C9401150E9402156093160215
:102A10007093170280931802909319020C94671117
:102A200008950C9404150F931F93009116021091B2
:102A300017022091180230911902602B712B822B02
:102A4000932B1F910F910C9404150F931F930091DA
:102A5000160210911702209118023091190260237A
:102A60007123822393231F910F910C9404150F93CC
:102A70001F930091160210911702209118023091B5
:102A8000190260277127822793271F910F910C94B9
:102A900004150C9401150C9449150E944B15609374
:102AA00012027093130280931402909315020C94F7
:102AB000671160E070E0CB010C944D150F931F93EC
:102AC00041E050E060E070E08A019B0104C0000F2B
:102AD000111F221F331F8A95D2F7C901B8011F9118
:102AE0000F910C944D150F931F9341E050E060E05F
:102AF00070E004C0440F551F661F771F8A95D2F7F8
:102B00008091120290911302A0911402B0911502CB
:102B10008A019B01082B192B2A2B3B2BC901B801D9
:102B20001F910F910C944D150F931F9341E050E0AE
:102B300060E070E004C0440F551F661F771F8A9540
:102B4000D2F7CB01BA016095709580959095009170
:102B50001202109113022091140230911502602389
:102B60007123822393231F910F910C944D150F9382
:102B70001F9341E050E060E070E004C0440F551F37
:102B8000661F771F8A95D2F78091120290911302E7
:102B9000A0911402B09115028A019B010827192700
:102BA0002A273B27C901B8011F910F910C944D159D
:102BB0000F931F930091120210911302209114029F
:102BC00030911502602B712B822B932B1F910F914B
:102BD0000C944D150F931F93009112021091130244
:102BE00020911402309115026023712382239323D4
:102BF0001F910F910C944D150F931F93009112028A
:102C00001091130220911402309115026027712750
:102C1000822793271F910F910C944D1508952EE054
:102C2000929F800D1124982F977041E001C0440FAE
:102C30009A95EAF786958695869595E0899FF001A5
:102C40001124EB51FE4F90E080E070E05191DF01E4
:102C500011979B01082E02C0369527950A94E2F73A
:102C6000217021952527242325272C930196853033
:102C7000910561F708952EE0929F800D1124982F01
:102C8000977086958695869525E0829FF0011124A0
:102C9000EB51FE4F50E040E080E0219130E0092E02
:102CA00002C0369527950A94E2F721703327042E47
:102CB00001C0220F0A94EAF7822B4F5F5F4F453025
:102CC000510559F70895BF92CF92DF92EF92FF928C
:102CD0000F931F93CF93DF938C01C0901202D0907B
:102CE0001302E0901402F090150280911602909168
:102CF0001702A0911802B0911902C82AD92AEA2A0B
:102D0000FB2ACFE1D0E0BC2ED701C6010C2E04C0B7
:102D1000B695A795979587950A94D2F780FD0EC032
:102D2000219788F7B12C8B2DDF91CF911F910F91B7
:102D3000FF90EF90DF90CF90BF900895B8018C2F57
:102D40000E94F306019761F3EECFCF93DF93EC017E
:102D50000E946316BE01DF91CF910C94F3061F937E
:102D6000CF93DF93EB019091AC01992331F0CB012C
:102D7000DF91CF911F910C94A516882379F0CB0198
:102D80000E946316182F682FCE010E940F16BE01F5
:102D9000812FDF91CF911F910C94F306CB010E94FC
:102DA0003B16182FF4CF682F8091000190910101FC
:102DB0000C942B19682F80910001909101010C94C3
:102DC000361980910001909101010C944119809174
:102DD0001A02859585958595089580911A028770C8
:102DE000089590911A02977081E009F480E00895A7
:102DF00080913E02089590913E02892B80933E027D
:102E00000895809590913E02982390933E020895F4
:102E100010923E02089590913D02892B80933D02CD
:102E20000895809590913D02982390933D020895D6
:102E300010923D02089590913C02892B80933C02B0
:102E40000895809590913C02982390933C020895B8
:102E500010923C02089580911B02089508950C94ED
:102E60002E1790911B02981721F080931B020C944F
:102E70002F17089580911B02882329F010921B02BE
:102E800080E00C942F170895E0910001F09101016A
:102E900080913E028083E0910001F09101018081E8
:102EA00090913D02892B8083E0910001F091010116
:102EB000808190913C02892B808390911B02992301
:102EC00081F0E0910001F09101018081892B8083E4
:102ED00080910001909101010E94751881110E945A
:102EE0003A1780910001909101010C947F0C089594
:102EF0000C94771798E0899F90011124622B6093BE
:102F00001A020E94731580911A0285958595859500
:102F10000C94781710921A0280E00C947817909114
:102F20001A028095892380931A02282F277071F442
:102F3000282F082E000C330B9217130639F08595B5
:102F4000859585950E9494150C948A170895909301
:102F50009301809392010895829590E09C01220F45
:102F6000331F220F331F2C7C959587959595879558
:102F70008373282B30E0C901880F991F8A7A359511
:102F800027952575822B0895CF93DF93D92F0E9423
:102F9000AC17C82F8D2F0E94AC179C2FDF91CF91BB
:102FA000089590E080E00E94BC2421E08C3E9E4F7A
:102FB00009F020E0822F089582E090E00C94B42480
:102FC00083E090E00C94B424CF9384E090E00E94DE
:102FD000B424C82F81E290E00E94B424982F8C2F53
:102FE000CF910895CF93C92F682F84E090E00E947D
:102FF000C2246C2F81E290E0CF910C94C224AB01EB
:10300000BC018FE090E00C94D424AB01BC0183E1BF
:1030100090E00C94D42460E070E0CB010C9405188F
:1030200060E070E0CB010E94FF170C940B186CEE6F
:103030007EEF90E080E00E94E02460E082E090E09B
:103040000E94C22460E083E090E00E94C2241092BB
:10305000160210921702109218021092190260E0E4
:1030600084E090E00E94C22460E081E290E00E944F
:10307000C22460E085E090E00E94C22460E086E027
:1030800090E00E94C2246FEF87E090E00E94C2248B
:1030900040E050E0BA0188E090E00E94D42460E073
:1030A0008DE090E00E94C22440E050E0BA0188E147
:1030B00090E00E94D42460E087E190E00E94C22466
:1030C00040E050E0BA018CE190E00E94D42460E03E
:1030D00080E290E00E94C2240C9410180C941718FF
:1030E000682F8EE090E00C94C224FC01329680910F
:1030F0000C01882321F0809180029EE187FF96E0F9
:1031000080E0915008F4089521912223D1F38F5F3C
:10311000F8CF662301F120910C012223F1F02091D8
:10312000800227FF1AC0462F4695469546954E3198
:1031300090F4677021E030E002C0220F331F6A95DF
:10314000E2F7840F911DFC01828190E0282339234E
:1031500081E0232B69F480E00895FC013296089603
:103160002191261721F0E817F907D1F7F4CF81E074
:1031700008959C01FC0132969FEF80E04191461733
:1031800051F09F3F19F4411101C0982F8F5F863095
:10319000A9F79F3F09F40895290F311D97FD3A952E
:1031A000F90162830895FC01329608962191261355
:1031B00003C0DF0111971C92E817F907B9F70895CA
:1031C000E62FE695E695E695EE3170F4E80FF92FD7
:1031D000F11D677021E030E001C0220F6A95EAF727
:1031E0008281822B8283089580913F0280FF0CC0F0
:1031F0001F926F938CEE92E09F938F930E94FB053A
:103200000F900F900F900F900895E62FE695E6959A
:10321000E695EE3178F4E80FF92FF11D677021E0A3
:1032200030E001C0220F6A95EAF7209582812823B9
:103230002283089580913F0280FF0CC01F926F93FC
:103240008EEC92E09F938F930E94FB050F900F905E
:103250000F900F90089520910C01222329F02091C6
:10326000800227FD0C94E0180C94B91820910C01F1
:10327000222329F02091800227FD0C9405190C943B
:10328000D318FC01329680910C01882351F0809173
:10329000800287FF06C08EE1DF011D928A95E9F763
:1032A000089586E0F9CF089508950C9454190E946A
:1032B000551980918602843049F11092400288E1CC
:1032C00090E020E40FB6F894A895809360000FBEBC
:1032D0002093600080E00E9469060E94551983B720
:1032E000817F846083BF83B7816083BF7894889532
:1032F00083B78E7F83BF0FB6F894A8958091600046
:10330000886180936000109260000FBE0895089558
:10331000CF930E9453190E9497090E948719C0E019
:103320008C2F0E94DB08892B31F4CF5FC530C1F7A9
:1033300080E0CF91089581E0FCCF08950C949D1911
:103340000E9479110E94730C0E9469060C949E19C8
:103350001F921FB61F9211248F939F93AF93BF9319
:1033600080914002811113C080917C0290917D0276
:10337000A0917E02B0917F024196A11DB11D809364
:103380007C0290937D02A0937E02B0937F02BF9156
:10339000AF919F918F911F901FBE1F90189582E053
:1033A00084BD93E095BD9AEF97BD80936E0008951C
:1033B0002FB7F89480917C0290917D02A0917E02BB
:1033C000B0917F022FBF08952FB7F89460917C02CF
:1033D00070917D0280917E0290917F022FBF0895AF
:1033E0009C014FB7F89480917C0290917D02A0914E
:1033F0007E02B0917F024FBF821B930B0895789499
:103400001F921FB61F9211248F939F93AF93BF9368
:1034100080917C0290917D02A0917E02B0917F020A
:103420000196A11DB11D80937C0290937D02A09313
:103430007E02B0937F02BF91AF919F918F911F90B9
:103440001FBE1F90189581E08093E00080E280937A
:10345000D8001092C9008FE19EE40197F1F700C0F7
:10346000000087E090EBDC0180938F029093900244
:10347000A0939102B093920288E19CE00FB6F89479
:10348000A895809360000FBE90936000FFCF0E94CC
:10349000D117811102C00E946E180E94DC17809320
:1034A0003F020E94E41790938102809380020E9461
:1034B000E017682F70E090E080E00C941115CF9336
:1034C000C82F1F928F9380E193E09F938F930E9468
:1034D000FB0561E070E080E090E004C0660F771FBC
:1034E000881F991FCA95D2F70E9411150F900F904F
:1034F0000F900F90CF910C947911CF93DF93EBEF56
:10350000E80FEF3308F04FC2F0E0EA5EFA4D0C949A
:10351000AE248DE798E00E94620589EB97E00E9457
:1035200062050E94E0171F928F9386EB97E09F93AE
:103530008F930E94FB0584EB97E00E9462050E9436
:10354000DC17C82F81EA97E00E9462051F92CF9393
:103550008CE997E09F938F930E94FB058AE997E09F
:103560000E94620580E997E00E9462058C2F8170BD
:103570001F928F938DE897E09F938F930E94FB0596
:103580008BE897E00E94620581E897E00E9462055F
:10359000C1FB882780F91F928F938EE797E09F9356
:1035A0008F930E94FB058CE797E00E94620580E7FD
:1035B00097E00E946205C2FB882780F91F928F93D3
:1035C0008DE697E09F938F930E94FB058BE697E033
:1035D0000E94620582E697E00E946205C3FBCC2749
:1035E000C0F91F92CF938FE597E09F938F930E942E
:1035F000FB058DE597E00E9462050E94E417EC014F
:1036000089E497E00E946205DF93CF9384E497E01A
:103610009F938F930E94FB0582E497E00E946205CE
:1036200089E297E00E9462058C2F81701F928F9330
:1036300086E297E09F938F930E94FB058DB79EB71C
:1036400080960FB6F8949EBF0FBE8DBF84E297E0C0
:103650000E9462058DE097E00E946205C1FB882709
:1036600080F91F928F938AE097E09F938F930E9437
:10367000FB0588E097E00E94620586EF96E00E94D5
:1036800062058D2F81701F928F9383EF96E09F9339
:103690008F930E94FB0581EF96E00E9462058FEDFB
:1036A00096E00E946205D695D1701F92DF938CED53
:1036B00096E09F938F930E94FB058AED96E00E940F
:1036C000620588EC96E00E946205C2FB882780F9BB
:1036D0001F928F9385EC96E09F938F930E94FB053A
:1036E00083EC96E00E94620581EB96E00E94620501
:1036F000C3FB882780F91F928F938EEA96E09F93F1
:103700008F930E94FB058CEA96E00E94620582EA94
:1037100096E00E946205C4FB882780F91F928F9370
:103720008FE996E09F938F930E94FB058DE996E0C9
:103730000E9462058BE896E00E946205C5FB88271F
:1037400080F91F928F9388E896E09F938F930E9451
:10375000FB0586E896E00E9462058AE696E00E94F4
:103760006205C6FB882780F91F928F9387E696E053
:103770009F938F930E94FB058DB79EB780960FB6DF
:10378000F8949EBF0FBE8DBF85E696E00E9462054D
:103790008DE596E00E946205C7FBCC27C0F91F9219
:1037A000CF938AE596E09F938F930E94FB0588E56F
:1037B00096E00E9462050F900F900F900F9081E0AD
:1037C0001CC08CE698E00E9462050E946E18F7CF3C
:1037D00086EA94E00E946205F2CF80913F02807FEA
:1037E00080933F028BE894E00E94620588E698E0AF
:1037F0000E94620581E080934102DF91CF9108959C
:103800000E9479118CE498E00E9462059FEF23EDFD
:1038100080E3915020408040E1F700C000000E940A
:10382000231ACDCF90913F02892F8E7F90FF816028
:1038300080933F0280FF03C080E498E0CBCF83E316
:1038400098E00E94620580913F02817F80933F0251
:10385000B6CF90913F02892F8D7F91FF8260809338
:103860003F0281FF08C086E298E00E9462058091D5
:103870003F028160EBCF88E198E0ACCF90913F02AE
:10388000892F8B7F92FF846080933F0282FF03C069
:1038900089E098E0EACF89EF97E09CCF90913F02D2
:1038A000892F877F93FF886080933F0283FF03C047
:1038B0008DEE97E0DACF80EE97E08CCF8CE794E046
:1038C0000E94620583E694E00E9462058DE294E026
:1038D0000E94620583EF93E00E94620581EC93E011
:1038E0000E94620586E993E075CF88E893E00E9424
:1038F00062050E94730C1F928F938EE693E09F9354
:103900008F930E94FB0580910C011F928F9387E596
:1039100093E09F938F930E94FB05809166021F9214
:103920008F9384E493E09F938F930E94FB05809193
:10393000800287FB882780F91F928F938CE293E0A7
:103940009F938F930E94FB050E94E4199F938F938E
:103950007F936F9385E193E09F938F930E94FB0584
:103960008DB79EB746960FB6F8949EBF0FBE8DBF1B
:1039700026CF0E94791190918002892F97FB87F9B9
:1039800080588093800287FF03C086ED97E022CFA6
:103990008BEC97E01FCF80E00E945F1A10CF895315
:1039A000FBCF8D51F9CF89EC97E00E94620580E052
:1039B00024CF80E008950C94D91CCF93C82F809118
:1039C0004102882331F0813099F01092410280E069
:1039D0000DC00E94F8168232D1F78C2F0E94D91C9C
:1039E000811119C08C2F0E947D1A8170CF9108958A
:1039F0000E94F816823289F38C2F0E94DB1C811101
:103A000019C0C431C9F050F4CB3061F08AE093E0C2
:103A10000E94620513C081E090E0E7CFC93261F0F7
:103A2000C833A1F78BE894E00E9462058CE093E034
:103A30000E94620581E0D9CF1092410280E0D5CF8B
:103A400080916502089508959FB7F89410924402FA
:103A50009FBF90918602943009F048C02091E90000
:103A60002F703091EC00932F917030FD90E8922BE5
:103A700023E02093E9002091EB0020FF34C0209147
:103A8000EE0027FF30C020914202222321F0209136
:103A9000E80025FF28C01092420226E03091E8009D
:103AA00035FF14C08093F1008091E80085FD27C0A8
:103AB0008091E80080FFFCCF8091E8008E778093B2
:103AC000E8009F709093E90080E0089530918602AD
:103AD000343049F43091EB0035FD05C0215041F4FC
:103AE00081E0809342029F709093E9008FEF0895E8
:103AF000EFE9FFE03197F1F700C00000CFCF8FB7BB
:103B0000F89421E0209344028FBFDBCFCF93DF9363
:103B100000D00F92CDB7DEB790918602943019F5A0
:103B200089837B836A8382E08093E9008FEF9091A1
:103B3000E800815095FD06C095ED9A95F1F70000DB
:103B40008111F5CF8091E80085FF0DC050E040E085
:103B500063E070E0CE0101960E9412208091E8009F
:103B60008E778093E8000F900F900F90DF91CF91A8
:103B70000895CF93DF93EC010E94F51F823011F07E
:103B8000843031F4BE0184E0DF91CF910C94861D26
:103B9000DF91CF910895BC0183E00C94861DCF93F3
:103BA000DF93EC010E94F51F823011F08430B9F5EB
:103BB00080910C018823B1F18091800287FF32C08F
:103BC00060E282E08093E9008FEF9091E8008150FD
:103BD00095FD06C095ED9A95F1F700008111F5CF9E
:103BE0008091E80085FF1BC080910C0170E050E0DF
:103BF00040E0811104C050E040E068E070E0CE0198
:103C00000E9412208091E8008E778093E80080E285
:103C1000FE01A5E4B2E001900D928A95E1F7DF91F3
:103C2000CF91089568E081E0CDCF8DEA98E00E94C1
:103C3000620580918502811109C00E94A2210E9423
:103C4000FF218091E20084608093E200089589EA78
:103C500098E00E94620510928502089585EA98E036
:103C60000C94620581EA98E00C9462058DE998E075
:103C70000E9462050C94A019209143022F5F822FAD
:103C800062E30E94A224992319F02093430208952D
:103C900010924302809144028823F1F080918602C1
:103CA0008430C1F49091E9009F702091EC00822F44
:103CB000817020FD80E8892B93E09093E90090913A
:103CC000EB0090FF04C09091EE0097FD08C08F704C
:103CD0008093E9001092440208951092F1009091AF
:103CE000E80095FDFACF9091E80090FFF0CF909119
:103CF000E8009E779093E800EACF42E061EC81E033
:103D00000E941E2142E261EC82E00E941E2142E2FA
:103D100061EC83E00C941E2180918802833009F4C9
:103D20005FC030F48130C1F1823009F49BC0089546
:103D30008A3009F487C08B3009F46DC0893009F0EE
:103D40004EC080918702813209F049C080918B0278
:103D500090918C02029708F042C08091E800877F22
:103D60008093E8008091E80082FF35C09091F300D5
:103D70008091F200029729F48091F1008B7F8130CD
:103D800021F48091F100809365028091E8008B77A7
:103D90008093E8000C94522180918702813AF9F4D3
:103DA0008091E800877F8093E80080918B0290915A
:103DB0008C02892B61F460E285E492E070E00E945D
:103DC00061208091E8008B778093E800089560E09F
:103DD00090E080E0F3CF809186028111C3CF0895F7
:103DE00080918702813AD9F780918B0290918C0261
:103DF000892BA9F78091E800877F8093E800809164
:103E0000E80080FFFCCF80910C018093F10080914D
:103E1000E8008E77BDCF80918702813201F78091D3
:103E20008B0290918C02892BD1F68091E800877FDC
:103E30008093E8000E9452218091890280930C01B6
:103E40000C94791180918702813249F68091E800C3
:103E5000877F8093E8000E94522180918A0280939C
:103E60006602089580918702813A09F0B8CF809167
:103E7000E800877F8093E8008091E80080FFFCCF16
:103E800080916602C2CF84B7877F84BF0FB6F89453
:103E9000A895809160008861809360001092600016
:103EA0000FBE80E890E00FB6F89480936100909385
:103EB00061000FBE0E94140D0E94A2210E94FF21EA
:103EC0008091E20084608093E20084E29DE10E94A0
:103ED000A71778940E9487240E941C0D82E091E02D
:103EE0000E946E0C8CE898E00E9462058091860228
:103EF000853019F00E944C0DF9CF88E898E00E94B7
:103F000062050E94571980918402882379F30E94E8
:103F10008819882359F30E94FC1FE8CF0C94901F46
:103F2000292F33272330310521F168F42130310561
:103F300009F449C02230310509F44AC090E080E01C
:103F400030E020E029C02132310581F122323105F3
:103F5000A9F76330710590F7FB01EE0FFF1FEB57D8
:103F6000FE4F208131816E577E4FFB01808190E0B2
:103F700013C099278130910599F0009741F0823064
:103F8000910589F00397D1F6E1EBF8E002C0E9ED85
:103F9000F8E0849190E09F01FA0131832083089535
:103FA000EFECF8E0F6CFE7EBF8E0F3CF6330710524
:103FB00028F6660F771FFB01E557FE4F2081318100
:103FC00089E090E0E9CF82E190E028E339E0E4CFB6
:103FD0008BE590E02DED38E0DFCF809186028430D4
:103FE00011F482E0089581E00895809167028111C3
:103FF00002C00C94ED1F089580E189BD82E189BD66
:1040000009B400FEFDCF8091D8008F7D8093D80049
:104010008091E00082608093E0008091E00081FD6B
:10402000FCCF0895AF92BF92CF92DF92FF920F9391
:104030001F93CF93DF936C01EB018A010E947121E2
:10404000F82E811123C00115110539F0F801808186
:104050009181C81BD90BC80ED91EB12CA12C209759
:10406000A9F08091E80085FD22C08091E8008E775C
:104070008093E80001151105A1F0F801808191817C
:10408000A80EB91EB182A08285E0F82E8F2DDF9197
:10409000CF911F910F91FF90DF90CF90BF90AF9085
:1040A00008950E9471218823D1F2F82EEFCFF601F6
:1040B00081916F018093F1002197FFEFAF1ABF0A42
:1040C000CECFFC0180918D0290918E0286179707CA
:1040D000A0F06115710529F49091E8009E77909306
:1040E000E80090E06115710551F4911108C08091CC
:1040F000E80082FF34C080E00895BC01F2CF8091D7
:1041000086028823C1F18530C1F18091E80083FDEA
:1041100030C08091E80082FDEACF8091E80080FF06
:10412000E1CF8091F3002091F200382F61157105E5
:1041300019F02830310558F091E02830310509F0A8
:1041400090E02091E8002E772093E800CBCF81917A
:104150008093F100615071092F5F3F4FE7CF80914D
:104160008602882341F0853041F08091E80083FF8A
:10417000BECF81E0089582E0089583E00895FC01B8
:1041800080918D0290918E0286179707A0F061159D
:10419000710529F48091E8008E778093E80090E023
:1041A0006115710551F4911108C08091E80082FFFA
:1041B00035C080E00895BC01F2CF8091860288234B
:1041C000C9F18530C9F18091E80083FD31C080914B
:1041D000E80082FDEACF8091E80080FFE1CF809186
:1041E000F3002091F200382F6115710519F0283085
:1041F000310558F091E02830310509F090E08091C8
:10420000E8008E778093E800CBCF84918093F10013
:104210003196615071092F5F3F4FE6CF8091860242
:10422000882341F0853041F08091E80083FFBDCFC5
:1042300081E0089582E0089583E00895982F9730F3
:1042400028F08F708093E90081E008959093E90051
:10425000242F762F50E0981731F07091EC002091C8
:10426000ED005091F00021FD02C09F5FE8CF30913A
:10427000EB003E7F3093EB003091ED003D7F3093BB
:10428000ED003091EB0031603093EB007093EC0067
:104290002093ED005093F0002091EE0027FDE5CF34
:1042A00080E008958091870287FF13C08091E80025
:1042B00082FF06C08091E8008B778093E80004C0FD
:1042C000809186028111F2CF089580918602882321
:1042D000D9F38091E80080FFF8CF8091E8008E77D5
:1042E000ECCF2091E4003091E50095E6A901209102
:1042F000EC00822F817020FF06C08091E80080FFD3
:1043000006C080E008952091E80022FD1AC0809147
:104310008602882389F0853089F08091EB0085FD45
:104320000FC02091E4003091E50042175307F9F2E5
:104330009150E1F684E0089582E0089583E00895C5
:1043400081E008950E9410220E941822E0EEF0E021
:10435000808181608083E8EDF0E080818F778083C9
:1043600019BCA7EDB0E08C918E7F8C9380818F7EFD
:1043700080831092850208950F931F93CF93DF934C
:104380000E9410220E941822C8EDD0E088818F7709
:10439000888388818068888388818F7D888319BC21
:1043A000109286021092820210928402109283026E
:1043B00000EE10E0F80180818B7F8083888181602E
:1043C000888342E060E080E00E941E21E1EEF0E0A0
:1043D00080818E7F8083E2EEF0E080818160808347
:1043E000808188608083F80180818E7F80838881CE
:1043F00080618883DF91CF911F910F910895E8ED3F
:10440000F0E080818F7E8083E7EDF0E08081816045
:10441000808384E082BF81E0809385020C94BC217C
:10442000E8EDF0E080818E7F80831092E2000895B5
:104430001092DA001092E10008951F920F920FB6C9
:104440000F9211242F933F934F935F936F937F931A
:104450008F939F93AF93BF93EF93FF938091E1006E
:1044600082FF0BC08091E20082FF07C08091E100D3
:104470008B7F8093E1000E943C1E8091DA0080FFD8
:1044800019C08091D80080FF15C08091DA008E7F1E
:104490008093DA008091D90080FF96C080E189BDC9
:1044A00082E189BD09B400FEFDCF81E080938602E0
:1044B0000E94151E8091E10080FF19C08091E200EA
:1044C00080FF15C08091E2008E7F8093E200809192
:1044D000E20080618093E2008091D8008062809346
:1044E000D80019BC85E0809386020E94321E80911C
:1044F000E10084FF2BC08091E20084FF27C080E1AF
:1045000089BD82E189BD89B5982F917080FFFBCF6D
:104510008091D8008F7D8093D8008091E1008F7EBC
:104520008093E1008091E2008F7E8093E200809191
:10453000E20081608093E20080918202882309F486
:1045400049C084E0809386020E94361E8091E1007B
:1045500083FF29C08091E20083FF25C08091E100A4
:10456000877F8093E10082E080938602109282022E
:104570008091E1008E7F8093E1008091E2008E7F48
:104580008093E2008091E20080618093E20042E04B
:1045900060E080E00E941E218091F000886080939E
:1045A000F0000E942E1EFF91EF91BF91AF919F915D
:1045B0008F917F916F915F914F913F912F910F90CC
:1045C0000FBE0F901F90189519BC109286020E9482
:1045D000271E70CF8091E30087FD93E090938602C1
:1045E000B3CF1F920F920FB60F9211242F933F93C8
:1045F0004F935F936F937F938F939F93AF93BF93EB
:10460000CF93DF93EF93FF93D091E900DF70809118
:10461000EC00C82FC17080FDC0E81092E9008091C5
:10462000F000877F8093F00078940E9435231092E9
:10463000E9008091F00088608093F000CD2BCF706E
:10464000C093E900FF91EF91DF91CF91BF91AF91BE
:104650009F918F917F916F915F914F913F912F919A
:104660000F900FBE0F901F9018951F93CF93DF935D
:10467000CDB7DEB7AA970FB6F894DEBF0FBECDBF99
:1046800087E892E02091F100FC012193CF01F2E054
:104690008F389F07B9F70E948C1E8091E80083FF36
:1046A0001EC180918702909188029A3008F017C14C
:1046B000E92FF0E0EB5AFA4D0C94AE24803899F0D3
:1046C000823809F00CC180918B028F70873008F01E
:1046D00006C18093E9008091EB0085FB882780F973
:1046E0001092E90006C0809183029091840291119A
:1046F00082609091E800977F9093E8008093F100AA
:104700001092F1008091E8008E77E5C0882309F4CB
:10471000D3C0823009F0E3C0809189028111D6C0F4
:1047200080918B028F702FEF280F263008F0D7C0B2
:104730008093E9002091EB0020FFC8C0933031F452
:104740008091EB0080628093EB00C0C09091EB0001
:1047500090619093EB0021E030E001C0220F8A9538
:10476000EAF72093EA001092EA008091EB0088605B
:10477000EACF8111B4C0109189021F778091E300C4
:104780008078812B8093E3008091E800877F80937D
:10479000E8000E9452218091E80080FFFCCF8091C8
:1047A000E30080688093E30082E0111183E080934E
:1047B000860295C08058823008F091C080918902AD
:1047C00090918A028C3D23E09207A1F583E08A83D1
:1047D0008AE289834FB7F894DE01139620E03EE029
:1047E00051E2E32FF0E050935700E49120FF03C023
:1047F000E295EF703F5FEF708E2F90E0EA30C0F0EF
:10480000C7968D939D932F5F243159F74FBF8091A9
:10481000E800877F8093E8006AE270E0CE010196AD
:104820000E9461208091E8008B778093E80057C058
:10483000C096E7CF60918B0270918C02AE014F5F02
:104840005F4F0E948E1FBC01892B09F448C09091D4
:10485000E800977F9093E80089819A810E94BF20A9
:10486000E1CF8038E1F58091E800877F8093E80010
:10487000809182028093F10045CF811130C09091E8
:104880008902923060F58091E800877F8093E8008C
:10489000909382020E94522180918202882311F01B
:1048A00084E005C08091E30087FDFACF81E080932A
:1048B00086020E947D1E13C080918902813079F4A6
:1048C00081E0933009F080E0809384021092E90047
:1048D0008091E800877F8093E8000E9452218091B8
:1048E000E80083FF0AC08091E800877F8093E8009A
:1048F0008091EB0080628093EB00AA960FB6F8944B
:10490000DEBF0FBECDBFDF91CF911F910895CF9332
:10491000809186028823A1F0C091E900CF70909128
:10492000EC00892F817090FD80E8C82B1092E9007F
:104930008091E80083FD0E943523CF70C093E90089
:10494000CF910895991B79E004C0991F961708F03C
:10495000961B881F7A95C9F780950895EE0FFF1F63
:104960000590F491E02D0994F999FECF92BD81BD97
:10497000F89A992780B50895A8E1B0E042E050E0A8
:104980000C94E824262FF999FECF92BD81BDF89AA8
:10499000019700B4021639F01FBA20BD0FB6F89483
:1049A000FA9AF99A0FBE08950396272F0E94C324FE
:1049B0000E94C224252F0E94C324242F0C94C324B8
:1049C0000196272F0E94C3240C94C224DC01CB0142
:1049D000FC01F999FECF06C0F2BDE1BDF89A31960F
:1049E00000B40D9241505040B8F70895F894FFCFAD
:1049F0005D0F5D0FB50FB50F07108A0F8A0F8A0F75
:104A00002310AF10BE10BE101A118A0F8A0F231187
:104A10008811881191119111931191119111911196
:104A2000881188119811911191119811001CED1B9A
:104A3000121C891AD31CD31CE81BD31CD31C3E1C8C
:104A4000D31C4E1CB91CD31CD31CD31CD31C751CEB
:104A5000D31CD31C5E1CD31C291CD31CD31CD11CFF
:104A6000D11CD11CD11CD11CD11CD11CD11CD11CDE
:104A7000CB1CD31C001CE11BD31CD31CD31CD31C8C
:104A8000D31CD31CD31CD31CD31CD31CCB1CD31CB6
:104A9000D31CE81BD31CCF1CCF1CCF1CCF1CCF1C9E
:104AA000CF1CCF1CCF1CCF1CCB1C5E2386236F24B6
:0E4AB00086236F24B923DA236F2431243D249A
:104ABE001C02201DCF1D231DCB1DB91D01E200E9D7
:104ACE0000EA00B500B600B700CD008301CC008A25
:104ADE0001920194012102230224022502260227BB
:104AEE00022A02B300B4006F007000818283F7C601
:104AFE00676697969594939237363530F0F1F4F5C4
:104B0E00F6E200E900EA00B500B600B700CD00837A
:104B1E0001CC008A01920194012102230224022574
:104B2E0002260227022A02B300B4006F0070008131
:104B3E008283406D22D9096C094A09EF08080921C0
:024B4E0009005C
:00000001FF
