:100000000C940A050C9451050C9451050C9451055F
:100010000C9451050C9451050C9451050C94510508
:100020000C9451050C9451050C941A220C94EE2258
:100030000C94A5190C9451050C9451050C94510580
:100040000C9451050C9451050C9451050C945105D8
:100050000C9451050C94FC190C9451050C94510509
:100060000C9451050C9451050C9451050C945105B8
:100070000C9451050C9451050C9451050C945105A8
:100080000C9451050C9451050C9451050C94510598
:100090000C9451050C9451050C9451050C94510588
:1000A0000C9451050C9451050C9451052900350010
:1000B0001E001F0020002100220023002400250034
:1000C000260027002D002E002B0014001A00080027
:1000D000150017001C0018000C00120013002F0060
:1000E00030002A00390004001600070009000A0049
:1000F0000B000D000E000F0033003400320028000A
:10010000E10036021D001B00060019000500110069
:100110001000360037003800E500E600E000E2009D
:10012000E3002C00E70001510251E40001204C00E3
:100130000000000000000000005C01003A003B00ED
:100140003C003D003E003F004000410042004300B3
:1001500044004500010001005200010001000100BF
:1001600001000100010001000100010001004C003C
:100170000100500051004F000100010050005100EB
:1001800052004F00010001000100AE00010001001B
:100190000100010001000100010001000100010057
:1001A0000100010001000100E000E200E3002C007A
:1001B000E70001000100E400010001000000000070
:1001C0000000000001000100010001000100010029
:1001D0000100010001000100010001000100010017
:1001E0000100010001000100010001000100010007
:1001F00001000100010001000100010001000100F7
:1002000001000100010001000100010001000100E6
:1002100001000100010001000100010001000100D6
:1002200001000100010001000100010001000100C6
:1002300001000100010001000100010001000100B6
:1002400001000100010001000000000000000000AA
:1002500044454255473A2064697361626C65642E77
:100260000A0044454255473A20656E61626C6564F8
:100270002E0A000A002530313662003A200025306F
:100280003258000A722F632030313233343536371A
:1002900038394142434445460A000A002530325865
:1002A00020006B6579626F6172645F7265706F7256
:1002B000743A20000A0025303258006B6579626F6D
:1002C0006172645F7365745F6C65643A2000646595
:1002D0006C5F6B65795F6269743A2063616E277445
:1002E0002064656C3A20253032580A006164645FEE
:1002F0006B65795F6269743A2063616E277420616F
:1003000064643A20253032580A003F00433E200002
:100310004C25640A0074696D65725F7265616433AF
:100320003228293A202530346C580A006B65796DE3
:1003300061705F636F6E6669672E6E6B726F3A20D5
:1003400025580A006B6579626F6172645F69646C3D
:10035000653A2025580A006B6579626F6172645FA7
:1003600070726F746F636F6C3A2025580A00686F63
:1003700073745F6B6579626F6172645F6C656473DF
:1003800028293A2025580A000A092D20537461743F
:100390007573202D0A004743433A20382E332E3000
:1003A000204156522D4C4942433A20322E302E30B5
:1003B000204156525F415243483A20617672350AD5
:1003C000004F5054494F4E533A204C55464120451A
:1003D000585452414B455920434F4E534F4C4520A2
:1003E000434F4D4D414E44204E4B524F20343039F7
:1003F000360A004255494C443A2022302E382E31DC
:1004000033322D32352D676663623138322D64699F
:1004100072747922202831313A33363A3131204111
:1004200070722032372032303230290A0056494467
:100430003A203078303345422855414329205049ED
:10044000443A203078324646342841546D33325590
:100450003444465529205645523A203078303030C1
:10046000320A00444553433A2044455343524950CD
:1004700054494F4E0A000A092D2056657273696F60
:100480006E202D0A000A092D20436F6E736F6C6574
:10049000202D0A4553432F713A09717569740A007A
:1004A0000A092D204D61676963202D0A443A0944E9
:1004B00065627567204D65737361676520546F676A
:1004C000676C650A583A094D617472697820446511
:1004D000627567204D6F646520546F67676C652097
:1004E0002D2053686F77206B657970726573736523
:1004F0007320696E206D6174726978206772696417
:100500000A4B3A094B6579626F61726420446562F7
:10051000756720546F67676C65202D2053686F776F
:10052000206B65797072657373207265706F727479
:100530000A4D3A094465627567204D6F75736520F1
:10054000546F67676C650A563A0956657273696F2E
:100550006E0A533A095374617475730A433A094138
:100560006374697661746520436F6E736F6C652088
:100570004D6F64650A46312D4631303A095377692B
:1005800074636820746F204C6179657220302D3956
:100590002028463130203D204C30290A302D393A70
:1005A0000953776974636820746F204C61796572B0
:1005B00020302D390A47524156453A09537769741C
:1005C000636820746F204C61796572203020286147
:1005D0006C7465726E617465290A423A094A756DD8
:1005E0007020746F20426F6F746C6F616465720A63
:1005F0004553433A094A756D7020746F20426F6FFE
:10060000746C6F616465722028616C7465726E61D0
:100610007465290A453A095072696E74204545503F
:10062000524F4D2053657474696E67730A4253507C
:100630004143453A09436C65617220454550524F2C
:100640004D0A4E3A094E4B524F20546F67676C6506
:100650000A000A002575002E6E6B726F3A20000AA0
:10066000002575002E737761705F6261636B736C38
:100670006173685F6261636B73706163653A2000E8
:100680000A002575002E737761705F677261766569
:100690005F6573633A20000A002575002E6E6F5F58
:1006A0006775693A20000A002575002E737761701E
:1006B0005F72616C745F726775693A20000A002589
:1006C00075002E737761705F6C616C745F6C677519
:1006D000693A20000A002575002E737761705F72F9
:1006E00063746C5F726775693A20000A00257500B3
:1006F0002E737761705F6C63746C5F6C6775693AB9
:1007000020000A002575002E636170736C6F636BA7
:100710005F746F5F636F6E74726F6C3A20000A00D3
:100720002575002E737761705F636F6E74726F6CE6
:100730005F636170736C6F636B3A20000A00253051
:100740003258006B65796D61705F636F6E666967C3
:100750002E7261773A20000A002575002E6D6F75A4
:1007600073653A20000A002575002E6B6579626F6B
:100770006172643A20000A002575002E6D61747262
:1007800069783A20000A002575002E656E61626C5A
:10079000653A20000A0025303258006465627567AA
:1007A0005F636F6E6669672E7261773A20000A0098
:1007B00025750064656661756C745F6C617965723E
:1007C0003A20003F004E4B524F3A206F66660A00B7
:1007D0004E4B524F3A206F6E0A000A6D6F7573656B
:1007E0003A206F66660A000A6D6F7573653A206F6E
:1007F0006E0A000A6B6579626F6172643A206F66F7
:10080000660A000A6B6579626F6172643A206F6EE6
:100810000A000A6D61747269783A206F66660A0090
:100820000A6D61747269783A206F6E0A000A646515
:100830006275673A206F66660A000A6465627567CA
:100840003A206F6E0A000A0A4A756D70696E672059
:10085000746F20626F6F746C6F616465722E2E2EE0
:100860002000433E2000436C656172696E6720453D
:100870004550524F4D0A006565636F6E6669673A71
:100880000A005B735D004B6579626F61726420736F
:10089000746172742E0A005B575D005B535D005BF0
:1008A000525D005B445D005B435D0004033000006B
:1008B000001603410054006D00330032005500342F
:1008C0000044004600550000000803550041004365
:1008D0000000000403090409025B00030100A0FA00
:1008E0000904000001030101000921110100012296
:1008F00040000705810308000A0904010001030004
:100900000000092111010001226D0007058203206A
:10091000000A09040200020300000009211101007D
:10092000012222000705830320000107050303209D
:1009300000011201100100000008EB03F42F020077
:10094000010203010631FF0974A101097515002692
:10095000FF009520750881020976150026FF009595
:100960002075089102C005010980A10185031901C4
:100970002AB700150126B700950175108100C00542
:100980000C0901A101850419012AA002150126A064
:1009900002950175108100C005010906A1018505B8
:1009A000050719E029E71500250195087501810261
:1009B0000507190029EF1500250195F07501810241
:1009C0000508190129059505750191029501750321
:1009D0009101C005010906A101050719E029E715E4
:1009E00000250195087501810295017508810105B1
:1009F00007190029FF150026FF00950675088100DC
:100A000005081901290595057501910295017503E0
:100A10009101C00011241FBECFEFDAE0DEBFCDBFD1
:100A200004B603FE27C080918F0290919002A0919E
:100A30009102B09192028730904BA740B04BD1F415
:100A400010928F02109290021092910210929202D4
:100A500014BE84B7877F84BF0FB6F894A8958091A1
:100A60006000886180936000109260000FBEE0E03B
:100A7000F8E3099511E0A0E0B1E0E8EBFAE402C088
:100A800005900D92A239B107D9F722E0A2E9B1E0B1
:100A900001C01D92AF38B207E1F70E94401F0C94CD
:100AA000F3240C940000FF93EF93E0919201F091F6
:100AB0009301309709F00995EF91FF910895FC019A
:100AC0008591803011F0EFDFFBCF0895FF27E0E242
:100AD00030E247FF0CC0419597FF09C0EDE26095F9
:100AE000709580959095611D711D811D911D27FF49
:100AF00002C0219530E350E2AA27660F771F881FB6
:100B0000991FAA1FA41710F0A41B63955A95A9F763
:100B1000AA3008F0A95FA05DAF93F3956115710548
:100B20008105910541F7ED3211F4EF93F395F2173A
:100B300018F43F93F395FBCF8F91B5DFFA95E1F76A
:100B40000895E991F9918591803021F0853219F06D
:100B5000AADFF9CF089520E0E89455915532C1F30A
:100B6000503311F4689455915A3348F4505390F32C
:100B7000220F022E220F220F200D250FF4CF0EF48C
:100B8000219589919991533619F3533729F15335AA
:100B900059F1BC0188279927E8945C3621F48991A2
:100BA000999168945591543639F446EF7EF077FF69
:100BB0000DC08FEF9FEF0AC055374AE039F0583526
:100BC00040E121F0523642E009F00895FF93EF939F
:100BD0007DDFEF91FF91B7CFFF93EF93FC01819100
:100BE0008030B9F360DFFBCFFF93EF9368DFF1CF85
:100BF000DF93CF93CDB7DEB72596A3DFCF91DF91FB
:100C000008950C94D6080C94D70881E0089581E0EB
:100C100008950C94070608950C940B061F93CF9328
:100C2000DF9300D000D00F92CDB7DEB749835A834F
:100C30006B833091AC0189819A8131111DC066238B
:100C4000B9F02223A9F00E946016182F682F89811D
:100C50009A810E940C1669817A81812F0F900F90E2
:100C60000F900F900F90DF91CF911F910C94D406AD
:100C70000E943816182FEFCF0E94601669817A8182
:100C8000EDCFFC01262F40815181628173818481E7
:100C90000C940E06CF93DF93EC0160E00E944106B6
:100CA000BE01DF91CF910C940C060E94CE178111EA
:100CB00002C00E946B180C9401060C940306089560
:100CC0000C945F0681E008950C946206CF93C82FC0
:100CD0000E9460068C2FCF910C94640608950E94A8
:100CE00076110E946E062FEF84E39CE02150804035
:100CF0009040E1F700C000000C94201A0F931F935E
:100D0000CF93DF93EC0161E00E9441068C01BE01AC
:100D10000E940906882311F1BE01C8010E94DD0A64
:100D20008823E1F0BE01C8010E941E0B8823B1F0A8
:100D3000BE01C8010E94410C882381F08A8188236A
:100D400041F101308CE5180779F00E3D8CE518076C
:100D5000E9F001151C45E9F40E946F0680E0DF917F
:100D6000CF911F910F91089590913F02892F8E7F0F
:100D700090FF816080933F0280FF05C082E692E091
:100D80000E945F05EBCF80E592E0FACF0E946B18DE
:100D9000E5CFCE01DF91CF911F910F910C94050605
:100DA00090E080E008950895972F70E02EE0929FE4
:100DB000600D711D1124FB0196E4899FE00DF11D6A
:100DC0001124EE0FFF1FE455FF4F85919491089574
:100DD000FC01EE0FFF1FED58FD4F85919491089592
:100DE000CF93DF930E94D4060E94FC07EC0181158B
:100DF00020E5920708F041C0811530E4930708F020
:100E0000B4C0803E910518F5803C910508F09DC066
:100E1000883A910570F4853A910508F08EC08130CA
:100E20009105F9F00097E9F00497D8F4D0E0C0E01C
:100E300018C08F3B9105D0F7C85AD0E0CC0FDD1F0A
:100E4000C35FDE4F0990D881C02DD4640AC08115DC
:100E5000904258F4C11581E0D80718F4C83ED10576
:100E600028F7CE01DF91CF910895C11590E3D907FE
:100E700008F071C0CE019F706AC0811525E5920708
:100E800058F5811534E5930708F09EC0811542E5B9
:100E9000940750F4C11581E5D80708F469C0DC2F28
:100EA000CC27C16FD06ADDCF982F969596959E017D
:100EB00023703327C115D34508F077C0C1E0D0E0D7
:100EC00002C0CC0FDD1F2A95E2F720E2929FC001FD
:100ED0001124C82BD92B67C0C11589E5D807A8F400
:100EE000C11598E5D90708F074C0C11526E5D207E9
:100EF00008F09CCF8C2F0E949308C82FD0E0DC2FE5
:100F0000CC27CC27DF71D062ACCFC1153AE5D3072F
:100F100008F464C0CE0190568115904208F086CF47
:100F20008D2F8F710E94930890E0982F8827882733
:100F30009F719C012C2BE901E6CFC55AD0E0C55C1E
:100F4000DE4FC881D0E0D0648CCF805C91090E94D4
:100F5000E806EC0186CFCE019927D3FF03C0EC0150
:100F6000D86C7FCFEC01D06C7CCFDF70D06A79CFAA
:100F7000CE01E4E096958795EA95E1F783702C2FF2
:100F800026952695237090E2299F90011124382BF5
:100F90008C2F8370C1E0D0E002C0CC0FDD1F8A959A
:100FA000E2F7C22BD32BDC685CCFC1E0D0E002C0FB
:100FB000CC0FDD1F2A95E2F730E2939FC001112488
:100FC000C82BD92BDA684DCFD82FCC27C46FD06A65
:100FD00048CFDC2FCC27C06FD06A43CF8C2F8F70C7
:100FE0000E94930834E0D695C7953A95E1F7CF7003
:100FF0009C2FEC01D06935CF82389105B1F1B0F466
:101000008133910509F475C048F48932910509F4DA
:1010100069C08A32910509F473C00895853391053A
:1010200009F459C08933910501F10895833E910572
:10103000A9F138F4803E9105F9F0823E910549F11D
:101040000895863E9105A9F1873E9105C9F1843E38
:10105000910519F52091810221FF1FC08091800226
:1010600084FD14C087EE90E00895209180022370E3
:10107000A1F080EE90E008952091800220FD47C00D
:101080003091810230FF09C024FF44C090E080E02D
:1010900004C02091800222FDF7CF089520918002A4
:1010A00022FD3BC03091810230FDE3CF24FFF5CF1C
:1010B000EDCF2091800223FFF0CF24FDE7CFD2CFE8
:1010C0002091800223FD2CC03091810231FFEECFB0
:1010D00084EE90E008952091800225FFDECF89E222
:1010E00090E008952091800225FFD7CF85E390E01E
:1010F00008952091800226FFD0CF8AE290E00895E3
:101100002091800226FFC9CF81E390E0089589E312
:1011100090E0089583EE90E0089582EE90E00895C7
:1011200086EE90E008959091800292FF06C0282FED
:1011300028712830F9F4877F846093FF06C0282F38
:1011400028712831F1F4877E84612091810220FF8B
:1011500006C0382F38713830D9F4877F816021FF7D
:1011600006C0282F28712831D1F4877E816194FD33
:10117000877E0895282F24712430F9F68B7F8860AC
:10118000DCCF282F2471243101F78B7E8861DDCFDD
:10119000382F3171313019F78E7F8860E0CF282FDA
:1011A0002171213121F78E7E8861E1CF0895089564
:1011B000E82FF0E0EE0FFF1FEE58FD4F8081918188
:1011C0000895CF92DF92EF92FF920F931F93CF93E8
:1011D000DF9383E892E00E945F0582E7E82E82E0D9
:1011E000F82ED0E0C0E09EE7C92E92E0D92E05E7A8
:1011F00012E0DF93CF93DF92CF920E94F8058BE746
:1012000092E00E945F05F701819191917F010E9418
:10121000C1179F938F931F930F930E94F80583E745
:1012200092E00E945F0521968DB79EB708960FB693
:10123000F8949EBF0FBE8DBFC530D105D1F6DF91AA
:10124000CF911F910F91FF90EF90DF90CF90089575
:1012500080EA8A95F1F70895CF93DF93AEE3B1E08A
:101260004CE451E0C1E0D0E08D91E82FE295EF70C1
:10127000F0E061A18F709E0101C0220F8A95EAF70C
:10128000922F9095962391A382A1822B82A34A1735
:101290005B0751F7ACE4B1E061E070E08D91E82FBD
:1012A000E295EF70F0E041A18F709B0101C0220F29
:1012B0008A95EAF7922F9095942391A382A1822B8D
:1012C00082A381E0A135B80749F710926902109214
:1012D0006802109273021092720210926B021092C6
:1012E0006A02109275021092740210926D021092AE
:1012F0006C02109277021092760210926F02109296
:101300006E0210927902109278021092710210927D
:10131000700210927B0210927A0285E00E94360AD7
:10132000DF91CF910C9455067F928F929F92AF924E
:10133000BF92CF92DF92EF92FF920F931F93CF93C2
:10134000DF938EE3C82E81E0D82E10E000E0C0E0ED
:10135000EE24E394F12C22E7822E22E0922ED60195
:101360008D916D01E82FE295EF70F0E021A18F7073
:10137000A70102C0440F551F8A95E2F7CA01922FB8
:10138000982B91A392A18095892382A30E9428097A
:101390009701002E02C0220F331F0A94E2F7590171
:1013A000A094B094E8E6F2E04CE451E0D0E0819102
:1013B0009191DA017D90AD01A72DA295AF70B0E0BB
:1013C00090966C9170E0A72DAF7002C075956795EF
:1013D000AA95E2F7DF01129760FD44C0BC01622BC1
:1013E000732B11967C936E936D917C918617970762
:1013F00009F0D1E08E169F06D1F6F6013197808173
:10140000E82FE295EF70F0E041A18F70970101C0E5
:10141000220F8A95EAF7922F9095942391A382A1A7
:10142000822B82A3CD2B0F5F1F4F0E30110509F0C9
:1014300096CF2C2F45E062E772E088E692E00E94AA
:10144000370A0E945D068C2FDF91CF911F910F917B
:10145000FF90EF90DF90CF90BF90AF909F908F90D4
:101460007F900895BC016A217B21BBCF0895FF9234
:101470000F931F93CF93DF93F82E092F162FD72F9B
:10148000C42F222349F081E0809396010E94D51950
:101490009093950180939401809196018823A1F007
:1014A00080919401909195010E94ED19069760F04A
:1014B000EF2DF02FA12FBD2F90E080E0D0E08C1712
:1014C0009D0744F010929601DF91CF911F910F91EB
:1014D000FF900895219131912D933D930196EFCF87
:1014E0000F931F93CF93DF93C62FD42F022FFC01AE
:1014F00082818823C9F0609399010E94D519909345
:1015000098018093970180E28C0F883008F050C0DA
:10151000C77081E001C0880FCA95EAF7DF91CF91CB
:101520001F910F910C94190F10919901161335C04A
:1015300080919701909198010E94ED19883C910546
:1015400060F5C0E2CD0F1D17B9F080E2810F883041
:1015500040F4177081E001C0880F1A95EAF70E94E5
:10156000200FC83048F481E09D2F977001C0880F8C
:101570009A95EAF70E94190F802F0E94060FC83033
:10158000B8F4D77081E001C0880FDA95EAF7DF91EF
:10159000CF911F910F910C94200F80E28C0F883017
:1015A00038F4C77081E001C0880FCA95EAF7EFCF21
:1015B000DF91CF911F910F9108959C01CB01233FA3
:1015C0004CE5340731F190F4283DFCE53F07E9F0A4
:1015D000293D4CE5340769F1273D3C4579F426E285
:1015E00041EE61EE0E94700A80E00895253FFCE51F
:1015F0003F07B9F090F0263F3C45B9F0FC018281ED
:101600008823D1F010929901089527E245EE65EE06
:10161000E9CF26E241EE60EEE5CF27E245EE64EE4B
:10162000E1CF26E241EE62EEDDCF27E245EE66EE47
:10163000D9CF28E241E0EBCF81E00895CF93DF934B
:10164000EC01FB018281882309F419C1C230FCE559
:10165000DF07C0F1C6319CE5D90730F09E012A5F53
:101660003C452930310570F50E94E11790938102C5
:1016700080938002C031ECE5DE0709F4CFC008F0AA
:101680005BC0C8308CE5D80709F4B6C088F5C43013
:10169000ECE5DE0709F4A8C0C0F4C2308CE5D80739
:1016A00009F49CC0809180028260C330DC4509F45B
:1016B00098C080918002909181020E94EF170E9451
:1016C000761180E0DF91CF91089580918002806152
:1016D000C630ECE5DE0709F484C0809180028860A2
:1016E000C730DC4508F47DC080918002806279C0FB
:1016F000CC308CE5D80709F489C070F48091800261
:101700008C60CA30ECE5DE0709F46BC008F478C0E1
:10171000809180028E7F65C0CE308CE5D80709F4B9
:1017200079C0809180028B7FCF30DC4508F459C0AE
:10173000809180028F7E55C0CB3FECE5DE0709F437
:1017400057C030F5C3318CE5D80709F46FC078F481
:10175000C131ECE5DE0709F465C0C231DC4509F0B2
:10176000A8CF0E947611809180028F773AC0C53150
:101770008CE5D80709F462C008F476C08091810234
:101780008160CA3FDC4509F094CF8093810291CFFC
:10179000CF3FFCE5DF0709F44DC088F4809181025A
:1017A0008D7FCD3F9CE5D90781F3809181028E7FAB
:1017B000CE3FDC4550F3809181028360E6CFC1309B
:1017C000FDE5DF0709F459C008F444C080E0C230E9
:1017D000DD4509F06ECF0E946D186BCF80918002BD
:1017E00081608093800265CF809180028460F9CF10
:1017F000809181028260C9CF809180028064F1CFA4
:101800000E947611809180028068EBCF80918002E7
:101810008D7FE7CF80918002877FE3CF8091800228
:101820008F7DDFCF809180028F7BDBCF8091800224
:10183000837FD7CF809181028C7FA7CF8091800258
:1018400082FB992790F921E0922790FB82F990FB87
:1018500083F9C7CF80918102982F909591708E7FE8
:10186000892B90FB81F991CF0E9476119091800293
:10187000892F97FB87F98058B4CF81E0ACCF81E006
:1018800021CFCF93DF93EB0186319C4511F50E9468
:10189000F5169A81992399F08A7A91E009F490E0FB
:1018A00090939A01811109C089E20E94D0160E948A
:1018B000411780E0DF91CF91089585E3F6CF8091C5
:1018C0009A01811104C089E20E94D716F0CF85E306
:1018D000FBCF81E0EFCF9093A00180939F0108950B
:1018E000E0919F01F091A001309721F00190F081EB
:1018F000E02D099480E00895EF92FF920F931F93DB
:10190000CF93DF93EC01E0919F01F091A00130971C
:1019100009F446C080910C01882341F08091800237
:1019200087FF04C08881898385E088830280F381F2
:10193000E02DCE01099580913F0282FF31C080FFEA
:1019400004C082EA92E00E945F0510E000E08CE9AA
:10195000E82E82E0F82E80913F0280FF0EC0FE014B
:10196000E00FF11F80811F928F93FF92EF920E94F0
:10197000F8050F900F900F900F900F5F1F4F0830DA
:10198000110549F780913F0280FF0AC08AE992E081
:10199000DF91CF911F910F91FF90EF900C945F0515
:1019A000DF91CF911F910F91FF90EF9008952091BB
:1019B0009D0130919E012817390771F090939E0187
:1019C00080939D01E0919F01F091A001309721F05B
:1019D0000680F781E02D0994089520919B013091B4
:1019E0009C012817390771F090939C0180939B010B
:1019F000E0919F01F091A001309721F00084F185E2
:101A0000E02D0994089585B7806885BF85B7806803
:101A100085BF0895089508950C940A0D08950C94B7
:101A20000E0D0E94030D0E940B0D0C940C0D81E015
:101A300008950E94CC190E942C090E94441A0C940B
:101A40000F0DCF93C82F80913F0282FF1EC080FFF1
:101A50001CC08BEB92E00E945F0580913F0280FFEB
:101A600014C01F92CF9386EB92E09F938F930E94B6
:101A7000F80580913F020F900F900F900F9080FF1C
:101A800004C084EB92E00E945F058C2FCF910C94F0
:101A900066067F928F929F92AF92BF92CF92DF9213
:101AA000EF92FF920F931F93CF93DF93CDB7DEB7E3
:101AB0002A970FB6F894DEBF0FBECDBF0E949409DF
:101AC0000E94170D882309F46FC042EAA42E41E05A
:101AD000B42E10E000E0702E802F0E94D8086C0118
:101AE000F501819091905F018816990609F456C01E
:101AF00080913F0281FD0E94E10880E0EE24E394A2
:101B0000F12C8C249D2494012E213F21232B09F4B8
:101B10003FC08E837F82CE20DF2081E0CD2809F474
:101B200080E088870E94D5198160782F9A878987FD
:101B30004E815F8168858A850E94F90D000F111F13
:101B4000F801EE55FE4F80819181E826F926F18259
:101B5000E0820E94700C9091A1018917B1F10E945E
:101B6000700C8093A1012A960FB6F894DEBF0FBEC9
:101B7000CDBFDF91CF911F910F91FF90EF90DF903C
:101B8000CF90BF90AF909F908F907F900C94210D3D
:101B90008F5FEE0CFF1C8E3009F0B5CF0F5F1F4F2B
:101BA0000530110509F097CF8FEF89838A831B8257
:101BB0000E94D5198160782F9D838C8349815A8139
:101BC0006B818D810E94F90DC4CF2A960FB6F894CF
:101BD000DEBF0FBECDBFDF91CF911F910F91FF9060
:101BE000EF90DF90CF90BF90AF909F908F907F90BD
:101BF0000895CF93DF93CDB7DEB72B970FB6F89448
:101C0000DEBF0FBECDBF4F83588769877A878B872A
:101C10001E821D8285E0FE013796DE01119601903D
:101C20000D928A95E1F749815A816B817C818D8182
:101C30009E812B960FB6F894DEBF0FBECDBFDF910D
:101C4000CF910C94EC13FC01808191810C94A2162D
:101C5000CF93C82F882309F488C08238C1F40E942A
:101C6000700C81FD82C089E30E94D0160E9441174A
:101C70002FEF81EE94E0215080409040E1F700C0CA
:101C8000000089E30E94D716CF910C944117833846
:101C9000A1F40E94700C80FD68C083E50E94D016FC
:101CA0000E9441172FEF81EE94E021508040904038
:101CB000E1F700C0000083E5E5CF8438A1F40E947D
:101CC000700C82FD52C087E40E94D0160E9441171A
:101CD0002FEF81EE94E0215080409040E1F700C06A
:101CE000000087E4CFCF8CEF8C0F813AB8F48C2FB3
:101CF0000E94DA1C811139C06C2F809100019091F3
:101D000001010E948618882329F08C2F0E94D71683
:101D10000E9441178C2F0E94D016B6CF80E28C0F04
:101D2000883048F4C77081E001C0880FCA95EAF78F
:101D30000E94F816A9CFEBE5EC0FE33040F4F0E099
:101D4000E158FE4F808190E0CF910C94D70CC85A97
:101D5000C73158F4EC2FF0E0EE0FFF1FEF5AFE4FA3
:101D600080819181CF910C94ED0CCF9108958823BF
:101D700009F44BC0823871F40E94700C81FF45C099
:101D800089E30E94D0160E94411789E30E94D7166A
:101D90000C944117833859F40E94700C80FF35C0B1
:101DA00083E50E94D0160E94411783E5EFCF843867
:101DB00059F40E94700C82FF28C087E40E94D0165C
:101DC0000E94411787E4E2CF9CEF980F913AF0F21E
:101DD00090E2980F983050F4877091E001C0990F0D
:101DE0008A95EAF7892F0E94FE16D2CF9BE5980FBD
:101DF000933020F490E080E00C94D70C885A87311F
:101E000020F490E080E00C94ED0C0895CF93C82F5F
:101E10000E94280EC93349F42FEF87EE93E021503A
:101E200080409040E1F700C000008C2FCF910C94CF
:101E3000B70E882321F00E94F8160C9441170895DC
:101E4000882321F00E94FE160C9441170895BF923A
:101E5000CF92DF92EF92FF920F931F93CF93DF9376
:101E60006C01D62FC72FFC01058102950F701281DE
:101E700011110E9415170E94EE16E82E882371F0AA
:101E80001123B1F080E28D0F883090F082E00E9443
:101E90008C170E94EE1691E0E82EE926BC2EB29433
:101EA0009FE0B922EB2DF0E0EB50FB4D0C94AB24FE
:101EB000E12CF4CF0C2F0F70C07F11F00295007F42
:101EC0001123A9F0002359F080E28D0F883010F023
:101ED000D11109C0802F0E94F8160E9441178D2F42
:101EE0000E94280E14C0802F0E940817F6CF8D2F55
:101EF0000E94B70E002359F080E28D0F883010F059
:101F0000D1112CC0802F0E94FE160E9441172B2D4C
:101F10002850330B2430310520F40E94700C0E94AD
:101F20006606EE2009F493C10E94EA1680FD8FC177
:101F3000F60112820E94E4160E947015C6010E94EA
:101F400048110E94E416DF91CF911F910F91FF90ED
:101F5000EF90DF90CF90BF900C949115802F0E944E
:101F60000E17D3CFFC2FFF70FF2EC07FC03219F0A9
:101F7000F29480EFF822DD2369F0D13049F111238A
:101F800091F1002351F1F601858180FFA8CF8F7078
:101F9000858323C0112381F0011106C00E942817F8
:101FA0008F290E94190FB3CF0130C1F70E94281763
:101FB0008F290E942E17ABCF011106C00E94371740
:101FC0008F2D0E94200FA3CF013009F4A0CFF6CFB0
:101FD000112329F0063008F09ACF8F2DE2CF05307B
:101FE00008F095CFEDCF002359F3D93349F4FFEF33
:101FF00027EE33E0F15020403040E1F700C0000010
:102000008D2F0E94B70E83CF8C2F86958695837077
:1020100069F0813009F07BCF8D2F9C2F93701111C7
:1020200002C090E080E00E94ED0C71CF8D2F9C2FBC
:102030009370111102C090E080E00E94D70C67CF2E
:102040008C2F837009F041C0111161CF4D2F429543
:1020500046954770440F440F0D2F0F7010E030E08D
:1020600020E0042E04C0000F111F221F331F0A940A
:10207000D2F760E070E0CB01D4FF0FC06FE070E0FA
:1020800080E090E004C0660F771F881F991F4A9573
:10209000D2F76095709580959095C695C695C3705A
:1020A000602B712B822B932BC23049F058F4C13036
:1020B00019F00E9422152BCF0E94101528CF0E94E4
:1020C000341525CF0E940E1522CF8695112311F0CD
:1020D0008C2F8170882309F41ACF4D2F4295469595
:1020E0004770440F440F0D2F0F7010E030E020E0D8
:1020F000042E04C0000F111F221F331F0A94D2F7B1
:1021000060E070E0CB01D4FF0FC06FE070E080E0D2
:1021100090E004C0660F771F881F991F4A95D2F779
:102120006095709580959095C695C695C370602B07
:10213000712B822B932BC23049F058F4C13019F027
:102140000E94E715E4CE0E94D515E1CE0E94F91554
:10215000DECE0E944A15DBCECF70112329F08C2FE2
:102160000E9470158D2F1DCF8D2F0E94200F8C2F58
:102170000E949115CCCED23F89F160F4D03FC9F0D6
:10218000D13F29F1112309F442C00111A8CE8C2FAF
:102190008F7121C0D33F39F1D43FA1F7112369F1E9
:1021A000CF718C2F0E94701563E08C2F0E947717DF
:1021B000AECE112341F0053008F0A9CE8C2F8F71DF
:1021C0000E94B415A4CE063008F0A1CEF7CF8C2F14
:1021D0008F71112369F20E94701599CE8C2F8F7127
:1021E0001123C9F3C5CF112329F08C2F8F710E94C1
:1021F0005B158DCE0E9456158ACE81E00E948C1709
:10220000023008F484CE82E00E948C1780CE002336
:1022100059F0D93309F0F4CE8FEF97EEE3E0815017
:102220009040E040E1F7EACE8C2F8F71A1CF4C2F88
:102230004F706D2FC6010E94D0060E94861467CE93
:102240004C2F4F706D2FC6010E94D30660CEDF91D8
:10225000CF911F910F91FF90EF90DF90CF90BF90A3
:1022600008950F931F93CF93DF93EC0168817981D9
:102270008A810E94AC168C010E940B160E940D15DB
:10228000B801CE01DF91CF911F910F910C94270FD0
:10229000CF93DF93EC018B819C81892B29F088817E
:1022A000998189238F3F19F4DF91CF910895CE0151
:1022B0000E947E068823C1F3CE010E943111CE0117
:1022C000DF91CF910C944A060E9415170E942517A2
:1022D0000E94411790E080E00E94D70C90E080E0DF
:1022E0000C94ED0C0E94DE160C9464110E940517EC
:1022F0000C947211E92FE295EF70E250EE3070F419
:10230000F0E0EB5FFA4D0C94AB24803F19F020F421
:10231000883E20F481E00895843FE1F380E0089551
:10232000883EC0F3813FD1F7F5CF93FB882780F932
:1023300008950E94A2160C947A11CF93DF9300D0D7
:1023400000D00F92CDB7DEB70F900F900F900F9087
:102350000F90DF91CF910895CF93DF9300D000D0FD
:1023600000D0CDB7DEB726960FB6F894DEBF0FBE0D
:10237000CDBFDF91CF9108951F93CF93DF93C0918D
:10238000AD0116E08091AE018C1304C0DF91CF91B6
:102390001F910895D0E01C9FF0011D9FF00D1124A6
:1023A000E155FE4F40815181628173818481958125
:1023B0000E94AC112196C770E5CF4091DF0150918A
:1023C000E0016091E1017091E2018091E30190915F
:1023D000E4010C94AC111F93CF93DF938091E4013F
:1023E000807FA9F48091E101882389F08091AD017B
:1023F000C091AE016091DF017091E001A091E20116
:10240000B091E301D62FD72316E0C81304C0DF91A3
:10241000CF911F91089590E0109711F0DF3F19F4CC
:1024200001968770F2CF189F9001199F300D1124EB
:10243000F901E155FE4F41814713F2CF4081461328
:10244000EFCF42814111ECCF438154814A1B5B0B9A
:10245000483C510528F78091E4018F70806180939A
:10246000E401F901EC54FE4F80818F70806180831C
:102470008FED91E00E944811DF91CF911F910C9454
:10248000BC11AF92BF92CF92DF92EF92FF920F9367
:102490001F93CF93DF93CDB7DEB761970FB6F89454
:1024A000DEBF0FBECDBF8C0185E0F801DE011D96B9
:1024B00001900D928A95E1F7F80140815181E28007
:1024C0008FEDC82E81E0D82E6091E2017091E3017A
:1024D0006115710509F461C19091DF012091E0015E
:1024E000892F82238F3F09F458C1A380B480F090D4
:1024F000E101F501E61BF70BFF2009F4FCC0809118
:10250000E401382F307FE83CF10508F0B2C031110A
:1025100079C0FE2C251323C0941321C0E1101FC0E5
:102520008F7080618093E4010E94DD11C6010E94DA
:1025300048118091E401F80185838F2D61960FB6D3
:10254000F894DEBF0FBECDBFDF91CF911F910F91E9
:10255000FF90EF90DF90CF90BF90AF900895AB28A1
:1025600029F0842F85238F3F09F033C180E0F82FB5
:10257000F170DF2E80FF3CC08091AD012091AE0153
:1025800036E0821315C04D875E878D859E850E943B
:10259000A216292F22952F702230F0F0243018F542
:1025A0009F70F1F0F8019581907FD1F4D12C1EC07D
:1025B00090E0389FF001399FF00D1124E155FE4F56
:1025C0006181651306C06081641303C062816E116E
:1025D0000FC001968770D5CF9F7011F0882331F31B
:1025E000805E883018F3C8010E944811FD2CA5CFE9
:1025F000EE2009F4A2CF8091E40181608093E40190
:10260000F12C9BCF251306C0941304C0F801EE20D3
:1026100009F48DC04D875E878D859E850E94991136
:10262000882319F1EE2009F18091E401803270F0E5
:102630002091DF013091E00138872F831986BB8616
:10264000AA868C87CE0107960E94481186E0F80181
:10265000AFEDB1E001900D928A95E1F70E94EB1188
:102660000E94DD11FF24F39468CFC8010E94481135
:10267000F9CF311113C07A2DB98AA88A6E2D8989B4
:102680000E949D118FED91E00E94481186E0F601B5
:1026900011928A95E9F70E94DD11B2CF25130FC080
:1026A00094130DC0E1100BC0F8018583C8010E948E
:1026B000481186E0F60111928A95E9F73ECF4D87E1
:1026C0005E878D859E850E949911882371F2EE2088
:1026D00061F28091E401803208F4B8CF2091DF01EB
:1026E0003091E0013A8329831B82BD82AC828E83C4
:1026F000CE010196A9CFE83CF10508F041C0FE2CBF
:10270000EE2009F4B2CF25132AC0941328C080917B
:10271000E40180FD1BC0982F907FC1F0F8018583F4
:10272000903F31F0982F907F905F8F70892B858339
:10273000C8010E94481186E0F801AFEDB1E00190B8
:102740000D928A95E1F70E94DD11F7CE86E0F8013F
:10275000AFEDB1E001900D928A95E1F7EECE4D8795
:102760005E878D859E850E94991181116FCF809122
:10277000E40181608093E401C8010E944811DDCE2C
:102780007A2DB98AA88A6E2D89890E949D1186E0CA
:10279000F60111928A95E9F7D6CFEE2009F465CFBC
:1027A0004D875E878D859E850E949911F82E88231E
:1027B00009F45BCF86E0F801AFEDB1E001900D9236
:1027C0008A95E1F78FED91E00E94230E0E94EB11B4
:1027D000BACF81E08E25CBCE1F93CF93DF93CDB7B9
:1027E000DEB72C970FB6F894DEBF0FBECDBF4F8378
:1027F000588769877A878B879C87CE0107960E94C6
:102800004112882369F08A859B85892B39F04F8195
:102810005885842F85238F3F09F071C016E05FC073
:1028200086E0FE013796DE01119601900D928A95A1
:10283000E1F78A859B85892B89F388859F81892388
:102840008F3F61F32091AE0130E0C901019687709E
:1028500099274091AD014817190671F40E9476112D
:102860001092AE011092AD0186E0EFEDF1E0DF01D4
:102870001D928A95E9F7D2CF96E0929FD001939F5F
:10288000B00D1124A155BE4FFE01319601900D925D
:102890009A95E1F78093AE010E94BC11BFCF819F52
:1028A000C001112481559E4F0E9441128823E9F0F6
:1028B000E091AD011E9FF0011124E155FE4F4081D2
:1028C000518162817381848195810E94AC118091D4
:1028D000AD0190E00196877099278093AD018091BA
:1028E000AD019091AE018913DACF2C960FB6F89412
:1028F000DEBF0FBECDBFDF91CF911F9108956985D7
:102900007A858B859C850E94AC1188CFEF92FF92CF
:102910000F931F93CF93DF938C01892B81F0F12CC0
:10292000EE24E394E8012196F8018491843770F451
:10293000843008F05FC08130B1F08230A1F1DF91C6
:10294000CF911F910F91FF90EF900895853709F473
:102950004CC008F43DC09CE7980F903780F78F7704
:102960000E94B70E49C00E5F1F4FFE01849190E296
:10297000980F983060F48770FE2D01C0FF0F8A9584
:10298000EAF78F2F0E9418170E94411702C00E9479
:10299000280E8F2D815030F2EFE9FFE03197F1F7EB
:1029A00000C00000F7CF0E5F1F4FFE01849190E240
:1029B000980F983050F48770FE2D01C0FF0F8A9554
:1029C000EAF78F2F0E941E17DFCF0E94B70EE1CFCC
:1029D0000E5F1F4FFE01C491C150D8F28FE99FE0F6
:1029E0000197F1F700C00000F7CF0E5F1F4FFE0107
:1029F000F490CFCF0E94280E8E01CBCF08950C9477
:102A0000FE140E94FF1460931602709317028093C5
:102A10001802909319020C94641108950C940115F6
:102A20000F931F9300911602109117022091180224
:102A300030911902602B712B822B932B1F910F91D8
:102A40000C9401150F931F93009116021091170219
:102A5000209118023091190260237123822393235D
:102A60001F910F910C9401150F931F930091160263
:102A700010911702209118023091190260277127D6
:102A8000822793271F910F910C9401150C94FE142B
:102A90000C9446150E94481560931202709313021D
:102AA00080931402909315020C94641160E070E01E
:102AB000CB010C944A150F931F9341E050E060E066
:102AC00070E08A019B0104C0000F111F221F331FF9
:102AD0008A95D2F7C901B8011F910F910C944A153C
:102AE0000F931F9341E050E060E070E004C0440F9A
:102AF000551F661F771F8A95D2F780911202909119
:102B00001302A0911402B09115028A019B01082BB7
:102B1000192B2A2B3B2BC901B8011F910F910C9443
:102B20004A150F931F9341E050E060E070E004C04D
:102B3000440F551F661F771F8A95D2F7CB01BA0144
:102B400060957095809590950091120210911302F6
:102B50002091140230911502602371238223932364
:102B60001F910F910C944A150F931F9341E050E071
:102B700060E070E004C0440F551F661F771F8A9500
:102B8000D2F78091120290911302A0911402B09199
:102B900015028A019B01082719272A273B27C9010B
:102BA000B8011F910F910C944A150F931F93009138
:102BB0001202109113022091140230911502602B21
:102BC000712B822B932B1F910F910C944A150F930D
:102BD0001F93009112021091130220911402309160
:102BE000150260237123822393231F910F910C946C
:102BF0004A150F931F930091120210911302209116
:102C000014023091150260277127822793271F91A4
:102C10000F910C944A1508952EE0929F800D112477
:102C2000982F977041E001C0440F9A95EAF7869576
:102C30008695869595E0899FF0011124EB51FE4F12
:102C400090E080E070E05191DF0111979B01082E28
:102C500002C0369527950A94E2F721702195252721
:102C6000242325272C9301968530910561F708953B
:102C70002EE0929F800D1124982F9770869586954F
:102C8000869525E0829FF0011124EB51FE4F50E024
:102C900040E080E0219130E0092E02C03695279572
:102CA0000A94E2F721703327042E01C0220F0A9400
:102CB000EAF7822B4F5F5F4F4530510559F7089572
:102CC000BF92CF92DF92EF92FF920F931F93CF9319
:102CD000DF938C01C0901202D0901302E090140296
:102CE000F09015028091160290911702A09118029F
:102CF000B0911902C82AD92AEA2AFB2ACFE1D0E0EA
:102D0000BC2ED701C6010C2E04C0B695A795979589
:102D100087950A94D2F780FD0EC0219788F7B12CD1
:102D20008B2DDF91CF911F910F91FF90EF90DF904E
:102D3000CF90BF900895B8018C2F0E94F0060197A4
:102D400061F3EECFCF93DF93EC010E946016BE01DA
:102D5000DF91CF910C94F0061F93CF93DF93EB019B
:102D60009091AC01992331F0CB01DF91CF911F916C
:102D70000C94A216882379F0CB010E946016182FBC
:102D8000682FCE010E940C16BE01812FDF91CF91DA
:102D90001F910C94F006CB010E943816182FF4CF27
:102DA000682F80910001909101010C942819682FDF
:102DB00080910001909101010C94331980910001E0
:102DC000909101010C943E1980911A028595859588
:102DD0008595089580911A028770089590911A023E
:102DE000977081E009F480E0089580913E02089593
:102DF00090913E02892B80933E0208958095909198
:102E00003E02982390933E02089510923E02089548
:102E100090913D02892B80933D0208958095909179
:102E20003D02982390933D02089510923D0208952B
:102E300090913C02892B80933C020895809590915B
:102E40003C02982390933C02089510923C0208950E
:102E500080911B02089508950C942B1790911B02EA
:102E6000981721F080931B020C942C1708958091E1
:102E70001B02882329F010921B0280E00C942C176F
:102E80000895E0910001F091010180913E0280835C
:102E9000E0910001F0910101808190913D02892B28
:102EA0008083E0910001F0910101808190913C02CA
:102EB000892B808390911B02992381F0E09100017E
:102EC000F09101018081892B808380910001909194
:102ED00001010E94721881110E9437178091000130
:102EE000909101010C947C0C08950C94741798E057
:102EF000899F90011124622B60931A020E94701521
:102F000080911A028595859585950C947517109278
:102F10001A0280E00C94751790911A02809589230B
:102F200080931A02282F277071F4282F082E000C86
:102F3000330B9217130639F08595859585950E9478
:102F400091150C94871708959093930180939201A3
:102F50000895829590E09C01220F331F220F331FAA
:102F60002C7C95958795959587958373282B30E0D4
:102F7000C901880F991F8A7A359527952575822B67
:102F80000895CF93DF93D92F0E94A917C82F8D2FB3
:102F90000E94A9179C2FDF91CF91089590E080E0C7
:102FA0000E94B92421E08C3E9E4F09F020E0822F40
:102FB000089582E090E00C94B12483E090E00C94BA
:102FC000B124CF9384E090E00E94B124C82F81E225
:102FD00090E00E94B124982F8C2FCF910895CF9329
:102FE000C92F682F84E090E00E94BF246C2F81E2FB
:102FF00090E0CF910C94BF24AB01BC018FE090E036
:103000000C94D124AB01BC0183E190E00C94D12459
:1030100060E070E0CB010C94021860E070E0CB013E
:103020000E94FC170C9408186CEE7EEF90E080E094
:103030000E94DD2460E082E090E00E94BF2460E016
:1030400083E090E00E94BF241092160210921702B3
:10305000109218021092190260E084E090E00E9441
:10306000BF2460E081E290E00E94BF2460E085E040
:1030700090E00E94BF2460E086E090E00E94BF24C0
:103080006FEF87E090E00E94BF2440E050E0BA017B
:1030900088E090E00E94D12460E08DE090E00E9402
:1030A000BF2440E050E0BA0188E190E00E94D124C2
:1030B00060E087E190E00E94BF2440E050E0BA0168
:1030C0008CE190E00E94D12460E080E290E00E94D8
:1030D000BF240C940D180C941418682F8EE090E007
:1030E0000C94BF24FC01329680910C01882321F0BE
:1030F000809180029EE187FF96E080E0915008F485
:10310000089521912223D1F38F5FF8CF662301F137
:1031100020910C012223F1F02091800227FF1AC098
:10312000462F4695469546954E3190F4677021E0BE
:1031300030E002C0220F331F6A95E2F7840F911D21
:10314000FC01828190E02823392381E0232B69F45C
:1031500080E00895FC01329608962191261721F00F
:10316000E817F907D1F7F4CF81E008959C01FC013D
:1031700032969FEF80E04191461751F09F3F19F43E
:10318000411101C0982F8F5F8630A9F79F3F09F446
:103190000895290F311D97FD3A95F901628308952D
:1031A000FC01329608962191261303C0DF01119786
:1031B0001C92E817F907B9F70895E62FE695E6950A
:1031C000E695EE3170F4E80FF92FF11D677021E0FC
:1031D00030E001C0220F6A95EAF78281822B828358
:1031E000089580913F0280FF0CC01F926F938CEE78
:1031F00092E09F938F930E94F8050F900F900F908D
:103200000F900895E62FE695E695E695EE3178F471
:10321000E80FF92FF11D677021E030E001C0220FA7
:103220006A95EAF720958281282322830895809168
:103230003F0280FF0CC01F926F938EEC92E09F9331
:103240008F930E94F8050F900F900F900F900895A4
:1032500020910C01222329F02091800227FD0C945B
:10326000DD180C94B61820910C01222329F020912E
:10327000800227FD0C9402190C94D018FC013296A0
:1032800080910C01882351F08091800287FF06C055
:103290008EE1DF011D928A95E9F7089586E0F9CF66
:1032A000089508950C9451190E9452198091860234
:1032B000843049F11092400288E190E020E40FB69A
:1032C000F894A895809360000FBE2093600080E082
:1032D0000E9466060E94521983B7817F846083BF73
:1032E00083B7816083BF7894889583B78E7F83BFCF
:1032F0000FB6F894A8958091600088618093600073
:10330000109260000FBE08950895CF930E94501947
:103310000E9494090E948419C0E08C2F0E94D80852
:10332000892B31F4CF5FC530C1F780E0CF9108958C
:1033300081E0FCCF08950C949A190E9476110E94A6
:10334000700C0E9466060C949B191F921FB61F9268
:1033500011248F939F93AF93BF938091400281116B
:1033600013C080917C0290917D02A0917E02B09169
:103370007F024196A11DB11D80937C0290937D0236
:10338000A0937E02B0937F02BF91AF919F918F91E6
:103390001F901FBE1F90189582E084BD93E095BDDD
:1033A0009AEF97BD80936E0008952FB7F89480919F
:1033B0007C0290917D02A0917E02B0917F022FBF8E
:1033C00008952FB7F89460917C0270917D028091EE
:1033D0007E0290917F022FBF08959C014FB7F89411
:1033E00080917C0290917D02A0917E02B0917F023B
:1033F0004FBF821B930B089578941F921FB61F92A4
:1034000011248F939F93AF93BF9380917C029091EF
:103410007D02A0917E02B0917F020196A11DB11D97
:1034200080937C0290937D02A0937E02B0937F02F2
:10343000BF91AF919F918F911F901FBE1F901895C4
:1034400081E08093E00080E28093D8001092C90070
:103450008FE19EE40197F1F700C0000087E090EB58
:10346000DC0180938F0290939002A0939102B0931D
:10347000920288E19CE00FB6F894A89580936000D2
:103480000FBE90936000FFCF0E94CE17811102C043
:103490000E946B180E94D91780933F020E94E11787
:1034A00090938102809380020E94DD17682F70E064
:1034B00090E080E00C940E15CF93C82F1F928F934D
:1034C00080E193E09F938F930E94F80561E070E0A4
:1034D00080E090E004C0660F771F881F991FCA958F
:1034E000D2F70E940E150F900F900F900F90CF9172
:1034F0000C947611CF93DF93EBEFE80FEF3308F0E6
:103500004FC2F0E0ED5EFA4D0C94AB2487E798E0F3
:103510000E945F0583EB97E00E945F050E94DD1724
:103520001F928F9380EB97E09F938F930E94F805F3
:103530008EEA97E00E945F050E94D917C82F8BE999
:1035400097E00E945F051F92CF9386E997E09F93D3
:103550008F930E94F80584E997E00E945F058AE84E
:1035600097E00E945F058C2F81701F928F9387E8F0
:1035700097E09F938F930E94F80585E897E00E945B
:103580005F058BE797E00E945F05C1FB882780F904
:103590001F928F9388E797E09F938F930E94F8057F
:1035A00086E797E00E945F058AE697E00E945F0544
:1035B000C2FB882780F91F928F9387E697E09F933D
:1035C0008F930E94F80585E697E00E945F058CE5E1
:1035D00097E00E945F05C3FBCC27C0F91F92CF93F1
:1035E00089E597E09F938F930E94F80587E597E020
:1035F0000E945F050E94E117EC0183E497E00E94BE
:103600005F05DF93CF938EE397E09F938F930E94A4
:10361000F8058CE397E00E945F0583E297E00E9443
:103620005F058C2F81701F928F9380E297E09F93AC
:103630008F930E94F8058DB79EB780960FB6F894C9
:103640009EBF0FBE8DBF8EE197E00E945F0587E0B1
:1036500097E00E945F05C1FB882780F91F928F9336
:1036600084E097E09F938F930E94F80582E097E0B3
:103670000E945F0580EF96E00E945F058D2F8170AC
:103680001F928F938DEE96E09F938F930E94F80583
:103690008BEE96E00E945F0589ED96E00E945F0543
:1036A000D695D1701F92DF9386ED96E09F938F930E
:1036B0000E94F80584ED96E00E945F0582EC96E09A
:1036C0000E945F05C2FB882780F91F928F938FEBC2
:1036D00096E09F938F930E94F8058DEB96E00E94F1
:1036E0005F058BEA96E00E945F05C3FB882780F99F
:1036F0001F928F9388EA96E09F938F930E94F8051C
:1037000086EA96E00E945F058CE996E00E945F05DC
:10371000C4FB882780F91F928F9389E996E09F93D5
:103720008F930E94F80587E996E00E945F0585E87F
:1037300096E00E945F05C5FB882780F91F928F9352
:1037400082E896E09F938F930E94F80580E896E0C8
:103750000E945F0584E696E00E945F05C6FB88270D
:1037600080F91F928F9381E696E09F938F930E943A
:10377000F8058DB79EB780960FB6F8949EBF0FBE22
:103780008DBF8FE596E00E945F0587E596E00E9479
:103790005F05C7FBCC27C0F91F92CF9384E596E065
:1037A0009F938F930E94F80582E596E00E945F0543
:1037B0000F900F900F900F9081E01CC086E698E06C
:1037C0000E945F050E946B18F7CF80EA94E00E9488
:1037D0005F05F2CF80913F02807F80933F0285E8B2
:1037E00094E00E945F0582E698E00E945F0581E018
:1037F00080934102DF91CF9108950E94761186E473
:1038000098E00E945F059FEF23ED80E391502040F8
:103810008040E1F700C000000E94201ACDCF9091B7
:103820003F02892F8E7F90FF816080933F0280FF4F
:1038300003C08AE398E0CBCF8DE298E00E945F0559
:1038400080913F02817F80933F02B6CF90913F02EB
:10385000892F8D7F91FF826080933F0281FF08C096
:1038600080E298E00E945F0580913F028160EBCF8B
:1038700082E198E0ACCF90913F02892F8B7F92FF3D
:10388000846080933F0282FF03C083E098E0EACF28
:1038900083EF97E09CCF90913F02892F877F93FF22
:1038A000886080933F0283FF03C087EE97E0DACF02
:1038B0008AED97E08CCF86E794E00E945F0583E66F
:1038C00094E00E945F058DE294E00E945F0583EF23
:1038D00093E00E945F0581EC93E00E945F0586E91A
:1038E00093E075CF88E893E00E945F050E94700C1A
:1038F0001F928F938EE693E09F938F930E94F8051B
:1039000080910C011F928F9387E593E09F938F9393
:103910000E94F805809166021F928F9384E493E0E1
:103920009F938F930E94F8058091800287FB8827E0
:1039300080F91F928F938CE293E09F938F930E9464
:10394000F8050E94E1199F938F937F936F9385E110
:1039500093E09F938F930E94F8058DB79EB746968C
:103960000FB6F8949EBF0FBE8DBF26CF0E94761172
:1039700090918002892F97FB87F98058809380026D
:1039800087FF03C080ED97E022CF85EC97E01FCF43
:1039900080E00E945C1A10CF8953FBCF8D51F9CF84
:1039A00083EC97E00E945F0580E024CF80E00895DB
:1039B0000C94D61CCF93C82F80914102882331F0FC
:1039C000813099F01092410280E00DC00E94F516FE
:1039D0008232D1F78C2F0E94D61C811119C08C2FF6
:1039E0000E947A1A8170CF9108950E94F516823252
:1039F00089F38C2F0E94D81C811119C0C431C9F0E1
:103A000050F4CB3061F08AE093E00E945F0513C070
:103A100081E090E0E7CFC93261F0C833A1F785E8D3
:103A200094E00E945F058CE093E00E945F0581E0D6
:103A3000D9CF1092410280E0D5CF809165020895E0
:103A400008959FB7F894109244029FBF9091860208
:103A5000943009F048C02091E9002F703091EC00BB
:103A6000932F917030FD90E8922B23E02093E90092
:103A70002091EB0020FF34C02091EE0027FF30C0E2
:103A800020914202222321F02091E80025FF28C046
:103A90001092420226E03091E80035FF14C0809376
:103AA000F1008091E80085FD27C08091E80080FF4B
:103AB000FCCF8091E8008E778093E8009F70909310
:103AC000E90080E0089530918602343049F4309165
:103AD000EB0035FD05C0215041F481E080934202A6
:103AE0009F709093E9008FEF0895EFE9FFE0319721
:103AF000F1F700C00000CFCF8FB7F89421E02093FA
:103B000044028FBFDBCFCF93DF9300D00F92CDB7AE
:103B1000DEB790918602943019F589837B836A839E
:103B200082E08093E9008FEF9091E800815095FD4D
:103B300006C095ED9A95F1F700008111F5CF8091BF
:103B4000E80085FF0DC050E040E063E070E0CE018A
:103B500001960E940F208091E8008E778093E80004
:103B60000F900F900F90DF91CF910895CF93DF9337
:103B7000EC010E94F21F823011F0843031F4BE015A
:103B800084E0DF91CF910C94831DDF91CF91089554
:103B9000BC0183E00C94831DCF93DF93EC010E9462
:103BA000F21F823011F08430B9F580910C01882326
:103BB000B1F18091800287FF32C060E282E08093A1
:103BC000E9008FEF9091E800815095FD06C095EDDA
:103BD0009A95F1F700008111F5CF8091E80085FFFB
:103BE0001BC080910C0170E050E040E0811104C0E6
:103BF00050E040E068E070E0CE010E940F2080912C
:103C0000E8008E778093E80080E2FE01A5E4B2E050
:103C100001900D928A95E1F7DF91CF91089568E0C8
:103C200081E0CDCF87EA98E00E945F058091850210
:103C3000811109C00E949F210E94FC218091E20015
:103C400084608093E200089583EA98E00E945F0513
:103C50001092850208958FE998E00C945F058BE936
:103C600098E00C945F0587E998E00E945F050C944A
:103C70009D19209143022F5F822F62E30E949F24AF
:103C8000992319F0209343020895109243028091E2
:103C900044028823F1F0809186028430C1F490912F
:103CA000E9009F702091EC00822F817020FD80E858
:103CB000892B93E09093E9009091EB0090FF04C072
:103CC0009091EE0097FD08C08F708093E9001092EC
:103CD000440208951092F1009091E80095FDFACF0A
:103CE0009091E80090FFF0CF9091E8009E7790933C
:103CF000E800EACF42E061EC81E00E941B2142E251
:103D000061EC82E00E941B2142E261EC83E00C94B2
:103D10001B2180918802833009F45FC030F4813028
:103D2000C1F1823009F49BC008958A3009F487C03C
:103D30008B3009F46DC0893009F04EC08091870244
:103D4000813209F049C080918B0290918C020297D8
:103D500008F042C08091E800877F8093E80080915E
:103D6000E80082FF35C09091F3008091F200029745
:103D700029F48091F1008B7F813021F48091F10052
:103D8000809365028091E8008B778093E8000C9423
:103D90004F2180918702813AF9F48091E800877F72
:103DA0008093E80080918B0290918C02892B61F4C2
:103DB00060E285E492E070E00E945E208091E8007D
:103DC0008B778093E800089560E090E080E0F3CF87
:103DD000809186028111C3CF089580918702813A34
:103DE000D9F780918B0290918C02892BA9F7809151
:103DF000E800877F8093E8008091E80080FFFCCF97
:103E000080910C018093F1008091E8008E77BDCF06
:103E100080918702813201F780918B0290918C0210
:103E2000892BD1F68091E800877F8093E8000E947B
:103E30004F218091890280930C010C94761180911E
:103E40008702813249F68091E800877F8093E800FD
:103E50000E944F2180918A0280936602089580918A
:103E60008702813A09F0B8CF8091E800877F80937C
:103E7000E8008091E80080FFFCCF80916602C2CF0D
:103E800084B7877F84BF0FB6F894A89580916000AF
:103E9000886180936000109260000FBE80E890E01F
:103EA0000FB6F89480936100909361000FBE0E945A
:103EB000110D0E949F210E94FC218091E2008460EC
:103EC0008093E20081E29DE10E94A41778940E9411
:103ED00084240E94190D82E091E00E946B0C86E818
:103EE00098E00E945F0580918602853019F00E945B
:103EF000490DF9CF82E898E00E945F050E945419AD
:103F000080918402882379F30E948519882359F3CC
:103F10000E94F91FE8CF0C948D1F292F33272330DF
:103F2000310521F168F42130310509F449C022300E
:103F3000310509F44AC090E080E030E020E029C07B
:103F40002132310581F122323105A9F76330710543
:103F500090F7FB01EE0FFF1FEB57FE4F20813181E1
:103F60006E577E4FFB01808190E013C0992781300E
:103F7000910599F0009741F08230910589F00397FF
:103F8000D1F6EBEAF8E002C0E3EDF8E0849190E0CE
:103F90009F01FA01318320830895E9ECF8E0F6CF20
:103FA000E1EBF8E0F3CF6330710528F6660F771F79
:103FB000FB01E557FE4F2081318189E090E0E9CF98
:103FC00082E190E022E339E0E4CF8BE590E027ED59
:103FD00038E0DFCF80918602843011F482E00895CA
:103FE00081E0089580916702811102C00C94EA1F5C
:103FF000089580E189BD82E189BD09B400FEFDCF4D
:104000008091D8008F7D8093D8008091E0008260FD
:104010008093E0008091E00081FDFCCF0895AF9295
:10402000BF92CF92DF92FF920F931F93CF93DF93B4
:104030006C01EB018A010E946E21F82E811123C0D0
:104040000115110539F0F80180819181C81BD90B48
:10405000C80ED91EB12CA12C2097A9F08091E800A0
:1040600085FD22C08091E8008E778093E8000115DD
:104070001105A1F0F80180819181A80EB91EB182CD
:10408000A08285E0F82E8F2DDF91CF911F910F91A7
:10409000FF90DF90CF90BF90AF9008950E946E2167
:1040A0008823D1F2F82EEFCFF60181916F01809332
:1040B000F1002197FFEFAF1ABF0ACECFFC0180912C
:1040C0008D0290918E0286179707A0F061157105F9
:1040D00029F49091E8009E779093E80090E06115B4
:1040E000710551F4911108C08091E80082FF34C03D
:1040F00080E00895BC01F2CF809186028823C1F14F
:104100008530C1F18091E80083FD30C08091E800E6
:1041100082FDEACF8091E80080FFE1CF8091F3003B
:104120002091F200382F6115710519F02830310502
:1041300058F091E02830310509F090E02091E80036
:104140002E772093E800CBCF81918093F1006150CE
:1041500071092F5F3F4FE7CF80918602882341F09E
:10416000853041F08091E80083FFBECF81E0089563
:1041700082E0089583E00895FC0180918D02909182
:104180008E0286179707A0F06115710529F48091BA
:10419000E8008E778093E80090E06115710551F496
:1041A000911108C08091E80082FF35C080E0089539
:1041B000BC01F2CF809186028823C9F18530C9F114
:1041C0008091E80083FD31C08091E80082FDEACF54
:1041D0008091E80080FFE1CF8091F3002091F20010
:1041E000382F6115710519F02830310558F091E02C
:1041F0002830310509F090E08091E8008E778093B7
:10420000E800CBCF84918093F10031966150710921
:104210002F5F3F4FE6CF80918602882341F08530A3
:1042200041F08091E80083FFBDCF81E0089582E0F6
:10423000089583E00895982F973028F08F70809329
:10424000E90081E008959093E900242F762F50E053
:10425000981731F07091EC002091ED005091F00032
:1042600021FD02C09F5FE8CF3091EB003E7F30938D
:10427000EB003091ED003D7F3093ED003091EB008D
:1042800031603093EB007093EC002093ED0050937D
:10429000F0002091EE0027FDE5CF80E008958091A9
:1042A000870287FF13C08091E80082FF06C08091DB
:1042B000E8008B778093E80004C08091860281112A
:1042C000F2CF0895809186028823D9F38091E80087
:1042D00080FFF8CF8091E8008E77ECCF2091E4004A
:1042E0003091E50095E6A9012091EC00822F8170C4
:1042F00020FF06C08091E80080FF06C080E008959E
:104300002091E80022FD1AC080918602882389F05E
:10431000853089F08091EB0085FD0FC02091E4008D
:104320003091E50042175307F9F29150E1F684E02D
:10433000089582E0089583E0089581E008950E9441
:104340000D220E941522E0EEF0E0808181608083E2
:10435000E8EDF0E080818F77808319BCA7EDB0E0B5
:104360008C918E7F8C9380818F7E808310928502CA
:1043700008950F931F93CF93DF930E940D220E9405
:104380001522C8EDD0E088818F7788838881806886
:10439000888388818F7D888319BC10928602109251
:1043A0008202109284021092830200EE10E0F80163
:1043B00080818B7F808388818160888342E060E098
:1043C00080E00E941B21E1EEF0E080818E7F8083FF
:1043D000E2EEF0E08081816080838081886080836C
:1043E000F80180818E7F8083888180618883DF915E
:1043F000CF911F910F910895E8EDF0E080818F7EBD
:104400008083E7EDF0E080818160808384E082BF7B
:1044100081E0809385020C94B921E8EDF0E0808181
:104420008E7F80831092E20008951092DA0010923D
:10443000E10008951F920F920FB60F9211242F934F
:104440003F934F935F936F937F938F939F93AF931C
:10445000BF93EF93FF938091E10082FF0BC08091A7
:10446000E20082FF07C08091E1008B7F8093E10032
:104470000E94391E8091DA0080FF19C08091D80017
:1044800080FF15C08091DA008E7F8093DA008091E2
:10449000D90080FF96C080E189BD82E189BD09B461
:1044A00000FEFDCF81E0809386020E94121E809163
:1044B000E10080FF19C08091E20080FF15C080916B
:1044C000E2008E7F8093E2008091E2008061809321
:1044D000E2008091D80080628093D80019BC85E00A
:1044E000809386020E942F1E8091E10084FF2BC0E2
:1044F0008091E20084FF27C080E189BD82E189BD0F
:1045000089B5982F917080FFFBCF8091D8008F7D67
:104510008093D8008091E1008F7E8093E1008091AC
:10452000E2008F7E8093E2008091E20081608093C0
:10453000E20080918202882309F449C084E08093DC
:1045400086020E94331E8091E10083FF29C0809182
:10455000E20083FF25C08091E100877F8093E10026
:1045600082E080938602109282028091E1008E7F29
:104570008093E1008091E2008E7F8093E200809141
:10458000E20080618093E20042E060E080E00E940F
:104590001B218091F00088608093F0000E942B1E08
:1045A000FF91EF91BF91AF919F918F917F916F910B
:1045B0005F914F913F912F910F900FBE0F901F90E1
:1045C000189519BC109286020E94241E70CF80910B
:1045D000E30087FD93E090938602B3CF1F920F9282
:1045E0000FB60F9211242F933F934F935F936F93C6
:1045F0007F938F939F93AF93BF93CF93DF93EF936B
:10460000FF93D091E900DF708091EC00C82FC1705A
:1046100080FDC0E81092E9008091F000877F8093D0
:10462000F00078940E9432231092E9008091F0000B
:1046300088608093F000CD2BCF70C093E900FF918C
:10464000EF91DF91CF91BF91AF919F918F917F912A
:104650006F915F914F913F912F910F900FBE0F90EF
:104660001F9018951F93CF93DF93CDB7DEB7AA970E
:104670000FB6F894DEBF0FBECDBF87E892E0209161
:10468000F100FC012193CF01F2E08F389F07B9F7C9
:104690000E94891E8091E80083FF1EC180918702DD
:1046A000909188029A3008F017C1E92FF0E0EE5A95
:1046B000FA4D0C94AB24803899F0823809F00CC183
:1046C00080918B028F70873008F006C18093E900DB
:1046D0008091EB0085FB882780F91092E90006C0E5
:1046E0008091830290918402911182609091E80000
:1046F000977F9093E8008093F1001092F1008091F1
:10470000E8008E77E5C0882309F4D3C0823009F031
:10471000E3C0809189028111D6C080918B028F7095
:104720002FEF280F263008F0D7C08093E9002091A2
:10473000EB0020FFC8C0933031F48091EB00806221
:104740008093EB00C0C09091EB0090619093EB00E0
:1047500021E030E001C0220F8A95EAF72093EA00B9
:104760001092EA008091EB008860EACF8111B4C01A
:10477000109189021F778091E3008078812B8093CC
:10478000E3008091E800877F8093E8000E944F213A
:104790008091E80080FFFCCF8091E30080688093E7
:1047A000E30082E0111183E08093860295C0805877
:1047B000823008F091C08091890290918A028C3DEC
:1047C00023E09207A1F583E08A838AE289834FB7C9
:1047D000F894DE01139620E03EE051E2E32FF0E092
:1047E00050935700E49120FF03C0E295EF703F5FC4
:1047F000EF708E2F90E0EA30C0F0C7968D939D93B6
:104800002F5F243159F74FBF8091E800877F809355
:10481000E8006AE270E0CE0101960E945E2080917D
:10482000E8008B778093E80057C0C096E7CF60918F
:104830008B0270918C02AE014F5F5F4F0E948B1F05
:10484000BC01892B09F448C09091E800977F9093B0
:10485000E80089819A810E94BC20E1CF8038E1F58F
:104860008091E800877F8093E800809182028093A6
:10487000F10045CF811130C090918902923060F5EE
:104880008091E800877F8093E800909382020E94E5
:104890004F2180918202882311F084E005C080912D
:1048A000E30087FDFACF81E0809386020E947A1EA2
:1048B00013C080918902813079F481E0933009F04E
:1048C00080E0809384021092E9008091E800877F65
:1048D0008093E8000E944F218091E80083FF0AC086
:1048E0008091E800877F8093E8008091EB008062F0
:1048F0008093EB00AA960FB6F894DEBF0FBECDBF33
:10490000DF91CF911F910895CF93809186028823E4
:10491000A1F0C091E900CF709091EC00892F8170D7
:1049200090FD80E8C82B1092E9008091E80083FD9B
:104930000E943223CF70C093E900CF910895991B54
:1049400079E004C0991F961708F0961B881F7A9586
:10495000C9F780950895EE0FFF1F0590F491E02DA3
:104960000994F999FECF92BD81BDF89A992780B537
:104970000895A8E1B0E042E050E00C94E524262F31
:10498000F999FECF92BD81BDF89A019700B4021645
:1049900039F01FBA20BD0FB6F894FA9AF99A0FBEF3
:1049A00008950396272F0E94C0240E94BF24252F1C
:1049B0000E94C024242F0C94C0240196272F0E940B
:1049C000C0240C94BF24DC01CB01FC01F999FECF7B
:1049D00006C0F2BDE1BDF89A319600B40D92415087
:1049E0005040B8F70895F894FFCF5A0F5A0FB20FFE
:1049F000B20F0410870F870F870F2010AC10BB1069
:104A0000BB101711870F870F2011851185118E118B
:104A10008E1190118E118E118E11851185119511A7
:104A20008E118E119511FD1BEA1B0F1C861AD01CCE
:104A3000D01CE51BD01CD01C3B1CD01C4B1CB61C36
:104A4000D01CD01CD01CD01C721CD01CD01C5B1CD9
:104A5000D01C261CD01CD01CCE1CCE1CCE1CCE1CA8
:104A6000CE1CCE1CCE1CCE1CCE1CC81CD01CFD1BCC
:104A7000DE1BD01CD01CD01CD01CD01CD01CD01CC9
:104A8000D01CD01CD01CC81CD01CD01CE51BD01CBA
:104A9000CC1CCC1CCC1CCC1CCC1CCC1CCC1CCC1CD6
:104AA000CC1CC81C5B2383236C2483236C24B62377
:084AB000D7236C242E243A24C4
:104AB8001C021D1DCC1D201DC81DB61D01E200E9EC
:104AC80000EA00B500B600B700CD008301CC008A2B
:104AD80001920194012102230224022502260227C1
:104AE800022A02B300B4006F007000818283F7C607
:104AF800676697969594939237363530F0F1F4F5CA
:104B0800F6E200E900EA00B500B600B700CD008380
:104B180001CC008A0192019401210223022402257A
:104B280002260227022A02B300B4006F0070008137
:104B38008283406D22D30966094409E90802091BEA
:024B4800090062
:00000001FF
