:100000000C940D050C9454050C9454050C94540553
:100010000C9454050C9454050C9454050C945405FC
:100020000C9454050C9454050C94F5220C94C8239C
:100030000C94481A0C9454050C9454050C945405D3
:100040000C9454050C9454050C9454050C945405CC
:100050000C9454050C94B31A0C9454050C94540548
:100060000C9454050C9454050C9454050C945405AC
:100070000C9454050C9454050C9454050C9454059C
:100080000C9454050C9454050C9454050C9454058C
:100090000C9454050C9454050C9454050C9454057C
:1000A0000C9454050C9454050C9454052900350007
:1000B0001E001F0020002100220023002400250034
:1000C000260027002D002E002B0014001A00080027
:1000D000150017001C0018000C00120013002F0060
:1000E00030002A00390004001600070009000A0049
:1000F0000B000D000E000F0033003400320028000A
:10010000E10036021D001B00060019000500110069
:100110001000360037003800E500E6000000E0007F
:100120000000E200E30000002C0001510000E700A5
:100130000251E40001204C00005C01003A003B0049
:100140003C003D003E003F004000410042004300B3
:1001500044004500010001005200010001000100BF
:1001600001000100010001000100010001004C003C
:100170000100500051004F0001000100010050003B
:10018000510052004F0001000100AE0001000100CB
:100190000100010001000100010001000100010057
:1001A00001000100010001000000E0000000E20089
:1001B000E30000002C00E700000001000100E40063
:1001C0000100010001000100010001000100010027
:1001D0000100010001000100010001000100010017
:1001E0000100010001000100010001000100010007
:1001F00001000100010001000100010001000100F7
:1002000001000100010001000100010001000100E6
:1002100001000100010001000100010001000100D6
:1002200001000100010001000100010001000100C6
:1002300001000100000001000000010001000000B9
:1002400001000100000001000100010001000100A7
:1002500044454255473A2064697361626C65642E77
:100260000A0044454255473A20656E61626C6564F8
:100270002E0A000A002530313662003A200025306F
:100280003258000A722F632030313233343536371A
:1002900038394142434445460A000A002530325865
:1002A00020006B6579626F6172645F7265706F7256
:1002B000743A20000A0025303258006B6579626F6D
:1002C0006172645F7365745F6C65643A2000646595
:1002D0006C5F6B65795F6269743A2063616E277445
:1002E0002064656C3A20253032580A006164645FEE
:1002F0006B65795F6269743A2063616E277420616F
:1003000064643A20253032580A003F00433E200002
:100310004C25640A0074696D65725F7265616433AF
:100320003228293A202530346C580A006B65796DE3
:1003300061705F636F6E6669672E6E6B726F3A20D5
:1003400025580A006B6579626F6172645F69646C3D
:10035000653A2025580A006B6579626F6172645FA7
:1003600070726F746F636F6C3A2025580A00686F63
:1003700073745F6B6579626F6172645F6C656473DF
:1003800028293A2025580A000A092D20537461743F
:100390007573202D0A004743433A2031302E312E09
:1003A00030204156522D4C4942433A20322E302EB5
:1003B00030204156525F415243483A2061767235AF
:1003C0000A004F5054494F4E533A204C5546412055
:1003D00045585452414B455920434F4E534F4C457D
:1003E00020434F4D4D414E44204E4B524F20343010
:1003F00039360A004255494C443A2022302E382ED4
:100400003133322D33302D676364386235312D64DA
:100410006972747922202832313A30333A333520E8
:100420004A756C2032392032303230290A00564960
:10043000443A2030783033454228554143292050F2
:1004400049443A203078324646342841546D33329C
:10045000553444465529205645523A20307830309C
:1004600030330A00444553433A205A6564656B694A
:10047000656C204B6579626F6172640A000A092D10
:100480002056657273696F6E202D0A000A092D20AF
:10049000436F6E736F6C65202D0A4553432F713A7D
:1004A00009717569740A000A092D204D6167696335
:1004B000202D0A443A094465627567204D657373BF
:1004C00061676520546F67676C650A583A094D612A
:1004D00074726978204465627567204D6F64652089
:1004E000546F67676C65202D2053686F77206B65AC
:1004F000797072657373657320696E206D617472B3
:10050000697820677269640A4B3A094B6579626FB2
:1005100061726420446562756720546F67676C651B
:10052000202D2053686F77206B6579707265737327
:10053000207265706F72740A4D3A0944656275677E
:10054000204D6F75736520546F67676C650A563A66
:100550000956657273696F6E0A533A095374617470
:1005600075730A433A09416374697661746520437F
:100570006F6E736F6C65204D6F64650A46312D4652
:1005800031303A0953776974636820746F204C6185
:1005900079657220302D392028463130203D204C9D
:1005A00030290A302D393A09537769746368207409
:1005B0006F204C6179657220302D390A47524156BF
:1005C000453A0953776974636820746F204C6179E8
:1005D000657220302028616C7465726E61746529C3
:1005E0000A423A094A756D7020746F20426F6F7429
:1005F0006C6F616465720A4553433A094A756D70C0
:1006000020746F20426F6F746C6F61646572202874
:10061000616C7465726E617465290A453A0950729D
:10062000696E7420454550524F4D2053657474696E
:100630006E67730A4253504143453A09436C656102
:100640007220454550524F4D0A4E3A094E4B524F7B
:1006500020546F67676C650A000A002575002E6ECE
:100660006B726F3A20000A002575002E7377617057
:100670005F6261636B736C6173685F6261636B730C
:10068000706163653A20000A002575002E7377615A
:10069000705F67726176655F6573633A20000A0078
:1006A0002575002E6E6F5F6775693A20000A002578
:1006B00075002E737761705F72616C745F7267751D
:1006C000693A20000A002575002E737761705F6C0F
:1006D000616C745F6C6775693A20000A00257500CB
:1006E0002E737761705F7263746C5F726775693ABD
:1006F00020000A002575002E737761705F6C6374AB
:100700006C5F6C6775693A20000A002575002E63DE
:100710006170736C6F636B5F746F5F636F6E747225
:100720006F6C3A20000A002575002E737761705FA8
:10073000636F6E74726F6C5F636170736C6F636B09
:100740003A20000A0025303258006B65796D6170DF
:100750005F636F6E6669672E7261773A20000A00E8
:100760002575002E6D6F7573653A20000A0025759A
:10077000002E6B6579626F6172643A20000A002571
:1007800075002E6D61747269783A20000A00257533
:10079000002E656E61626C653A20000A00253032D9
:1007A000580064656275675F636F6E6669672E7275
:1007B00061773A20000A0025750064656661756CF2
:1007C000745F6C617965723A20003F004E4B524F66
:1007D0003A206F66660A004E4B524F3A206F6E0AFF
:1007E000000A6D6F7573653A206F66660A000A6DC0
:1007F0006F7573653A206F6E0A000A6B6579626FD8
:100800006172643A206F66660A000A6B6579626FEE
:100810006172643A206F6E0A000A6D6174726978C1
:100820003A206F66660A000A6D61747269783A2030
:100830006F6E0A000A64656275673A206F66660A21
:10084000000A64656275673A206F6E0A000A0A4AF8
:10085000756D70696E6720746F20626F6F746C6F56
:10086000616465722E2E2E2000433E2000436C658D
:100870006172696E6720454550524F4D0A006565AB
:10088000636F6E6669673A0A005B735D004B65795A
:10089000626F6172642073746172742E0A005B5718
:1008A0005D005B535D005B525D005B445D005B433C
:1008B0005D000403300000001603410054006D0089
:1008C000330032005500340044004600550000005B
:1008D0000803550041004300000004030904090215
:1008E0005B00030100A0FA090400000103010100FC
:1008F0000921110100012240000705810308000AB7
:100900000904010001030000000921110100012276
:100910006D000705820320000A090402000203009B
:100920000000092111010001222200070583032094
:10093000000107050303200001120110010000005F
:1009400008EB03F42F0300010203010631FF0974D1
:10095000A1010975150026FF00952075088102097F
:1009600076150026FF00952075089102C005010943
:1009700080A101850319012AB700150126B700954A
:100980000175108100C0050C0901A1018504190140
:100990002AA002150126A002950175108100C0054C
:1009A000010906A1018505050719E029E7150025BC
:1009B000019508750181020507190029EF15002529
:1009C0000195F07501810205081901290595057544
:1009D000019102950175039101C005010906A1016C
:1009E000050719E029E71500250195087501810221
:1009F0009501750881010507190029FF150026FFDB
:100A000000950675088100050819012905950575E9
:100A1000019102950175039101C011241FBECFEF12
:100A2000DAE0DEBFCDBF04B603FE27C080918902A5
:100A300090918A02A0918B02B0918C028730904BEA
:100A4000A740B04BD1F41092890210928A02109202
:100A50008B0210928C0214BE84B7877F84BF0FB6BE
:100A6000F894A8958091600088618093600010924E
:100A700060000FBEE0E0F8E3099511E0A0E0B1E00E
:100A8000E6E8FCE402C005900D92AC38B107D9F756
:100A900022E0ACE8B1E001C01D92A938B207E1F74D
:100AA0000E9420200C94CC250C940000FF93EF931F
:100AB000E0918C01F0918D01309709F00995EF914B
:100AC000FF910895FC018591803011F0EFDFFBCF9D
:100AD0000895FF27E0E230E247FF0CC0419597FF01
:100AE00009C0EDE26095709580959095611D711D2E
:100AF000811D911D27FF02C0219530E350E2AA27F6
:100B0000660F771F881F991FAA1FA41710F0A41B38
:100B100063955A95A9F7AA3008F0A95FA05DAF9335
:100B2000F395611571058105910541F7ED3211F4D9
:100B3000EF93F395F21718F43F93F395FBCF8F9152
:100B4000B5DFFA95E1F70895E991F9918591803043
:100B500021F0853219F0AADFF9CF089520E0E8945A
:100B600055915532C1F3503311F4689455915A336D
:100B700048F4505390F3220F022E220F220F200D23
:100B8000250FF4CF0EF4219589919991533619F3DD
:100B9000533729F1533559F1BC0188279927E89437
:100BA0005C3621F48991999168945591543639F4C1
:100BB00046EF7EF077FF0DC08FEF9FEF0AC05537ED
:100BC0004AE039F0583540E121F0523642E009F070
:100BD0000895FF93EF937DDFEF91FF91B7CFFF93E0
:100BE000EF93FC0181918030B9F360DFFBCFFF937D
:100BF000EF9368DFF1CFDF93CF93CDB7DEB72596C4
:100C0000A3DFCF91DF9108950C94DB080C94DC08EE
:100C100081E0089581E008950C940A0608950C94EB
:100C20000E061F93CF93DF9300D000D00F92CDB765
:100C3000DEB749835A836B833091BA0189819A81E7
:100C400031111DC06623B9F02223A9F00E94F816C5
:100C5000182F682F89819A810E94A11669817A8153
:100C6000812F0F900F900F900F900F90DF91CF91E9
:100C70001F910C94D9060E94CF16182FEFCF0E9417
:100C8000F81669817A81EDCFFC01262F40815181D0
:100C90006281738184810C941106CF93DF93D82FE6
:100CA000C92F60E00E9444066D2F7C2FDF91CF9109
:100CB0000C940F060E946D18811102C00E940A193F
:100CC0000C9404060C94060608950C94640681E0C6
:100CD00008950C946706CF93C82F0E9465068C2F49
:100CE000CF910C94690608950E9453110E947306D7
:100CF0002FEF84E39CE0215080409040E1F700C05A
:100D000000000C94D71A0F931F93CF93DF93EC013D
:100D100061E00E9444068C01BE010E940C068823FB
:100D200011F1BE01C8010E94D00A8823E1F0BE0182
:100D3000C8010E94140B8823B1F0BE01C8010E94B3
:100D4000E70B882381F08A81882341F101308CE50B
:100D5000180779F00E3D8CE51807E9F001151C45E0
:100D6000E9F40E94740680E0DF91CF911F910F910A
:100D7000089590914D02892F8E7F90FF816080931E
:100D80004D0280FF05C082E692E00E946205EBCF33
:100D900080E592E0FACF0E940A19E5CFCE01DF91FB
:100DA000CF911F910F910C94080690E080E0089578
:100DB0000895972F70E02EE0929F600D711D112411
:100DC000FB0196E4899FE00DF11D1124EE0FFF1F3A
:100DD000E455FF4F859194910895FC01EE0FFF1F9C
:100DE000ED58FD4F859194910895CF93DF930E9424
:100DF000D9060E940008EC01811521E5920708F050
:100E000048C0811530E5930708F0AFC0803E9105DA
:100E100018F5803C910508F096C0883A910570F469
:100E2000853A910508F08CC08130910531F1049725
:100E3000813A910510F1D0E0C0E01FC08F3B9105D1
:100E4000D1F3C85AD0E0CC0FDD1FC35FDE4F09904D
:100E5000D881C02DD46411C0811540E3940788F473
:100E6000C11580E2D80708F074C0C83ED10528F04B
:100E7000CE019A9581159F41F0F6CE01DF91CF9179
:100E80000895811530E4930708F466C0DF70D06AD6
:100E9000F4CF8115964560F5C11585E5D80708F0B2
:100EA00096C0C11594E5D907F0F4C11523E5D20722
:100EB00008F079C0C11532E5D30708F46FC0CE0140
:100EC0008370992721E030E002C0220F331F8A95FA
:100ED000E2F7C695C69540E2C49FE0011124C22BFB
:100EE000D32BDC68CACFDC2FCC27C46FD06AC5CF28
:100EF000C1158AE5D80788F4C11599E5D90708F026
:100F000071C0CE0198558F3F910511F008F093CF35
:100F1000DC2FCC27C06FD06AB0CFCE0190568115A0
:100F2000904208F088CF8D2F8F710E94980890E032
:100F3000982F882788279F719C012C2BE90150C08E
:100F4000A497D0649ACF805C91090E94ED06EC01D1
:100F500094CFCE019F70F9CF9927D3FF03C0EC0146
:100F6000D86C8BCFEC01D06C88CF74E096958795C8
:100F70007A95E1F783702C2F26952695237040E211
:100F8000249F90011124382B8C2F8370C1E0D0E076
:100F900002C0CC0FDD1F8A95E2F7A1CFDC2FCC2752
:100FA000C16FD06A6ACFCE018370992721E030E00B
:100FB00002C0220F331F8A95E2F7C695C69580E2DC
:100FC000C89FE0011124C22BD32BDA6856CF8C2F97
:100FD0000E949808C82FD0E0DC2FCC27CC27DF71E7
:100FE000D0624BCF8C2F8F700E94980834E0D6953A
:100FF000C7953A95E1F7CF70DC2FC82FD0693DCF68
:10100000803E910599F1C8F48133910509F476C0C9
:1010100048F48932910509F46AC08A32910509F4CD
:1010200074C0089589339105D1F082389105B9F0E3
:101030008533910509F454C00895843E910599F1D2
:1010400038F4823E9105F9F0833E910509F1089547
:10105000863E910599F1873E9105B9F10895209159
:1010600053022370A1F080EE90E008952091530286
:1010700020FD52C03091540230FF09C024FF4FC000
:1010800090E080E004C02091530222FDF7CF089544
:101090002091530222FD46C03091540230FDE3CF2F
:1010A00024FFF5CFEDCF2091540221FFF0CF8091A6
:1010B000530284FDE5CF87EE90E00895209153021E
:1010C00023FFE5CF24FDDCCFF6CF2091530223FD93
:1010D0002CC03091540231FFE3CF84EE90E00895AC
:1010E0002091530225FFD3CF89E290E0089520910B
:1010F000530225FFCCCF85E390E008952091530261
:1011000026FFC5CF8AE290E008952091530226FF82
:10111000BECF81E390E0089589E390E0089583EEE7
:1011200090E0089582EE90E0089586EE90E00895B4
:101130009091530292FF06C0282F28712830F9F4AD
:10114000877F846093FF06C0282F28712831F1F42F
:10115000877E84612091540220FF06C0382F3871A9
:101160003830D9F4877F816021FF06C0282F28718D
:101170002831D1F4877E816194FD877E0895282FE0
:1011800024712430F9F68B7F8860DCCF282F2471FE
:10119000243101F78B7E8861DDCF382F31713130FA
:1011A00019F78E7F8860E0CF282F2171213121F738
:1011B0008E7E8861E1CF08950895E82FF0E0EE0F6C
:1011C000FF1FE257FE4F808191810895CF92DF92F9
:1011D000EF92FF920F931F93CF93DF9383E892E0F8
:1011E0000E9462058EE8E82E81E0F82ED0E0C0E093
:1011F0009EE7C92E92E0D92E05E712E0DF93CF9348
:10120000DF92CF920E94FB058BE792E00E9462057D
:10121000F701819191917F010E9460189F938F93B4
:101220001F930F930E94FB0583E792E00E946205E3
:1012300021968DB79EB708960FB6F8949EBF0FBE45
:101240008DBFC530D105D1F6DF91CF911F910F91A0
:10125000FF90EF90DF90CF90089580EA8A95F1F7A4
:101260000895CF93DF93C9E4D1E02EE431E041E06B
:1012700050E08991E82FE295EF70A1E2AE0FB0E067
:10128000FC918F70BA0101C0660F8A95EAF7962F1C
:1012900090959F239C93EE5DF0E08081862B808368
:1012A0002C173D0731F7CBE3D1E029E431E041E0F1
:1012B00050E08991E82FE295EF70A1E2AE0FB0E027
:1012C000FC918F70BA0101C0660F8A95EAF7962FDC
:1012D00090959F239C93EE5DF0E08081862B808328
:1012E0002C173D0731F78AE0E8E9F1E0DF01982F9C
:1012F0001D929A95E9F7EEE8F1E0DF011D928A95DB
:10130000E9F785E00E94290ADF91CF910C945A06F3
:101310002F923F924F925F926F927F928F929F9205
:10132000AF92BF92CF92DF92EF92FF920F931F93F3
:10133000CF93DF9388E9C82E81E0D82E99E4A92EB7
:1013400091E0B92E312C88248394912CF6014190A0
:1013500051906F01129212927F01F50181915F010C
:10136000C82FC295CF7001E20C0F10E0F8019081F8
:101370008F70340101C0660C8A95EAF7892F86299F
:101380008083CE5DD0E08881262C209482218883C2
:101390000E942D09ABE3B1E030E020E06D91E62F33
:1013A000E295EF70E05EF0E08081F70140815181CD
:1013B00090E06F7002C0959587956A95E2F780FD81
:1013C00045C0C401022E02C0880F991F0A94E2F79B
:1013D000842B952BF701918380832F5F3F4F2E3015
:1013E0003105E1F6F8018081282220828881682A6F
:1013F000688281E0F701208131812415350509F4E7
:1014000080E0382AF2EACF16F1E0DF0609F09ECF3D
:10141000232D45E06EE871E088E991E00E942A0AF8
:101420000E946206832DDF91CF911F910F91FF9053
:10143000EF90DF90CF90BF90AF909F908F907F9074
:101440006F905F904F903F902F90089580E090E0D4
:10145000BFCF0895FF920F931F93CF93DF93F82E82
:10146000092F162FD72FC42F222349F081E0809314
:10147000A4010E94781A9093A3018093A201809105
:10148000A4018823A1F08091A2019091A3010E9460
:10149000A41A069760F0EF2DF02FA12FBD2F90E03A
:1014A00080E0D0E08C179D0744F01092A401DF91FA
:1014B000CF911F910F91FF900895219131912D931C
:1014C0003D930196EFCF0F931F93CF93DF93C62FDA
:1014D000D42F022FFC0182818823C9F06093A701D9
:1014E0000E94781A9093A6018093A50180E28C0F48
:1014F000883008F050C0C77081E001C0880FCA95DD
:10150000EAF7DF91CF911F910F910C94AE0E1091DD
:10151000A701161335C08091A5019091A6010E94E4
:10152000A41A883C910560F5C0E2CD0F1D17B9F0F3
:1015300080E2810F883040F4177081E001C0880F8D
:101540001A95EAF70E94B50EC83048F481E09D2F45
:10155000977001C0880F9A95EAF70E94AE0E802F0F
:101560000E949B0EC830B8F4D77081E001C0880F8C
:10157000DA95EAF7DF91CF911F910F910C94B50E98
:1015800080E28C0F883038F4C77081E001C0880F8A
:10159000CA95EAF7EFCFDF91CF911F910F91089590
:1015A0009C01CB01233F4CE5340769F190F4283DC1
:1015B000FCE53F0721F1293D4CE5340781F1273D4A
:1015C0003C45B1F0FC018281882361F11092A701B2
:1015D0000895253FFCE53F07D1F0263F4CE5340751
:1015E000D1F0243F3C4571F727E245EE64EE03C09D
:1015F00026E241EE61EE0E94630A80E0089527E250
:1016000045EE65EEF8CF26E241EE60EEF4CF26E23D
:1016100041EE62EEF0CF27E245EE66EEECCF28E237
:1016200041E0EFCF81E00895CF93DF93EC01FB0120
:101630008281882309F4C9C0C631FCE5DF07E0F4E4
:10164000C2309CE5D907F0F00E94801890935402B4
:1016500080935302C631ECE5DE0720F5C230FCE58D
:10166000DF0798F480915302909154020E948E18E3
:101670000E94531180E006C09E012A5F3C4529303C
:10168000310510F3DF91CF910895FE01E350FC4541
:10169000809153028160E331F10588F4E253FA4D01
:1016A0000C948425CA5FDC45C930D105D8F6CF51EA
:1016B000DA4DFE010C948425809153028260809360
:1016C0005302D0CF809153028460F9CF80915302AE
:1016D0008860F5CF80915402816080935402C2CF1C
:1016E000809154028260F9CF809153028061E7CFEC
:1016F000809153028062E3CF809153028064DFCFF8
:101700000E945311809153028068D9CF8091530277
:101710008C60D5CF809154028360DFCF80915302DB
:101720008E7FCDCF809153028D7FC9CF80915302A0
:101730008B7FC5CF80915302877FC1CF80915402A8
:101740008E7FCBCF809154028D7FC7CF8091530283
:101750008F7EB5CF809153028F7DB1CF80915302A0
:101760008F7BADCF0E945311809153028F77A7CF0B
:1017700080915302837FA3CF809154028C7FADCFA1
:101780008091530282FB992790F921E0922790FBE8
:1017900082F990FB83F993CF80915402982F909512
:1017A00091708E7F892B90FB81F997CF0E94531106
:1017B00090915302892F97FB87F9805880CF81E061
:1017C0000E940C194FCF80E0FBCF81E05BCFCF931D
:1017D000DF93EB0186319C4511F50E9495179A81A4
:1017E000992399F08A7A91E009F490E09093A80106
:1017F000811109C089E20E9470170E94E41780E0FD
:10180000DF91CF91089585E3F6CF8091A8018111F2
:1018100004C089E20E947717F0CF85E3FBCF81E017
:10182000EFCF9093AE018093AD010895E091AD01AB
:10183000F091AE01309721F00190F081E02D0994F4
:1018400080E00895EF92FF920F931F93CF93DF9361
:10185000EC01E091AD01F091AE01309709F442C086
:1018600080910C01882341F08091530287FF04C0CE
:101870008881898385E088830280F381E02DCE0111
:10188000099580914D0282FF2DC080FF04C082EA3D
:1018900092E00E9462057E0188E0E80EF11C0CE9EE
:1018A00012E080914D0280FF0BC088811F928F93C0
:1018B0001F930F930E94FB050F900F900F900F90B6
:1018C0002196CE15DF0569F780914D0280FF0AC091
:1018D0008AE992E0DF91CF911F910F91FF90EF90F5
:1018E0000C946205DF91CF911F910F91FF90EF90C3
:1018F00008952091AB013091AC012817390771F0A0
:101900009093AC018093AB01E091AD01F091AE01F9
:10191000309721F00680F781E02D099408952091F9
:10192000A9013091AA012817390771F09093AA01F3
:101930008093A901E091AD01F091AE01309721F0C3
:101940000084F185E02D0994089585B7806885BFEE
:1019500085B7806885BF0895089508950C94AC0CF0
:1019600008950C94B00C0E94A50C0E94AD0C0C9430
:10197000AE0C81E008950E946F1A0E9431090E9406
:10198000FB1A0C94B10CCF93C82F80914D0282FFAB
:101990001EC080FF1CC08BEB92E00E94620580910C
:1019A0004D0280FF14C01F92CF9386EB92E09F936D
:1019B0008F930E94FB0580914D020F900F900F9026
:1019C0000F9080FF04C084EB92E00E9462058C2F90
:1019D000CF910C946B069F92AF92BF92CF92DF9201
:1019E000EF92FF920F931F93CF93DF9300D000D01D
:1019F0000F92CDB7DEB70E9488090E94B90C8823E8
:101A000009F46CC050EBA52E51E0B52E10E000E0BB
:101A1000902E802F0E94DD087C01F501C190D190AD
:101A20005F01C816D90609F453C080914D0281FDAB
:101A30000E94E60896012E253F2580E0CC24C39421
:101A4000D12CA9014C215D21452BE1F189839A829A
:101A5000EC20FD2081E0EF2809F480E08B830E94D8
:101A6000781A8160782F9D838C8349815A816B819C
:101A70008D810E94900D000F111FF801E055FE4F5F
:101A800080819181C826D926D182C0820E94160CFD
:101A90009091AF01891799F10E94160C8093AF01C4
:101AA0000F900F900F900F900F90DF91CF911F919B
:101AB0000F91FF90EF90DF90CF90BF90AF909F90ED
:101AC0000C94C30C8F5FCC0CDD1C8E3009F0B9CFA9
:101AD0000F5F1F4F0530110509F09ACF8FEF8983F3
:101AE0008A831B820E94781A8160782F9D838C8361
:101AF00049815A816B818D810E94900DC7CF0F90D3
:101B00000F900F900F900F90DF91CF911F910F9139
:101B1000FF90EF90DF90CF90BF90AF909F9008958F
:101B2000CF93DF93CDB7DEB72B970FB6F894DEBF18
:101B30000FBECDBF4F83588769877A878B871E82F8
:101B400085E0FE013796DE01119601900D928A958F
:101B5000E1F749815A816B817C818D819E812B9631
:101B60000FB6F894DEBF0FBECDBFDF91CF910C94BE
:101B7000B513FC01808191810C943A17CF93C82F43
:101B8000882309F487C08238C1F40E94160C81FDB5
:101B900081C089E30E9470170E94E4172FEF31EE95
:101BA00084E0215030408040E1F700C0000089E32C
:101BB0000E947717CF910C94E4178338A1F40E9408
:101BC000160C80FD67C083E50E9470170E94E41721
:101BD0009FEF21EE34E0915020403040E1F700C00B
:101BE000000083E5E5CF8438A1F40E94160C82FD45
:101BF00051C087E40E9470170E94E4178FEF91EEA6
:101C000024E0815090402040E1F700C0000087E4CC
:101C1000CFCF8CEF8C0F813AB8F48C2F0E94B61D79
:101C2000811138C06C2F80910001909101010E94B8
:101C30002519882329F08C2F0E9477170E94E4171A
:101C40008C2F0E947017B6CF80E28C0F883048F43A
:101C5000C77081E001C0880FCA95EAF70E94981703
:101C6000A9CF8BE58C0F833038F42C2F2452330B03
:101C7000C901CF910C94790CC85AC73158F4EC2F94
:101C8000F0E0EE0FFF1FE25BFE4F80819181CF916C
:101C90000C948F0CCF910895882309F44BC082389F
:101CA00071F40E94160C81FF45C089E30E947017F1
:101CB0000E94E41789E30E9477170C94E417833895
:101CC00059F40E94160C80FF35C083E50E947017FE
:101CD0000E94E41783E5EFCF843859F40E94160C74
:101CE00082FF28C087E40E9470170E94E41787E4EF
:101CF000E2CF9CEF980F913AF0F290E2980F983073
:101D000050F4877091E001C0990F8A95EAF7892F06
:101D10000E949E17D2CF9BE5980F933020F490E05D
:101D200080E00C94790C885A873120F490E080E0B0
:101D30000C948F0C0895CF93C82F0E94BE0DC93309
:101D400049F42FEF87EE93E0215080409040E1F777
:101D500000C000008C2FCF910C944C0E882321F0F2
:101D60000E9498170C94E4170895882321F00E948C
:101D70009E170C94E4170895AF92BF92CF92DF9212
:101D8000EF92FF920F931F93CF93DF9300D000D079
:101D90000F92CDB7DEB76C016D837983FC010581AD
:101DA00002950F70128111110E94B7170E948E17B1
:101DB000E82E882371F01123B1F08D81805E883088
:101DC00090F082E00E942F180E948E1791E0E82E7A
:101DD000E926A980A2949FE0A922B12CF501E65141
:101DE000FA4D0C948425E12CF4CF09810F70F98110
:101DF000F07F11F00295007F1123B1F0002361F014
:101E00008D81805E883018F02D81211109C0802FCE
:101E10000E9498170E94E4178D810E94BE0D15C084
:101E2000802F0E94A917F6CF8D810E944C0E0023AF
:101E300061F08D81805E883018F04D81411133C092
:101E4000802F0E949E170E94E41748E0A41AB10850
:101E500054E0A516B10420F40E94160C0E946B06F3
:101E6000EE2009F4CBC10E948A1780FDC7C1F6019C
:101E700012820E9484170E949115C6010E942511AA
:101E80000E9484170F900F900F900F900F90DF918A
:101E9000CF911F910F91FF90EF90DF90CF90BF9067
:101EA000AF900C94C215802F0E94AF17CCCF5981F0
:101EB0005F70F52E6981607F603219F0F29480EFD7
:101EC000F8227D81772369F0713049F1112391F176
:101ED000002351F1F601858180FF9ECF8F708583AD
:101EE00023C0112381F0011106C00E94CB178F2956
:101EF0000E94AE0EAACF0130C1F70E94CB178F29E6
:101F00000E94D117A2CF011106C00E94DA178F2DAF
:101F10000E94B50E9ACF013009F497CFF6CF112366
:101F200029F0063008F091CF8F2DE2CF053008F070
:101F30008CCFEDCF002359F3FD81F93349F42FEF16
:101F400047EE53E0215040405040E1F700C0000010
:101F50008D810E944C0E79CF8981869586958370FC
:101F600069F0813009F071CF8D81998193701111E1
:101F700002C090E080E00E948F0C67CF8D81998134
:101F80009370111102C090E080E00E94790C5DCF47
:101F90008981837009F050C0111157CF4D8142954E
:101FA00046954770440F440F8D818F7090E0B0E0EC
:101FB000A0E0042E04C0880F991FAA1FBB1F0A941B
:101FC000D2F76D8100E010E0980164FF0FC00FE0D0
:101FD00010E020E030E004C0000F111F221F331F6B
:101FE0004A95D2F700951095209530957981769590
:101FF000769573707D83B901A801482B592B6A2B04
:102000007B2B49835A836B837C835D8169817A81D1
:102010008B819C81523051F0533059F0513019F07E
:102020000E94071512CF0E94DF140FCF0E942F15B8
:102030000CCF0E94DD1409CF112309F445C069813A
:1020400060FF03CF4D81429546954770440F440F82
:102050008D818F7090E0B0E0A0E0042E04C0880F66
:10206000991FAA1FBB1F0A94D2F7ED8100E010E070
:102070009801E4FF0FC00FE010E020E030E004C062
:10208000000F111F221F331F4A95D2F7009510959C
:1020900020953095F981F695F695F370FD83B90199
:1020A000A801482B592B6A2B7B2B49835A836B83BE
:1020B0007C83F230A1F0F330C9F0F13049F0CB016C
:1020C000BA010E945016C1CE798171FFBECEBACF3F
:1020D00069817A818B819C810E942816B6CE6981A4
:1020E0007A818B819C810E947816AFCE69817A813A
:1020F0008B819C810E945B15A8CE59815F705983AA
:10210000112329F0852F0E9491158D81F1CE8D81AB
:102110000E94B50E89810E94C21597CE6D81623FE3
:1021200099F160F4603FD9F0613F39F1112309F46E
:1021300044C0011171CE89818F7123C07D81733FAD
:1021400041F1743F99F7112371F189818F7189836E
:102150000E94911563E089810E941A1876CE11239E
:1021600041F0053008F071CE89818F710E94F7151A
:102170006CCE063008F069CEF7CF89818F711123BC
:1021800051F20E94911561CE89818F711123C9F39B
:10219000C2CF112329F089818F710E946C1555CE11
:1021A0000E94671552CE81E00E942F18023008F479
:1021B0004CCE82E00E942F1848CE002361F09D8112
:1021C000993309F0C5CEEFEFF7EE23E0E150F04090
:1021D0002040E1F7BBCE89818F719DCF49814F703F
:1021E0006D81C6010E94D5060E944F142ECE4981F2
:1021F0004F706D81C6010E94D80627CE0F900F90B8
:102200000F900F900F90DF91CF911F910F91FF9042
:10221000EF90DF90CF90BF90AF9008950F931F93F2
:10222000CF93DF93EC01688179818A810E94461700
:102230008C010E94A0160E94DC14B801CE01DF912F
:10224000CF911F910F910C94BC0ECF93DF93EC01B3
:102250008B819C81892B29F08981988189238F3FEB
:1022600019F4DF91CF910895CE010E94830688234F
:10227000C1F3CE010E940E11CE01DF91CF910C94DB
:102280004D060E94B7170E94C8170E94E41790E0FD
:1022900080E00E94790C90E080E00C948F0C0E940A
:1022A0007E170C9441110E94A6170C944F11282FF1
:1022B000892F82958F70903C80F48A30B0F48430FE
:1022C00020F4823090F480E008958630E1F781E0D8
:1022D000283E88F0213FB9F70EC08C3011F08F30C6
:1022E00091F793FB882780F9089581E0203F39F02A
:1022F00018F4283E40F70895243F29F7FCCF0895AD
:102300000E943A170C945711CF93DF9300D000D05E
:102310000F92CDB7DEB70F900F900F900F900F90E8
:10232000DF91CF910895CF93DF9300D000D000D0FC
:10233000CDB7DEB726960FB6F894DEBF0FBECDBF81
:10234000DF91CF9108951F93CF93DF93E091BB016D
:1023500016E08091BC018E1304C0DF91CF911F91D4
:102360000895CE2FD0E01E9FF0011124E354FE4FBC
:102370004081518162817381848195810E94931192
:10238000FE013196E770E5CF4091ED015091EE01ED
:102390006091EF017091F0018091F1019091F20153
:1023A0000C9493111F93CF93DF938091F201807F60
:1023B000A9F48091EF01882389F08091BB01C0913D
:1023C000BC017091ED016091EE01A091F001B0911E
:1023D000F101D62FD72316E0C81304C0DF91CF91A7
:1023E0001F91089590E0109711F0DF3F19F40196C6
:1023F0008770F2CF189F9001199F300D1124F901B9
:10240000E354FE4F41816413F2CF40814713EFCF75
:1024100042814111ECCF438154814A1B5B0B483C04
:10242000510528F78091F2018F7080618093F2014D
:10243000F901EE53FE4F80818F70806180838DEEB5
:1024400091E00E942511DF91CF911F910C94A3116F
:10245000AF92BF92CF92DF92EF92FF920F931F93B2
:10246000CF93DF93CDB7DEB72B970FB6F894DEBFCF
:102470000FBECDBF8C0185E0F801DE0117960190FB
:102480000D928A95E1F7F80140815181E2808DEE4D
:10249000A82E81E0B82E6091F0017091F1016115D4
:1024A000710549F09091ED012091EE01892F822371
:1024B0008F3F09F045C1EE2009F453C14F8358877F
:1024C0008F8198850E948011F82E882309F449C1D4
:1024D00086E0F801ADEEB1E001900D928A95E1F74A
:1024E0008DEE91E00E94B90D0E94D21126C180911B
:1024F000F201382F307F683C710508F07CC0311143
:10250000B5C0FE2C251324C0941322C0E11020C0B6
:102510008F7080618093F2010E94C4118DEE91E072
:102520000E9425118091F201F80185838F2D2B9651
:102530000FB6F894DEBF0FBECDBFDF91CF911F91D4
:102540000F91FF90EF90DF90CF90BF90AF900895E4
:10255000CD2829F0842F85238F3F09F084C080E0A7
:10256000F82FF170DF2EE091BB012091BC0136E025
:1025700080FD1CC0EE20D1F28091F2018160809339
:10258000F201F12CD3CF8E2F90E03E9FF001112469
:10259000E354FE4F6181651306C06081641303C07C
:1025A00062816E11E7CFFC013196E770E213EBCF49
:1025B0004F8358878F8198850E943A17292F22953B
:1025C0002F70903260F0225F2F70223078F49F706D
:1025D00051F0F8019581907F31F4D12C0AC09F70A1
:1025E00011F08823D1F3805E8830B8F3C8010E94CF
:1025F0002511FD2C9BCF31116EC06E2D7A858B85F8
:102600000E9484118DEE91E00E94251186E0F50173
:1026100011928A95E9F70E94C411B3CF86E0F801C0
:10262000ADEEB1E001900D928A95E1F77FCF4F8337
:1026300058878F8198850E94801181113DC08091BB
:10264000F20181608093F201C8010E9425116ECFD2
:102650006E2D7A858B850E94841186E0F50111929A
:102660008A95E9F76AC081E08E257ACF251306C0E6
:10267000941304C0F801EE2009F453C04F83588727
:102680008F8198850E948011882309F46AC0EE200A
:1026900009F467C08091F201803270F02091ED0161
:1026A0003091EE013A8329831B82DD82CC828E83B6
:1026B000CE0101960E94251186E0F801ADEEB1E051
:1026C00001900D928A95E1F70E94D2110E94C411E7
:1026D000FF24F3942BCF2513D1CF9413CFCFE11048
:1026E000CDCFF8018583C8010E94251186E0F50150
:1026F00011928A95E9F71ACF251399CF941397CFA2
:102700008091F20180FD8ACF982F907F09F486CFC7
:10271000F8018583903F31F0982F907F905F8F7004
:10272000892B8583C8010E94251186E0F801ADEE52
:10273000B1E001900D928A95E1F70E94C411F6CEA6
:10274000C380D480F090EF01F601E61BF70BBF01C8
:10275000F110CDCE683C710508F07ACFFE2CE11067
:10276000CBCFC8010E942511B3CF1F93CF93DF9326
:10277000CDB7DEB72C970FB6F894DEBF0FBECDBF36
:102780004F83588769877A878B879C87CE01079606
:102790000E942812882369F08A859B85892B39F04D
:1027A00058854F81852F84238F3F09F071C016E033
:1027B0005FC086E0FE013796DE01119601900D9212
:1027C0008A95E1F78A859B85892B89F38F81988586
:1027D00089238F3F61F32091BC0130E0C90101964C
:1027E000877099274091BB014817190671F40E9420
:1027F00053111092BC011092BB0186E0EDEEF1E0A6
:10280000DF011D928A95E9F7D2CF96E0929FD00121
:10281000939FB00D1124A354BE4FFE013196019039
:102820000D929A95E1F78093BC010E94A311BFCF4E
:10283000819FC001112483549E4F0E942812882337
:10284000E9F0E091BB011E9FF0011124E354FE4F1B
:102850004081518162817381848195810E949311AD
:102860008091BB0190E00196877099278093BB010E
:102870008091BB019091BC018913DACF2C960FB6E1
:10288000F894DEBF0FBECDBFDF91CF911F910895A9
:1028900069857A858B859C850E94931188CFEF92FC
:1028A000FF920F931F93CF93DF938C01892B89F0B5
:1028B000F12CEE24E394E8012196F8018491843709
:1028C00009F458C0A0F4823009F43FC048F48130C4
:1028D000D1F0DF91CF911F910F91FF90EF9008956C
:1028E0009CEF980F9037A8F70E94BE0D0AC085375D
:1028F00009F44EC09CE7980F903758F78F770E94E5
:102900004C0E8E0116C00E5F1F4FFE01849190E2A7
:10291000980F983060F48770FE2D01C0FF0F8A95E4
:10292000EAF78F2F0E94BA170E94E41702C00E9494
:10293000BE0D8F2D882309F4BECFEFE9FFE031975C
:10294000F1F700C000008150F5CF0E5F1F4FFE0170
:10295000849190E2980F983050F48770FE2D01C05A
:10296000FF0F8A95EAF78F2F0E94C017DDCF0E94D4
:102970004C0EDFCF0E5F1F4FFE01C491CC23C9F276
:102980008FE99FE00197F1F700C00000C150F6CF3A
:102990000E5F1F4FFE01F490CCCF08950C94CD1420
:1029A0000E94CE1460932402709325028093260225
:1029B000909327020C94411108950C94D014CF9356
:1029C000DF9300D000D0CDB7DEB769837A838B83E5
:1029D0009C838091240290912502A0912602B091BF
:1029E000270229813A814B815C81282B392B4A2B84
:1029F0005B2B29833A834B835C83CA01B9010F9017
:102A00000F900F900F90DF91CF910C94D014CF9333
:102A1000DF9300D000D0CDB7DEB769837A838B8394
:102A20009C838091240290912502A0912602B0916E
:102A3000270229813A814B815C81282339234A234B
:102A40005B2329833A834B835C83CA01B9010F90CE
:102A50000F900F900F90DF91CF910C94D014CF93E3
:102A6000DF9300D000D0CDB7DEB769837A838B8344
:102A70009C838091240290912502A0912602B0911E
:102A8000270229813A814B815C81282739274A27EF
:102A90005B2729833A834B835C83CA01B9010F907A
:102AA0000F900F900F90DF91CF910C94D0140C9455
:102AB000CD140C9457150E94591560932002709301
:102AC000210280932202909323020C94411160E032
:102AD00070E0CB010C945B150F931F93CF93DF93A2
:102AE00000D000D0CDB7DEB741E050E060E070E04C
:102AF0008A019B0104C0000F111F221F331F8A95FA
:102B0000D2F709831A832B833C83C901B8010F9044
:102B10000F900F900F90DF91CF911F910F910C9418
:102B20005B150F931F93CF93DF9300D000D0CDB7E9
:102B3000DEB741E050E060E070E004C0440F551F94
:102B4000661F771F8A95D2F780912002909121020B
:102B5000A0912202B09123028A019B01082B192B1C
:102B60002A2B3B2B09831A832B833C83C901B80191
:102B70000F900F900F900F90DF91CF911F910F91B9
:102B80000C945B150F931F93CF93DF9300D000D06D
:102B9000CDB7DEB741E050E060E070E004C0440F24
:102BA000551F661F771F8A95D2F7409550956095FF
:102BB00070958091200290912102A0912202B09103
:102BC00023028A019B01082319232A233B2309831B
:102BD0001A832B833C83C901B8010F900F900F908B
:102BE0000F90DF91CF911F910F910C945B150F9374
:102BF0001F93CF93DF9300D000D0CDB7DEB741E075
:102C000050E060E070E004C0440F551F661F771F5E
:102C10008A95D2F78091200290912102A091220200
:102C2000B09123028A019B01082719272A273B27F5
:102C300009831A832B833C83C901B8010F900F903D
:102C40000F900F90DF91CF911F910F910C945B1516
:102C5000CF93DF9300D000D0CDB7DEB769837A83FE
:102C60008B839C838091200290912102A09122026B
:102C7000B091230229813A814B815C81282B392B29
:102C80004A2B5B2B29833A834B835C83CA01B901AE
:102C90000F900F900F900F90DF91CF910C945B15D8
:102CA000CF93DF9300D000D0CDB7DEB769837A83AE
:102CB0008B839C838091200290912102A09122021B
:102CC000B091230229813A814B815C8128233923E9
:102CD0004A235B2329833A834B835C83CA01B9016E
:102CE0000F900F900F900F90DF91CF910C945B1588
:102CF000CF93DF9300D000D0CDB7DEB769837A835E
:102D00008B839C838091200290912102A0912202CA
:102D1000B091230229813A814B815C812827392790
:102D20004A275B2729833A834B835C83CA01B90115
:102D30000F900F900F900F90DF91CF910C945B1537
:102D40000895E82F2EE0929FE00D11248E2F8770BA
:102D500041E001C0440F8A95EAF7E695E695E695CD
:102D600085E0E89FF0011124ED50FE4F30E020E0B7
:102D700070E05191DF011197CB01022E02C09695B0
:102D800087950A94E2F781708195852784238527AA
:102D90008C932F5F3F4F2530310559F70895E82F69
:102DA0002EE0929FE00D11249E2F9770E695E695F8
:102DB000E69585E0E89FF0011124ED50FE4F50E0CC
:102DC00040E080E0219130E0092E02C03695279541
:102DD0000A94E2F721703327042E01C0220F0A94CF
:102DE000EAF7822B4F5F5F4F4530510559F7089541
:102DF000BF92CF92DF92EF92FF920F931F93CF93E8
:102E0000DF938C01C0902002D0902102E09022023A
:102E1000F09023028091240290912502A091260235
:102E2000B0912702C82AD92AEA2AFB2ACFE1D0E0AA
:102E3000BC2ED701C6010C2E04C0B695A795979558
:102E400087950A94D2F780FD0EC0219788F7B12CA0
:102E50008B2DDF91CF911F910F91FF90EF90DF901D
:102E6000CF90BF900895B8018C2F0E94F50601976E
:102E700061F3EECFCF93DF93D82FC92F0E94F816BE
:102E80006D2F7C2FDF91CF910C94F5061F93CF937C
:102E9000DF93162FD72F9091BA01992339F0862FFF
:102EA000972FDF91CF911F910C943A17882391F0BF
:102EB000862F972F0E94F816C82F682F812F9D2FDD
:102EC0000E94A116612F7D2F8C2FDF91CF911F9132
:102ED0000C94F506862F972F0E94CF16C82FF2CF9D
:102EE000682F80910001909101010C94CB19682FFB
:102EF00080910001909101010C94D61980910001FC
:102F0000909101010C94E119809128028595859595
:102F100085950895809128028770089590912802E0
:102F2000977081E009F480E0089580914C02089543
:102F300090914C02982B90934C020895982F909565
:102F400080914C02892380934C02089510924C0288
:102F5000089590914B02982B90934B020895982FCF
:102F6000909580914B02892380934B020895109293
:102F70004B02089590914A02982B90934A0208952B
:102F8000982F909580914A02892380934A02089550
:102F900010924A02089580912902089508950C9490
:102FA000CE1790912902981721F0809329020C9452
:102FB000CF17089580912902882329F010922902C1
:102FC00080E00C94CF170895E0910001F091010189
:102FD00080914C028083E0910001F0910101808199
:102FE00090914B02892B8083E0910001F0910101C7
:102FF000808190914A02892B8083909129029923A4
:1030000081F0E0910001F09101018081892B8083A2
:1030100080910001909101010E94111981110E947B
:10302000DA1780910001909101010C94220C08950F
:103030000C94171898E0899F90011124622B6093DB
:1030400028020E9491158091280285958595859585
:103050000C9418181092280280E00C941818909183
:1030600028028095892380932802282F277071F4E5
:10307000282F082E000C330B9217130639F0859574
:10308000859585950E94C2150C942A1808959093F1
:103090008D0180938C010895829594E0899F900121
:1030A00011242C7C869586958373282B30E0C901EA
:1030B000880F991F8A7A359527952575822B089553
:1030C000CF93DF93D92F0E944C18C82F8D2F0E94C9
:1030D0004C189C2FDF91CF91089590E080E00E94E2
:1030E00092259C0181E02C3E3E4F09F080E008953E
:1030F00082E090E00C948A2583E090E00C948A258D
:10310000CF9384E090E00E948A25C82F81E290E06E
:103110000E948A25982F8C2FCF910895CF93682FE6
:10312000C92F84E090E00E9498256C2F81E290E006
:10313000CF910C949825AB01BC018FE090E00C94EA
:10314000AA25AB01BC0183E190E00C94AA2560E0C4
:1031500070E0CB010C94A11860E070E0CB010E94FC
:103160009B180C94A7186CEE7EEF90E080E00E9414
:10317000B62560E082E090E00E94982560E083E060
:1031800090E00E949825109224021092250210923D
:1031900026021092270260E084E090E00E949825C9
:1031A00060E081E290E00E94982560E085E090E098
:1031B0000E94982560E086E090E00E9498256FEFDD
:1031C00087E090E00E94982540E050E0BA0188E056
:1031D00090E00E94AA2560E08DE090E00E94982592
:1031E00040E050E0BA0188E190E00E94AA2560E04A
:1031F00087E190E00E94982540E050E0BA018CE120
:1032000090E00E94AA2560E080E290E00E9498256C
:103210000C94AC180C94B318682F8EE090E00C94CA
:103220009825FC01329680910C01882321F0809131
:1032300053029EE187FF96E080E0915008F40895E4
:1032400021912223D1F38F5FF8CF9C01662301F1F6
:1032500080910C018823F1F08091530287FF1AC0FE
:10326000462F469546954695603F90F4677081E0FD
:1032700090E002C0880F991F6A95E2F7240F311D74
:10328000F901228130E02823392381E0232B71F4D6
:1032900080E00895F9013296285F3F4F81918617AB
:1032A00021F0E217F307D1F7F3CF81E008959C01F5
:1032B000FC0132968FEF90E04191461751F08F3F1D
:1032C00019F4411101C0892F9F5F9630A9F78F3FF4
:1032D00009F40895280F311D87FD3A95F90162839D
:1032E00008959C01FC013296285F3F4F819186131F
:1032F00003C0DF0111971C92E217F307B9F7089595
:10330000FC01862F869586958695603F68F4E80FC8
:10331000F11D677021E030E001C0220F6A95EAF7E5
:103320008281822B8283089580914D0280FF0CC0A0
:103330001F926F938CEE92E09F938F930E94FB05F8
:103340000F900F900F900F900895FC01862F869597
:1033500086958695603F70F4E80FF11D677081E0F7
:1033600090E001C0880F6A95EAF7809592818923E1
:103370008283089580914D0280FF0CC01F926F934D
:103380008EEC92E09F938F930E94FB050F900F901D
:103390000F900F90089520910C01222329F0209185
:1033A000530227FD0C9480190C94571920910C019D
:1033B000222329F02091530227FD0C94A5190C9487
:1033C0007119FC01329680910C01882351F0809193
:1033D000530287FF06C08EE1DF011D928A95E9F74F
:1033E000089586E0F9CF089508950C94F4190E9489
:1033F000F51980917F02843049F110924E0288E1E4
:1034000090E020E40FB6F894A895809360000FBE7A
:103410002093600080E00E946B060E94F51983B73C
:10342000817F846083BF83B7816083BF78948895F0
:1034300083B78E7F83BF0FB6F894A8958091600004
:10344000886180936000109260000FBE0895089517
:10345000CF930E94F3190E9488090E94271AC0E0A6
:103460008C2F0E94DD08892B31F4CF5FC530C1F766
:1034700080E0CF91089581E0FCCF08950C943D1A2F
:103480000E9453110E94160C0E946B060C943E1A67
:103490001F921FB61F9211248F939F93AF93BF93D8
:1034A00080914E02811113C080914F029091500281
:1034B000A0915102B09152024196A11DB11D80937D
:1034C0004F0290935002A0935102B0935202BF91C9
:1034D000AF919F918F911F901FBE1F90189582E012
:1034E00084BD93E095BD9AEF97BD80936E000895DB
:1034F0002FB7F89480914F0290915002A091510201
:10350000B09152022FBF0895CF93DF9300D000D027
:10351000CDB7DEB78FB7F89420914F0230915002AB
:10352000409151025091520229833A834B835C832C
:103530008FBF69817A818B819C810F900F900F9052
:103540000F90DF91CF9108959C014FB7F89480912F
:103550004F0290915002A0915102B09152024FBF80
:10356000821B930B089578941F921FB61F9211240B
:103570008F939F93AF93BF9380914F02909150028E
:10358000A0915102B09152020196A11DB11D8093EC
:103590004F0290935002A0935102B0935202BF91F8
:1035A000AF919F918F911F901FBE1F90189581E042
:1035B0008093E00080E28093D8001092C9008FE1F0
:1035C0009EE40197F1F700C0000087E090EBDC017A
:1035D0008093890290938A02A0938B02B0938C020D
:1035E00088E19CE00FB6F894A895809360000FBE28
:1035F00090936000FFCFCF93DF9300D000D0CDB782
:10360000DEB70E946D18811102C00E940A190E9443
:10361000781880934D020E948018909354028093F2
:1036200053020E947C18282F30E050E040E02983AC
:103630003A834B835C83CA01B9010F900F900F90BE
:103640000F90DF91CF910C94DD14CF93DF9300D0D6
:1036500000D0CDB7DEB789831F928F9380E193E0CE
:103660009F938F930E94FB0581E090E0A0E0B0E083
:103670009C01AD01098004C0220F331F441F551F58
:103680000A94D2F729833A834B835C83CA01B90138
:103690000E94DD140F900F900F900F900F900F90DD
:1036A0000F900F90DF91CF910C945311CF93DF9334
:1036B000EBEFE80FEF3308F04FC2F0E0E650FA4DC1
:1036C0000C9484258EE798E00E9462058AEB97E0CF
:1036D0000E9462050E947C181F928F9387EB97E0EF
:1036E0009F938F930E94FB0585EB97E00E946205F4
:1036F0000E947818C82F82EA97E00E9462051F9204
:10370000CF938DE997E09F938F930E94FB058BE900
:1037100097E00E94620581E997E00E9462058C2F84
:1037200081701F928F938EE897E09F938F930E94F2
:10373000FB058CE897E00E94620582E897E00E9412
:103740006205C1FB882780F91F928F938FE797E06E
:103750009F938F930E94FB058DE797E00E9462057F
:1037600081E797E00E946205C2FB882780F91F92DB
:103770008F938EE697E09F938F930E94FB058CE6D4
:1037800097E00E94620583E697E00E946205C3FB12
:10379000CC27C0F91F92CF9380E697E09F938F9339
:1037A0000E94FB058EE597E00E9462050E9480184A
:1037B000EC018AE497E00E946205DF93CF9385E4F1
:1037C00097E09F938F930E94FB0583E497E00E940C
:1037D00062058AE297E00E9462058C2F81701F9239
:1037E0008F9387E297E09F938F930E94FB058DB79D
:1037F0009EB780960FB6F8949EBF0FBE8DBF85E230
:1038000097E00E9462058EE097E00E946205C1FB8E
:10381000882780F91F928F938BE097E09F938F9377
:103820000E94FB0589E097E00E94620587EF96E021
:103830000E9462058D2F81701F928F9384EF96E016
:103840009F938F930E94FB0582EF96E00E94620592
:1038500080EE96E00E946205D695D1701F92DF93AC
:103860008DED96E09F938F930E94FB058BED96E084
:103870000E94620589EC96E00E946205C2FB8827DF
:1038800080F91F928F9386EC96E09F938F930E940E
:10389000FB0584EC96E00E94620582EB96E00E94B4
:1038A0006205C3FB882780F91F928F938FEA96E009
:1038B0009F938F930E94FB058DEA96E00E9462051C
:1038C00083EA96E00E946205C4FB882780F91F9274
:1038D0008F9380EA96E09F938F930E94FB058EE979
:1038E00096E00E9462058CE896E00E946205C5FBA6
:1038F000882780F91F928F9389E896E09F938F9392
:103900000E94FB0587E896E00E9462058BE696E040
:103910000E946205C6FB882780F91F928F9388E674
:1039200096E09F938F930E94FB058DB79EB780967C
:103930000FB6F8949EBF0FBE8DBF86E696E00E943C
:1039400062058EE596E00E946205C7FBCC27C0F9B0
:103950001F92CF938BE596E09F938F930E94FB0578
:1039600089E596E00E9462050F900F900F900F90EE
:1039700081E01CC08DE698E00E9462050E940A1951
:10398000F7CF87EA94E00E946205F2CF80914D0262
:10399000807F80934D028CE894E00E94620589E666
:1039A00098E00E94620581E080935502DF91CF91FB
:1039B00008950E9453118DE498E00E9462059FEFE4
:1039C00023ED80E3915020408040E1F700C00000EB
:1039D0000E94D71ACDCF90914D02892F8E7F90FFF4
:1039E000816080934D0280FF03C081E498E0CBCFDB
:1039F00084E398E00E94620580914D02817F80936C
:103A00004D02B6CF90914D02892F8D7F91FF82603C
:103A100080934D0281FF08C087E298E00E94620512
:103A200080914D028160EBCF89E198E0ACCF90911D
:103A30004D02892F8B7F92FF846080934D0282FF1D
:103A400003C08AE098E0EACF8AEF97E09CCF90919C
:103A50004D02892F877F93FF886080934D0283FFFB
:103A600003C08EEE97E0DACF81EE97E08CCF8DE742
:103A700094E00E94620584E694E00E9462058EE272
:103A800094E00E94620584EF93E00E94620582EC5C
:103A900093E00E94620586E993E075CF88E893E0A1
:103AA0000E9462050E94160C1F928F938EE693E08F
:103AB0009F938F930E94FB0580910C011F928F931F
:103AC00087E593E09F938F930E94FB0580917A0294
:103AD0001F928F9384E493E09F938F930E94FB0542
:103AE0008091530287FB882780F91F928F938CE285
:103AF00093E09F938F930E94FB050E94841A9F93EB
:103B00008F937F936F9385E193E09F938F930E94B0
:103B1000FB058DB79EB746960FB6F8949EBF0FBEB5
:103B20008DBF26CF0E94531190915302892F97FB8E
:103B300087F980588093530287FF03C087ED97E091
:103B400022CF8CEC97E01FCF80E00E94251B10CF86
:103B50008953FBCF8D51F9CF8AEC97E00E94620523
:103B600080E024CF80E008950C94B21DCF93C82F3D
:103B700080915502882331F0813099F010925502DE
:103B800080E00DC00E9495178232D1F78C2F0E94E1
:103B9000B21D81111BC08C2F0E94561B8170CF91CA
:103BA00008950E949517823289F38C2F0E94B41DCC
:103BB000811119C0C932C9F060F4CB3061F0C43151
:103BC000A1F08AE093E00E94620511C081E090E0DC
:103BD000E5CFC833B1F78CE894E00E9462058CE031
:103BE00093E00E94620581E0D9CF1092550280E0F7
:103BF000D5CF8091790208950895CF93DF9300D0B7
:103C00000F92CDB7DEB790917F02943019F589837A
:103C10006A837B8382E08093E9008FEF9091E800D4
:103C2000815095FD06C095ED9A95F1F70000811140
:103C3000F5CF8091E80085FF0DC050E040E063E0E3
:103C400070E0CE0101960E94F2208091E8008E770C
:103C50008093E8000F900F900F90DF91CF9108951F
:103C6000CF93DF93D82FC92F0E94D520823011F037
:103C7000843039F46D2F7C2F84E0DF91CF910C9448
:103C8000FD1DDF91CF910895BC0183E00C94FD1DD3
:103C9000CF93DF93D82FC92F0E94D520823011F007
:103CA0008430C9F580910C018823C1F180915302C1
:103CB00087FF34C060E282E08093E9008FEF90914B
:103CC000E800815095FD06C095ED9A95F1F700004A
:103CD0008111F5CF8091E80085FF1DC080910C0116
:103CE00070E050E040E0811104C050E040E068E046
:103CF00070E08D2F9C2F0E94F2208091E8008E773B
:103D00008093E80080E2ED2FFC2FA9E5B2E001905E
:103D10000D928A95E1F7DF91CF91089568E081E0F7
:103D2000CBCF9FB7F894109258029FBF90917F021B
:103D3000943009F048C02091E9002F703091EC00D8
:103D4000932F917030FD90E8922B23E02093E900AF
:103D50002091EB0020FF34C02091EE0027FF30C0FF
:103D600020915602222321F02091E80025FF28C04F
:103D70001092560226E03091E80035FF14C080937F
:103D8000F1008091E80085FD27C08091E80080FF68
:103D9000FCCF8091E8008E778093E8009F7090932D
:103DA000E90080E0089530917F02343049F4309189
:103DB000EB0035FD05C0215041F481E080935602AF
:103DC0009F709093E9008FEF0895EFE9FFE031973E
:103DD000F1F700C00000CFCF8FB7F89421E0209317
:103DE00058028FBFDBCF8EEA98E00E946205809177
:103DF0008802811109C00E947A220E94D7228091F4
:103E0000E20084608093E20008958AEA98E00E94CC
:103E1000620510928802089586EA98E00C94620583
:103E200082EA98E00C9462058EE998E00E946205AF
:103E30000C94401A209157022F5F822F62E30E9458
:103E40007825992319F0209357020895109257026C
:103E5000809158028823F1F080917F028430C1F470
:103E60009091E9009F702091EC00822F817020FDDD
:103E700080E8892B93E09093E9009091EB0090FF0C
:103E800004C09091EE0097FD08C08F708093E90008
:103E90001092580208951092F1009091E80095FD5B
:103EA000FACF9091E80090FFF0CF9091E8009E77D4
:103EB0009093E800EACF42E061EC81E00E94F621B5
:103EC00042E261EC82E00E94F62142E261EC83E092
:103ED0000C94F62180918102893089F148F4823076
:103EE00009F49DC0833009F458C0813041F0089531
:103EF0008A3009F484C08B3009F46AC00895809137
:103F00008002813A09F048C08091E800877F809361
:103F1000E8008091840290918502892B61F460E22F
:103F200089E592E070E00E9441218091E8008B7762
:103F30008093E800089560E090E080E0F3CF809106
:103F40008002813249F58091840290918502029726
:103F500018F58091E800877F8093E8008091E80061
:103F600082FF16C09091F3008091F200029729F42D
:103F70008091F1008B7F813021F48091F10080935A
:103F800079028091E8008B778093E8000C942A22D4
:103F900080917F028111E2CF089580918002813A61
:103FA000D9F78091840290918502892BA9F780919D
:103FB000E800877F8093E8008091E80080FFFCCFD5
:103FC00080910C018093F1008091E8008E77DCCF26
:103FD00080918002813201F7809184029091850264
:103FE000892BD1F68091E800877F8093E8000E94BA
:103FF0002A228091820280930C010C9453118091AB
:104000008002813249F68091E800877F8093E80042
:104010000E942A228091830280937A0208958091DF
:104020008002813A09F0B8CF8091E800877F8093C1
:10403000E8008091E80080FFFCCF80917A02C2CF37
:1040400084B7877F84BF0FB6F894A89580916000ED
:10405000886180936000109260000FBE80E890E05D
:104060000FB6F89480936100909361000FBE0E9498
:10407000B30C0E947A220E94D7228091E2008460D1
:104080008093E20081E99EE10E94471878940E94A3
:104090005D250E94BB0C82E091E00E94110C8DE82E
:1040A00098E00E94620580917F02853019F00E949D
:1040B000EB0CF9CF89E898E00E9462050E94F7199D
:1040C00080917C02882379F30E94281A882359F36F
:1040D0000E94DC20E8CF0C946D20FC01CB01DA01BA
:1040E0002F2F332723303105D1F070F421303105E3
:1040F00009F44EC02230310569F48BE590E02EEDD5
:1041000038E02D933C9308952132310521F122327C
:10411000310571F190E080E030E020E0F2CFCF0196
:104120009927E230A9F08330910550F4009769F0A7
:10413000E0EDF8E0019771F7849190E09F01E1CF05
:10414000E2EBF8E00397C1F3E5CFEAEDF8E0F4CF56
:10415000E8EBF8E0F1CF63307105E0F6880F991FC6
:10416000FC01EB57FE4F2081318189E090E0C9CFFF
:104170006330710578F6FB01EE0FFF1FE158FE4F2B
:104180002081318184589E4FFC01808190E0B9CF1D
:1041900082E190E029E339E0B4CF80917F0284305E
:1041A00011F482E0089581E0089580917B028111ED
:1041B00002C00C94CD20089580E189BD82E189BDC3
:1041C00009B400FEFDCF8091D8008F7D8093D80088
:1041D0008091E00082608093E0008091E00081FDAA
:1041E000FCCF0895AF92BF92CF92DF92FF920F93D0
:1041F0001F93CF93DF936C01EB018A010E94492248
:10420000F82E811123C00115110539F0F8018081C4
:104210009181C81BD90BC80ED91EB12CA12C209797
:10422000A9F08091E80085FD22C08091E8008E779A
:104230008093E80001151105A1F0F80180819181BA
:10424000A80EB91EB182A08285E0F82E8F2DDF91D5
:10425000CF911F910F91FF90DF90CF90BF90AF90C3
:1042600008950E9449228823D1F2F82EEFCFF6015B
:1042700081916F018093F1002197FFEFAF1ABF0A80
:10428000CECFFC01CB012091860230918702261708
:10429000370790F0009729F42091E8002E772093BB
:1042A000E80040E0009751F4411108C08091E80017
:1042B00082FF31C080E00895C901F3CF20917F02D1
:1042C0002223A9F12530A9F12091E80023FD2DC07A
:1042D0002091E80022FDEACF2091E80020FFE2CF04
:1042E0003091F3002091F200009719F02830310549
:1042F00058F041E02830310509F040E02091E80015
:104300002E772093E800CECF41914093F1000197A2
:104310002F5F3F4FE9CF80917F02882341F08530A6
:1043200041F08091E80083FFC1CF81E0089582E0F1
:10433000089583E00895FC01CB012091860230911D
:1043400087022617370790F0009729F42091E8009C
:104350002E772093E80040E0009751F4411108C007
:104360008091E80082FF32C080E00895C901F3CF58
:1043700020917F022223B1F12530B1F12091E80094
:1043800023FD2EC02091E80022FDEACF2091E80015
:1043900020FFE2CF3091F3002091F200009719F056
:1043A0002830310558F041E02830310509F040E06F
:1043B0002091E8002E772093E800CECF44914093DF
:1043C000F100319601972F5F3F4FE8CF80917F0238
:1043D000882341F0853041F08091E80083FFC0CF11
:1043E00081E0089582E0089583E00895982F973042
:1043F00028F08F708093E90081E008959093E900A0
:10440000242F762F50E0981731F07091EC00209116
:10441000ED005091F00021FD02C09F5FE8CF309188
:10442000EB003E7F3093EB003091ED003D7F309309
:10443000ED003091EB0031603093EB007093EC00B5
:104440002093ED005093F0002091EE0027FDE5CF82
:1044500080E008958091800287FF13C08091E8007A
:1044600082FF06C08091E8008B778093E80004C04B
:1044700080917F028111F2CF089580917F0288237D
:10448000D9F38091E80080FFF8CF8091E8008E7723
:10449000ECCF2091E4003091E50095E6A901209150
:1044A000EC00822F817020FF06C08091E80080FF21
:1044B00006C080E008952091E80022FD1AC0809196
:1044C0007F02882389F0853089F08091EB0085FD9B
:1044D0000FC02091E4003091E50042175307F9F234
:1044E0009150E1F684E0089582E0089583E0089514
:1044F00081E008950E94E8220E94F022E0EEF0E0C0
:10450000808181608083E8EDF0E080818F77808317
:1045100019BCA7EDB0E08C918E7F8C9380818F7E4B
:1045200080831092880208950F931F93CF93DF9397
:104530000E94E8220E94F022C8EDD0E088818F77A7
:10454000888388818068888388818F7D888319BC6F
:1045500010927F0210927E0210927C0210927D02D5
:1045600000EE10E0F80180818B7F8083888181607C
:10457000888342E060E080E00E94F621E1EEF0E016
:1045800080818E7F8083E2EEF0E080818160808395
:10459000808188608083F80180818E7F808388811C
:1045A00080618883DF91CF911F910F910895E8ED8D
:1045B000F0E080818F7E8083E7EDF0E08081816094
:1045C000808384E082BF81E0809388020C949422EF
:1045D000E8EDF0E080818E7F80831092E200089504
:1045E0001092DA001092E10008951F920F920FB618
:1045F0000F9211242F933F934F935F936F937F9369
:104600008F939F93AF93BF93EF93FF938091E100BC
:1046100082FF0BC08091E20082FF07C08091E10021
:104620008B7F8093E1000E941A1F8091DA0080FF47
:1046300019C08091D80080FF15C08091DA008E7F6C
:104640008093DA008091D90080FF94C080E189BD19
:1046500082E189BD09B400FEFDCF81E080937F0235
:104660000E94F31E8091E10080FF19C08091E2005A
:1046700080FF15C08091E2008E7F8093E2008091E0
:10468000E20080618093E2008091D8008062809394
:10469000D80019BC85E080937F020E94101F809192
:1046A000E10084FF29C08091E20084FF25C080E101
:1046B00089BD82E189BD09B400FEFDCF8091D8009B
:1046C0008F7D8093D8008091E1008F7E8093E10000
:1046D0008091E2008F7E8093E2008091E200816011
:1046E0008093E20080917E02882309F449C084E02F
:1046F00080937F020E94141F8091E10083FF29C0F4
:104700008091E20083FF25C08091E100877F809344
:10471000E10082E080937F0210927E028091E100AE
:104720008E7F8093E1008091E2008E7F8093E20093
:104730008091E20080618093E20042E060E080E0EE
:104740000E94F6218091F00088608093F0000E9422
:104750000C1FFF91EF91BF91AF919F918F917F912E
:104760006F915F914F913F912F910F900FBE0F90DE
:104770001F90189519BC10927F020E94051F72CFDE
:104780008091E30087FD02C081E0B2CF83E0B0CF2B
:104790001F920F920FB60F9211242F933F934F93B6
:1047A0005F936F937F938F939F93AF93BF93CF93B9
:1047B000DF93EF93FF93D091E900DF708091EC00DD
:1047C000C82FC17080FDC0E81092E9008091F00010
:1047D000877F8093F00078940E940C241092E90067
:1047E0008091F00088608093F000CD2BCF70C09353
:1047F000E900FF91EF91DF91CF91BF91AF919F9130
:104800008F917F916F915F914F913F912F910F9079
:104810000FBE0F901F9018951F93CF93DF93CDB7C6
:10482000DEB7AA970FB6F894DEBF0FBECDBF80E803
:1048300092E0FC0101962091F100208322E088386B
:104840009207B9F70E946A1F8091E80083FF1DC19B
:1048500080918002909181029A3008F016C1E92F70
:10486000F0E0E75CF94D0C948425803899F08238AB
:1048700009F00BC1809184028F70873008F005C168
:104880008093E9008091EB0085FB882780F91092E6
:10489000E90006C080917D0290917C0291118260B6
:1048A0009091E800977F9093E8008093F100109238
:1048B000F1008091E8008E77E4C0882309F4D2C02B
:1048C000823009F0E2C0809182028111D5C08091CE
:1048D00084028F702FEF280F263008F0D6C0809307
:1048E000E9002091EB0020FFC7C0933031F48091A4
:1048F000EB0080628093EB00BFC09091EB00906171
:104900009093EB0021E030E001C0220F8A95EAF796
:104910002093EA001092EA008091EB008860EACFD1
:104920008111B3C0109182021F778091E3008078DB
:10493000812B8093E3008091E800877F8093E800DB
:104940000E942A228091E80080FFFCCF8091E30042
:1049500080688093E30082E0111183E080937F02FE
:1049600094C08058823008F090C08091820290916B
:1049700083028C3D23E0920799F583E08A838AE2E3
:1049800089834FB7F894DE01139620E03EE051E2B0
:10499000E32FF0E050935700849120FF03C08295ED
:1049A0008F703F5F8F708A30C8F0895C90E08D9384
:1049B0009D932F5F243161F74FBF8091E800877F7F
:1049C0008093E8006AE270E0CE0101960E944121E6
:1049D0008091E8008B778093E80057C0805DE6CF38
:1049E0006091840270918502AE014F5F5F4F0E941B
:1049F0006B20BC01892B09F448C08091E800877FB7
:104A00008093E80089819A810E949B21E1CF8038C0
:104A1000E1F58091E800877F8093E80080917E0235
:104A20008093F10046CF811130C090918202923084
:104A300060F58091E800877F8093E80090937E0284
:104A40000E942A2280917E02882311F084E005C012
:104A50008091E30087FDFACF81E080937F020E947E
:104A60005B1F13C080918202813079F481E0933022
:104A700009F080E080937C021092E9008091E800C8
:104A8000877F8093E8000E942A228091E80083FFBC
:104A90000AC08091E800877F8093E8008091EB0056
:104AA00080628093EB00AA960FB6F894DEBF0FBE2B
:104AB000CDBFDF91CF911F910895CF9380917F0259
:104AC0008823A1F0C091E900CF709091EC00892F6C
:104AD000817090FD80E8C82B1092E9008091E80079
:104AE00083FD0E940C24CF70C093E900CF910895FC
:104AF000991B79E004C0991F961708F0961B881F30
:104B00007A95C9F780950895EE0FFF1F0590F491EF
:104B1000E02D0994F999FECF92BD81BDF89A9927AD
:104B200080B50895A8E1B0E042E050E00C94BE25C5
:104B3000262FF999FECF92BD81BDF89A019700B456
:104B4000021639F01FBA20BD0FB6F894FA9AF99AF6
:104B50000FBE08950396272F0E9499250E9498253D
:104B6000252F0E949925242F0C9499250196272FF3
:104B70000E9499250C949825DC01CB01FC01F99940
:104B8000FECF06C0F2BDE1BDF89A319600B40D9299
:104B900041505040B8F70895F894FFCF5C0B620B7A
:104BA000660B740B780B7C0B800B860B8E0B920BB9
:104BB000960B9A0BA60BAA0BAE0BB20BB80BD60B2F
:104BC000C00B6A0B700B9E0BA20B8A0BBC0BCC0BA1
:104BD000DF0BE30BF50EF50E570F570FAC0F250F3C
:104BE000250F250FC80F7D108E108E10EE10250F8B
:104BF000250FF710D91CC61CEB1C621BAC1DAC1D8D
:104C0000C11CAC1DAC1D171DAC1D271D921DAC1D7C
:104C1000AC1DAC1DAC1D4E1DAC1DAC1D371DAC1D1F
:104C2000021DAC1DAC1DAA1DAA1DAA1DAA1DAA1DF0
:104C3000AA1DAA1DAA1DAA1DA41DAC1DD91CBA1C03
:104C4000AC1DAC1DAC1DAC1DAC1DAC1DAC1DAC1D1C
:104C5000AC1DAC1DA41DAC1DAC1DC11CAC1DA81D04
:104C6000A81DA81DA81DA81DA81DA81DA81DA81D1C
:104C7000A41D35245D2445255D2445259024B124BB
:064C800045250725132560
:104C86002A02F91D481EFC1D441E301E01E200E9E1
:104C960000EA00B500B600B700CD008301CC008A5B
:104CA60001920194012102230224022502260227F1
:104CB600022A02B300B4006F007000F7C667669759
:104CC600969594939237363530F0F1F4F5F6E20086
:104CD600E900EA00B500B600B700CD008301CC00BC
:104CE6008A0192019401210223022402250226024E
:104CF60027022A02B300B4006F007000406D22DA6A
:0C4D0600096D094B09F008090922090099
:00000001FF
