:100000000C946E050C94B5050C94B5050C94B505CF
:100010000C94B5050C94B5050C94B5050C94B50578
:100020000C94B5050C94B5050C9447230C94192435
:100030000C94A41A0C94B5050C94B5050C94B50554
:100040000C94B5050C94B5050C94B5050C94B50548
:100050000C94B5050C94FD1A0C94B5050C94B505DB
:100060000C94B5050C94B5050C94B5050C94B50528
:100070000C94B5050C94B5050C94B5050C94B50518
:100080000C94B5050C94B5050C94B5050C94B50508
:100090000C94B5050C94B5050C94B5050C94B505F8
:1000A0000C94B5050C94B5050C94B505EC0FEC0F4C
:1000B0001E101E106B109F119F119F1189101E1191
:1000C0002F112F118F119F119F1198113012301283
:1000D00042124212391242124212421230123012AD
:1000E0003E12421242123E12011DEF1C131D8D1BC7
:1000F000EC1DEC1DEC1CEC1DEC1D401DEC1D541DFD
:10010000CC1DEC1DEC1DEC1DEC1D881DEC1DEC1D2B
:10011000711DEC1D2C1DEC1DEC1DE61DE61DE61DE4
:10012000E61DE61DE61DE61DE61DE61DE81DEC1DAF
:10013000011DE41CEC1DEC1DEC1DEC1DEC1DEC1D6B
:10014000EC1DEC1DEC1DEC1DE81DEC1DEC1DEC1C6C
:10015000EC1DE41DE41DE41DE41DE41DE41DE41D8F
:10016000E41DE41DE81D8624AD24A525AD24A525A8
:10017000F9241C25A5257325822529001E001F00B2
:100180002000210022002300240025002600270053
:100190002D002E0035002B0014001A000800150059
:1001A00017001C0018000C00120013002F00300074
:1001B0002A00390004001600070009000A000B009D
:1001C0000D000E000F003300340032002800E10063
:1001D00064001D001B00060019000500110010003E
:1001E000360037003800E500E6000000E0000000BF
:1001F000E200E30000002C0001510000E700025182
:10020000E40001204C0001003A003B003C003D00AE
:100210003E003F00400041004200430044004500D2
:100220000100010001005200010001000100010075
:100230000100010001000100010001004C0001006B
:10024000500051004F00010001000100500051001A
:1002500052004F0001000100AE000100010001004A
:100260000100010001000100010001000100010086
:100270000100010001000000E0000000E200E300D6
:1002800000002C00E700000001000100E400010074
:100290000100005CDE5C01000100010001000100C2
:1002A0000100010001000100010001000100010046
:1002B0000100010001000100010001000100010036
:1002C0000100010001000100010001000100010026
:1002D0000100010001000100010001000100010016
:1002E0000100010001000100010001000100010006
:1002F00001000100010001000100010001000100F6
:1003000001000000010000000100010000000100E8
:10031000010000000100010001000100015C4445F2
:100320004255473A2064697361626C65642E0A0025
:1003300044454255473A20656E61626C65642E0AF9
:10034000000A002530313662003A2000253032584C
:10035000000A722F63203031323334353637383962
:100360004142434445460A000A00253032582000E5
:100370006B6579626F6172645F7265706F72743AF7
:1003800020000A0025303258006B6579626F617277
:10039000645F7365745F6C65643A200064656C5FCC
:1003A0006B65795F6269743A2063616E27742064BB
:1003B000656C3A20253032580A006164645F6B65D1
:1003C000795F6269743A2063616E277420616464A6
:1003D0003A20253032580A003F00433E20004C2589
:1003E000640A0074696D65725F72656164333228F6
:1003F000293A202530346C580A006B65796D61709C
:100400005F636F6E6669672E6E6B726F3A20255858
:100410000A006B6579626F6172645F69646C653A4A
:100420002025580A006B6579626F6172645F707293
:100430006F746F636F6C3A2025580A00686F73748D
:100440005F6B6579626F6172645F6C6564732829A4
:100450003A2025580A000A092D20537461747573D7
:10046000202D0A004743433A20352E342E302041B8
:1004700056522D4C4942433A20322E302E302041E4
:1004800056525F415243483A20617672350A004F16
:100490005054494F4E533A204C55464120455854EC
:1004A00052414B455920434F4E534F4C4520434FEB
:1004B0004D4D414E44204E4B524F20343039360A78
:1004C000004255494C443A2022302E382E313332E6
:1004D0002D33322D6763383964613222202831335D
:1004E0003A34323A32372041756720313420323085
:1004F0003230290A005649443A2030783033454298
:100500002855414329205049443A20307832464604
:1005100034285A6564656B69656C29205645523AE2
:10052000203078303030330A00444553433A205A63
:100530006564656B69656C204B6579626F61726497
:100540000A000A092D2056657273696F6E202D0A04
:10055000000A092D20436F6E736F6C65202D0A45CC
:1005600053432F713A09717569740A000A092D20E5
:100570004D61676963202D0A443A094465627567D5
:10058000204D65737361676520546F67676C650AFA
:10059000583A094D61747269782044656275672024
:1005A0004D6F646520546F67676C65202D2053681C
:1005B0006F77206B65797072657373657320696EF0
:1005C000206D617472697820677269640A4B3A0918
:1005D0004B6579626F61726420446562756720546F
:1005E0006F67676C65202D2053686F77206B657986
:1005F0007072657373207265706F72740A4D3A0978
:100600004465627567204D6F75736520546F676729
:100610006C650A563A0956657273696F6E0A533AE9
:10062000095374617475730A433A094163746976B6
:1006300061746520436F6E736F6C65204D6F6465E8
:100640000A46312D4631303A095377697463682080
:10065000746F204C6179657220302D392028463125
:1006600030203D204C30290A302D393A0953776922
:1006700074636820746F204C6179657220302D3965
:100680000A47524156453A095377697463682074A2
:100690006F204C6179657220302028616C7465721E
:1006A0006E617465290A423A094A756D7020746F4B
:1006B00020426F6F746C6F616465720A4553433AF0
:1006C000094A756D7020746F20426F6F746C6F6192
:1006D0006465722028616C7465726E617465290AA4
:1006E000453A095072696E7420454550524F4D206D
:1006F00053657474696E67730A4253504143453AB7
:1007000009436C65617220454550524F4D0A4E3A7F
:10071000094E4B524F20546F67676C650A000A0000
:100720002575002E6E6B726F3A20000A0025750049
:100730002E737761705F6261636B736C6173685F66
:100740006261636B73706163653A20000A0025750E
:10075000002E737761705F67726176655F657363A2
:100760003A20000A002575002E6E6F5F6775693AA2
:1007700020000A002575002E737761705F72616C2E
:10078000745F726775693A20000A002575002E7340
:100790007761705F6C616C745F6C6775693A20009B
:1007A0000A002575002E737761705F7263746C5F49
:1007B000726775693A20000A002575002E7377610B
:1007C000705F6C63746C5F6C6775693A20000A0037
:1007D0002575002E636170736C6F636B5F746F5F60
:1007E000636F6E74726F6C3A20000A002575002EDC
:1007F000737761705F636F6E74726F6C5F6361704B
:10080000736C6F636B3A20000A0025303258006B1E
:1008100065796D61705F636F6E6669672E7261776F
:100820003A20000A002575002E6D6F7573653A2019
:10083000000A002575002E6B6579626F6172643A5B
:1008400020000A002575002E6D61747269783A20C7
:10085000000A002575002E656E61626C653A200005
:100860000A00253032580064656275675F636F6EF9
:100870006669672E7261773A20000A002575006468
:10088000656661756C745F6C617965723A20003FD2
:10089000004E4B524F3A206F66660A004E4B524F45
:1008A0003A206F6E0A000A6D6F7573653A206F66A5
:1008B000660A000A6D6F7573653A206F6E0A000A4A
:1008C0006B6579626F6172643A206F66660A000A2E
:1008D0006B6579626F6172643A206F6E0A000A6D0F
:1008E00061747269783A206F66660A000A6D6174F5
:1008F0007269783A206F6E0A000A64656275673A19
:10090000206F66660A000A64656275673A206F6E3A
:100910000A000A0A4A756D70696E6720746F20625A
:100920006F6F746C6F616465722E2E2E2000433ED3
:100930002000436C656172696E6720454550524FD7
:100940004D0A006565636F6E6669673A0A005B73FE
:100950005D004B6579626F617264207374617274BB
:100960002E0A005B575D005B535D005B525D005BD0
:10097000445D005B435D0004033000000012035A35
:10098000006500640065006B00690065006C000094
:100990000008035500410043000000040309040956
:1009A000025B00030100A0FA090400000103010139
:1009B0000009211101000122400007058103080000
:1009C0000A090401000103000000092111010001CE
:1009D000226D000705820320000A090402000203B9
:1009E00000000009211101000122220007058303F4
:1009F000200001070503032000011201100100007F
:100A00000008EB03F42F0300010203010631FF0984
:100A100074A1010975150026FF0095207508810253
:100A20000976150026FF00952075089102C0050182
:100A30000980A101850319012AB700150126B70015
:100A4000950175108100C0050C0901A101850419EB
:100A5000012AA002150126A002950175108100C08F
:100A600005010906A1018505050719E029E715001B
:100A700025019508750181020507190029EF150068
:100A8000250195F0750181020508190129059505D3
:100A900075019102950175039101C005010906A137
:100AA00001050719E029E715002501950875018161
:100AB000029501750881010507190029FF15002617
:100AC000FF0095067508810005081901290595059F
:100AD00075019102950175039101C00011241FBE9B
:100AE000CFEFDAE0DEBFCDBF04B603FE27C08091B2
:100AF0008F0290919002A0919102B0919202873062
:100B0000904BA740B04BD1F410928F0210929002FC
:100B1000109291021092920214BE84B7877F84BF14
:100B20000FB6F894A895809160008861809360006A
:100B3000109260000FBEE0E0F8E3099511E0A0E03C
:100B4000B1E0ECE5FCE402C005900D92A239B107DA
:100B5000D9F722E0A2E9B1E001C01D92AF38B20797
:100B6000E1F70E946D200C942C260C940000FF935A
:100B7000EF93E0919201F0919301309709F009957C
:100B8000EF91FF910895FC018591803011F0EFDF26
:100B9000FBCF0895FF27E0E230E247FF0CC041950C
:100BA00097FF09C0EDE26095709580959095611D65
:100BB000711D811D911D27FF02C0219530E350E278
:100BC000AA27660F771F881F991FAA1FA41710F066
:100BD000A41B63955A95A9F7AA3008F0A95FA05DF8
:100BE000AF93F395611571058105910541F7ED32DC
:100BF00011F4EF93F395F21718F43F93F395FBCFAD
:100C00008F91B5DFFA95E1F70895E991F991859112
:100C1000803021F0853219F0AADFF9CF089520E065
:100C2000E89455915532C1F3503311F468945591BD
:100C30005A3348F4505390F3220F022E220F220F02
:100C4000200D250FF4CF0EF42195899199915336FB
:100C500019F3533729F1533559F1BC0188279927E6
:100C6000E8945C3621F489919991689455915436B1
:100C700039F446EF7EF077FF0DC08FEF9FEF0AC08B
:100C800055374AE039F0583540E121F0523642E01C
:100C900009F00895FF93EF937DDFEF91FF91B7CFB8
:100CA000FF93EF93FC0181918030B9F360DFFBCFBC
:100CB000FF93EF9368DFF1CFDF93CF93CDB7DEB72C
:100CC0002596A3DFCF91DF9108950C949A090C9497
:100CD000980981E0089581E008950C946B060895C9
:100CE0000C946F061F93CF93DF9300D000D01F9218
:100CF000CDB7DEB749835A836B833091AC018981CC
:100D00009A81311114C0662359F0222349F00E94C0
:100D10006917182F682F89819A810E94121703C0C2
:100D20000E943D17182F69817A81812F04C00E948B
:100D3000691769817A810F900F900F900F900F9033
:100D4000DF91CF911F910C943F07FC01262F40812A
:100D500051816281738184810C947206CF93DF93F9
:100D6000EC0160E00E94A506BE01DF91CF910C94DA
:100D700070060E94C518811102C00E9465190C946A
:100D800065060C94670608950C94C30681E00895E7
:100D90000C94C606CF93C82F0E94C4068C2F0E94C5
:100DA000C806CF91089508950E941E120E94D3068E
:100DB0002FEF84E39CE0215080409040E1F700C099
:100DC00000000C94231B0F931F93CF93DF93EC0130
:100DD00061E00E94A5068C01BE010E946D06882379
:100DE00009F442C0BE01C8010E943A0B8823E1F118
:100DF000BE01C8010E947B0B8823B1F1BE01C8016E
:100E00000E94A60C882381F18A81882331F1013068
:100E10008CE5180751F00E3D8CE51807D9F0011547
:100E20001C45D9F40E94D4061FC080913F02C82FF0
:100E3000C095C170C0FB80F980933F02CC2329F09C
:100E400080E393E00E94C3050FC08EE193E00E940F
:100E5000C3050BC00E94651907C0CE01DF91CF9179
:100E60001F910F910C946906C0E08C2FDF91CF91F8
:100E70001F910F91089580E090E00895089526E471
:100E8000829FC0011124FC012EE0729FE00DF11D34
:100E90001124E60FF11DEE0FFF1FE658FE4F85915E
:100EA00094910895880F991FFC01EF5BFC4F859189
:100EB00094910895CF93DF930E943F070E946C089E
:100EC000EC018115904508F043C0C11580E4D807B6
:100ED00008F0CBC0C03ED10528F5C03CD10508F0D4
:100EE000B3C0C83AD10578F4C53AD10508F0A4C01A
:100EF000C130D10509F4ECC008F4E8C0C430D10514
:100F000008F0E6C0E3C0CF3BD10508F0DFC0C85A07
:100F1000D0E0CC0FDD1FC35FDE4F0990D881C02D1C
:100F2000D464D6C0C11590E2D90750F4C11521E0B0
:100F3000D20708F0CDC0C83ED10508F4C9C0C6C06C
:100F4000C11580E3D80708F086C0CE019F707FC02E
:100F5000C11595E5D90708F043C0C11524E5D207AE
:100F600008F09AC0C11582E5D80708F5C11591E5CA
:100F7000D90708F07DC0CE0174E0969587957A95E3
:100F8000E1F783709C2F937021E030E002C0220FC4
:100F9000331F9A95E2F73C68382BCF70C695C695FB
:100FA00080E2C89FE0011124C22BD32B91C09E0187
:100FB000237033278C2F86958695C115D34508F06D
:100FC0005CC0C1E0D0E002C0CC0FDD1F2A95E2F783
:100FD00020E2829FC0011124C82BD92BDC6878C085
:100FE000C11529E5D207A0F4C11588E5D80708F096
:100FF00058C0C11596E5D90708F068C08C2F0E942B
:1010000000098F71C82FD0E0DC2FCC27D06260C0E0
:10101000C1152AE5D20708F449C0CE0190568115C2
:10102000904208F053C08D2F8F710E940009DD2778
:10103000D0628F71D82B4CC0C55AD0E0C55CDE4F52
:10104000C881D0E0D06444C0CE01805C91090E9488
:101050005207EC013DC0CE019927D3FF03C0EC013C
:10106000D86C36C0EC01D06C33C0DF70D06A30C0B1
:10107000DC2FCC27C16FD06A2BC0C1E0D0E002C00A
:10108000CC0FDD1F2A95E2F720E2829FC0011124D8
:10109000C82BD92BDA681CC0DC2FCC27C46FD06AD0
:1010A00017C0DC2FCC27C06FD06A12C08C2F8F7076
:1010B0000E94000994E0D695C7959A95E1F7CF7004
:1010C000D0E0DC2FCC27D069C82B02C0C0E0D0E034
:1010D000CE01DF91CF9108958238910569F1B0F486
:1010E0008133910509F46DC048F48932910509F402
:1010F00063C08A32910509F469C00895853391056A
:1011000009F455C089339105B9F00895833E9105DE
:1011100069F138F4803E9105B1F0823E910509F104
:101120000895863E9105A9F1873E9105B9F1843E67
:10113000910509F064C023C02091800220FD4FC0BA
:1011400021FD4DC008958091800280FD44C08091B2
:10115000810280FF44C08091800284FD42C083EE02
:101160004DC08091800282FF38C0F5CF809180020F
:1011700082FD33C08091810280FD31C0ECCF80912F
:10118000810281FF32C08091800284FD2AC087EEF7
:1011900035C08091800283FF26C0F5CF8091800208
:1011A00083FD21C08091810281FD1FC0ECCF809121
:1011B000800285FD1CC01DC08091800285FD19C084
:1011C00016C08091800286FD16C017C080918002F3
:1011D00086FD13C010C089E311C082EE0FC080EEFF
:1011E0000DC080E00BC086EE09C084EE07C089E226
:1011F00005C085E303C08AE201C081E390E0089561
:101200009091800292FF0DC0282F2871283019F488
:10121000877F846006C0282F2471243011F48B7FCF
:10122000886093FF0DC0282F2871283119F4877E1C
:10123000846106C0282F2471243111F48B7E8861CB
:101240002091810220FF0DC0382F3871383019F4F9
:10125000877F816006C0382F3171313011F48E7F65
:10126000886021FF0DC0282F2871283119F4877E4E
:10127000816106C0282F2171213111F48E7E886191
:1012800094FD877E0895E82FF0E0EE0FFF1FEE58E3
:10129000FD4F808191810895CF92DF92EF92FF926E
:1012A0000F931F93CF93DF9381E593E00E94C305D3
:1012B00082E7E82E82E0F82EC0E0D0E09CE4C92E60
:1012C00093E0D92E03E413E0DF93CF93DF92CF9224
:1012D0000E945C0689E493E00E94C305F7018191B6
:1012E00091917F010E94B2189F938F931F930F9348
:1012F0000E945C0681E493E00E94C30521968DB7AD
:101300009EB708960FB6F8949EBF0FBE8DBFC5302E
:10131000D105D1F6DF91CF911F910F91FF90EF9002
:10132000DF90CF90089580EA8A95F1F708950895A7
:101330000C9497090C949709CF93DF93ACE4B1E038
:1013400041E551E061E070E08D91E82FE295EF70AA
:10135000F0E021A18F70EB0102C0CC0FDD1F8A9558
:10136000E2F7CE019C2F9095922391A392A1892B15
:1013700082A34A175B0741F7AEE3B1E04CE451E0CA
:1013800061E070E08D91E82FE295EF70F0E021A12F
:101390008F70EB0102C0CC0FDD1F8A95E2F7CE0102
:1013A0009C2F9095922391A392A1892B82A34A17F7
:1013B0005B0741F7E8E6F2E0A2E7B2E082E792E0FD
:1013C000119211921D921D928E179F07C9F785E009
:1013D0000E948B0ADF91CF910C94B9062F923F9215
:1013E0004F925F926F927F928F929F92AF92BF9235
:1013F000CF92DF92EF92FF920F931F93CF93DF93E1
:101400008CE4C82E81E0D82E08E612E092E7492E3F
:1014100092E0592E312C88248394912C5801D801C4
:101420006D907C9011971D921C92F60181916F0135
:10143000C82FC295CF70D0E099A18F70740101C000
:10144000EE0C8A95EAF7892F8E2989A38AA12E2C82
:10145000209482218AA30E949309EEE3F1E020E028
:1014600030E06191A62FA295AF70B0E090968C917C
:10147000D8014D915C9190E06F7002C09595879571
:101480006A95E2F780FD08C0C401022E02C0880FF1
:10149000991F0A94E2F702C080E090E0482B592B94
:1014A000D8014D935C932F5F3F4F2E303105C9F625
:1014B00089A1282229A28AA1E82AEAA20E5F1F4F49
:1014C00081E0F501208131812615370509F480E09E
:1014D000382A4016510609F0A1CF232D45E062E7D6
:1014E00072E088E692E00E948C0A0E94C106832D79
:1014F000DF91CF911F910F91FF90EF90DF90CF90F0
:10150000BF90AF909F908F907F906F905F904F9023
:101510003F902F9008950895FF920F931F93CF93BC
:10152000DF93F82E092F162FD72FC42F222349F02F
:1015300081E0809396010E94D61A90939501809342
:101540009401809196018823D9F080919401909123
:1015500095010E94EE1A069798F0EF2DF02FA12F1B
:10156000BD2F80E090E04C2F50E08417950734F4B5
:10157000219131912D933D930196F7CF10929601D1
:10158000DF91CF911F910F91FF9008950F931F93BB
:10159000CF93DF93C62FD42F122FFC018281882393
:1015A000C9F0609399010E94D61A90939801809394
:1015B000970180E28C0F883008F057C0C77081E037
:1015C00001C0880FCA95EAF7DF91CF911F910F9163
:1015D0000C94AC0F80919901681330C080919701F1
:1015E000909198010E94EE1A883C910538F500E22E
:1015F0000D0FCD17B9F080E28C0F883040F4C77022
:1016000081E001C0880FCA95EAF70E94B30F083045
:1016100028F581E09D2F977001C0880F9A95EAF711
:101620000E94AC0F812F0E94990F0830F0F4D77000
:1016300081E001C0880FDA95EAF70AC080E28C0FDA
:10164000883098F4C77081E001C0880FCA95EAF726
:10165000DF91CF911F910F910C94B30F812FDF91E8
:10166000CF911F910F910C94990FDF91CF911F9102
:101670000F9108959C01CB01233F4CE53407F9F00D
:1016800078F4283DFCE53F07B9F0293D4CE53407E7
:1016900011F1273D3C4531F526E241EE61EE1EC0D9
:1016A000253FFCE53F0799F070F0263F3C45D1F41B
:1016B00027E245EE66EE12C027E245EE0EC026E2B6
:1016C00041EE60EE0BC027E245EE64EE07C026E275
:1016D00041EE62EE03C028E241E065EE0E94C60AD8
:1016E00080E00895FC018281882319F0109299010D
:1016F000089581E00895CF93DF93EC01FB0182818F
:10170000882309F41FC1C230FCE5DF0708F41BC1C0
:10171000C6319CE5D90738F09E012A5F3C45293047
:10172000310508F010C10E94D8189093810280936F
:101730008002C031ECE5DE0709F4C3C008F041C007
:10174000C8308CE5D80709F49AC0F0F4C430ECE551
:10175000DE0709F487C068F4C2308CE5D80709F4C5
:1017600077C0C330DC4509F0E3C08091800282601D
:1017700076C0C630ECE5DE0709F46EC008F07BC029
:101780008091800288606BC0CC308CE5D80709F46A
:1017900085C068F4CA30ECE5DE0709F474C008F0CF
:1017A00079C00E941E1280918002806858C0CE309D
:1017B0008CE5D80709F476C008F07FC080918002DC
:1017C0008BC0CB3FECE5DE0709F44FC018F5C33101
:1017D0008CE5D80709F47DC078F4C131ECE5DE076B
:1017E00009F473C0C231DC4509F0A2C00E941E1288
:1017F000809180028F7733C0C5318CE5D80709F41A
:1018000072C008F486C0CA3FDC4509F091C08091DF
:1018100081023EC0CF3FFCE5DF0709F45FC058F40A
:10182000CD3F9CE5D90709F444C008F43FC080913E
:10183000810282602DC0C130FDE5DF0709F475C06B
:1018400008F45DC0C230DD4509F072C080E06EC0B2
:1018500080918002816003C08091800280618093CA
:10186000800266C08091800211C0809181028260F6
:10187000809381025DC0809180028062F0CF809170
:1018800080028064ECCF8091800288608460E7CF22
:101890008160EECF809180028E7FE1CF80918002C7
:1018A0008D7FDDCF80918002877FD9CF80918102AB
:1018B00018C0809181028D7FDBCF809180028F7E66
:1018C000CECF809180028F7DCACF809180028F7BA6
:1018D000C6CF80918002877F8B7FC1CF80918102AC
:1018E0008D7F8E7FC5CF8091800282FB222720F9D9
:1018F00091E0922790FB82F990FB83F9B0CF809121
:101900008102982F909591708E7F892B90FB81F9A1
:10191000AFCF0E941E128091800287FB222720F900
:1019200091E0922790FB87F99ACF81E00E94671996
:1019300080918002909181020E94E9180E941E12FB
:1019400080E001C081E0DF91CF910895CF93DF93D4
:1019500086319C4541F5EB010E94EA17982F8A8158
:101960002091000130910101882379F09A7A81E079
:1019700009F480E080939A01911102C069E201C0EC
:1019800065E3C9010E94241A0AC080919A0181115D
:1019900002C069E201C065E3C9010E942F1A0E94DA
:1019A000381880E001C081E0DF91CF9108959093D5
:1019B000A00180939F010895E0919F01F091A00103
:1019C000309721F00190F081E02D099480E0089596
:1019D000EF92FF921F93CF93DF93FC01A0919F01A1
:1019E000B091A001109709F442C080910C018823A6
:1019F00041F08091800287FF04C08081818385E06F
:101A00008083EF011296ED91FC911397CE01099519
:101A100080913F0282FF2BC080FF04C080E793E0EB
:101A20000E94C30518E08AE6E82E83E0F82E809134
:101A30003F0280FF0BC088811F928F93FF92EF922D
:101A40000E945C060F900F900F900F9011502196FE
:101A50001111EDCF80913F0280FF09C088E693E02D
:101A6000DF91CF911F91FF90EF900C94C305DF9110
:101A7000CF911F91FF90EF90089520919D0130919B
:101A80009E012817390771F090939E0180939D0164
:101A9000E0919F01F091A001309721F00680F7813D
:101AA000E02D0994089520919B0130919C01281705
:101AB000390771F090939C0180939B01E0919F0105
:101AC000F091A001309721F00084F185E02D099478
:101AD000089585B7806885BF85B7806885BF0895FC
:101AE00008950C94700D0C94710D0C94700D0C9461
:101AF000700D0E94690D0E94750D0C94730D81E0AC
:101B000008950E94CD1A0E949C090E94471B0C94C4
:101B1000770DCF93C82F80913F0282FF1EC080FFB8
:101B200004C089E893E00E94C30580913F0280FFD2
:101B30000CC01F92CF9384E893E09F938F930E94F1
:101B40005C060F900F900F900F9080913F0280FFE6
:101B500004C082E893E00E94C3058C2FCF910C94BF
:101B6000CA067F928F929F92AF92BF92CF92DF92DE
:101B7000EF92FF920F931F93CF93DF93CDB7DEB712
:101B80002A970FB6F894DEBF0FBECDBF0E94EE09B4
:101B90000E947F0D811111C08FEF89838A831B8280
:101BA0000E94D61A8160782F9D838C8349815A8147
:101BB0006B818D810E945F0E4FC042EAA42E41E0EE
:101BC000B42E00E010E0702E802F0E9443096C01BB
:101BD000F501819091905F018826992681149104E6
:101BE00031F40F5F1F4F0530110569F7D5CF809194
:101BF0003F0281FD0E944C0980E0EE24E394F12C29
:101C000094012E213F21232B09F18E837F82CE2048
:101C1000DF2081E0CD2809F480E088870E94D61A71
:101C20008160782F9A8789874E815F8168858A8550
:101C30000E945F0E000F111FF801EE55FE4F8081CC
:101C40009181E826F926F182E08206C08F5FEE0CD2
:101C5000FF1C8E30A9F6C5CF0E94DC0C9091A1012B
:101C60008917C9F00E94DC0C8093A1012A960FB657
:101C7000F894DEBF0FBECDBFDF91CF911F910F91C2
:101C8000FF90EF90DF90CF90BF90AF909F908F909C
:101C90007F900C94890D2A960FB6F894DEBF0FBE84
:101CA000CDBFDF91CF911F910F91FF90EF90DF900B
:101CB000CF90BF90AF909F908F907F900895CF93DB
:101CC000DF93CDB7DEB72B970FB6F894DEBF0FBE0C
:101CD000CDBF4F83588769877A878B87DE0111963E
:101CE00086E0FD0111928A95E9F785E0FE013796BD
:101CF00001900D928A95E1F749815A816B817C812F
:101D00008D819E810E94D7142B960FB6F894DEBF6A
:101D10000FBECDBFDF91CF910895FC0180819181ED
:101D20000E94AB170895CF93882309F4A1C0C82F50
:101D30008238C1F40E94DC0C81FD9AC069E3809175
:101D40000001909101010E94241A0E9438182FEF7F
:101D500081EE94E0215080409040E1F700C0000007
:101D600069E319C0833801F50E94DC0C80FD80C056
:101D700063E580910001909101010E94241A0E9464
:101D800038182FEF81EE94E0215080409040E1F729
:101D900000C0000063E580910001909101010E9464
:101DA0002F1ACF910C9438188438C1F40E94DC0C9F
:101DB00082FD5EC067E480910001909101010E9464
:101DC000241A0E9438182FEF81EE94E021508040B1
:101DD0009040E1F700C0000067E4DDCF8CEF8C0F8E
:101DE000813AF8F48C2F0E94F91D811141C06C2FAB
:101DF00080910001909101010E948219882349F08D
:101E00006C2F80910001909101010E942F1A0E9475
:101E100038186C2F80910001909101010E94241AC2
:101E2000C0CF80E28C0F883048F4C77081E001C0D9
:101E3000880FCA95EAF70E94ED17B3CFEBE5EC0FD8
:101E4000E33040F4F0E0E158FE4F808190E0CF9124
:101E50000C943D0DC85AC73158F4EC2FF0E0EE0F4A
:101E6000FF1FEF5AFE4F80819181CF910C94530D4B
:101E7000CF910895882309F45BC0682F823879F4E4
:101E80000E94DC0C81FF54C069E3809100019091B5
:101E900001010E94241A0E94381869E310C0833897
:101EA000B1F40E94DC0C80FF43C063E58091000127
:101EB000909101010E94241A0E94381863E58091D4
:101EC0000001909101010E942F1A0C943818843857
:101ED00079F40E94DC0C82FF2BC067E48091000142
:101EE000909101010E94241A0E94381867E4E7CFFC
:101EF0008CEF860F813A18F380E2860F883048F421
:101F0000677081E001C0880F6A95EAF70E94F317B5
:101F1000DCCF8BE5860F833020F480E090E00C94DA
:101F20003D0D685A673120F480E090E00C94530D29
:101F30000895CF93C82F0E94930EC93349F42FEF11
:101F400087EE93E0215080409040E1F700C0000010
:101F50008C2FCF910C943A0F882321F00E94ED171B
:101F60000C9438180895882321F00E94F3170C94DC
:101F700038180895CF92DF92EF92FF920F931F933C
:101F8000CF93DF937C01062FC72FFC01158112959B
:101F90001F70D281D1110E940A180E94E317882372
:101FA00079F0DD2369F080E2800F883048F082E02C
:101FB0000E9482180E94E31791E0D82ED92601C012
:101FC000D12CCC2EC2948FE0C8228C2D90E0FC0145
:101FD000EA5AFF4F0C94E4258C2F807FCF70882322
:101FE00011F0C295C07FDD2399F0CC2309F482C1A2
:101FF00080E2800F883010F0011104C08C2F0E9405
:10200000ED1703C08C2F0E94FD170E94381872C173
:10201000802F0E943A0FCC2309F491C180E2800FF7
:10202000883010F0011104C08C2F0E94F31703C0F8
:102030008C2F0E9403180E94381881C18C2F807F3A
:10204000CF70803211F0C295C07F002319F00130AB
:10205000C9F022C0DD2371F0112341F0113031F4B9
:102060000E941D188C2B0E94251869C10E941D1802
:102070008C2B1DC0112319F0113009F460C10E948E
:102080002E1825C0DD2321F0163008F058C10EC0EF
:10209000153008F054C11BC0DD2361F0112331F06D
:1020A000F701858180FF26C18F7085838C2F0E9468
:1020B000AC0F45C1112359F0093309F02CC1FFEFD2
:1020C00027EE83E0F15020408040E1F722C18C2FC1
:1020D0000E94B30F34C18C2F86958695837019F0BA
:1020E000813061F02CC1DD2321F0802F9C2F937073
:1020F00002C080E090E00E943D0D29C1DD2321F067
:10210000802F9C2F937002C080E090E00E94530DBE
:102110001EC18C2F837009F045C0D11114C1402F0E
:10212000429546954770440F440F602F6F70862F7D
:1021300090E0A0E0B0E0042E04C0880F991FAA1F11
:10214000BB1F0A94D2F704FF10C00FE010E020E09C
:1021500030E004C0000F111F221F331F4A95D2F731
:10216000009510952095309503C000E010E098018F
:10217000C695C695C370BC01CD01602B712B822B17
:10218000932BC23049F058F4C13019F00E94281640
:10219000DAC00E941616D7C00E943A16D4C00E9418
:1021A0001416D1C0DD2319F08C2F817001C08695E3
:1021B000882309F4C8C0402F429546954770440FC4
:1021C000440F602F6F70862F90E0A0E0B0E0042EE7
:1021D00004C0880F991FAA1FBB1F0A94D2F704FFDF
:1021E00010C00FE010E020E030E004C0000F111F2D
:1021F000221F331F4A95D2F70095109520953095F0
:1022000003C000E010E09801C695C695C370BC01FC
:10221000CD01602B712B822B932BC23049F058F4E7
:10222000C13019F00E94ED168EC00E94DB168BC0E3
:102230000E94FF1688C00E944E1685C0CF70DD2315
:1022400039F08C2F0E947416802F0E94AC0F7BC037
:10225000802F0E94B30F8C2F0E94951674C0023FEE
:1022600001F128F4003F41F0013FA1F03FC0033FDE
:10227000F9F0043F39F13AC0DD2341F0153008F0A0
:102280005EC08C2F8F710E94BA1659C0163008F0AC
:1022900056C0F7CFDD2339F08C2F8F710E94741652
:1022A0004EC0DD23C9F38C2F8F710E94951647C055
:1022B000DD2329F08C2F8F710E945F1640C00E9491
:1022C0005A163DC0DD2349F0CF718C2F0E94741641
:1022D00063E08C2F0E946D1832C081E00E9482184A
:1022E000123068F182E00E94821829C0DD2331F0AB
:1022F000112391F2802F0E94930E21C0112399F295
:10230000093349F49FEFE7EEF3E09150E040F040ED
:10231000E1F700C00000802F0E943A0F10C04C2F40
:102320004F70602FC7010E943B070E9485150FC0A8
:102330004C2F4F70602FC7010E943E0708C088EFE6
:102340008C0D843020F40E94DC0C0E94CA06DD2033
:10235000C9F00E94DF1780FD15C0F70112820E94AC
:10236000D9170E947416C7010E94E3110E94D91761
:10237000DF91CF911F910F91FF90EF90DF90CF9061
:102380000C949516DF91CF911F910F91FF90EF90D4
:10239000DF90CF9008950F931F93CF93DF93EC01BD
:1023A000688179818A810E94B6178C010E94111779
:1023B0000E940216B801CE010E94BA0FDF91CF91A0
:1023C0001F910F910895CF93DF93FC01908181813C
:1023D00023813481232B31F08F3F31F481E09F3F03
:1023E00019F403C081E001C080E080FD0EC0EF0160
:1023F000CF010E94E306882341F0CE010E94CB1159
:10240000CE01DF91CF910C94AE06DF91CF9108956C
:102410000E940A180E941A180E94381880E090E062
:102420000E943D0D80E090E00C94530D80910001DE
:10243000909101010E943A1A0C9408120E94FA1716
:102440000C941612E92FE295EF704E2F50E0FA012E
:102450003297EE30F105B0F4EA59FF4F0C94E425C1
:10246000803F91F018F4883E68F40EC0843F51F428
:102470000BC0883E48F0813F29F406C093FB8827B3
:1024800080F9089580E0089581E008950E94AB17D7
:102490000E9422120895CF93DF9300D000D01F92A4
:1024A000CDB7DEB70F900F900F900F900F90DF9188
:1024B000CF910895CF93DF9300D000D000D0CDB757
:1024C000DEB726960FB6F894DEBF0FBECDBFDF9104
:1024D000CF9108951F93CF93DF93C091AD0116E084
:1024E0008091AE01C81799F0D0E01C9FF0011D9FAC
:1024F000F00D1124E155FE4F4081518162817381BD
:10250000848195810E945A122196C770E9CFDF918C
:10251000CF911F9108954091DF015091E0016091AA
:10252000E1017091E2018091E3019091E4010C944A
:102530005A120F931F93CF93DF938091E4018295FA
:102540008F7009F05DC08091E101882309F458C0C3
:102550008091AD011091AE016091DF017091E001B9
:10256000C091E201D091E30191E06F3F09F090E06A
:10257000292F06E0811709F443C0209721F07F3FFF
:1025800021F030E003C031E001C0322F90E030FD97
:1025900034C0089FF001099FF00D1124DF01A155FF
:1025A000BE4F11963C911197371327C03C913613BB
:1025B00024C012963C91129731111FC013964D9171
:1025C0005C9114974C1B5D0B483C5105B0F4809115
:1025D000E4018F7080618093E401EC54FE4F8081B0
:1025E0008F70806180838FED91E00E94E311DF9115
:1025F000CF911F910F910C946A1201968770BACFF8
:10260000DF91CF911F910F9108959F92AF92BF924A
:10261000CF92DF92EF92FF920F931F93CF93DF93AE
:10262000CDB7DEB761970FB6F894DEBF0FBECDBF52
:102630008C0185E0F801DE011D9601900D928A95CE
:10264000E1F7F80140815181E2809091DF016091D2
:10265000E0012091E2013091E3012115310531F0D3
:102660006F3F31F481E09F3F19F403C081E001C066
:1026700080E0F82FF1709F2E80FD46C1F801A38005
:10268000B4808FEDC82E81E0D82EF090E101F501E5
:10269000E21BF30BFF2009F4DFC08091E401E83C6A
:1026A000F10508F09BC0282F207F09F052C0561377
:1026B00013C0491311C0FE2CE1100EC08F70806151
:1026C0008093E4010E948B12C6010E94E311809165
:1026D000E401F801858358C1AB2831F05F3F31F444
:1026E00081E04F3F19F403C081E001C080E080FD2C
:1026F00003C081E08E2502C080E090E0F82FF170E9
:10270000FF2E80FF1CC08091AD012091AE0136E00C
:10271000821709F417C190E0389FF001399FF00D3E
:102720001124E155FE4F6181561306C060814613A6
:1027300003C06281E61203C001968770E9CFFE2CC8
:10274000EE2009F421C18091E40181608093E401CD
:102750005AC0561306C0491304C0E11002C0F80164
:102760009FC04D875E878D859E850E944612882377
:1027700079F1EE2069F12091E401822F82958F702A
:1027800090E0029774F08091DF019091E0019887CA
:102790008F831986BB86AA862C87CE0107960E9456
:1027A000E31186E0F801AFEDB1E001900D928A955A
:1027B000E1F70E9499120E948B120DC0561729F161
:1027C0004D875E878D859E850E94461281112CC0A3
:1027D000C8010E94E311FF24F394D6C0282F207F64
:1027E00069F77A2DB98AA88A6E2D89890E944B12C1
:1027F0008FED91E00E94E31186E0F60111928A9537
:10280000E9F70E948B12F12CBFC04913D9CFE11018
:10281000D7CFF8018583C8010E94E31186E0F60155
:1028200011928A95E9F7B0C0EE2091F22091E4016F
:10283000822F82958F7090E002970CF4B2CF809136
:10284000DF019091E0019A8389831B82BD82AC8273
:102850002E83CE010196A3CFE83CF10508F047C0D6
:10286000FE2CEE2009F4B4CF561330C049132EC00D
:102870002091E40120FD21C0822F82958F70482F86
:1028800050E041155105C9F0F80125834F3051053D
:1028900041F08F5F982F9295907F822F8F70892BB8
:1028A0008583C8010E94E31186E0F801AFEDB1E035
:1028B00001900D928A95E1F742C086E0F801AFEDF4
:1028C000B1E001900D928A95E1F75EC04D875E8779
:1028D0008D859E850E944612811163CF8091E4010F
:1028E00081608093E401C8010E94E3114DC07A2DFC
:1028F000B98AA88A6E2D89890E944B1286E0F6015A
:1029000011928A95E9F71BC0EE2009F461CF4D873B
:102910005E878D859E850E944612F82E882309F4D5
:1029200057CF86E0F801AFEDB1E001900D928A95A6
:10293000E1F78FED91E00E948D0E0E9499120E94A6
:102940008B1222C04D875E878D859E850E94AB17B6
:10295000292F22952F70223028F49F7039F0811191
:1029600005C00BC0243028F49F7049F4805E883085
:1029700020F0C8010E94E3119F2CF92C05C0F8013A
:102980009581907F99F7F9CF8F2D61960FB6F894C6
:10299000DEBF0FBECDBFDF91CF911F910F91FF9092
:1029A000EF90DF90CF90BF90AF909F9008951F93CE
:1029B000CF93DF93CDB7DEB72C970FB6F894DEBF79
:1029C0000FBECDBF4F83588769877A878B879C87D7
:1029D000CE0107960E9405138823D1F09F81888538
:1029E0002A853B85232B31F08F3F31F481E09F3FD7
:1029F00019F403C081E001C080E080FD47C04F8131
:102A0000588569857A858B859C850E945A123EC0BF
:102A100086E0FE013796DE01119601900D928A95AF
:102A2000E1F7FF81E8856A857B856115710531F0E5
:102A3000EF3F31F481E0FF3F19F403C081E001C0B2
:102A400080E080FD23C02091AE0130E0C9010196F5
:102A5000877099274091AD0150E084179507F1F1F7
:102A6000F983EA837D836C8396E0929FD001939FE4
:102A7000B00D1124A155BE4FFE01319601900D926B
:102A80009A95E1F78093AE010E946A1216E0809158
:102A9000AD019091AE01891771F1189FC001112409
:102AA00081559E4F0E940513882329F1E091AD01C5
:102AB0001E9FF0011124E155FE4F4081518162813A
:102AC0007381848195810E945A128091AD0190E0BA
:102AD0000196877099278093AD01D9CF0E941E126D
:102AE0001092AE011092AD01EFEDF1E086E0DF0152
:102AF0001D928A95E9F72C960FB6F894DEBF0FBEAB
:102B0000CDBFDF91CF911F910895EF92FF920F9368
:102B10001F93CF93DF938C01892B09F46CC0F12CA8
:102B2000EE24E394E8012196F8018491843740F47F
:102B3000843008F051C0813081F0823019F15BC0DF
:102B4000853709F444C0A8F19CE7980F903708F046
:102B500052C08F770E943A0F41C00E5F1F4FFE0197
:102B6000849190E2980F983050F48770FE2D01C048
:102B7000FF0F8A95EAF78F2F0E940D1814C00E944C
:102B8000930E2DC00E5F1F4FFE01849190E2980FAF
:102B9000983060F48770FE2D01C0FF0F8A95EAF728
:102BA0008F2F0E9413180E94381819C00E943A0FE4
:102BB00016C00E5F1F4FFE01C491CC2381F08FE938
:102BC0009FE00197F1F700C00000C150F6CF0E5F03
:102BD0001F4FFE01F49003C00E94930E8E018F2DB3
:102BE000882309F49FCFEFE9FFE03197F1F700C0A8
:102BF00000008150F5CFDF91CF911F910F91FF9091
:102C0000EF900895089508950C9403160C940416FB
:102C10000E940616609316027093170280931802A2
:102C2000909319020C9408120C9408160F931F939A
:102C3000009116021091170220911802309119028A
:102C4000602B712B822B932B1F910F910C940816E4
:102C50000F931F93009116021091170220911802F2
:102C60003091190260237123822393231F910F91C6
:102C70000C9408160F931F930091160210911702DF
:102C8000209118023091190260277127822793271B
:102C90001F910F910C9408160C9403160E944C1669
:102CA00060931202709313028093140290931502A2
:102CB0000C94081260E070E0CB010C944E160F9358
:102CC0001F9341E050E060E070E08A019B0104C086
:102CD000000F111F221F331F8A95D2F7C901B801B7
:102CE0001F910F910C944E160F931F9341E050E0EB
:102CF00060E070E004C0440F551F661F771F8A957F
:102D0000D2F78091120290911302A0911402B09117
:102D100015028A019B01082B192B2A2B3B2BC90179
:102D2000B8011F910F910C944E160F931F9341E021
:102D300050E060E070E004C0440F551F661F771F2D
:102D40008A95D2F7409550956095709580911202C2
:102D500090911302A0911402B09115028A019B0177
:102D6000082319232A233B23C901B8011F910F917E
:102D70000C944E160F931F9341E050E060E070E01A
:102D800004C0440F551F661F771F8A95D2F78091A4
:102D9000120290911302A0911402B09115028A01BF
:102DA0009B01082719272A273B27C901B8011F9132
:102DB0000F910C944E160F931F93009112021091D5
:102DC00013022091140230911502602B712B822B7B
:102DD000932B1F910F910C944E160F931F930091FC
:102DE00012021091130220911402309115026023F7
:102DF0007123822393231F910F910C944E160F93EE
:102E00001F9300911202109113022091140230912D
:102E1000150260277127822793271F910F910C9429
:102E20004E1608952EE0929F800D1124E82FE6950E
:102E3000E695E695877051E001C0550F8A95EAF74F
:102E400085E0E89FF0011124EB51FE4F20E030E0D7
:102E500070E04081CB01022E02C0969587950A94BE
:102E6000E2F78170819584278523842781932F5FE2
:102E70003F4F2530310569F708952EE0929F800D70
:102E80001124682F669566956695982F977085E052
:102E9000689FB001112440E050E080E0FB01E40FA6
:102EA000F51FEB51FE4F208130E0092E02C0369510
:102EB00027950A94E2F721703327042E01C0220FD0
:102EC0000A94EAF7822B4F5F5F4F4530510531F787
:102ED0000895BF92CF92DF92EF92FF920F931F93CC
:102EE000CF93DF938C01C0901202D0901302E09038
:102EF0001402F09015028091160290911702A09191
:102F00001802B0911902C82AD92AEA2AFB2ACFE16D
:102F1000D0E0D701C6010C2E04C0B695A7959795B1
:102F200087950A94D2F780FD04C0219790F7B12CC1
:102F300007C0BC2EB8018C2F0E945A070197A9F335
:102F40008B2DDF91CF911F910F91FF90EF90DF902C
:102F5000CF90BF900895CF93DF93EC010E94691743
:102F6000BE010E945A07DF91CF9108951F93CF931E
:102F7000DF93EB019091AC01992321F0CB010E94EA
:102F8000AB1713C0882349F0CB010E946917182F93
:102F9000682FCE010E94121704C0CB010E943D177A
:102FA000182FBE01812F0E945A07DF91CF911F91E8
:102FB000089580911A02859585958595089580914B
:102FC0001A028770089590911A02977081E009F4AF
:102FD00080E0089580913E02089590913E02892BF1
:102FE00080933E020895809590913E0289238093BC
:102FF0003E02089510923E02089590913D02892B61
:1030000080933D020895809590913D02892380939D
:103010003D02089510923D02089590913C02892B43
:1030200080933C020895809590913C02892380937F
:103030003C02089510923C02089580911B0208956D
:1030400008950C9420180C94211890911B02981745
:1030500021F080931B020C942318089580911B0289
:10306000882329F010921B0280E00C942318089505
:10307000E0910001F091010180913E028083E09196
:103080000001F0910101908180913D02892B8083A4
:10309000E0910001F0910101908180913C02892B27
:1030A000808380911B02882381F0E0910001F091E0
:1030B00001019081892B8083809100019091010111
:1030C0000E946C1981110E942E188091000190912C
:1030D00001010C94E80C0C94201898E0899F900151
:1030E0001124262B20931A020E94741680911A0232
:1030F0008595859585950C946B1810921A0280E041
:103100000C946B1820911A028095822380931A02E6
:10311000982F977079F430E0482F082E000C550B4B
:103120002417350739F08595859585950E94951664
:103130000C947D18089590939301809392010895C3
:103140008295982F937344E0949F900111248C7C76
:1031500086958695282B822F8575880F2A7A269545
:10316000822B0895CF93DF93D92F0E94A018C82FE8
:103170008D2F0E94A0182C2F30E0322F2227A9017A
:10318000482BCA01DF91CF91089580E090E00E9422
:10319000F22521E08C3E9E4F09F020E0822F089519
:1031A00082E090E00C94EA2583E090E00C94EA251C
:1031B000CF9384E090E00E94EA25C82F81E290E05E
:1031C0000E94EA252C2F30E0A901582BCA01CF918B
:1031D0000895CF93C92F682F84E090E00E94F825CE
:1031E0006C2F81E290E0CF910C94F825AB01BC01EB
:1031F0008FE090E00C940A26AB01BC0183E190E0E3
:103200000C940A2660E070E0CB010C94FC1860E09E
:1032100070E0CB010E94F6180C9402196CEE7EEF60
:1032200080E090E00E94162660E082E090E00E943C
:10323000F82560E083E090E00E94F82510921602E5
:1032400010921702109218021092190260E084E0A6
:1032500090E00E94F82560E081E290E00E94F8256D
:1032600060E085E090E00E94F82560E086E090E074
:103270000E94F8256FEF87E090E00E94F82540E07B
:1032800050E0BA0188E090E00E940A2660E08DE0FC
:1032900090E00E94F82540E050E0BA0188E190E01B
:1032A0000E940A2660E087E190E00E94F82540E055
:1032B00050E0BA018CE190E00E940A2660E080E2D2
:1032C00090E00E94F8250C9407190C940E19682FB1
:1032D0008EE090E00C94F825FC01329680910C0170
:1032E000882331F08091800287FF02C09EE101C0F7
:1032F00096E080E0915028F021912223D9F38F5F4E
:10330000F9CF0895662351F120910C012223E9F0B1
:103310002091800227FF19C0462F46954695469575
:103320004E31E0F4677021E030E002C0220F331F1D
:103330006A95E2F7FC01E40FF11D828190E02823F9
:10334000392381E0232B69F409C0FC0132960896E9
:103350002191621729F0E817F907D1F780E0089565
:1033600081E008959C01FC0132969FEF80E041913D
:10337000461789F09F3F19F4411101C0982F8F5FC4
:103380008630A9F79F3F39F0F901E90FF11D97FD4C
:10339000FA956283089508959C012A5F3F4FFC01CE
:1033A0004281461301C01282019682179307B9F732
:1033B0000895262F2695269526952E3170F4FC012A
:1033C000E20FF11D677021E030E001C0220F6A9525
:1033D000EAF78281282B2283089580913F0280FFA3
:1033E0000CC01F926F938AEB93E09F938F930E9480
:1033F0005C060F900F900F900F900895262F269542
:10340000269526952E3178F4FC01E20FF11D6770A8
:1034100021E030E001C0220F6A95EAF72095828111
:1034200028232283089580913F0280FF0CC01F92C1
:103430006F938CE993E09F938F930E945C060F90AB
:103440000F900F900F90089520910C01222329F0E6
:103450002091800227FD0C94D9190C94B219209167
:103460000C01222329F02091800227FD0C94FE19E3
:103470000C94CC1920910C01FC013296222331F0DE
:103480008091800287FF02C08EE101C086E0DF01EB
:103490001D928A95E9F7089508950C944C1A0C949E
:1034A0004C1ACF930E944F1A0E94EE090E944D1AA7
:1034B000C0E08C2F0E944309892B29F4CF5FC530CF
:1034C000C1F780E001C081E0CF9108950C944C1ABF
:1034D0000C94661A0E94681A80918602843049F121
:1034E0001092400220E488E190E00FB6F894A8958D
:1034F000809360000FBE2093600080E00E94CA06A7
:103500000E94681A83B7817F846083BF83B781601C
:1035100083BF7894889583B78E7F83BF0FB6F89466
:10352000A89580916000886180936000109260008F
:103530000FBE08950C944C1A0E941E120E94DC0CBF
:103540000E94CA060C949A1A1F920F920FB60F92FD
:1035500011248F939F93AF93BF9380914002811169
:1035600013C080917C0290917D02A0917E02B09167
:103570007F024196A11DB11D80937C0290937D0234
:10358000A0937E02B0937F02BF91AF919F918F91E4
:103590000F900FBE0F901F90189582E084BD93E0AE
:1035A00095BD9AEF97BD80936E0008952FB7F8945C
:1035B00080917C0290917D02A0917E02B0917F0269
:1035C0002FBF08952FB7F89460917C0270917D020F
:1035D00080917E0290917F022FBF08959C014FB78A
:1035E000F89480917C0290917D02A0917E02B0912E
:1035F0007F024FBF821B930B089578941F920F9206
:103600000FB60F9211248F939F93AF93BF93809126
:103610007C0290917D02A0917E02B0917F02019682
:10362000A11DB11D80937C0290937D02A0937E0228
:10363000B0937F02BF91AF919F918F910F900FBE7A
:103640000F901F90189581E08093E00080E28093B6
:10365000D8001092C9008FE19EE40197F1F700C0F5
:10366000000087E090EBDC0180938F029093900242
:10367000A0939102B09392029CE088E10FB6F89477
:10368000A895809360000FBE90936000FFCF0E94CA
:10369000C518811102C00E9465190E94D01880933C
:1036A0003F020E94D81890938102809380020E946A
:1036B000D418682F70E080E090E00C941416CF933B
:1036C000C82F1F928F938EED93E09F938F930E944C
:1036D0005C0681E090E0A0E0B0E0BC01CD0104C058
:1036E000660F771F881F991FCA95D2F70E9414167C
:1036F0000F900F900F900F90CF910C941E12CF93BC
:10370000DF93482F50E0FA013597EF33F10508F0C9
:1037100063C2EC58FF4F0C94E42583E499E00E94C7
:10372000C3058FE798E00E94C3050E94D4181F923A
:103730008F938CE798E09F938F930E945C068AE7B3
:1037400098E00E94C3050E94D018C82F87E698E031
:103750000E94C3051F92CF9382E698E09F938F93B8
:103760000E945C0680E698E00E94C30586E598E02A
:103770000E94C3058C2F81701F928F9383E598E080
:103780009F938F930E945C0681E598E00E94C30599
:1037900087E498E00E94C305C1FB882780F91F9247
:1037A0008F9384E498E09F938F930E945C0682E459
:1037B00098E00E94C30586E398E00E94C305C2FB1F
:1037C000882780F91F928F9383E398E09F938F93CC
:1037D0000E945C0681E398E00E94C30588E298E0BD
:1037E0000E94C305C3FBCC27C0F91F92CF9385E28B
:1037F00098E09F938F930E945C0683E298E00E947A
:10380000C3050E94D818EC018FE098E00E94C30520
:10381000DF93CF938AE098E09F938F930E945C069A
:1038200088E098E00E94C3058FEE97E00E94C305F0
:103830008C2F81701F928F938CEE97E09F938F93C4
:103840000E945C068DB79EB780960FB6F8949EBF17
:103850000FBE8DBF8AEE97E00E94C30583ED97E00F
:103860000E94C305C1FB882780F91F928F9380EDCA
:1038700097E09F938F930E945C068EEC97E00E94E6
:10388000C3058CEB97E00E94C3058D2F81701F92BA
:103890008F9389EB97E09F938F930E945C0687EB51
:1038A00097E00E94C30585EA97E00E94C305D6957C
:1038B000D1701F92DF9382EA97E09F938F930E94CB
:1038C0005C0680EA97E00E94C3058EE897E00E94BC
:1038D000C305C2FB882780F91F928F938BE897E07E
:1038E0009F938F930E945C0689E897E00E94C3052E
:1038F00087E797E00E94C305C3FB882780F91F92E2
:103900008F9384E797E09F938F930E945C0682E7F2
:1039100097E00E94C30588E697E00E94C305C4FBB8
:10392000882780F91F928F9385E697E09F938F9366
:103930000E945C0683E697E00E94C30581E597E05C
:103940000E94C305C5FB882780F91F928F938EE4E0
:1039500097E09F938F930E945C068CE497E00E940F
:10396000C30580E397E00E94C305C6FB882780F962
:103970001F928F938DE297E09F938F930E945C0636
:103980008DB79EB780960FB6F8949EBF0FBE8DBFC1
:103990008BE297E00E94C30583E297E00E94C30593
:1039A000C7FBCC27C0F91F92CF9380E297E09F938B
:1039B0008F930E945C068EE197E00E94C3050F90F2
:1039C0000F900F900F9006C082E399E00E94C3050C
:1039D0000E946519C1E005C18CE695E07FC0809129
:1039E0003F02817F8E7F80933F0281E595E00E94B8
:1039F000C3058EE299E00E94C30581E080934102F5
:103A0000E9CF0E941E1282E199E00E94C3059FEF58
:103A100023ED80E3915020408040E1F700C000009A
:103A20000E94231BD7CF80913F02C82FC095C17041
:103A3000C0FB80F980933F02CC2319F086E099E027
:103A4000BDC089EF98E00E94C30580913F02897F45
:103A5000877F80933F02BECF90913F0291FBCC279E
:103A6000C0F981E0C827892FC0FB81F980933F020C
:103A7000CC2319F08CEE98E027C08EED98E02EC094
:103A800090913F0292FBCC27C0F981E0C827892F93
:103A9000C0FB82F980933F02CC2319F08FEC98E0B1
:103AA00013C08FEB98E01AC090913F0293FBCC2794
:103AB000C0F981E0C827892FC0FB83F980933F02BA
:103AC000CC2351F083EB98E00E94C30580913F0224
:103AD000816080933F0285C086EA98E00E94C3051A
:103AE00079CF82E495E00E94C30589E295E00E94C7
:103AF000C30585EF94E00E94C30581EC94E00E9429
:103B0000C3058FE894E00E94C30584E694E0E6CF05
:103B100086E594E00E94C3050E94DC0C1F928F93FF
:103B20008CE394E09F938F930E945C0680910C013C
:103B30001F928F9385E294E09F938F930E945C067F
:103B4000809166021F928F9382E194E09F938F93FE
:103B50000E945C068091800287FB882780F91F9273
:103B60008F938AEF93E09F938F930E945C060E944D
:103B7000E21A9F938F937F936F9383EE93E09F93CB
:103B80008F930E945C068DB79EB746960FB6F89449
:103B90009EBF0FBE8DBF1ECF0E941E12909180024D
:103BA00097FBCC27C0F981E0C827892FC0FB87F994
:103BB00080938002CC2329F08CE998E00E94C30511
:103BC00010C081E998E08ACF895303C08D5101C0AC
:103BD00080E00E945F1BFECE8FE898E00E94C30544
:103BE000C0E08C2FDF91CF91089580E008950C9470
:103BF000F51DCF93C82F80914102882319F08130A1
:103C000031F038C00E94EA178232B1F504C00E9438
:103C1000EA17823261F48C2F0E94F71D811104C0D3
:103C20008C2F0E947F1B24C081E090E021C08C2F4C
:103C30000E94F51D81111BC0C43189F018F4CB30EE
:103C400029F010C0C93259F0C83361F481E595E01C
:103C50000E94C3058AED93E00E94C30508C010923C
:103C600041020CC088ED93E00E94C30507C081E0CB
:103C7000817006C01092410280E002C080E0F8CF5F
:103C8000CF91089580916502089508959FB7F894A3
:103C9000109244029FBF90918602943009F057C061
:103CA0009091E9009F703091EC00232F217030FD3E
:103CB00020E8922B23E02093E9002091EB0020FFE5
:103CC00043C02091EE0027FF3FC0209142022223F3
:103CD00021F02091E80025FF37C01092420226E033
:103CE0003091E80035FD15C030918602343061F521
:103CF0003091EB0035FD28C0215021F481E0809304
:103D0000420222C0EFE9FFE03197F1F700C0000066
:103D1000E7CF8093F1008091E80085FD0AC0809193
:103D2000E80080FFFCCF8091E8008E778093E80068
:103D300006C08FB7F89421E0209344028FBF9F7094
:103D40009093E90080E008959F709093E9008FEFD1
:103D50000895CF93DF9300D01F92CDB7DEB7909137
:103D60008602943019F589837B836A8382E080938D
:103D7000E9008FEF9091E800815095FD06C095ED28
:103D80009A95F1F700008111F5CF8091E80085FF49
:103D90000DC040E050E063E070E0CE0101960E946B
:103DA0003B218091E8008E778093E8000F900F9080
:103DB0000F90DF91CF910895CF93DF93EC010E9494
:103DC0001E21823011F0843031F4BE0184E0DF9195
:103DD000CF910C94A91EDF91CF910895BC0183E08F
:103DE0000C94A91ECF93DF93EC010E941E21823018
:103DF00011F08430D9F580910C01882339F080913D
:103E0000800287FF03C060E282E002C068E081E0D8
:103E10008093E9008FEF9091E800815095FD06C0F6
:103E200095ED9A95F1F700008111F5CF8091E800AA
:103E300085FF1CC080910C01811105C040E050E05D
:103E400068E070E003C070E040E050E0CE010E9406
:103E50003B218091E8008E778093E80080E2FE01AC
:103E6000A5E4B2E001900D928A95E1F7DF91CF9140
:103E7000089583E799E00E94C3058091850281112E
:103E800009C00E94CC220E9429238091E200846014
:103E90008093E20008958FE699E00E94C305109296
:103EA000850208958BE699E00C94C30587E699E0B6
:103EB0000C94C30583E699E00E94C3050C949C1AF8
:103EC000209143022F5F822F62E30E94D82599231D
:103ED00019F0209343020895109243028091440206
:103EE000882371F180918602843041F58091E90048
:103EF0008F702091EC00922F917020FD90E8892B1B
:103F000093E09093E9009091EB0090FF14C09091A2
:103F1000EE0097FF10C09091E80095FF03C010924B
:103F2000F100F9CF9091E80090FF05C09091E80072
:103F30009E779093E8008F708093E900109244027E
:103F4000089542E061EC81E00E94452242E261EC8A
:103F500082E00E94452242E261EC83E00C9445221B
:103F600080918802833009F460C030F4813071F0B0
:103F7000823009F499C008958A3009F485C08B30E5
:103F800009F46BC0893009F0A7C020C08091870276
:103F9000813A09F0A1C08091E800877F8093E80012
:103FA00080918B0290918C02892B21F460E285E450
:103FB00092E003C060E080E090E070E00E94862123
:103FC0008091E8008B778093E800089580918702C4
:103FD000813209F081C080918B0290918C0202970E
:103FE00008F07AC08091E800877F8093E800809194
:103FF000E80082FD05C0809186028111F8CF6CC077
:104000002091F3008091F20090E0922B029729F426
:104010008091F1008B7F813021F48091F1008093B9
:1040200065028091E8008B7753C080918702813AC6
:1040300009F052C080918B0290918C02892B09F07B
:104040004BC08091E800877F8093E8008091E80072
:1040500080FFFCCF80910C0136C0809187028132B5
:10406000D9F580918B0290918C02892BA9F58091D2
:10407000E800877F8093E8000E947A22809189027D
:1040800080930C010C941E1280918702813221F5DD
:104090008091E800877F8093E8000E947A228091D7
:1040A0008A0280936602089580918702813AA1F482
:1040B0008091E800877F8093E8008091E80080FF8E
:1040C000FCCF809166028093F1008091E8008E77AA
:1040D0008093E8000C947A22089584B7877F84BF88
:1040E0000FB6F894A8958091600088618093600075
:1040F000109260000FBE90E080E80FB6F8948093B5
:104100006100909361000FBE0E94790D0E94CC2245
:104110000E9429238091E20084608093E20086E47B
:104120009EE10E949B1878940E94BD250E94810DFB
:1041300082E091E00E94D70C82E599E00E94C305DD
:1041400080918602853089F48EE499E00E94C3054F
:104150000E946A1A80918402882391F30E94511A66
:10416000882371F30E942521EBCF0E94B10DE8CF87
:104170000C94BA20292F332723303105C9F060F47D
:104180002130310581F02230310509F047C08BE53F
:1041900090E02FE939E046C02132310511F1223299
:1041A000310561F13BC082E190E02AEF39E03AC08D
:1041B00099278130910561F040F08230910559F0E6
:1041C000039761F5E7E7F9E008C0EBE9F9E005C01E
:1041D000E1E9F9E002C0EDE7F9E0849190E09F01A8
:1041E00021C063307105D0F4660F771FFB01E557DE
:1041F000FE4F2081318189E090E014C06330710569
:1042000068F4FB01EE0FFF1FEB57FE4F2081318159
:10421000FB01EE57FE4F808190E004C080E090E00B
:1042200020E030E0FA0131832083089580918602F6
:10423000843011F081E0089582E008958091670252
:10424000811102C00C941621089580E189BD82E19C
:1042500089BD09B400FEFDCF8091D8008F7D809389
:10426000D8008091E00082608093E0008091E000BF
:1042700081FDFCCF0895CF92DF92EF92FF920F93D2
:104280001F93CF93DF93EC018B017A010E94992257
:10429000811133C0E114F10439F0F701808191817B
:1042A000081B190BC80FD91FC12CD12C01151105E2
:1042B00019F18091E80085FD16C08091E8008E77A5
:1042C0008093E800E114F10449F0F70180819181C5
:1042D000C80ED91ED182C08285E00FC00E949922EB
:1042E000882321F30AC089918093F10001501109BC
:1042F000FFEFCF1ADF0ADACF80E0DF91CF911F9175
:104300000F91FF90EF90DF90CF90089520918D0254
:1043100030918E022617370748F06115710539F480
:104320002091E8002E772093E80001C0B901FC013C
:1043300020E06115710579F1809186028823F1F101
:104340008530F1F18091E80083FD3CC08091E80068
:1043500082FD2EC08091E80080FFEBCF2091F3001A
:104360008091F20090E0922B6115710551F0883038
:10437000910538F421912093F10061507109019663
:10438000F3CF21E0089709F020E08091E8008E77D4
:104390008093E800CECF2111CFCF0AC08091860252
:1043A000882361F0853061F08091E80083FD0AC0C8
:1043B0008091E80082FFF2CF80E0089582E00895C6
:1043C00083E0089581E0089520918D0230918E025E
:1043D0002617370748F06115710539F42091E80078
:1043E0002E772093E80001C0B901FC0120E061159F
:1043F000710591F180918602882309F440C08530CF
:1044000009F43FC08091E80083FD3DC08091E80041
:1044100082FD2FC08091E80080FFE9CF2091F3005A
:104420008091F20090E0922B6115710559F088306F
:10443000910540F424912093F10031966150710967
:104440000196F2CF21E0089709F020E08091E80082
:104450008E778093E800CBCF2111CCCF0AC080911A
:104460008602882361F0853061F08091E80083FD49
:104470000AC08091E80082FFF2CF80E0089582E0D8
:10448000089583E0089581E00895982F973068F5A6
:104490009093E900981739F07091EC002091ED00AD
:1044A0005091F00003C0242F762F50E021FD02C070
:1044B0009F5FECCF3091EB003E7F3093EB0030916B
:1044C000ED003D7F3093ED003091EB003160309393
:1044D000EB007093EC002093ED005093F0002091DE
:1044E000EE0027FDE5CF80E008958F708093E9000E
:1044F00081E008958091870287FF11C08091E800D4
:1045000082FD05C0809186028111F8CF11C0809193
:10451000E8008B770BC080918602882349F0809158
:10452000E80080FFF8CF8091E8008E778093E80064
:1045300008952091E4003091E50095E64091EC006B
:10454000842F817040FF23C08091E80080FD1DC052
:1045500080918602882399F0853099F08091EB0054
:1045600085FD11C04091E4005091E5002417350706
:1045700029F3915011F09A01E1CF84E0089582E08F
:10458000089583E0089581E0089580E008954091C2
:10459000E80042FFDDCF08950E943A230E944223A3
:1045A000E0EEF0E0808181608083E8EDF0E08081E2
:1045B0008F77808319BCA7EDB0E08C918E7F8C93B0
:1045C00080818F7E80831092850208950F931F93C0
:1045D000CF93DF930E943A230E944223C8EDD0E09C
:1045E00088818F77888388818068888388818F7DA0
:1045F000888319BC10928602109282021092840263
:104600001092830200EE10E0F80180818B7F80839E
:1046100088818160888342E060E080E00E944522DA
:10462000E1EEF0E080818E7F8083E2EEF0E0808139
:1046300081608083808188608083F80180818E7FA3
:104640008083888180618883DF91CF911F910F9152
:104650000895E8EDF0E080818F7E8083E7EDF0E063
:1046600080818160808384E082BF81E080938502C5
:104670000C94E622E8EDF0E080818E7F808310923A
:10468000E20008951092DA001092E10008951F925E
:104690000F920FB60F9211242F933F934F935F9376
:1046A0006F937F938F939F93AF93BF93EF93FF93FA
:1046B0008091E10082FF0BC08091E20082FF07C081
:1046C0008091E1008B7F8093E1000E94601F8091C8
:1046D000DA0080FF1FC08091D80080FF1BC080914E
:1046E000DA008E7F8093DA008091D90080FF0DC0C0
:1046F00080E189BD82E189BD09B400FEFDCF81E082
:10470000809386020E94391F05C019BC1092860250
:104710000E944B1F8091E10080FF19C08091E20050
:1047200080FF15C08091E2008E7F8093E20080912F
:10473000E20080618093E2008091D80080628093E3
:10474000D80019BC85E0809386020E94561F809194
:10475000E10084FF30C08091E20084FF2CC080E142
:1047600089BD82E189BD09B400FEFDCF8091D800EA
:104770008F7D8093D8008091E1008F7E8093E1004F
:104780008091E2008F7E8093E2008091E200816060
:104790008093E20080918202882311F084E007C0B8
:1047A0008091E30087FD02C081E001C083E0809337
:1047B00086020E945A1F8091E10083FF29C08091E8
:1047C000E20083FF25C08091E100877F8093E100B4
:1047D00082E080938602109282028091E1008E7FB7
:1047E0008093E1008091E2008E7F8093E2008091CF
:1047F000E20080618093E20042E060E080E00E949D
:1048000045228091F00088608093F0000E94521F42
:10481000FF91EF91BF91AF919F918F917F916F9198
:104820005F914F913F912F910F900FBE0F901F906E
:1048300018951F920F920FB60F9211242F933F934A
:104840004F935F936F937F938F939F93AF93BF9398
:10485000CF93DF93EF93FF93C091E900CF708091E6
:10486000EC00D82FD17080FDD0E81092E900809143
:10487000F000877F8093F00078940E945D2410926E
:10488000E9008091F00088608093F000CD2BCF701C
:10489000C093E900FF91EF91DF91CF91BF91AF916C
:1048A0009F918F917F916F915F914F913F912F9148
:1048B0000F900FBE0F901F9018951F93CF93DF930B
:1048C000CDB7DEB7AA970FB6F894DEBF0FBECDBF47
:1048D000E7E8F2E08091F100819322E0EF38F207FF
:1048E000C9F70E94B01F8091E80083FF2EC180911C
:1048F000870290918802492F50E04A30510508F014
:1049000024C1FA01ED54FF4F0C94E425803821F0C6
:10491000823809F01AC108C0809183029091840204
:10492000992389F082600FC080918B028F7087304D
:1049300008F00BC18093E9008091EB0085FB88278C
:1049400080F91092E9009091E800977F9093E80039
:104950008093F1001092F100D1C0282F2D7F09F033
:10496000F4C0882319F0823061F0EFC08091890291
:10497000813009F0EAC0933009F080E0809384022E
:104980002EC08091890281112AC080918B028F7084
:104990002FEF280F263008F0D8C08093E90020912F
:1049A000EB0020FF1CC0933021F48091EB0080626B
:1049B00014C09091EB0090619093EB0021E030E007
:1049C000A90102C0440F551F8A95E2F74093EA00FF
:1049D0001092EA008091EB0088608093EB001092C7
:1049E000E9008091E800877F8093E8000E947A22A6
:1049F000ACC08111AAC0109189021F778091E30099
:104A00008078812B8093E3008091E800877F8093FA
:104A1000E8000E947A228091E80080FFFCCF80911C
:104A2000E30080688093E300111102C082E001C0BE
:104A300083E08093860289C08058823008F085C068
:104A40008091890290918A028C3D53E0950779F517
:104A500083E08A838AE289834FB7F894DE01139654
:104A600020E03EE051E2E32FF0E050935700E49164
:104A700020FF03C0E295EF703F5FEF708E2F90E054
:104A8000EA3010F0C79601C0C0968D939D932F5FBA
:104A9000243149F74FBF8091E800877F8093E80079
:104AA0006AE270E0CE0101960E94862116C06091F4
:104AB0008B0270918C02AE014F5F5F4F0E94B82055
:104AC000BC01892B09F441C09091E800977F909335
:104AD000E80089819A810E94E4218091E8008B7727
:104AE0008093E80032C0803881F58091E800877FAC
:104AF0008093E800809182028093F1008091E80029
:104B00008E7772CF811121C08091890290918A02A3
:104B100099270297D4F48091E800877F8093E8007A
:104B200080918902809382020E947A22809182027F
:104B3000811106C08091E30087FD02C081E001C0C1
:104B400084E0809386020E94A11F8091E80083FF89
:104B50000AC08091E800877F8093E8008091EB0095
:104B600080628093EB00AA960FB6F894DEBF0FBE6A
:104B7000CDBFDF91CF911F910895CF938091860291
:104B80008823A1F0C091E900CF709091EC00892FAB
:104B9000817090FD80E8C82B1092E9008091E800B8
:104BA00083FD0E945D24CF70C093E900CF910895EA
:104BB000991B79E004C0991F961708F0961B881F6F
:104BC0007A95C9F780950895EE0FFF1F0590F4912F
:104BD000E02D0994F999FECF92BD81BDF89A9927ED
:104BE00080B50895A8E1B0E042E050E00C941E26A4
:104BF000262FF999FECF92BD81BDF89A019700B496
:104C0000021639F01FBA20BD0FB6F894FA9AF99A35
:104C10000FBE08950396272F0E94F9250E94F825BC
:104C2000252F0E94F925242F0C94F9250196272F72
:104C30000E94F9250C94F825DC01CB01FC01F999BF
:104C4000FECF06C0F2BDE1BDF89A319600B40D92D8
:0C4C500041505040B8F70895F894FFCF91
:104C5C001C02421EF21E451EEE1EDC1E01E200E985
:104C6C0000EA00B500B600B700CD008301CC008A85
:104C7C00019201940121022302240225022602271B
:104C8C00022A02B300B4006F007000818283F7C661
:104C9C00676697969594939237363530F0F1F4F524
:104CAC00F6E200E900EA00B500B600B700CD0083DB
:104CBC0001CC008A019201940121022302240225D5
:104CCC0002260227022A02B300B4006F0070008192
:104CDC008283406D229B0A2E0A0C0AB109CA09E391
:024CEC000900BD
:00000001FF
