:100000000C940D050C9454050C9454050C94540553
:100010000C9454050C9454050C9454050C945405FC
:100020000C9454050C9454050C9403230C94D6237F
:100030000C94561A0C9454050C9454050C945405C5
:100040000C9454050C9454050C9454050C945405CC
:100050000C9454050C94C11A0C9454050C9454053A
:100060000C9454050C9454050C9454050C945405AC
:100070000C9454050C9454050C9454050C9454059C
:100080000C9454050C9454050C9454050C9454058C
:100090000C9454050C9454050C9454050C9454057C
:1000A0000C9454050C9454050C9454052900350007
:1000B0001E001F0020002100220023002400250034
:1000C000260027002D002E002B0014001A00080027
:1000D000150017001C0018000C00120013002F0060
:1000E00030002A00390004001600070009000A0049
:1000F0000B000D000E000F0033003400320028000A
:10010000E10036021D001B00060019000500110069
:100110001000360037003800E500E600E000E2009D
:10012000E3002C00E70001510251E40001204C00E3
:100130000000000000000000005C01003A003B00ED
:100140003C003D003E003F004000410042004300B3
:1001500044004500010001005200010001000100BF
:1001600001000100010001000100010001004C003C
:100170000100500051004F000100010050005100EB
:1001800052004F00010001000100AE00010001001B
:100190000100010001000100010001000100010057
:1001A0000100010001000100E000E200E3002C007A
:1001B000E70001000100E400010001000000000070
:1001C0000000000001000100010001000100010029
:1001D0000100010001000100010001000100010017
:1001E0000100010001000100010001000100010007
:1001F00001000100010001000100010001000100F7
:1002000001000100010001000100010001000100E6
:1002100001000100010001000100010001000100D6
:1002200001000100010001000100010001000100C6
:1002300001000100010001000100010001000100B6
:1002400001000100010001000000000000000000AA
:1002500044454255473A2064697361626C65642E77
:100260000A0044454255473A20656E61626C6564F8
:100270002E0A000A002530313662003A200025306F
:100280003258000A722F632030313233343536371A
:1002900038394142434445460A000A002530325865
:1002A00020006B6579626F6172645F7265706F7256
:1002B000743A20000A0025303258006B6579626F6D
:1002C0006172645F7365745F6C65643A2000646595
:1002D0006C5F6B65795F6269743A2063616E277445
:1002E0002064656C3A20253032580A006164645FEE
:1002F0006B65795F6269743A2063616E277420616F
:1003000064643A20253032580A003F00433E200002
:100310004C25640A0074696D65725F7265616433AF
:100320003228293A202530346C580A006B65796DE3
:1003300061705F636F6E6669672E6E6B726F3A20D5
:1003400025580A006B6579626F6172645F69646C3D
:10035000653A2025580A006B6579626F6172645FA7
:1003600070726F746F636F6C3A2025580A00686F63
:1003700073745F6B6579626F6172645F6C656473DF
:1003800028293A2025580A000A092D20537461743F
:100390007573202D0A004743433A20392E332E30FF
:1003A000204156522D4C4942433A20322E302E30B5
:1003B000204156525F415243483A20617672350AD5
:1003C000004F5054494F4E533A204C55464120451A
:1003D000585452414B455920434F4E534F4C4520A2
:1003E000434F4D4D414E44204E4B524F20343039F7
:1003F000360A004255494C443A2022302E382E31DC
:1004000033322D32372D673230323335632D646904
:1004100072747922202831333A31363A3439204AFD
:10042000756E2020322032303230290A005649447D
:100430003A203078303345422855414329205049ED
:10044000443A203078324646342841546D33325590
:100450003444465529205645523A203078303030C1
:10046000320A00444553433A205A6564656B696516
:100470006C204B6579626F6172640A000A092D2055
:1004800056657273696F6E202D0A000A092D20438C
:100490006F6E736F6C65202D0A4553432F713A09B7
:1004A000717569740A000A092D204D61676963201E
:1004B0002D0A443A094465627567204D657373617E
:1004C000676520546F67676C650A583A094D617417
:1004D000726978204465627567204D6F64652054A9
:1004E0006F67676C65202D2053686F77206B657987
:1004F0007072657373657320696E206D61747269C3
:100500007820677269640A4B3A094B6579626F61BA
:10051000726420446562756720546F67676C65205C
:100520002D2053686F77206B657970726573732027
:100530007265706F72740A4D3A094465627567207E
:100540004D6F75736520546F67676C650A563A097D
:1005500056657273696F6E0A533A09537461747504
:10056000730A433A09416374697661746520436F85
:100570006E736F6C65204D6F64650A46312D463190
:10058000303A0953776974636820746F204C61793D
:10059000657220302D392028463130203D204C30E6
:1005A000290A302D393A0953776974636820746FCA
:1005B000204C6179657220302D390A4752415645E9
:1005C0003A0953776974636820746F204C617965C8
:1005D0007220302028616C7465726E617465290A1E
:1005E000423A094A756D7020746F20426F6F746CC7
:1005F0006F616465720A4553433A094A756D70200C
:10060000746F20426F6F746C6F6164657220286133
:100610006C7465726E617465290A453A0950726995
:100620006E7420454550524F4D2053657474696E69
:1006300067730A4253504143453A09436C656172FE
:1006400020454550524F4D0A4E3A094E4B524F20CD
:10065000546F67676C650A000A002575002E6E6B83
:10066000726F3A20000A002575002E737761705F63
:100670006261636B736C6173685F6261636B7370FB
:100680006163653A20000A002575002E737761705A
:100690005F67726176655F6573633A20000A0025C3
:1006A00075002E6E6F5F6775693A20000A00257528
:1006B000002E737761705F72616C745F7267756929
:1006C0003A20000A002575002E737761705F6C6117
:1006D0006C745F6C6775693A20000A002575002EFE
:1006E000737761705F7263746C5F726775693A20CB
:1006F000000A002575002E737761705F6C63746C5F
:100700005F6C6775693A20000A002575002E6361E9
:1007100070736C6F636B5F746F5F636F6E74726F17
:100720006C3A20000A002575002E737761705F63B4
:100730006F6E74726F6C5F636170736C6F636B3A32
:1007400020000A0025303258006B65796D61705FBA
:10075000636F6E6669672E7261773A20000A002522
:1007600075002E6D6F7573653A20000A00257500BF
:100770002E6B6579626F6172643A20000A002575FC
:10078000002E6D61747269783A20000A00257500A8
:100790002E656E61626C653A20000A002530325881
:1007A0000064656275675F636F6E6669672E72616C
:1007B000773A20000A0025750064656661756C74DF
:1007C0005F6C617965723A20003F004E4B524F3AA0
:1007D000206F66660A004E4B524F3A206F6E0A0039
:1007E0000A6D6F7573653A206F66660A000A6D6F51
:1007F0007573653A206F6E0A000A6B6579626F61E6
:1008000072643A206F66660A000A6B6579626F61EE
:1008100072643A206F6E0A000A6D61747269783AE8
:10082000206F66660A000A6D61747269783A206FFB
:100830006E0A000A64656275673A206F66660A0090
:100840000A64656275673A206F6E0A000A0A4A7583
:100850006D70696E6720746F20626F6F746C6F616A
:100860006465722E2E2E2000433E2000436C65618D
:1008700072696E6720454550524F4D0A00656563A9
:100880006F6E6669673A0A005B735D004B6579625B
:100890006F6172642073746172742E0A005B575D1D
:1008A000005B535D005B525D005B445D005B435D3C
:1008B000000403300000001603410054006D0033B3
:1008C0000032005500340044004600550000000886
:1008D0000355004100430000000403090409025BC2
:1008E00000030100A0FA090400000103010100094E
:1008F00021110100012240000705810308000A09B7
:100900000401000103000000092111010001226D12
:10091000000705820320000A090402000203000008
:100920000009211101000122220007058303200094
:100930000107050303200001120110010000000857
:10094000EB03F42F0200010203010631FF0974A139
:10095000010975150026FF009520750881020976AA
:10096000150026FF00952075089102C00501098039
:10097000A101850319012AB700150126B7009501C9
:1009800075108100C0050C0901A101850419012A17
:10099000A002150126A002950175108100C0050175
:1009A0000906A1018505050719E029E715002501BC
:1009B0009508750181020507190029EF1500250129
:1009C00095F0750181020508190129059505750144
:1009D0009102950175039101C005010906A1010568
:1009E0000719E029E7150025019508750181029591
:1009F00001750881010507190029FF150026FF0070
:100A000095067508810005081901290595057501E8
:100A10009102950175039101C00011241FBECFEF13
:100A2000DAE0DEBFCDBF04B603FE27C080918902A5
:100A300090918A02A0918B02B0918C028730904BEA
:100A4000A740B04BD1F41092890210928A02109202
:100A50008B0210928C0214BE84B7877F84BF0FB6BE
:100A6000F894A8958091600088618093600010924E
:100A700060000FBEE0E0F8E3099511E0A0E0B1E00E
:100A8000E4EAFCE402C005900D92AC38B107D9F756
:100A900022E0ACE8B1E001C01D92A938B207E1F74D
:100AA0000E942E200C94DB250C940000FF93EF9302
:100AB000E0918C01F0918D01309709F00995EF914B
:100AC000FF910895FC018591803011F0EFDFFBCF9D
:100AD0000895FF27E0E230E247FF0CC0419597FF01
:100AE00009C0EDE26095709580959095611D711D2E
:100AF000811D911D27FF02C0219530E350E2AA27F6
:100B0000660F771F881F991FAA1FA41710F0A41B38
:100B100063955A95A9F7AA3008F0A95FA05DAF9335
:100B2000F395611571058105910541F7ED3211F4D9
:100B3000EF93F395F21718F43F93F395FBCF8F9152
:100B4000B5DFFA95E1F70895E991F9918591803043
:100B500021F0853219F0AADFF9CF089520E0E8945A
:100B600055915532C1F3503311F4689455915A336D
:100B700048F4505390F3220F022E220F220F200D23
:100B8000250FF4CF0EF4219589919991533619F3DD
:100B9000533729F1533559F1BC0188279927E89437
:100BA0005C3621F48991999168945591543639F4C1
:100BB00046EF7EF077FF0DC08FEF9FEF0AC05537ED
:100BC0004AE039F0583540E121F0523642E009F070
:100BD0000895FF93EF937DDFEF91FF91B7CFFF93E0
:100BE000EF93FC0181918030B9F360DFFBCFFF937D
:100BF000EF9368DFF1CFDF93CF93CDB7DEB72596C4
:100C0000A3DFCF91DF9108950C94DB080C94DC08EE
:100C100081E0089581E008950C940A0608950C94EB
:100C20000E061F93CF93DF9300D000D00F92CDB765
:100C3000DEB749835A836B833091A60189819A81FB
:100C400031111DC06623B9F02223A9F00E940617B6
:100C5000182F682F89819A810E94AF1669817A8145
:100C6000812F0F900F900F900F900F90DF91CF91E9
:100C70001F910C94D9060E94DD16182FEFCF0E9409
:100C8000061769817A81EDCFFC01262F40815181C1
:100C90006281738184810C941106CF93DF93D82FE6
:100CA000C92F60E00E9444066D2F7C2FDF91CF9109
:100CB0000C940F060E947B18811102C00E94181923
:100CC0000C9404060C94060608950C94640681E0C6
:100CD00008950C946706CF93C82F0E9465068C2F49
:100CE000CF910C94690608950E945C110E947306CE
:100CF0002FEF84E39CE0215080409040E1F700C05A
:100D000000000C94E51A0F931F93CF93DF93EC012F
:100D100061E00E9444068C01BE010E940C068823FB
:100D200011F1BE01C8010E94DF0A8823E1F0BE0173
:100D3000C8010E94230B8823B1F0BE01C8010E94A4
:100D4000F60B882381F08A81882341F101308CE5FC
:100D5000180779F00E3D8CE51807E9F001151C45E0
:100D6000E9F40E94740680E0DF91CF911F910F910A
:100D7000089590913902892F8E7F90FF8160809332
:100D8000390280FF05C082E692E00E946205EBCF47
:100D900080E592E0FACF0E941819E5CFCE01DF91ED
:100DA000CF911F910F910C94080690E080E0089578
:100DB0000895972F70E02EE0929F600D711D112411
:100DC000FB0196E4899FE00DF11D1124EE0FFF1F3A
:100DD000E455FF4F859194910895FC01EE0FFF1F9C
:100DE000ED58FD4F859194910895CF93DF930E9424
:100DF000D9060E940008EC01811521E5920708F050
:100E000048C0811530E5930708F0AFC0803E9105DA
:100E100018F5803C910508F096C0883A910570F469
:100E2000853A910508F08CC08130910531F1049725
:100E3000813A910510F1D0E0C0E01FC08F3B9105D1
:100E4000D1F3C85AD0E0CC0FDD1FC35FDE4F09904D
:100E5000D881C02DD46411C0811540E3940788F473
:100E6000C11580E2D80708F074C0C83ED10528F04B
:100E7000CE019A9581159F41F0F6CE01DF91CF9179
:100E80000895811530E4930708F466C0DF70D06AD6
:100E9000F4CF8115964560F5C11585E5D80708F0B2
:100EA00096C0C11594E5D907F0F4C11523E5D20722
:100EB00008F079C0C11532E5D30708F46FC0CE0140
:100EC0008370992721E030E002C0220F331F8A95FA
:100ED000E2F7C695C69540E2C49FE0011124C22BFB
:100EE000D32BDC68CACFDC2FCC27C46FD06AC5CF28
:100EF000C1158AE5D80788F4C11599E5D90708F026
:100F000071C0CE0198558F3F910511F008F093CF35
:100F1000DC2FCC27C06FD06AB0CFCE0190568115A0
:100F2000904208F088CF8D2F8F710E94980890E032
:100F3000982F882788279F719C012C2BE90150C08E
:100F4000A497D0649ACF805C91090E94ED06EC01D1
:100F500094CFCE019F70F9CF9927D3FF03C0EC0146
:100F6000D86C8BCFEC01D06C88CF74E096958795C8
:100F70007A95E1F783702C2F26952695237040E211
:100F8000249F90011124382B8C2F8370C1E0D0E076
:100F900002C0CC0FDD1F8A95E2F7A1CFDC2FCC2752
:100FA000C16FD06A6ACFCE018370992721E030E00B
:100FB00002C0220F331F8A95E2F7C695C69580E2DC
:100FC000C89FE0011124C22BD32BDA6856CF8C2F97
:100FD0000E949808C82FD0E0DC2FCC27CC27DF71E7
:100FE000D0624BCF8C2F8F700E94980834E0D6953A
:100FF000C7953A95E1F7CF70DC2FC82FD0693DCF68
:10100000803E910599F1C8F48133910509F476C0C9
:1010100048F48932910509F46AC08A32910509F4CD
:1010200074C0089589339105D1F082389105B9F0E3
:101030008533910509F454C00895843E910599F1D2
:1010400038F4823E9105F9F0833E910509F1089547
:10105000863E910599F1873E9105B9F10895209159
:101060007A022370A1F080EE90E0089520917A0238
:1010700020FD52C030917B0230FF09C024FF4FC0D9
:1010800090E080E004C020917A0222FDF7CF08951D
:1010900020917A0222FD46C030917B0230FDE3CFE1
:1010A00024FFF5CFEDCF20917B0221FFF0CF80917F
:1010B0007A0284FDE5CF87EE90E0089520917A02D0
:1010C00023FFE5CF24FDDCCFF6CF20917A0223FD6C
:1010D0002CC030917B0231FFE3CF84EE90E0089585
:1010E00020917A0225FFD3CF89E290E008952091E4
:1010F0007A0225FFCCCF85E390E0089520917A0213
:1011000026FFC5CF8AE290E0089520917A0226FF5B
:10111000BECF81E390E0089589E390E0089583EEE7
:1011200090E0089582EE90E0089586EE90E00895B4
:1011300090917A0292FF06C0282F28712830F9F486
:10114000877F846093FF06C0282F28712831F1F42F
:10115000877E846120917B0220FF06C0382F387182
:101160003830D9F4877F816021FF06C0282F28718D
:101170002831D1F4877E816194FD877E0895282FE0
:1011800024712430F9F68B7F8860DCCF282F2471FE
:10119000243101F78B7E8861DDCF382F31713130FA
:1011A00019F78E7F8860E0CF282F2171213121F738
:1011B0008E7E8861E1CF08950895E82FF0E0EE0F6C
:1011C000FF1FE459FD4F808191810895CF92DF92F6
:1011D000EF92FF920F931F93CF93DF9383E892E0F8
:1011E0000E9462058CE6E82E82E0F82ED0E0C0E096
:1011F0009EE7C92E92E0D92E05E712E0DF93CF9348
:10120000DF92CF920E94FB058BE792E00E9462057D
:10121000F701819191917F010E946E189F938F93A6
:101220001F930F930E94FB0583E792E00E946205E3
:1012300021968DB79EB708960FB6F8949EBF0FBE45
:101240008DBFC530D105D1F6DF91CF911F910F91A0
:10125000FF90EF90DF90CF90089580EA8A95F1F7A4
:101260000895CF93DF93ABE3B1E049E451E0C1E0EF
:10127000D0E08D91E82FE295EF70F0E061A18F70E2
:101280009E0101C0220F8A95EAF7922F909596232E
:1012900091A382A1822B82A34A175B0751F7A9E48D
:1012A000B1E061E070E08D91E82FE295EF70F0E041
:1012B00041A18F709B0101C0220F8A95EAF7922FFE
:1012C0009095942391A382A1822B82A381E0AE34D6
:1012D000B80749F7109263021092620210926D02F1
:1012E00010926C02109265021092640210926F02CA
:1012F00010926E02109267021092660210927102B2
:101300001092700210926902109268021092730299
:101310001092720210926B0210926A021092750281
:101320001092740285E00E94380ADF91CF910C94EC
:101330005A062F923F924F925F926F927F928F92B6
:101340009F92AF92BF92CF92DF92EF92FF920F9354
:101350001F93CF93DF938BE3A82E81E0B82EF12C5F
:10136000E12C10E0CC24C394D12C2CE6422E22E0B8
:10137000522ED5018D915D01C82FC295CF70D0E05E
:1013800099A18F70460101C0880C8A95EAF7892FD0
:10139000882989A38AA1082D009580238AA30E9409
:1013A0002D0996010E2C02C0220F331F0A94E2F77A
:1013B000390160947094E2E6F2E049E451E0312CA6
:1013C00081919191DA012D90AD01A22DA295AF707E
:1013D000B0E090966C9170E0A22DAF7002C0759550
:1013E0006795AA95E2F7DF01129760FD3DC0BC0149
:1013F000622B732B11967C936E936D917C91861763
:10140000970711F0332433944E165F06C9F689A16D
:10141000082309A38AA1882A8AA21329BFEFEB1AFD
:10142000FB0AEEE0EE16F10409F0A3CF212F45E010
:101430006CE672E082E692E00E94390A0E9462063F
:10144000812FDF91CF911F910F91FF90EF90DF904F
:10145000CF90BF90AF909F908F907F906F905F9054
:101460004F903F902F900895BC0166217721C2CF05
:101470000895FF920F931F93CF93DF93F82E092FB8
:10148000162FD72FC42F222349F081E0809390019B
:101490000E94861A90938F0180938E018091900113
:1014A0008823A1F080918E0190918F010E94B21A41
:1014B000069760F0EF2DF02FA12FBD2F90E080E078
:1014C000D0E08C179D0744F010929001DF91CF91EE
:1014D0001F910F91FF900895219131912D933D938C
:1014E0000196EFCF0F931F93CF93DF93C62FD42F87
:1014F000022FFC0182818823C9F0609393010E942E
:10150000861A909392018093910180E28C0F88302B
:1015100008F050C0C77081E001C0880FCA95EAF793
:10152000DF91CF911F910F910C94C10E10919301F7
:10153000161335C080919101909192010E94B21AC8
:10154000883C910560F5C0E2CD0F1D17B9F080E22F
:10155000810F883040F4177081E001C0880F1A9520
:10156000EAF70E94C80EC83048F481E09D2F9770BA
:1015700001C0880F9A95EAF70E94C10E802F0E9441
:10158000AE0EC830B8F4D77081E001C0880FDA958C
:10159000EAF7DF91CF911F910F910C94C80E80E272
:1015A0008C0F883038F4C77081E001C0880FCA956D
:1015B000EAF7EFCFDF91CF911F910F9108959C0132
:1015C000CB01233F4CE5340769F190F4283DFCE55D
:1015D0003F0721F1293D4CE5340781F1273D3C458A
:1015E000B1F0FC018281882361F11092930108958A
:1015F000253FFCE53F07D1F0263F4CE53407D1F00D
:10160000243F3C4571F727E245EE64EE03C026E235
:1016100041EE61EE0E94720A80E0089527E245EEF5
:1016200065EEF8CF26E241EE60EEF4CF26E241EE21
:1016300062EEF0CF27E245EE66EEECCF28E241E025
:10164000EFCF81E00895CF93DF93EC01FB0182811E
:10165000882309F4C9C0C631FCE5DF07E0F4C230D5
:101660009CE5D907F0F00E948E1890937B0280933E
:101670007A02C631ECE5DE0720F5C230FCE5DF0773
:1016800098F480917A0290917B020E949C180E94AB
:101690005C1180E006C09E012A5F3C45293031057F
:1016A00010F3DF91CF910895FE01E350FC45809146
:1016B0007A028160E331F10588F4E352FA4D0C942B
:1016C0009325CA5FDC45C930D105D8F6C051DA4D43
:1016D000FE010C94932580917A02826080937A02B5
:1016E000D0CF80917A028460F9CF80917A028860AD
:1016F000F5CF80917B02816080937B02C2CF809185
:101700007B028260F9CF80917A028061E7CF80917D
:101710007A028062E3CF80917A028064DFCF0E94F8
:101720005C1180917A028068D9CF80917A028C60B6
:10173000D5CF80917B028360DFCF80917A028E7F4C
:10174000CDCF80917A028D7FC9CF80917A028B7F35
:10175000C5CF80917A02877FC1CF80917B028E7F37
:10176000CBCF80917B028D7FC7CF80917A028F7E15
:10177000B5CF80917A028F7DB1CF80917A028F7B35
:10178000ADCF0E945C1180917A028F77A7CF8091B4
:101790007A02837FA3CF80917B028C7FADCF809133
:1017A0007A0282FB992790F921E0922790FB82F937
:1017B00090FB83F993CF80917B02982F9095917045
:1017C0008E7F892B90FB81F997CF0E945C119091BD
:1017D0007A02892F97FB87F9805880CF81E00E9499
:1017E0001A194FCF80E0FBCF81E05BCFCF93DF931F
:1017F000EB0186319C4511F50E94A3179A8199232C
:1018000099F08A7A91E009F490E090939401811123
:1018100009C089E20E947E170E94F21780E0DF91E2
:10182000CF91089585E3F6CF80919401811104C092
:1018300089E20E948517F0CF85E3FBCF81E0EFCFEF
:1018400090939A01809399010895E0919901F09104
:101850009A01309721F00190F081E02D099480E009
:101860000895EF92FF920F931F93CF93DF93EC01B4
:10187000E0919901F0919A01309709F446C0809166
:101880000C01882341F080917A0287FF04C088818F
:10189000898385E088830280F381E02DCE0109955C
:1018A0008091390282FF31C080FF04C082EA92E059
:1018B0000E94620510E000E08CE9E82E82E0F82E3C
:1018C0008091390280FF0EC0FE01E00FF11F808180
:1018D0001F928F93FF92EF920E94FB050F900F9043
:1018E0000F900F900F5F1F4F0830110549F780913F
:1018F000390280FF0AC08AE992E0DF91CF911F91FF
:101900000F91FF90EF900C946205DF91CF911F91A2
:101910000F91FF90EF9008952091970130919801D9
:101920002817390771F09093980180939701E091FF
:101930009901F0919A01309721F00680F781E02D0E
:10194000099408952091950130919601281739073F
:1019500071F09093960180939501E0919901F09137
:101960009A01309721F00084F185E02D09940895C3
:1019700085B7806885BF85B7806885BF089508955D
:1019800008950C94BF0C08950C94C30C0E94B80CDD
:101990000E94C00C0C94C10C81E008950E947D1A35
:1019A0000E9431090E94091B0C94C40CCF93C82FCC
:1019B0008091390282FF1EC080FF1CC08BEB92E039
:1019C0000E9462058091390280FF14C01F92CF935C
:1019D00086EB92E09F938F930E94FB0580913902E2
:1019E0000F900F900F900F9080FF04C084EB92E057
:1019F0000E9462058C2FCF910C946B069F92AF9240
:101A0000BF92CF92DF92EF92FF920F931F93CF93EB
:101A1000DF9300D000D00F92CDB7DEB70E949909B6
:101A20000E94CC0C882309F46CC05CE9A52E51E01F
:101A3000B52E10E000E0902E802F0E94DD087C0182
:101A4000F501C190D1905F01C816D90609F453C0C1
:101A50008091390281FD0E94E60896012E253F25DE
:101A600080E0CC24C394D12CA9014C215D21452BCD
:101A7000E1F189839A82EC20FD2081E0EF2809F4CE
:101A800080E08B830E94861A8160782F9D838C83EF
:101A900049815A816B818D810E94A30D000F111F16
:101AA000F801E456FE4F80819181C826D926D18263
:101AB000C0820E94250C90919B01891799F10E9488
:101AC000250C80939B010F900F900F900F900F901B
:101AD000DF91CF911F910F91FF90EF90DF90CF900A
:101AE000BF90AF909F900C94D60C8F5FCC0CDD1CF8
:101AF0008E3009F0B9CF0F5F1F4F0530110509F087
:101B00009ACF8FEF89838A831B820E94861A816015
:101B1000782F9D838C8349815A816B818D810E94AE
:101B2000A30DC7CF0F900F900F900F900F90DF91E4
:101B3000CF911F910F91FF90EF90DF90CF90BF90CA
:101B4000AF909F900895CF93DF93CDB7DEB72B97DB
:101B50000FB6F894DEBF0FBECDBF4F83588769879D
:101B60007A878B871E8285E0FE013796DE0111960B
:101B700001900D928A95E1F749815A816B817C81B0
:101B80008D819E812B960FB6F894DEBF0FBECDBF20
:101B9000DF91CF910C94BF13FC01808191810C9453
:101BA0004817CF93C82F882309F487C08238C1F41F
:101BB0000E94250C81FD81C089E30E947E170E944E
:101BC000F2172FEF31EE84E0215030408040E1F7F2
:101BD00000C0000089E30E948517CF910C94F21792
:101BE0008338A1F40E94250C80FD67C083E50E9424
:101BF0007E170E94F2179FEF21EE34E091502040B3
:101C00003040E1F700C0000083E5E5CF8438A1F45F
:101C10000E94250C82FD51C087E40E947E170E941D
:101C2000F2178FEF91EE24E0815090402040E1F7D1
:101C300000C0000087E4CFCF8CEF8C0F813AB8F45E
:101C40008C2F0E94C41D811138C06C2F809100011F
:101C5000909101010E943319882329F08C2F0E9452
:101C600085170E94F2178C2F0E947E17B6CF80E254
:101C70008C0F883048F4C77081E001C0880FCA9586
:101C8000EAF70E94A617A9CF8BE58C0F833038F4B2
:101C90002C2F2452330BC901CF910C948C0CC85AB1
:101CA000C73158F4EC2FF0E0EE0FFF1FE25BFE4F60
:101CB00080819181CF910C94A20CCF9108958823BB
:101CC00009F44BC0823871F40E94250C81FF45C095
:101CD00089E30E947E170E94F21789E30E9485170C
:101CE0000C94F217833859F40E94250C80FF35C0FC
:101CF00083E50E947E170E94F21783E5EFCF8438B8
:101D000059F40E94250C82FF28C087E40E947E17A8
:101D10000E94F21787E4E2CF9CEF980F913AF0F21D
:101D200090E2980F983050F4877091E001C0990FBD
:101D30008A95EAF7892F0E94AC17D2CF9BE5980FBE
:101D4000933020F490E080E00C948C0C885A87311A
:101D500020F490E080E00C94A20C0895CF93C82F5B
:101D60000E94D10DC93349F42FEF87EE93E0215043
:101D700080409040E1F700C000008C2FCF910C9480
:101D80005F0E882321F00E94A6170C94F217089585
:101D9000882321F00E94AC170C94F2170895AF929B
:101DA000BF92CF92DF92EF92FF920F931F93CF9348
:101DB000DF9300D000D00F92CDB7DEB76C016D83FA
:101DC0007983FC01058102950F70128111110E9427
:101DD000C5170E949C17E82E882371F01123B1F0DB
:101DE0008D81805E883090F082E00E943D180E94D4
:101DF0009C1791E0E82EE926A980A2949FE0A922F1
:101E0000B12CF501E750FA4D0C949325E12CF4CF59
:101E100009810F70F981F07F11F00295007F112385
:101E2000B1F0002361F08D81805E883018F02D8143
:101E3000211109C0802F0E94A6170E94F2178D81E0
:101E40000E94D10D15C0802F0E94B717F6CF8D814B
:101E50000E945F0E002361F08D81805E883018F053
:101E60004D81411133C0802F0E94AC170E94F217A0
:101E700058E0A51AB10864E0A616B10420F40E9447
:101E8000250C0E946B06EE2009F4C1C10E94981730
:101E900080FDBDC1F60112820E9492170E949F151B
:101EA000C6010E942E110E9492170F900F900F9062
:101EB0000F900F90DF91CF911F910F91FF90EF90B6
:101EC000DF90CF90BF90AF900C94D015802F0E94E0
:101ED000BD17CCCF59815F70F52E6981607F60326C
:101EE00019F0F29480EFF8227D81772369F0713048
:101EF00049F1112391F1002351F1F601858180FF11
:101F00009ECF8F70858323C0112381F0011106C0FD
:101F10000E94D9178F290E94C10EAACF0130C1F7A4
:101F20000E94D9178F290E94DF17A2CF011106C086
:101F30000E94E8178F2D0E94C80E9ACF013009F435
:101F400097CFF6CF112329F0063008F091CF8F2DCF
:101F5000E2CF053008F08CCFEDCF002359F3FD819F
:101F6000F93349F42FEF47EE53E021504040504001
:101F7000E1F700C000008D810E945F0E79CF89815A
:101F800086958695837069F0813009F071CF8D81D7
:101F900099819370111102C090E080E00E94A20C20
:101FA00067CF8D8199819370111102C090E080E01C
:101FB0000E948C0C5DCF8981837009F050C0111193
:101FC00057CF4D81429546954770440F440F8D8100
:101FD0008F7090E0B0E0A0E0042E04C0880F991F3D
:101FE000AA1FBB1F0A94D2F76D8100E010E0980190
:101FF00064FF0FC00FE010E020E030E004C0000FED
:10200000111F221F331F4A95D2F700951095209576
:10201000309579817695769573707D83B901A801A5
:10202000482B592B6A2B7B2B49835A836B837C83E8
:102030005D8169817A818B819C81523051F053306E
:1020400059F0513019F00E94151512CF0E94ED146D
:102050000FCF0E943D150CCF0E94EB1409CF86953F
:10206000112311F089818170882309F401CF4D81FA
:10207000429546954770440F440F8D818F7090E0D4
:10208000B0E0A0E0042E04C0880F991FAA1FBB1F58
:102090000A94D2F76D8100E010E0980164FF0FC050
:1020A0000FE010E020E030E004C0000F111F221FFD
:1020B000331F4A95D2F70095109520953095798178
:1020C0007695769573707D83B901A801482B592BBD
:1020D0006A2B7B2B49835A836B837C835D81698167
:1020E0007A818B819C81523051F0533059F05130BC
:1020F00019F00E945E16BCCE0E943616B9CE0E9420
:102100008616B6CE0E946915B3CE69816F70698359
:10211000112329F0862F0E949F158D81FCCE8D8181
:102120000E94C80E89810E94D015A2CE7D81723F87
:10213000A1F160F4703FE1F0713F41F1112309F426
:1021400045C001117CCE89818F7124C08D81833F70
:1021500049F1843F99F7112379F199819F7199830E
:10216000892F0E949F1563E089810E94281880CEE4
:10217000112341F0053008F07BCE89818F710E94D8
:10218000051676CE063008F073CEF7CF89818F71B1
:10219000112349F20E949F156BCE89818F71112303
:1021A000C9F3C1CF112329F089818F710E947A155B
:1021B0005FCE0E9475155CCE81E00E943D18023012
:1021C00008F456CE82E00E943D1852CE002361F002
:1021D000ED81E93309F0CFCEFFEF27EE43E0F15078
:1021E00020404040E1F7C5CE89818F719CCF498165
:1021F0004F706D81C6010E94D5060E945F1438CED3
:1022000049814F706D81C6010E94D80631CE0F9072
:102210000F900F900F900F90DF91CF911F910F9122
:10222000FF90EF90DF90CF90BF90AF9008950F9305
:102230001F93CF93DF93EC01688179818A810E949B
:1022400054178C010E94AE160E94EA14B801CE0108
:10225000DF91CF911F910F910C94CF0ECF93DF930D
:10226000EC018B819C81892B29F0888199818923BC
:102270008F3F19F4DF91CF910895CE010E9483061C
:102280008823C1F3CE010E941711CE01DF91CF91B7
:102290000C944D060E94C5170E94D6170E94F21793
:1022A00090E080E00E948C0C90E080E00C94A20C06
:1022B0000E948C170C944A110E94B4170C94581168
:1022C000282F892F82958F70903C80F48A30B0F44B
:1022D000843020F4823090F480E008958630E1F775
:1022E00081E0283E88F0213FB9F70EC08C3011F014
:1022F0008F3091F793FB882780F9089581E0203F84
:1023000039F018F4283E40F70895243F29F7FCCF10
:1023100008950E9448170C946011CF93DF9300D06A
:1023200000D00F92CDB7DEB70F900F900F900F90A7
:102330000F90DF91CF910895CF93DF9300D000D01D
:1023400000D0CDB7DEB726960FB6F894DEBF0FBE2D
:10235000CDBFDF91CF9108951F93CF93DF93E0918D
:10236000A70116E08091A8018E1304C0DF91CF91E0
:102370001F910895CE2FD0E01E9FF0011124E75544
:10238000FE4F4081518162817381848195810E94D9
:102390009C11FE013196E770E5CF4091D901509133
:1023A000DA016091DB017091DC018091DD01909197
:1023B000DE010C949C111F93CF93DF938091DE017B
:1023C000807FA9F48091DB01882389F08091A701A7
:1023D000C091A8016091D9017091DA01A091DC014E
:1023E000B091DD01D62FD72316E0C81304C0DF91CA
:1023F000CF911F91089590E0109711F0DF3F19F4ED
:1024000001968770F2CF189F9001199F300D11240B
:10241000F901E755FE4F41814713F2CF4081461342
:10242000EFCF42814111ECCF438154814A1B5B0BBA
:10243000483C510528F78091DE018F7080618093C0
:10244000DE01F901E255FE4F80818F70806180834B
:1024500089ED91E00E942E11DF91CF911F910C9494
:10246000AC11AF92BF92CF92DF92EF92FF920F9397
:102470001F93CF93DF93CDB7DEB72B970FB6F894AA
:10248000DEBF0FBECDBF8C0185E0F801DE011796DF
:1024900001900D928A95E1F7F80140815181E28027
:1024A00089EDC82E81E0D82E6091DC017091DD01AC
:1024B0006115710509F444C19091D9012091DA01A7
:1024C000822F89238F3F09F43BC1A380B480F09011
:1024D000DB01F501E61BF70BFF2009F4E0C080915A
:1024E000DE01382F307FE83CF10508F0B2C0311131
:1024F00079C0FE2C251323C0941321C0E1101FC006
:102500008F7080618093DE010E94CD11C6010E9410
:102510002E118091DE01F80185838F2D2B960FB649
:10252000F894DEBF0FBECDBFDF91CF911F910F9109
:10253000FF90EF90DF90CF90BF90AF900895AB28C1
:1025400029F0842F85238F3F09F016C180E0F82FF2
:10255000F170DF2EE091A7012091A80136E080FD07
:102560001CC0EE20D1F28091DE0181608093DE01FB
:10257000F12CD3CF8E2F90E03E9FF0011124E75530
:10258000FE4F6181651306C06081641303C06281E0
:10259000E612E7CFFC013196E770E213EBCF4F83F1
:1025A00058878F8198850E944817292F22952F7070
:1025B000903260F0225F2F70223078F49F7051F0DB
:1025C000F8019581907F31F4D12C0AC09F7011F0F1
:1025D0008823D1F3805E8830B8F3C8010E942E11A1
:1025E000FD2C9BCF251306C0941304C0F801EE20E8
:1025F00009F470C04F8358878F8198850E94891194
:10260000882319F1EE2009F18091DE01803270F00B
:102610002091D9013091DA013A8329831B82BD824E
:10262000AC828E83CE0101960E942E1186E0F801C5
:10263000A9EDB1E001900D928A95E1F70E94DB11BE
:102640000E94CD11FF24F39468CFC8010E942E117F
:10265000F9CF311113C07A2DBB86AA866E2D8B85DA
:102660000E948D1189ED91E00E942E1186E0F60105
:1026700011928A95E9F70E94CD117ACF2513BACF2E
:102680009413B8CFE110B6CFF8018583C8010E943A
:102690002E1186E0F60111928A95E9F73ECFE83CCB
:1026A000F10508F040C0FE2CEE2079F225132AC077
:1026B000941328C08091DE0180FD1BC0982F907F6D
:1026C000C1F0F8018583903F31F0982F907F905FA3
:1026D0008F70892B8583C8010E942E1186E0F80136
:1026E000A9EDB1E001900D928A95E1F70E94CD111C
:1026F00014CF86E0F801A9EDB1E001900D928A9522
:10270000E1F70BCF4F8358878F8198850E948911FD
:1027100081118CCF8091DE0181608093DE01C80140
:102720000E942E11FACE7A2DBB86AA866E2D8B853D
:102730000E948D1186E0F60111928A95E9F7D6CFB5
:10274000EE2009F482CF4F8358878F8198850E94AD
:102750008911F82E882309F478CF86E0F801A9EDD5
:10276000B1E001900D928A95E1F789ED91E00E9428
:10277000CC0D0E94DB11BACF81E08E25E8CE1F93ED
:10278000CF93DF93CDB7DEB72C970FB6F894DEBFAB
:102790000FBECDBF4F83588769877A878B879C8709
:1027A000CE0107960E943112882369F08A859B85A5
:1027B000892B39F04F815885842F85238F3F09F06D
:1027C00077C016E065C086E0FE013796DE011196FF
:1027D00001900D928A95E1F76A857B8561157105F7
:1027E00081F35F814885842F85238F3F51F32091AA
:1027F000A80130E0C901019687709927E091A701EF
:10280000E817190671F40E945C111092A801109249
:10281000A70186E0E9EDF1E0DF011D928A95E9F775
:10282000D0CF59834A837D836C8396E0929FD001F9
:10283000939FB00D1124A755BE4FFE013196019014
:102840000D929A95E1F78093A8010E94AC11B9CF3F
:10285000819FC001112487559E4F0E943112882309
:10286000E9F0E091A7011E9FF0011124E755FE4F0A
:102870004081518162817381848195810E949C1184
:102880008091A70190E00196877099278093A70116
:102890008091A7019091A8018913DACF2C960FB6E9
:1028A000F894DEBF0FBECDBFDF91CF911F91089589
:1028B00069857A858B859C850E949C1182CFEF92D9
:1028C000FF920F931F93CF93DF938C01892B89F095
:1028D000F12CEE24E394E8012196F80184918437E9
:1028E00009F457C0A0F4823009F43EC048F48130A6
:1028F000D1F0DF91CF911F910F91FF90EF9008954C
:102900009CEF980F9037A8F70E94D10D0AC0853729
:1029100009F44CC09CE7980F903758F78F770E94C6
:102920005F0E8E0116C00E5F1F4FFE01849190E274
:10293000980F983060F48770FE2D01C0FF0F8A95C4
:10294000EAF78F2F0E94C8170E94F21702C00E9458
:10295000D10D8F2D815008F4BECFEFE9FFE0319704
:10296000F1F700C00000F6CF0E5F1F4FFE0184910B
:1029700090E2980F983050F48770FE2D01C0FF0F41
:102980008A95EAF78F2F0E94CE17DECF0E945F0E46
:10299000E0CF0E5F1F4FFE01C491C150D0F28FE90E
:1029A0009FE00197F1F700C00000F7CF0E5F1F4FC7
:1029B000FE01F490CECF08950C94DB140E94DC1439
:1029C000609310027093110280931202909313028D
:1029D0000C944A1108950C94DE14CF93DF9300D029
:1029E00000D0CDB7DEB769837A838B839C838091D7
:1029F000100290911102A0911202B091130229814C
:102A00003A814B815C81282B392B4A2B5B2B298304
:102A10003A834B835C83CA01B9010F900F900F90EA
:102A20000F90DF91CF910C94DE14CF93DF9300D001
:102A300000D0CDB7DEB769837A838B839C83809186
:102A4000100290911102A0911202B09113022981FB
:102A50003A814B815C81282339234A235B232983D4
:102A60003A834B835C83CA01B9010F900F900F909A
:102A70000F90DF91CF910C94DE14CF93DF9300D0B1
:102A800000D0CDB7DEB769837A838B839C83809136
:102A9000100290911102A0911202B09113022981AB
:102AA0003A814B815C81282739274A275B27298374
:102AB0003A834B835C83CA01B9010F900F900F904A
:102AC0000F90DF91CF910C94DE140C94DB140C94D6
:102AD00065150E94671560930C0270930D02809338
:102AE0000E0290930F020C944A1160E070E0CB014B
:102AF0000C9469150F931F93CF93DF9300D000D0F0
:102B0000CDB7DEB741E050E060E070E08A019B01A4
:102B100004C0000F111F221F331F8A95D2F70983AB
:102B20001A832B833C83C901B8010F900F900F903B
:102B30000F90DF91CF911F910F910C9469150F9316
:102B40001F93CF93DF9300D000D0CDB7DEB741E025
:102B500050E060E070E004C0440F551F661F771F0F
:102B60008A95D2F780910C0290910D02A0910E02ED
:102B7000B0910F028A019B01082B192B2A2B3B2BAA
:102B800009831A832B833C83C901B8010F900F90EE
:102B90000F900F90DF91CF911F910F910C946915B9
:102BA0000F931F93CF93DF9300D000D0CDB7DEB744
:102BB00041E050E060E070E004C0440F551F661F24
:102BC000771F8A95D2F740955095609570958091C2
:102BD0000C0290910D02A0910E02B0910F028A0199
:102BE0009B01082319232A233B2309831A832B8360
:102BF0003C83C901B8010F900F900F900F90DF91A7
:102C0000CF911F910F910C9469150F931F93CF9340
:102C1000DF9300D000D0CDB7DEB741E050E060E0F8
:102C200070E004C0440F551F661F771F8A95D2F7C6
:102C300080910C0290910D02A0910E02B0910F02B2
:102C40008A019B01082719272A273B2709831A8312
:102C50002B833C83C901B8010F900F900F900F9008
:102C6000DF91CF911F910F910C946915CF93DF9352
:102C700000D000D0CDB7DEB769837A838B839C8385
:102C800080910C0290910D02A0910E02B0910F0262
:102C900029813A814B815C81282B392B4A2B5B2B74
:102CA00029833A834B835C83CA01B9010F900F904B
:102CB0000F900F90DF91CF910C946915CF93DF9314
:102CC00000D000D0CDB7DEB769837A838B839C8335
:102CD00080910C0290910D02A0910E02B0910F0212
:102CE00029813A814B815C81282339234A235B2344
:102CF00029833A834B835C83CA01B9010F900F90FB
:102D00000F900F90DF91CF910C946915CF93DF93C3
:102D100000D000D0CDB7DEB769837A838B839C83E4
:102D200080910C0290910D02A0910E02B0910F02C1
:102D300029813A814B815C81282739274A275B27E3
:102D400029833A834B835C83CA01B9010F900F90AA
:102D50000F900F90DF91CF910C9469150895E82F93
:102D60002EE0929FE00D11248E2F877041E001C06C
:102D7000440F8A95EAF7E695E695E69585E0E89FA3
:102D8000F0011124E152FE4F30E020E070E051915B
:102D9000DF011197CB01022E02C0969587950A9408
:102DA000E2F7817081958527842385278C932F5F97
:102DB0003F4F2530310559F70895E82F2EE0929FB7
:102DC000E00D11249E2F9770E695E695E69585E037
:102DD000E89FF0011124E152FE4F50E040E080E016
:102DE000219130E0092E02C0369527950A94E2F72A
:102DF00021703327042E01C0220F0A94EAF7822B98
:102E00004F5F5F4F4530510559F70895BF92CF92FC
:102E1000DF92EF92FF920F931F93CF93DF938C017A
:102E2000C0900C02D0900D02E0900E02F0900F02C4
:102E30008091100290911102A0911202B0911302A0
:102E4000C82AD92AEA2AFB2ACFE1D0E0BC2ED70132
:102E5000C6010C2E04C0B695A795979587950A9440
:102E6000D2F780FD0EC0219788F7B12C8B2DDF9112
:102E7000CF911F910F91FF90EF90DF90CF90BF9077
:102E80000895B8018C2F0E94F506019761F3EECFEB
:102E9000CF93DF93D82FC92F0E9406176D2F7C2F59
:102EA000DF91CF910C94F5061F93CF93DF93162FEC
:102EB000D72F9091A601992339F0862F972FDF9174
:102EC000CF911F910C944817882391F0862F972F4C
:102ED0000E940617C82F682F812F9D2F0E94AF16C2
:102EE000612F7D2F8C2FDF91CF911F910C94F506D0
:102EF000862F972F0E94DD16C82FF2CF682F809162
:102F00000001909101010C94D919682F8091000162
:102F1000909101010C94E4198091000190910101BC
:102F20000C94EF19809114028595859585950895E7
:102F3000809114028770089590911402977081E037
:102F400009F480E008958091380208959091380244
:102F5000982B909338020895982F9095809138027D
:102F60008923809338020895109238020895909131
:102F70003702982B909337020895982F909580915F
:102F800037028923809337020895109237020895FB
:102F900090913602982B909336020895982F909531
:102FA000809136028923809336020895109236026A
:102FB000089580911502089508950C94DC1790915E
:102FC0001502981721F0809315020C94DD170895CF
:102FD00080911502882329F01092150280E00C944C
:102FE000DD170895E0910001F09101018091380210
:102FF0008083E0910001F09101018081909137027E
:10300000892B8083E0910001F091010180819091F2
:103010003602892B808390911502992381F0E091EB
:103020000001F09101018081892B80838091000152
:10303000909101010E941F1981110E94E81780914F
:103040000001909101010C94310C08950C94251805
:1030500098E0899F90011124622B609314020E94D2
:103060009F15809114028595859585950C94261859
:103070001092140280E00C9426189091140280950E
:10308000892380931402282F277071F4282F082E8B
:10309000000C330B9217130639F0859585958595AD
:1030A0000E94D0150C943818089590938D01809348
:1030B0008C010895829594E0899F900111242C7CC5
:1030C000869586958373282B30E0C901880F991F58
:1030D0008A7A359527952575822B0895CF93DF93AE
:1030E000D92F0E945A18C82F8D2F0E945A189C2F32
:1030F000DF91CF91089590E080E00E94A1259C018E
:1031000081E02C3E3E4F09F080E0089582E090E09F
:103110000C94992583E090E00C949925CF9384E05A
:1031200090E00E949925C82F81E290E00E949925A5
:10313000982F8C2FCF910895CF93682FC92F84E0BB
:1031400090E00E94A7256C2F81E290E0CF910C9433
:10315000A725AB01BC018FE090E00C94B925AB0131
:10316000BC0183E190E00C94B92560E070E0CB01F4
:103170000C94AF1860E070E0CB010E94A9180C9489
:10318000B5186CEE7EEF90E080E00E94C52560E00F
:1031900082E090E00E94A72560E083E090E00E943A
:1031A000A725109210021092110210921202109292
:1031B000130260E084E090E00E94A72560E081E2D5
:1031C00090E00E94A72560E085E090E00E94A7259E
:1031D00060E086E090E00E94A7256FEF87E090E036
:1031E0000E94A72540E050E0BA0188E090E00E94EC
:1031F000B92560E08DE090E00E94A72540E050E016
:10320000BA0188E190E00E94B92560E087E190E092
:103210000E94A72540E050E0BA018CE190E00E94B6
:10322000B92560E080E290E00E94A7250C94BA18CE
:103230000C94C118682F8EE090E00C94A725FC0137
:10324000329680910C01882321F080917A029EE1D0
:1032500087FF96E080E0915008F4089521912223A1
:10326000D1F38F5FF8CF9C01662301F180910C01AF
:103270008823F1F080917A0287FF1AC0462F469585
:1032800046954695603F90F4677081E090E002C0FB
:10329000880F991F6A95E2F7240F311DF9012281E9
:1032A00030E02823392381E0232B71F480E0089556
:1032B000F9013296285F3F4F8191861721F0E2177E
:1032C000F307D1F7F3CF81E008959C01FC0132961A
:1032D0008FEF90E04191461751F08F3F19F4411163
:1032E00001C0892F9F5F9630A9F78F3F09F4089599
:1032F000280F311D87FD3A95F901628308959C01DD
:10330000FC013296285F3F4F8191861303C0DF0195
:1033100011971C92E217F307B9F70895E62FE69587
:10332000E695E695603F70F4E80FF92FF11D6770A0
:1033300021E030E001C0220F6A95EAF78281822BFA
:10334000828308958091390280FF0CC01F926F9391
:103350008CEE92E09F938F930E94FB050F900F904D
:103360000F900F900895E62FE695E695E695603F5D
:1033700078F4E80FF92FF11D677081E090E001C04B
:10338000880F6A95EAF78095928189238283089550
:103390008091390280FF0CC01F926F938EEC92E0F7
:1033A0009F938F930E94FB050F900F900F900F90AB
:1033B000089520910C01222329F020917A0227FD03
:1033C0000C948E190C94651920910C01222329F07C
:1033D00020917A0227FD0C94B3190C947F19FC01FB
:1033E000329680910C01882351F080917A0287FFF8
:1033F00006C08EE1DF011D928A95E9F7089586E007
:10340000F9CF089508950C94021A0E94031A80912E
:103410008002843049F110923A0288E190E020E481
:103420000FB6F894A895809360000FBE20936000BB
:1034300080E00E946B060E94031A83B7817F84603C
:1034400083BF83B7816083BF7894889583B78E7F6D
:1034500083BF0FB6F894A89580916000886180932F
:103460006000109260000FBE08950895CF930E94EF
:10347000011A0E9499090E94351AC0E08C2F0E94FF
:10348000DD08892B31F4CF5FC530C1F780E0CF91E3
:10349000089581E0FCCF08950C944B1A0E945C11B2
:1034A0000E94250C0E946B060C944C1A1F921FB6AA
:1034B0001F9211248F939F93AF93BF9380913A02F1
:1034C000811113C08091760290917702A0917802C9
:1034D000B09179024196A11DB11D8093760290931F
:1034E0007702A0937802B0937902BF91AF919F9138
:1034F0008F911F901FBE1F90189582E084BD93E0AE
:1035000095BD9AEF97BD80936E0008952FB7F894FC
:103510008091760290917702A0917802B091790221
:103520002FBF0895CF93DF9300D000D0CDB7DEB783
:103530008FB7F8942091760230917702409178020B
:103540005091790229833A834B835C838FBF6981D1
:103550007A818B819C810F900F900F900F90DF915B
:10356000CF9108959C014FB7F89480917602909185
:103570007702A0917802B09179024FBF821B930B22
:10358000089578941F921FB61F9211248F939F93D2
:10359000AF93BF938091760290917702A0917802C9
:1035A000B09179020196A11DB11D8093760290938E
:1035B0007702A0937802B0937902BF91AF919F9167
:1035C0008F911F901FBE1F90189581E08093E0009F
:1035D00080E28093D8001092C9008FE19EE40197A9
:1035E000F1F700C0000087E090EBDC0180938902D6
:1035F00090938A02A0938B02B0938C0288E19CE0A6
:103600000FB6F894A895809360000FBE9093600069
:10361000FFCFCF93DF9300D000D0CDB7DEB70E94AD
:103620007B18811102C00E9418190E94861880938D
:1036300039020E948E1890937B0280937A020E9436
:103640008A18282F30E050E040E029833A834B83EA
:103650005C83CA01B9010F900F900F900F90DF911A
:10366000CF910C94EB14CF93DF9300D000D0CDB763
:10367000DEB789831F928F9380E193E09F938F93AE
:103680000E94FB0581E090E0A0E0B0E09C01AD016C
:10369000098004C0220F331F441F551F0A94D2F71C
:1036A00029833A834B835C83CA01B9010E94EB14DE
:1036B0000F900F900F900F900F900F900F900F9012
:1036C000DF91CF910C945C11CF93DF93EBEFE80F78
:1036D000EF3308F04FC2F0E0E75FF94D0C9493250B
:1036E0008DE798E00E94620589EB97E00E946205F1
:1036F0000E948A181F928F9386EB97E09F938F9377
:103700000E94FB0584EB97E00E9462050E948618E8
:10371000C82F81EA97E00E9462051F92CF938CE93F
:1037200097E09F938F930E94FB058AE997E00E94A0
:10373000620580E997E00E9462058C2F81701F92DC
:103740008F938DE897E09F938F930E94FB058BE802
:1037500097E00E94620581E897E00E946205C1FB44
:10376000882780F91F928F938EE797E09F938F931E
:103770000E94FB058CE797E00E94620580E797E0D6
:103780000E946205C2FB882780F91F928F938DE605
:1037900097E09F938F930E94FB058BE697E00E9432
:1037A000620582E697E00E946205C3FBCC27C0F960
:1037B0001F92CF938FE597E09F938F930E94FB0515
:1037C0008DE597E00E9462050E948E18EC0189E465
:1037D00097E00E946205DF93CF9384E497E09F9384
:1037E0008F930E94FB0582E497E00E94620589E2C4
:1037F00097E00E9462058C2F81701F928F9386E262
:1038000097E09F938F930E94FB058DB79EB780969C
:103810000FB6F8949EBF0FBE8DBF84E297E00E9462
:1038200062058DE097E00E946205C1FB882780F960
:103830001F928F938AE097E09F938F930E94FB05DE
:1038400088E097E00E94620586EF96E00E9462059C
:103850008D2F81701F928F9383EF96E09F938F93AC
:103860000E94FB0581EF96E00E9462058FED96E0D5
:103870000E946205D695D1701F92DF938CED96E081
:103880009F938F930E94FB058AED96E00E9462054C
:1038900088EC96E00E946205C2FB882780F91F929F
:1038A0008F9385EC96E09F938F930E94FB0583ECAA
:1038B00096E00E94620581EB96E00E946205C3FBE0
:1038C000882780F91F928F938EEA96E09F938F93BB
:1038D0000E94FB058CEA96E00E94620582EA96E06F
:1038E0000E946205C4FB882780F91F928F938FE99D
:1038F00096E09F938F930E94FB058DE996E00E94CE
:1039000062058BE896E00E946205C5FB882780F976
:103910001F928F9388E896E09F938F930E94FB05F8
:1039200086E896E00E9462058AE696E00E946205BB
:10393000C6FB882780F91F928F9387E696E09F93B6
:103940008F930E94FB058DB79EB780960FB6F894B3
:103950009EBF0FBE8DBF85E696E00E9462058DE595
:1039600096E00E946205C7FBCC27C0F91F92CF9357
:103970008AE596E09F938F930E94FB0588E596E089
:103980000E9462050F900F900F900F9081E01CC075
:103990008CE698E00E9462050E941819F7CF86EA2B
:1039A00094E00E946205F2CF80913902807F80937B
:1039B00039028BE894E00E94620588E698E00E9454
:1039C000620581E080933B02DF91CF9108950E94D0
:1039D0005C118CE498E00E9462059FEF23ED80E388
:1039E000915020408040E1F700C000000E94E51A9D
:1039F000CDCF90913902892F8E7F90FF8160809387
:103A0000390280FF03C080E498E0CBCF83E398E0E5
:103A10000E94620580913902817F80933902B6CF7E
:103A200090913902892F8D7F91FF826080933902B6
:103A300081FF08C086E298E00E9462058091390209
:103A40008160EBCF88E198E0ACCF90913902892F6B
:103A50008B7F92FF84608093390282FF03C089E0EC
:103A600098E0EACF89EF97E09CCF90913902892FB7
:103A7000877F93FF88608093390283FF03C08DEEB8
:103A800097E0DACF80EE97E08CCF8CE794E00E944D
:103A9000620583E694E00E9462058DE294E00E9454
:103AA000620583EF93E00E94620581EC93E00E943F
:103AB000620586E993E075CF88E893E00E9462058D
:103AC0000E94250C1F928F938EE693E09F938F9315
:103AD0000E94FB0580910C011F928F9387E593E074
:103AE0009F938F930E94FB05809160021F928F939A
:103AF00084E493E09F938F930E94FB0580917A0268
:103B000087FB882780F91F928F938CE293E09F9325
:103B10008F930E94FB050E94921A9F938F937F932D
:103B20006F9385E193E09F938F930E94FB058DB780
:103B30009EB746960FB6F8949EBF0FBE8DBF26CF98
:103B40000E945C1190917A02892F97FB87F9805827
:103B500080937A0287FF03C086ED97E022CF8BEC3B
:103B600097E01FCF80E00E94331B10CF8953FBCF1B
:103B70008D51F9CF89EC97E00E94620580E024CF57
:103B800080E008950C94C01DCF93C82F80913B0214
:103B9000882331F0813099F010923B0280E00DC013
:103BA0000E94A3178232D1F78C2F0E94C01D811171
:103BB0001BC08C2F0E94641B8170CF9108950E94BE
:103BC000A317823289F38C2F0E94C21D811119C064
:103BD000C932C9F060F4CB3061F0C431A1F08AE0A1
:103BE00093E00E94620511C081E090E0E5CFC83308
:103BF000B1F78BE894E00E9462058CE093E00E94AC
:103C0000620581E0D9CF10923B0280E0D5CF809150
:103C10005F02089508959FB7F89410923E029FBFE7
:103C200090918002943009F048C02091E9002F70F3
:103C30003091EC00932F917030FD90E8922B23E0AF
:103C40002093E9002091EB0020FF34C02091EE008A
:103C500027FF30C020913C02222321F02091E80070
:103C600025FF28C010923C0226E03091E80035FF85
:103C700014C08093F1008091E80085FD27C08091F9
:103C8000E80080FFFCCF8091E8008E778093E80009
:103C90009F709093E90080E0089530918002343065
:103CA00049F43091EB0035FD05C0215041F481E02D
:103CB00080933C029F709093E9008FEF0895EFE9A5
:103CC000FFE03197F1F700C00000CFCF8FB7F89435
:103CD00021E020933E028FBFDBCFCF93DF9300D054
:103CE0000F92CDB7DEB790918002943019F5898399
:103CF0006A837B8382E08093E9008FEF9091E800F4
:103D0000815095FD06C095ED9A95F1F7000081115F
:103D1000F5CF8091E80085FF0DC050E040E063E002
:103D200070E0CE0101960E9400218091E8008E771C
:103D30008093E8000F900F900F90DF91CF9108953E
:103D4000CF93DF93D82FC92F0E94E320823011F048
:103D5000843039F46D2F7C2F84E0DF91CF910C9467
:103D60006D1EDF91CF910895BC0183E00C946D1E10
:103D7000CF93DF93D82FC92F0E94E320823011F018
:103D80008430C9F580910C018823C1F180917A02B9
:103D900087FF34C060E282E08093E9008FEF90916A
:103DA000E800815095FD06C095ED9A95F1F7000069
:103DB0008111F5CF8091E80085FF1DC080910C0135
:103DC00070E050E040E0811104C050E040E068E065
:103DD00070E08D2F9C2F0E9400218091E8008E774B
:103DE0008093E80080E2ED2FFC2FAFE3B2E001907A
:103DF0000D928A95E1F7DF91CF91089568E081E017
:103E0000CBCF8DEA98E00E94620580917F028111FC
:103E100009C00E9488220E94E5228091E20084600D
:103E20008093E200089589EA98E00E94620510926A
:103E30007F02089585EA98E00C94620581EA98E093
:103E40000C9462058DE998E00E9462050C944E1A6C
:103E500020913D022F5F822F62E30E9487259923E4
:103E600019F020933D02089510923D0280913E0288
:103E70008823F1F0809180028430C1F49091E900B0
:103E80009F702091EC00822F817020FD80E8892BAB
:103E900093E09093E9009091EB0090FF04C0909123
:103EA000EE0097FD08C08F708093E90010923E02EB
:103EB00008951092F1009091E80095FDFACF90914D
:103EC000E80090FFF0CF9091E8009E779093E80093
:103ED000EACF42E061EC81E00E94042242E261EC20
:103EE00082E00E94042242E261EC83E00C9404220E
:103EF00080918202893089F148F4823009F49DC0B2
:103F0000833009F458C0813041F008958A3009F4B3
:103F100084C08B3009F46AC0089580918102813A8F
:103F200009F048C08091E800877F8093E800809185
:103F3000850290918602892B61F460E28FE392E022
:103F400070E00E944F218091E8008B778093E80019
:103F5000089560E090E080E0F3CF809181028132AB
:103F600049F58091850290918602029718F580911B
:103F7000E800877F8093E8008091E80082FF16C008
:103F80009091F3008091F200029729F48091F10062
:103F90008B7F813021F48091F10080935F028091CA
:103FA000E8008B778093E8000C943822809180029F
:103FB0008111E2CF089580918102813AD9F78091F1
:103FC000850290918602892BA9F78091E800877F6E
:103FD0008093E8008091E80080FFFCCF80910C0185
:103FE0008093F1008091E8008E77DCCF8091810290
:103FF000813201F78091850290918602892BD1F65A
:104000008091E800877F8093E8000E9438228091A9
:10401000830280930C010C945C11809181028132A7
:1040200049F68091E800877F8093E8000E9438225B
:104030008091840280936002089580918102813A88
:1040400009F0B8CF8091E800877F8093E8008091E5
:10405000E80080FFFCCF80916002C2CF84B7877FE9
:1040600084BF0FB6F894A895809160008861809312
:104070006000109260000FBE80E890E00FB6F894E8
:1040800080936100909361000FBE0E94C60C0E9455
:1040900088220E94E5228091E20084608093E20001
:1040A0008BE09EE10E94551878940E946C250E9436
:1040B000CE0C82E091E00E94200C8CE898E00E94F7
:1040C000620580918002853019F00E94FE0CF9CFC4
:1040D00088E898E00E9462050E94051A80917E029D
:1040E000882379F30E94361A882359F30E94EA2024
:1040F000E8CF0C947B20FC01CB01DA012F2F332772
:1041000023303105D1F070F42130310509F44EC06F
:104110002230310569F48BE590E02DED38E02D93E8
:104120003C9308952132310521F12232310571F19C
:1041300090E080E030E020E0F2CFCF019927E2303C
:10414000A9F08330910550F4009769F0EFECF8E0A6
:10415000019771F7849190E09F01E1CFE1EBF8E0E6
:104160000397C1F3E5CFE9EDF8E0F4CFE7EBF8E032
:10417000F1CF63307105E0F6880F991FFC01EB5712
:10418000FE4F2081318189E090E0C9CF6330710515
:1041900078F6FB01EE0FFF1FE158FE4F20813181C1
:1041A00084589E4FFC01808190E0B9CF82E190E07D
:1041B00028E339E0B4CF80918002843011F482E0AA
:1041C000089581E0089580916102811102C00C94EC
:1041D000DB20089580E189BD82E189BD09B400FE3C
:1041E000FDCF8091D8008F7D8093D8008091E00032
:1041F00082608093E0008091E00081FDFCCF089513
:10420000AF92BF92CF92DF92FF920F931F93CF9303
:10421000DF936C01EB018A010E945722F82E811175
:1042200023C00115110539F0F80180819181C81B67
:10423000D90BC80ED91EB12CA12C2097A9F08091C2
:10424000E80085FD22C08091E8008E778093E80029
:1042500001151105A1F0F80180819181A80EB91E08
:10426000B182A08285E0F82E8F2DDF91CF911F9132
:104270000F91FF90DF90CF90BF90AF9008950E9474
:1042800057228823D1F2F82EEFCFF60181916F01EA
:104290008093F1002197FFEFAF1ABF0ACECFFC0148
:1042A000CB0120918702309188022617370790F0C2
:1042B000009729F42091E8002E772093E80040E051
:1042C000009751F4411108C08091E80082FF31C08D
:1042D00080E00895C901F3CF209180022223A9F143
:1042E0002530A9F12091E80023FD2DC02091E800A0
:1042F00022FDEACF2091E80020FFE2CF3091F300C9
:104300002091F200009719F02830310558F041E073
:104310002830310509F040E02091E8002E77209305
:10432000E800CECF41914093F10001972F5F3F4FBE
:10433000E9CF80918002882341F0853041F080915F
:10434000E80083FFC1CF81E0089582E0089583E013
:104350000895FC01CB012091870230918802261735
:10436000370790F0009729F42091E8002E772093EA
:10437000E80040E0009751F4411108C08091E80046
:1043800082FF32C080E00895C901F3CF20918002FE
:104390002223B1F12530B1F12091E80023FD2EC098
:1043A0002091E80022FDEACF2091E80020FFE2CF33
:1043B0003091F3002091F200009719F02830310578
:1043C00058F041E02830310509F040E02091E80044
:1043D0002E772093E800CECF44914093F1003196A0
:1043E00001972F5F3F4FE8CF80918002882341F0F3
:1043F000853041F08091E80083FFC0CF81E00895CF
:1044000082E0089583E00895982F973028F08F7008
:104410008093E90081E008959093E900242F762F9E
:1044200050E0981731F07091EC002091ED00509120
:10443000F00021FD02C09F5FE8CF3091EB003E7F8E
:104440003093EB003091ED003D7F3093ED003091E3
:10445000EB0031603093EB007093EC002093ED00A3
:104460005093F0002091EE0027FDE5CF80E0089505
:104470008091810287FF13C08091E80082FF06C00F
:104480008091E8008B778093E80004C080918002DF
:104490008111F2CF0895809180028823D9F3809111
:1044A000E80080FFF8CF8091E8008E77ECCF209174
:1044B000E4003091E50095E6A9012091EC00822FFF
:1044C000817020FF06C08091E80080FF06C080E078
:1044D00008952091E80022FD1AC08091800288236F
:1044E00089F0853089F08091EB0085FD0FC0209127
:1044F000E4003091E50042175307F9F29150E1F6DC
:1045000084E0089582E0089583E0089581E00895AD
:104510000E94F6220E94FE22E0EEF0E0808181609F
:104520008083E8EDF0E080818F77808319BCA7ED70
:10453000B0E08C918E7F8C9380818F7E80831092EF
:104540007F0208950F931F93CF93DF930E94F6226B
:104550000E94FE22C8EDD0E088818F778883888111
:104560008068888388818F7D888319BC109280023F
:1045700010927C0210927E0210927D0200EE10E0FA
:10458000F80180818B7F808388818160888342E00D
:1045900060E080E00E940422E1EEF0E080818E7F06
:1045A0008083E2EEF0E0808181608083808188609A
:1045B0008083F80180818E7F8083888180618883F9
:1045C000DF91CF911F910F910895E8EDF0E0808188
:1045D0008F7E8083E7EDF0E080818160808384E0DE
:1045E00082BF81E080937F020C94A222E8EDF0E08C
:1045F00080818E7F80831092E20008951092DA000D
:104600001092E10008951F920F920FB60F9211249D
:104610002F933F934F935F936F937F938F939F93CA
:10462000AF93BF93EF93FF938091E10082FF0BC0A4
:104630008091E20082FF07C08091E1008B7F809330
:10464000E1000E94281F8091DA0080FF19C080914C
:10465000D80080FF15C08091DA008E7F8093DA0049
:104660008091D90080FF94C080E189BD82E189BD3D
:1046700009B400FEFDCF81E0809380020E94011FFB
:104680008091E10080FF19C08091E20080FF15C099
:104690008091E2008E7F8093E2008091E200806151
:1046A0008093E2008091D80080628093D80019BC8A
:1046B00085E0809380020E941E1F8091E10084FFAC
:1046C00029C08091E20084FF25C080E189BD82E19C
:1046D00089BD09B400FEFDCF8091D8008F7D809305
:1046E000D8008091E1008F7E8093E1008091E2000C
:1046F0008F7E8093E2008091E20081608093E200EF
:1047000080917C02882309F449C084E08093800270
:104710000E94221F8091E10083FF29C08091E20066
:1047200083FF25C08091E100877F8093E10082E0D4
:104730008093800210927C028091E1008E7F8093B2
:10474000E1008091E2008E7F8093E2008091E200A0
:1047500080618093E20042E060E080E00E940422F9
:104760008091F00088608093F0000E941A1FFF91F2
:10477000EF91BF91AF919F918F917F916F915F91D9
:104780004F913F912F910F900FBE0F901F90189552
:1047900019BC109280020E94131F72CF8091E30017
:1047A00087FD02C081E0B2CF83E0B0CF1F920F92AD
:1047B0000FB60F9211242F933F934F935F936F93F4
:1047C0007F938F939F93AF93BF93CF93DF93EF9399
:1047D000FF93D091E900DF708091EC00C82FC17089
:1047E00080FDC0E81092E9008091F000877F8093FF
:1047F000F00078940E941A241092E9008091F00051
:1048000088608093F000CD2BCF70C093E900FF91BA
:10481000EF91DF91CF91BF91AF919F918F917F9158
:104820006F915F914F913F912F910F900FBE0F901D
:104830001F9018951F93CF93DF93CDB7DEB7AA973C
:104840000FB6F894DEBF0FBECDBF81E892E0FC0149
:1048500001962091F100208322E089389207B9F770
:104860000E94781F8091E80083FF1EC18091810221
:10487000909182029A3008F017C1E92FF0E0E85BCE
:10488000F94D0C949325803899F0823809F00CC1C9
:10489000809185028F70873008F006C18093E9000F
:1048A0008091EB0085FB882780F91092E90006C013
:1048B00080917D0290917E02911182609091E8003A
:1048C000977F9093E8008093F1001092F10080911F
:1048D000E8008E77E5C0882309F4D3C0823009F060
:1048E000E3C0809183028111D6C0809185028F70D0
:1048F0002FEF280F263008F0D7C08093E9002091D1
:10490000EB0020FFC8C0933031F48091EB0080624F
:104910008093EB00C0C09091EB0090619093EB000E
:1049200021E030E001C0220F8A95EAF72093EA00E7
:104930001092EA008091EB008860EACF8111B4C048
:10494000109183021F778091E3008078812B809300
:10495000E3008091E800877F8093E8000E9438227E
:104960008091E80080FFFCCF8091E3008068809315
:10497000E30082E0111183E08093800295C08058AB
:10498000823008F091C080918302909184028C3D26
:1049900023E09207A1F583E08A838AE289834FB7F7
:1049A000F894DE01139620E03EE051E2E32FF0E0C0
:1049B00050935700E49120FF03C0E295EF703F5FF2
:1049C000EF708E2F90E0EA30C0F0C7968D939D93E4
:1049D0002F5F243159F74FBF8091E800877F809384
:1049E000E8006AE270E0CE0101960E944F218091BA
:1049F000E8008B778093E80057C0C096E7CF6091BE
:104A0000850270918602AE014F5F5F4F0E94792050
:104A1000BC01892B09F448C08091E800877F80930E
:104A2000E80089819A810E94A921E1CF8038E1F5CF
:104A30008091E800877F8093E80080917C028093DA
:104A4000F10045CF811130C090918302923060F522
:104A50008091E800877F8093E80090937C020E9419
:104A6000382280917C02882311F084E005C0809177
:104A7000E30087FDFACF81E0809380020E94691FE6
:104A800013C080918302813079F481E0933009F082
:104A900080E080937E021092E9008091E800877F99
:104AA0008093E8000E9438228091E80083FF0AC0CA
:104AB0008091E800877F8093E8008091EB0080621E
:104AC0008093EB00AA960FB6F894DEBF0FBECDBF61
:104AD000DF91CF911F910895CF9380918002882319
:104AE000A1F0C091E900CF709091EC00892F817006
:104AF00090FD80E8C82B1092E9008091E80083FDCA
:104B00000E941A24CF70C093E900CF910895991B99
:104B100079E004C0991F961708F0961B881F7A95B4
:104B2000C9F780950895EE0FFF1F0590F491E02DD1
:104B30000994F999FECF92BD81BDF89A992780B565
:104B40000895A8E1B0E042E050E00C94CD25262F76
:104B5000F999FECF92BD81BDF89A019700B4021673
:104B600039F01FBA20BD0FB6F894FA9AF99A0FBE21
:104B700008950396272F0E94A8250E94A725252F78
:104B80000E94A825242F0C94A8250196272F0E9467
:104B9000A8250C94A725DC01CB01FC01F999FECFD7
:104BA00006C0F2BDE1BDF89A319600B40D924150B5
:104BB0005040B8F70895F894FFCF6B0B710B750B4D
:104BC000830B870B8B0B8F0B950B9D0BA10BA50BF1
:104BD000A90BB50BB90BBD0BC10BC70BE50BCF0B6D
:104BE000790B7F0BAD0BB10B990BCB0BDB0BEE0BEA
:104BF000F20B080F080F6A0F6A0FBF0F380F380F3C
:104C0000380FDB0F851096109610F710380F380FFD
:104C10000011E71CD41CF91C701BBA1DBA1DCF1C57
:104C2000BA1DBA1D251DBA1D351DA01DBA1DBA1D00
:104C3000BA1DBA1D5C1DBA1DBA1D451DBA1D101D39
:104C4000BA1DBA1DB81DB81DB81DB81DB81DB81DB8
:104C5000B81DB81DB81DB21DBA1DE71CC81CBA1D71
:104C6000BA1DBA1DBA1DBA1DBA1DBA1DBA1DBA1D8C
:104C7000BA1DB21DBA1DBA1DCF1CBA1DB61DB61D78
:104C8000B61DB61DB61DB61DB61DB61DB61DB21D90
:104C900043246B2454256B2454259E24BF2454257F
:044CA000162522258E
:104CA4001602071EB81E0A1EB41EA01E01E200E969
:104CB40000EA00B500B600B700CD008301CC008A3D
:104CC40001920194012102230224022502260227D3
:104CD400022A02B300B4006F007000F7C66766973B
:104CE400969594939237363530F0F1F4F5F6E20068
:104CF400E900EA00B500B600B700CD008301CC009E
:104D04008A0192019401210223022402250226022F
:104D140027022A02B300B4006F007000406D22D94C
:0C4D2400096C094A09EF08080921090080
:00000001FF
