:100000000C9471050C94B8050C94B8050C94B805C3
:100010000C94B8050C94B8050C94B8050C94B8056C
:100020000C94B8050C94B8050C9462230C943424F9
:100030000C94BF1A0C94B8050C94B8050C94B80530
:100040000C94B8050C94B8050C94B8050C94B8053C
:100050000C94B8050C94181B0C94B8050C94B805B6
:100060000C94B8050C94B8050C94B8050C94B8051C
:100070000C94B8050C94B8050C94B8050C94B8050C
:100080000C94B8050C94B8050C94B8050C94B805FC
:100090000C94B8050C94B8050C94B8050C94B805EC
:1000A0000C94B8050C94B8050C94B805071007100B
:1000B000391039108610BA11BA11BA11A4103911B9
:1000C0004A114A11AA11BA11BA11B3114B124B12AB
:1000D0005D125D1254125D125D125D124B124B12D5
:1000E00059125D125D1259121C1D0A1D2E1DA81BEE
:1000F000071E071E071D071E071E5B1D071E6F1D1F
:10010000E71D071E071E071E071EA31D071E071E4D
:100110008C1D071E471D071E071E011E011E011E06
:10012000011E011E011E011E011E011E031E071ECF
:100130001C1DFF1C071E071E071E071E071E071E8D
:10014000071E071E071E071E031E071E071E071D8C
:10015000071EFF1DFF1DFF1DFF1DFF1DFF1DFF1DB6
:10016000FF1DFF1D031EA124C824C025C824C025CF
:1001700014253725C0258E259D2529001E001F002A
:100180002000210022002300240025002600270053
:100190002D002E0035002B0014001A000800150059
:1001A00017001C0018000C00120013002F00300074
:1001B0002A00390004001600070009000A000B009D
:1001C0000D000E000F003300340032002800E10063
:1001D00064001D001B00060019000500110010003E
:1001E000360037003800E50001200000E000000084
:1001F000E300000000002C0000000000E7000251B6
:10020000E400E2004C0001000100010001000100D7
:1002100001000100010001000100010001000100D6
:100220000100010001005200010001000100010075
:100230000100010001000100010001004C0001006B
:10024000500051004F00010001000100500051001A
:1002500052004F0001000100AE000100010001004A
:100260000100010001000100010001000100010086
:100270000100010001000000010000000100010078
:100280000000010001000000010001000100010068
:100290000100005C3A003B003C003D003E003F0096
:1002A00040004100420043004400450001000100BD
:1002B0000100010001000100010001000100010036
:1002C00001000100DE5C015C010001000100010091
:1002D0000100010001000100010001000100010016
:1002E0000100010001000100010001000100010006
:1002F00001000100010001000100010001000100F6
:1003000001000000010000000100010000000100E8
:10031000010000000100010001000100010044454E
:100320004255473A2064697361626C65642E0A0025
:1003300044454255473A20656E61626C65642E0AF9
:10034000000A002530313662003A2000253032584C
:10035000000A722F63203031323334353637383962
:100360004142434445460A000A00253032582000E5
:100370006B6579626F6172645F7265706F72743AF7
:1003800020000A0025303258006B6579626F617277
:10039000645F7365745F6C65643A200064656C5FCC
:1003A0006B65795F6269743A2063616E27742064BB
:1003B000656C3A20253032580A006164645F6B65D1
:1003C000795F6269743A2063616E277420616464A6
:1003D0003A20253032580A003F00433E20004C2589
:1003E000640A0074696D65725F72656164333228F6
:1003F000293A202530346C580A006B65796D61709C
:100400005F636F6E6669672E6E6B726F3A20255858
:100410000A006B6579626F6172645F69646C653A4A
:100420002025580A006B6579626F6172645F707293
:100430006F746F636F6C3A2025580A00686F73748D
:100440005F6B6579626F6172645F6C6564732829A4
:100450003A2025580A000A092D20537461747573D7
:10046000202D0A004743433A20352E342E302041B8
:1004700056522D4C4942433A20322E302E302041E4
:1004800056525F415243483A20617672350A004F16
:100490005054494F4E533A204C55464120455854EC
:1004A00052414B455920434F4E534F4C4520434FEB
:1004B0004D4D414E44204E4B524F20343039360A78
:1004C000004255494C443A2022302E382E313332E6
:1004D0002D33322D676338396461322D646972744B
:1004E0007922202832323A30363A31352041756748
:1004F0002031342032303230290A005649443A2023
:100500003078303345422855414329205049443AF8
:1005100020307832464634285A6564656B69656CCC
:1005200029205645523A203078303030330A004482
:100530004553433A205A6564656B69656C204B6589
:1005400079626F6172640A000A092D205665727320
:10055000696F6E202D0A000A092D20436F6E736F9C
:100560006C65202D0A4553432F713A0971756974E2
:100570000A000A092D204D61676963202D0A443A5B
:10058000094465627567204D657373616765205422
:100590006F67676C650A583A094D61747269782013
:1005A0004465627567204D6F646520546F67676CA2
:1005B00065202D2053686F77206B657970726573A5
:1005C00073657320696E206D61747269782067723B
:1005D00069640A4B3A094B6579626F617264204421
:1005E0006562756720546F67676C65202D205368BE
:1005F0006F77206B65797072657373207265706FA9
:1006000072740A4D3A094465627567204D6F7573BF
:100610006520546F67676C650A563A0956657273B0
:10062000696F6E0A533A095374617475730A433AD9
:1006300009416374697661746520436F6E736F6CF2
:1006400065204D6F64650A46312D4631303A0953B5
:10065000776974636820746F204C6179657220300B
:100660002D392028463130203D204C30290A302DAC
:10067000393A0953776974636820746F204C617943
:10068000657220302D390A47524156453A09537751
:100690006974636820746F204C6179657220302022
:1006A00028616C7465726E617465290A423A094A60
:1006B000756D7020746F20426F6F746C6F6164652C
:1006C000720A4553433A094A756D7020746F20428F
:1006D0006F6F746C6F616465722028616C746572F1
:1006E0006E617465290A453A095072696E74204535
:1006F0004550524F4D2053657474696E67730A42BA
:1007000053504143453A09436C6561722045455059
:10071000524F4D0A4E3A094E4B524F20546F676765
:100720006C650A000A002575002E6E6B726F3A2008
:10073000000A002575002E737761705F6261636B3C
:10074000736C6173685F6261636B73706163653A58
:1007500020000A002575002E737761705F67726153
:1007600076655F6573633A20000A002575002E6E7A
:100770006F5F6775693A20000A002575002E737750
:1007800061705F72616C745F726775693A20000A0C
:10079000002575002E737761705F6C616C745F6CFF
:1007A0006775693A20000A002575002E737761701D
:1007B0005F7263746C5F726775693A20000A002586
:1007C00075002E737761705F6C63746C5F6C677516
:1007D000693A20000A002575002E636170736C6F02
:1007E000636B5F746F5F636F6E74726F6C3A20003F
:1007F0000A002575002E737761705F636F6E7472E7
:100800006F6C5F636170736C6F636B3A20000A00FA
:1008100025303258006B65796D61705F636F6E666D
:1008200069672E7261773A20000A002575002E6DE7
:100830006F7573653A20000A002575002E6B657987
:10084000626F6172643A20000A002575002E6D61A6
:10085000747269783A20000A002575002E656E6171
:10086000626C653A20000A002530325800646562E7
:1008700075675F636F6E6669672E7261773A2000F5
:100880000A0025750064656661756C745F6C61793A
:1008900065723A20003F004E4B524F3A206F666619
:1008A0000A004E4B524F3A206F6E0A000A6D6F7568
:1008B00073653A206F66660A000A6D6F7573653A54
:1008C000206F6E0A000A6B6579626F6172643A206C
:1008D0006F66660A000A6B6579626F6172643A201E
:1008E0006F6E0A000A6D61747269783A206F6666ED
:1008F0000A000A6D61747269783A206F6E0A000A04
:1009000064656275673A206F66660A000A6465620C
:1009100075673A206F6E0A000A0A4A756D70696E33
:100920006720746F20626F6F746C6F616465722EE4
:100930002E2E2000433E2000436C656172696E6775
:1009400020454550524F4D0A006565636F6E6669DC
:10095000673A0A005B735D004B6579626F61726490
:100960002073746172742E0A005B575D005B535DE7
:10097000005B525D005B445D005B435D000403303F
:1009800000000012035A006500640065006B0069F6
:100990000065006C000000080355004100430000A2
:1009A000000403090409025B00030100A0FA090422
:1009B0000000010301010009211101000122400092
:1009C0000705810308000A09040100010300000073
:1009D000092111010001226D000705820320000A90
:1009E0000904020002030000000921110100012294
:1009F00022000705830320000107050303200001EF
:100A00001201100100000008EB03F42F03000102A3
:100A100003010631FF0974A1010975150026FF00C5
:100A20009520750881020976150026FF009520752E
:100A3000089102C005010980A101850319012AB7A7
:100A400000150126B700950175108100C0050C093D
:100A500001A101850419012AA002150126A0029511
:100A60000175108100C005010906A1018505050772
:100A700019E029E715002501950875018102050790
:100A8000190029EF1500250195F07501810205086F
:100A900019012905950575019102950175039101CB
:100AA000C005010906A101050719E029E715002580
:100AB00001950875018102950175088101050719E5
:100AC0000029FF150026FF0095067508810005081E
:100AD000190129059505750191029501750391018B
:100AE000C00011241FBECFEFDAE0DEBFCDBF04B6D9
:100AF00003FE27C080918F0290919002A0919102F5
:100B0000B09192028730904BA740B04BD1F4109235
:100B10008F0210929002109291021092920214BED3
:100B200084B7877F84BF0FB6F894A8958091600042
:100B3000886180936000109260000FBEE0E0F8E3EF
:100B4000099511E0A0E0B1E0E2E9FCE402C0059003
:100B50000D92A239B107D9F722E0A2E9B1E001C0B4
:100B60001D92AF38B207E1F70E9488200C94472607
:100B70000C940000FF93EF93E0919201F0919301A8
:100B8000309709F00995EF91FF910895FC01859147
:100B9000803011F0EFDFFBCF0895FF27E0E230E275
:100BA00047FF0CC0419597FF09C0EDE26095709535
:100BB00080959095611D711D811D911D27FF02C0BB
:100BC000219530E350E2AA27660F771F881F991FEF
:100BD000AA1FA41710F0A41B63955A95A9F7AA3071
:100BE00008F0A95FA05DAF93F395611571058105CC
:100BF000910541F7ED3211F4EF93F395F21718F4E4
:100C00003F93F395FBCF8F91B5DFFA95E1F7089508
:100C1000E991F9918591803021F0853219F0AADFB0
:100C2000F9CF089520E0E89455915532C1F350333F
:100C300011F4689455915A3348F4505390F3220FAD
:100C4000022E220F220F200D250FF4CF0EF4219536
:100C500089919991533619F3533729F1533559F145
:100C6000BC0188279927E8945C3621F489919991F1
:100C700068945591543639F446EF7EF077FF0DC0F5
:100C80008FEF9FEF0AC055374AE039F0583540E101
:100C900021F0523642E009F00895FF93EF937DDF93
:100CA000EF91FF91B7CFFF93EF93FC0181918030DB
:100CB000B9F360DFFBCFFF93EF9368DFF1CFDF93F2
:100CC000CF93CDB7DEB72596A3DFCF91DF910895FF
:100CD0000C94B5090C94B309892B51F4FB01828162
:100CE000882331F081E00E948F1686EE0E94AE0EBE
:100CF00081E00895892B51F4FB018281811106C0A6
:100D000086EE0E94550F81E00C94B016089581E0A4
:100D100008950C946C060C947A061F93CF93DF937E
:100D200000D000D01F92CDB7DEB749835A836B83C2
:100D30003091AC0189819A81311114C0662359F038
:100D4000222349F00E948417182F682F89819A81E5
:100D50000E942D1703C00E945817182F69817A81AD
:100D6000812F04C00E94841769817A810F900F90AF
:100D70000F900F900F90DF91CF911F910C945A0715
:100D8000FC01262F408151816281738184810C9402
:100D90008D06CF93DF93EC0160E00E94C006BE0198
:100DA000DF91CF910C948B060E94E018811102C054
:100DB0000E9480190C9468060C946A0608950C949D
:100DC000DE0681E008950C94E106CF93C82F0E94BF
:100DD000DF068C2F0E94E306CF91089508950E94AC
:100DE00039120E94EE062FEF84E39CE021508040F0
:100DF0009040E1F700C000000C943E1B0F931F933E
:100E0000CF93DF93EC0161E00E94C0068C01BE012C
:100E10000E948906882309F442C0BE01C8010E94CD
:100E2000550B8823E1F1BE01C8010E94960B88236F
:100E3000B1F1BE01C8010E94C10C882381F18A81F1
:100E4000882331F101308CE5180751F00E3D8CE517
:100E50001807D9F001151C45D9F40E94EF061FC0F0
:100E600080913F02C82FC095C170C0FB80F980936C
:100E70003F02CC2329F080E393E00E94C6050FC017
:100E80008EE193E00E94C6050BC00E94801907C046
:100E9000CE01DF91CF911F910F910C948706C0E096
:100EA0008C2FDF91CF911F910F91089580E090E0FA
:100EB0000895089526E4829FC0011124FC012EE0CC
:100EC000729FE00DF11D1124E60FF11DEE0FFF1FC3
:100ED000E658FE4F859194910895880F991FFC0163
:100EE000EF5BFC4F859194910895CF93DF930E941F
:100EF0005A070E948708EC018115904508F043C00D
:100F0000C11580E4D80708F0CBC0C03ED10528F554
:100F1000C03CD10508F0B3C0C83AD10578F4C53A51
:100F2000D10508F0A4C0C130D10509F4ECC008F423
:100F3000E8C0C430D10508F0E6C0E3C0CF3BD1051E
:100F400008F0DFC0C85AD0E0CC0FDD1FC35FDE4F12
:100F50000990D881C02DD464D6C0C11590E2D907BC
:100F600050F4C11521E0D20708F0CDC0C83ED1052C
:100F700008F4C9C0C6C0C11580E3D80708F086C010
:100F8000CE019F707FC0C11595E5D90708F043C019
:100F9000C11524E5D20708F09AC0C11582E5D8072B
:100FA00008F5C11591E5D90708F07DC0CE0174E0C0
:100FB000969587957A95E1F783709C2F937021E041
:100FC00030E002C0220F331F9A95E2F73C68382BBD
:100FD000CF70C695C69580E2C89FE0011124C22B50
:100FE000D32B91C09E01237033278C2F8695869535
:100FF000C115D34508F05CC0C1E0D0E002C0CC0F01
:10100000DD1F2A95E2F720E2829FC0011124C82B40
:10101000D92BDC6878C0C11529E5D207A0F4C11529
:1010200088E5D80708F058C0C11596E5D90708F03B
:1010300068C08C2F0E941B098F71C82FD0E0DC2F55
:10104000CC27D06260C0C1152AE5D20708F449C098
:10105000CE0190568115904208F053C08D2F8F71AC
:101060000E941B09DD27D0628F71D82B4CC0C55A56
:10107000D0E0C55CDE4FC881D0E0D06444C0CE0172
:10108000805C91090E946D07EC013DC0CE0199275B
:10109000D3FF03C0EC01D86C36C0EC01D06C33C078
:1010A000DF70D06A30C0DC2FCC27C16FD06A2BC074
:1010B000C1E0D0E002C0CC0FDD1F2A95E2F720E2AC
:1010C000829FC0011124C82BD92BDA681CC0DC2FE9
:1010D000CC27C46FD06A17C0DC2FCC27C06FD06A72
:1010E00012C08C2F8F700E941B0994E0D695C79573
:1010F0009A95E1F7CF70D0E0DC2FCC27D069C82BD0
:1011000002C0C0E0D0E0CE01DF91CF9108958238D7
:10111000910569F1B0F48133910509F46DC048F48B
:101120008932910509F463C08A32910509F469C0D6
:1011300008958533910509F455C089339105B9F0B7
:101140000895833E910569F138F4803E9105B1F030
:10115000823E910509F10895863E9105A9F1873EE9
:101160009105B9F1843E910509F064C023C0209136
:10117000800220FD4FC021FD4DC008958091800266
:1011800080FD44C08091810280FF44C08091800234
:1011900084FD42C083EE4DC08091800282FF38C042
:1011A000F5CF8091800282FD33C08091810280FD65
:1011B00031C0ECCF8091810281FF32C080918002EA
:1011C00084FD2AC087EE35C08091800283FF26C04F
:1011D000F5CF8091800283FD21C08091810281FD45
:1011E0001FC0ECCF8091800285FD1CC01DC0809186
:1011F000800285FD19C016C08091800286FD16C050
:1012000017C08091800286FD13C010C089E311C011
:1012100082EE0FC080EE0DC080E00BC086EE09C0EC
:1012200084EE07C089E205C085E303C08AE201C0FD
:1012300081E390E008959091800292FF0DC0282FE5
:101240002871283019F4877F846006C0282F247104
:10125000243011F48B7F886093FF0DC0282F2871F4
:10126000283119F4877E846106C0282F2471243127
:1012700011F48B7E88612091810220FF0DC0382FF0
:101280003871383019F4877F816006C0382F31718A
:10129000313011F48E7F886021FF0DC0282F287116
:1012A000283119F4877E816106C0282F21712131F0
:1012B00011F48E7E886194FD877E0895E82FF0E01A
:1012C000EE0FFF1FEE58FD4F808191810895CF9260
:1012D000DF92EF92FF920F931F93CF93DF9381E5FD
:1012E00093E00E94C60582E7E82E82E0F82EC0E077
:1012F000D0E09CE4C92E93E0D92E03E413E0DF9301
:10130000CF93DF92CF920E945F0689E493E00E9420
:10131000C605F701819191917F010E94CD189F939D
:101320008F931F930F930E945F0681E493E00E94C6
:10133000C60521968DB79EB708960FB6F8949EBF46
:101340000FBE8DBFC530D105D1F6DF91CF911F9172
:101350000F91FF90EF90DF90CF90089580EA8A95EB
:10136000F1F7089508950C94B2090C94B209CF9343
:10137000DF93ACE4B1E041E551E061E070E08D91D4
:10138000E82FE295EF70F0E021A18F70EB0102C031
:10139000CC0FDD1F8A95E2F7CE019C2F909592230A
:1013A00091A392A1892B82A34A175B0741F7AEE371
:1013B000B1E04CE451E061E070E08D91E82FE295FE
:1013C000EF70F0E021A18F70EB0102C0CC0FDD1FA8
:1013D0008A95E2F7CE019C2F9095922391A392A13A
:1013E000892B82A34A175B0741F7E8E6F2E0A2E700
:1013F000B2E082E792E0119211921D921D928E1737
:101400009F07C9F785E00E94A60ADF91CF910C944F
:10141000D4062F923F924F925F926F927F928F925B
:101420009F92AF92BF92CF92DF92EF92FF920F9373
:101430001F93CF93DF938CE4C82E81E0D82E08E66B
:1014400012E092E7492E92E0592E312C88248394A1
:10145000912C5801D8016D907C9011971D921C928F
:10146000F60181916F01C82FC295CF70D0E099A18C
:101470008F70740101C0EE0C8A95EAF7892F8E29CE
:1014800089A38AA12E2C209482218AA30E94AE09CE
:10149000EEE3F1E020E030E06191A62FA295AF707D
:1014A000B0E090968C91D8014D915C9190E06F7076
:1014B00002C0959587956A95E2F780FD08C0C40142
:1014C000022E02C0880F991F0A94E2F702C080E042
:1014D00090E0482B592BD8014D935C932F5F3F4FE1
:1014E0002E303105C9F689A1282229A28AA1E82A2D
:1014F000EAA20E5F1F4F81E0F501208131812615A0
:10150000370509F480E0382A4016510609F0A1CFCA
:10151000232D45E062E772E088E692E00E94A70A88
:101520000E94DC06832DDF91CF911F910F91FF90D8
:10153000EF90DF90CF90BF90AF909F908F907F9073
:101540006F905F904F903F902F9008950895FF9275
:101550000F931F93CF93DF93F82E092F162FD72FBA
:10156000C42F222349F081E0809396010E94F11A52
:101570009093950180939401809196018823D9F0EE
:1015800080919401909195010E94091B069798F013
:10159000EF2DF02FA12FBD2F80E090E04C2F50E0D9
:1015A0008417950734F4219131912D933D93019641
:1015B000F7CF10929601DF91CF911F910F91FF907D
:1015C00008950F931F93CF93DF93C62FD42F122F1D
:1015D000FC0182818823C9F0609399010E94F11A6D
:1015E000909398018093970180E28C0F883008F0E7
:1015F00057C0C77081E001C0880FCA95EAF7DF9134
:10160000CF911F910F910C94C70F8091990168138E
:1016100030C080919701909198010E94091B883CED
:10162000910538F500E20D0FCD17B9F080E28C0F6F
:10163000883040F4C77081E001C0880FCA95EAF78E
:101640000E94CE0F083028F581E09D2F977001C0D1
:10165000880F9A95EAF70E94C70F812F0E94B40F56
:101660000830F0F4D77081E001C0880FDA95EAF70E
:101670000AC080E28C0F883098F4C77081E001C006
:10168000880FCA95EAF7DF91CF911F910F910C94C3
:10169000CE0F812FDF91CF911F910F910C94B40F3A
:1016A000DF91CF911F910F9108959C01CB01233FB2
:1016B0004CE53407F9F078F4283DFCE53F07B9F034
:1016C000293D4CE5340711F1273D3C4531F526E233
:1016D00041EE61EE1EC0253FFCE53F0799F070F03A
:1016E000263F3C45D1F427E245EE66EE12C027E2E4
:1016F00045EE0EC026E241EE60EE0BC027E245EE5D
:1017000064EE07C026E241EE62EE03C028E241E04B
:1017100065EE0E94E10A80E00895FC018281882341
:1017200019F010929901089581E00895CF93DF9305
:10173000EC01FB018281882309F41FC1C230FCE562
:10174000DF0708F41BC1C6319CE5D90738F09E01BC
:101750002A5F3C452930310508F010C10E94F3187A
:101760009093810280938002C031ECE5DE0709F49A
:10177000C3C008F041C0C8308CE5D80709F49AC04E
:10178000F0F4C430ECE5DE0709F487C068F4C23039
:101790008CE5D80709F477C0C330DC4509F0E3C015
:1017A00080918002826076C0C630ECE5DE0709F4E5
:1017B0006EC008F07BC08091800288606BC0CC3026
:1017C0008CE5D80709F485C068F4CA30ECE5DE077B
:1017D00009F474C008F079C00E9439128091800227
:1017E000806858C0CE308CE5D80709F476C008F080
:1017F0007FC0809180028BC0CB3FECE5DE0709F40F
:101800004FC018F5C3318CE5D80709F47DC078F4D2
:10181000C131ECE5DE0709F473C0C231DC4509F0E3
:10182000A2C00E943912809180028F7733C0C531E7
:101830008CE5D80709F472C008F486C0CA3FDC45BD
:1018400009F091C0809181023EC0CF3FFCE5DF07E7
:1018500009F45FC058F4CD3F9CE5D90709F444C0B2
:1018600008F43FC08091810282602DC0C130FDE547
:10187000DF0709F475C008F45DC0C230DD4509F02A
:1018800072C080E06EC080918002816003C0809150
:10189000800280618093800266C08091800211C0C6
:1018A000809181028260809381025DC0809180027C
:1018B0008062F0CF809180028064ECCF80918002C2
:1018C00088608460E7CF8160EECF809180028E7F58
:1018D000E1CF809180028D7FDDCF80918002877F74
:1018E000D9CF8091810218C0809181028D7FDBCF9A
:1018F000809180028F7ECECF809180028F7DCACF73
:10190000809180028F7BC6CF80918002877F8B7F02
:10191000C1CF809181028D7F8E7FC5CF8091800263
:1019200082FB222720F991E0922790FB82F990FB1D
:1019300083F9B0CF80918102982F909591708E7F1E
:10194000892B90FB81F9AFCF0E94391280918002E0
:1019500087FB222720F991E0922790FB87F99ACF05
:1019600081E00E94821980918002909181020E9400
:1019700004190E94391280E001C081E0DF91CF910B
:101980000895CF93DF9386319C4541F5EB010E948A
:101990000518982F8A812091000130910101882338
:1019A00079F09A7A81E009F480E080939A019111AC
:1019B00002C069E201C065E3C9010E943F1A0AC082
:1019C00080919A01811102C069E201C065E3C901F9
:1019D0000E944A1A0E94531880E001C081E0DF9102
:1019E000CF9108959093A00180939F010895E09175
:1019F0009F01F091A001309721F00190F081E02D3E
:101A0000099480E00895EF92FF921F93CF93DF93A4
:101A1000FC01A0919F01B091A001109709F442C070
:101A200080910C01882341F08091800287FF04C0DF
:101A30008081818385E08083EF011296ED91FC9196
:101A40001397CE01099580913F0282FF2BC080FF42
:101A500004C080E793E00E94C60518E08AE6E82EFD
:101A600083E0F82E80913F0280FF0BC088811F9297
:101A70008F93FF92EF920E945F060F900F900F904E
:101A80000F90115021961111EDCF80913F0280FFF0
:101A900009C088E693E0DF91CF911F91FF90EF900E
:101AA0000C94C605DF91CF911F91FF90EF900895A0
:101AB00020919D0130919E012817390771F0909374
:101AC0009E0180939D01E0919F01F091A0013097CC
:101AD00021F00680F781E02D0994089520919B0163
:101AE00030919C012817390771F090939C018093E5
:101AF0009B01E0919F01F091A001309721F00084BB
:101B0000F185E02D0994089585B7806885BF85B774
:101B1000806885BF089508950C948B0D0C948C0DEE
:101B20000C948B0D0C948B0D0E94840D0E94900DD3
:101B30000C948E0D81E008950E94E81A0E94B70966
:101B40000E94621B0C94920DCF93C82F80913F028C
:101B500082FF1EC080FF04C089E893E00E94C60592
:101B600080913F0280FF0CC01F92CF9384E893E0E6
:101B70009F938F930E945F060F900F900F900F908E
:101B800080913F0280FF04C082E893E00E94C60576
:101B90008C2FCF910C94E5067F928F929F92AF92FB
:101BA000BF92CF92DF92EF92FF920F931F93CF934A
:101BB000DF93CDB7DEB72A970FB6F894DEBF0FBE1E
:101BC000CDBF0E94090A0E949A0D811111C08FEFAA
:101BD00089838A831B820E94F11A8160782F9D83FA
:101BE0008C8349815A816B818D810E947A0E4FC00E
:101BF00042EAA42E41E0B42E00E010E0702E802FC7
:101C00000E945E096C01F501819091905F01882628
:101C100099268114910431F40F5F1F4F053011058F
:101C200069F7D5CF80913F0281FD0E94670980E06E
:101C3000EE24E394F12C94012E213F21232B09F172
:101C40008E837F82CE20DF2081E0CD2809F480E0E2
:101C500088870E94F11A8160782F9A8789874E8140
:101C60005F8168858A850E947A0E000F111FF80136
:101C7000EE55FE4F80819181E826F926F182E082BF
:101C800006C08F5FEE0CFF1C8E30A9F6C5CF0E94F8
:101C9000F70C9091A1018917C9F00E94F70C80936D
:101CA000A1012A960FB6F894DEBF0FBECDBFDF911B
:101CB000CF911F910F91FF90EF90DF90CF90BF9049
:101CC000AF909F908F907F900C94A40D2A960FB6A2
:101CD000F894DEBF0FBECDBFDF91CF911F910F9162
:101CE000FF90EF90DF90CF90BF90AF909F908F903C
:101CF0007F900895CF93DF93CDB7DEB72B970FB6C4
:101D0000F894DEBF0FBECDBF4F83588769877A87AF
:101D10008B87DE01119686E0FD0111928A95E9F725
:101D200085E0FE01379601900D928A95E1F7498191
:101D30005A816B817C818D819E810E94F2142B9649
:101D40000FB6F894DEBF0FBECDBFDF91CF910895DF
:101D5000FC01808191810E94C6170895CF9388234A
:101D600009F4A1C0C82F8238C1F40E94F70C81FD8C
:101D70009AC069E380910001909101010E943F1A8D
:101D80000E9453182FEF81EE94E021508040904044
:101D9000E1F700C0000069E319C0833801F50E9433
:101DA000F70C80FD80C063E58091000190910101F6
:101DB0000E943F1A0E9453182FEF81EE94E02150A9
:101DC00080409040E1F700C0000063E58091000191
:101DD000909101010E944A1ACF910C9453188438B3
:101DE000C1F40E94F70C82FD5EC067E4809100019F
:101DF000909101010E943F1A0E9453182FEF81EE2B
:101E000094E0215080409040E1F700C0000067E47A
:101E1000DDCF8CEF8C0F813AF8F48C2F0E94141ECA
:101E2000811141C06C2F80910001909101010E94AD
:101E30009D19882349F06C2F809100019091010138
:101E40000E944A1A0E9453186C2F809100019091B1
:101E500001010E943F1AC0CF80E28C0F883048F405
:101E6000C77081E001C0880FCA95EAF70E94081880
:101E7000B3CFEBE5EC0FE33040F4F0E0E158FE4F78
:101E8000808190E0CF910C94580DC85AC73158F416
:101E9000EC2FF0E0EE0FFF1FEF5AFE4F8081918193
:101EA000CF910C946E0DCF910895882309F45BC0F7
:101EB000682F823879F40E94F70C81FF54C069E3DF
:101EC00080910001909101010E943F1A0E945318D5
:101ED00069E310C08338B1F40E94F70C80FF43C05F
:101EE00063E580910001909101010E943F1A0E94D8
:101EF000531863E580910001909101010E944A1AF4
:101F00000C945318843879F40E94F70C82FF2BC08C
:101F100067E480910001909101010E943F1A0E94A4
:101F2000531867E4E7CF8CEF860F813A18F380E20D
:101F3000860F883048F4677081E001C0880F6A9589
:101F4000EAF70E940E18DCCF8BE5860F833020F471
:101F500080E090E00C94580D685A673120F480E0DE
:101F600090E00C946E0D0895CF93C82F0E94AE0E92
:101F7000C93349F42FEF87EE93E021508040904021
:101F8000E1F700C000008C2FCF910C94550F8823EF
:101F900021F00E9408180C9453180895882321F00A
:101FA0000E940E180C9453180895CF92DF92EF926E
:101FB000FF920F931F93CF93DF937C01062FC72FC0
:101FC000FC01158112951F70D281D1110E94251834
:101FD0000E94FE17882379F0DD2369F080E2800FEC
:101FE000883048F082E00E949D180E94FE1791E020
:101FF000D82ED92601C0D12CCC2EC2948FE0C82275
:102000008C2D90E0FC01EA5AFF4F0C94FF258C2F99
:10201000807FCF70882311F0C295C07FDD2399F0B7
:10202000CC2309F482C180E2800F883010F00111C6
:1020300004C08C2F0E94081803C08C2F0E9418180F
:102040000E94531872C1802F0E94550FCC2309F4AF
:1020500091C180E2800F883010F0011104C08C2FF4
:102060000E940E1803C08C2F0E941E180E94531845
:1020700081C18C2F807FCF70803211F0C295C07FDC
:10208000002319F00130C9F022C0DD2371F01123C3
:1020900041F0113031F40E9438188C2B0E94401806
:1020A00069C10E9438188C2B1DC0112319F0113002
:1020B00009F460C10E94491825C0DD2321F01630C3
:1020C00008F058C10EC0153008F054C11BC0DD2304
:1020D00061F0112331F0F701858180FF26C18F70F7
:1020E00085838C2F0E94C70F45C1112359F00933F6
:1020F00009F02CC1FFEF27EE83E0F1502040804033
:10210000E1F722C18C2F0E94CE0F34C18C2F86950F
:102110008695837019F0813061F02CC1DD2321F0A8
:10212000802F9C2F937002C080E090E00E94580D99
:1021300029C1DD2321F0802F9C2F937002C080E005
:1021400090E00E946E0D1EC18C2F837009F045C077
:10215000D11114C1402F429546954770440F440F4A
:10216000602F6F70862F90E0A0E0B0E0042E04C0D6
:10217000880F991FAA1FBB1F0A94D2F704FF10C033
:102180000FE010E020E030E004C0000F111F221F1C
:10219000331F4A95D2F7009510952095309503C0CE
:1021A00000E010E09801C695C695C370BC01CD0152
:1021B000602B712B822B932BC23049F058F4C13025
:1021C00019F00E944316DAC00E943116D7C00E944F
:1021D0005516D4C00E942F16D1C0DD2319F08C2FC4
:1021E000817001C08695882309F4C8C0402F4295AC
:1021F00046954770440F440F602F6F70862F90E014
:10220000A0E0B0E0042E04C0880F991FAA1FBB1FD6
:102210000A94D2F704FF10C00FE010E020E030E095
:1022200004C0000F111F221F331F4A95D2F70095DB
:1022300010952095309503C000E010E09801C695F8
:10224000C695C370BC01CD01602B712B822B932BE3
:10225000C23049F058F4C13019F00E9408178EC0FE
:102260000E94F6168BC00E941A1788C00E94691639
:1022700085C0CF70DD2339F08C2F0E948F16802F00
:102280000E94C70F7BC0802F0E94CE0F8C2F0E9410
:10229000B01674C0023F01F128F4003F41F0013F45
:1022A000A1F03FC0033FF9F0043F39F13AC0DD230C
:1022B00041F0153008F05EC08C2F8F710E94D5164A
:1022C00059C0163008F056C0F7CFDD2339F08C2FF7
:1022D0008F710E948F164EC0DD23C9F38C2F8F7132
:1022E0000E94B01647C0DD2329F08C2F8F710E9409
:1022F0007A1640C00E9475163DC0DD2349F0CF71AB
:102300008C2F0E948F1663E08C2F0E94881832C099
:1023100081E00E949D18123068F182E00E949D18B1
:1023200029C0DD2331F0112391F2802F0E94AE0EDF
:1023300021C0112399F2093349F49FEFE7EEF3E04E
:102340009150E040F040E1F700C00000802F0E9473
:10235000550F10C04C2F4F70602FC7010E945607B9
:102360000E94A0150FC04C2F4F70602FC7010E9414
:10237000590708C088EF8C0D843020F40E94F70CB8
:102380000E94E506DD20C9F00E94FA1780FD15C005
:10239000F70112820E94F4170E948F16C7010E9453
:1023A000FE110E94F417DF91CF911F910F91FF90C2
:1023B000EF90DF90CF900C94B016DF91CF911F91EA
:1023C0000F91FF90EF90DF90CF9008950F931F93A0
:1023D000CF93DF93EC01688179818A810E94D117C4
:1023E0008C010E942C170E941D16B801CE010E947C
:1023F000D50FDF91CF911F910F910895CF93DF9368
:10240000FC019081818123813481232B31F08F3F26
:1024100031F481E09F3F19F403C081E001C080E006
:1024200080FD0EC0EF01CF010E94FE06882341F01F
:10243000CE010E94E611CE01DF91CF910C94C90626
:10244000DF91CF9108950E9425180E9435180E94AF
:10245000531880E090E00E94580D80E090E00C94CA
:102460006E0D80910001909101010E94551A0C940B
:1024700023120E9415180C943112E92FE295EF7087
:102480004E2F50E0FA013297EE30F105B0F4EA59E0
:10249000FF4F0C94FF25803F91F018F4883E68F4BC
:1024A0000EC0843F51F40BC0883E48F0813F29F4B0
:1024B00006C093FB882780F9089580E0089581E0A5
:1024C00008950E94C6170E943D120895CF93DF938E
:1024D00000D000D01F92CDB7DEB70F900F900F90B5
:1024E0000F900F90DF91CF910895CF93DF9300D09D
:1024F00000D000D0CDB7DEB726960FB6F894DEBF79
:102500000FBECDBFDF91CF9108951F93CF93DF937F
:10251000C091AD0116E08091AE01C81799F0D0E0EE
:102520001C9FF0011D9FF00D1124E155FE4F4081CD
:10253000518162817381848195810E9475122196F7
:10254000C770E9CFDF91CF911F9108954091DF01CE
:102550005091E0016091E1017091E2018091E3010D
:102560009091E4010C9475120F931F93CF93DF9316
:102570008091E40182958F7009F05DC08091E10146
:10258000882309F458C08091AD011091AE0160918B
:10259000DF017091E001C091E201D091E30191E08F
:1025A0006F3F09F090E0292F06E0811709F443C03E
:1025B000209721F07F3F21F030E003C031E001C0DF
:1025C000322F90E030FD34C0089FF001099FF00DDC
:1025D0001124DF01A155BE4F11963C91119737137D
:1025E00027C03C91361324C012963C9112973111AA
:1025F0001FC013964D915C9114974C1B5D0B483C8A
:102600005105B0F48091E4018F7080618093E40102
:10261000EC54FE4F80818F70806180838FED91E05C
:102620000E94FE11DF91CF911F910F910C948512A2
:1026300001968770BACFDF91CF911F910F910895C6
:102640009F92AF92BF92CF92DF92EF92FF920F9341
:102650001F93CF93DF93CDB7DEB761970FB6F89492
:10266000DEBF0FBECDBF8C0185E0F801DE011D96F7
:1026700001900D928A95E1F7F80140815181E28045
:102680009091DF016091E0012091E2013091E3013E
:102690002115310531F06F3F31F481E09F3F19F48E
:1026A00003C081E001C080E0F82FF1709F2E80FD13
:1026B00046C1F801A380B4808FEDC82E81E0D82EEA
:1026C000F090E101F501E21BF30BFF2009F4DFC0FC
:1026D0008091E401E83CF10508F09BC0282F207FA1
:1026E00009F052C0561313C0491311C0FE2CE1105B
:1026F0000EC08F7080618093E4010E94A612C60113
:102700000E94FE118091E401F801858358C1AB2835
:1027100031F05F3F31F481E04F3F19F403C081E0B5
:1027200001C080E080FD03C081E08E2502C080E012
:1027300090E0F82FF170FF2E80FF1CC08091AD015A
:102740002091AE0136E0821709F417C190E0389F5E
:10275000F001399FF00D1124E155FE4F61815613B0
:1027600006C06081461303C06281E61203C0019671
:102770008770E9CFFE2CEE2009F421C18091E4019D
:1027800081608093E4015AC0561306C0491304C007
:10279000E11002C0F8019FC04D875E878D859E8540
:1027A0000E946112882379F1EE2069F12091E40101
:1027B000822F82958F7090E0029774F08091DF01F4
:1027C0009091E00198878F831986BB86AA862C8713
:1027D000CE0107960E94FE1186E0F801AFEDB1E050
:1027E00001900D928A95E1F70E94B4120E94A61200
:1027F0000DC0561729F14D875E878D859E850E94F5
:10280000611281112CC0C8010E94FE11FF24F394B3
:10281000D6C0282F207F69F77A2DB98AA88A6E2D15
:1028200089890E9466128FED91E00E94FE1186E078
:10283000F60111928A95E9F70E94A612F12CBFC009
:102840004913D9CFE110D7CFF8018583C8010E9481
:10285000FE1186E0F60111928A95E9F7B0C0EE20EC
:1028600091F22091E401822F82958F7090E002977F
:102870000CF4B2CF8091DF019091E0019A838983BB
:102880001B82BD82AC822E83CE010196A3CFE83C91
:10289000F10508F047C0FE2CEE2009F4B4CF561322
:1028A00030C049132EC02091E40120FD21C0822FA9
:1028B00082958F70482F50E041155105C9F0F801FD
:1028C00025834F30510541F08F5F982F9295907F6F
:1028D000822F8F70892B8583C8010E94FE1186E0AC
:1028E000F801AFEDB1E001900D928A95E1F742C099
:1028F00086E0F801AFEDB1E001900D928A95E1F725
:102900005EC04D875E878D859E850E946112811114
:1029100063CF8091E40181608093E401C8010E944B
:10292000FE114DC07A2DB98AA88A6E2D89890E9420
:10293000661286E0F60111928A95E9F71BC0EE2037
:1029400009F461CF4D875E878D859E850E94611257
:10295000F82E882309F457CF86E0F801AFEDB1E0F7
:1029600001900D928A95E1F78FED91E00E94A80EFB
:102970000E94B4120E94A61222C04D875E878D85E8
:102980009E850E94C617292F22952F70223028F489
:102990009F7039F0811105C00BC0243028F49F705E
:1029A00049F4805E883020F0C8010E94FE119F2CFF
:1029B000F92C05C0F8019581907F99F7F9CF8F2DFB
:1029C00061960FB6F894DEBF0FBECDBFDF91CF91F9
:1029D0001F910F91FF90EF90DF90CF90BF90AF903D
:1029E0009F9008951F93CF93DF93CDB7DEB72C97B9
:1029F0000FB6F894DEBF0FBECDBF4F8358876987EF
:102A00007A878B879C87CE0107960E9420138823A4
:102A1000D1F09F8188852A853B85232B31F08F3F1C
:102A200031F481E09F3F19F403C081E001C080E0F0
:102A300080FD47C04F81588569857A858B859C8547
:102A40000E9475123EC086E0FE013796DE011196A7
:102A500001900D928A95E1F7FF81E8856A857B8573
:102A60006115710531F0EF3F31F481E0FF3F19F45A
:102A700003C081E001C080E080FD23C02091AE0151
:102A800030E0C9010196877099274091AD0150E06F
:102A900084179507F1F1F983EA837D836C8396E0CF
:102AA000929FD001939FB00D1124A155BE4FFE01FE
:102AB000319601900D929A95E1F78093AE010E94B4
:102AC000851216E08091AD019091AE01891771F1E8
:102AD000189FC001112481559E4F0E942013882306
:102AE00029F1E091AD011E9FF0011124E155FE4F47
:102AF0004081518162817381848195810E94751228
:102B00008091AD0190E00196877099278093AD0187
:102B1000D9CF0E9439121092AE011092AD01EFEDA3
:102B2000F1E086E0DF011D928A95E9F72C960FB659
:102B3000F894DEBF0FBECDBFDF91CF911F910895F6
:102B4000EF92FF920F931F93CF93DF938C01892B0A
:102B500009F46CC0F12CEE24E394E8012196F8010D
:102B60008491843740F4843008F051C0813081F082
:102B7000823019F15BC0853709F444C0A8F19CE7A5
:102B8000980F903708F052C08F770E94550F41C0C0
:102B90000E5F1F4FFE01849190E2980F983050F421
:102BA0008770FE2D01C0FF0F8A95EAF78F2F0E94D4
:102BB000281814C00E94AE0E2DC00E5F1F4FFE01DC
:102BC000849190E2980F983060F48770FE2D01C0D8
:102BD000FF0F8A95EAF78F2F0E942E180E94531834
:102BE00019C00E94550F16C00E5F1F4FFE01C49101
:102BF000CC2381F08FE99FE00197F1F700C000003E
:102C0000C150F6CF0E5F1F4FFE01F49003C00E942B
:102C1000AE0E8E018F2D882309F49FCFEFE9FFE0E0
:102C20003197F1F700C000008150F5CFDF91CF91CF
:102C30001F910F91FF90EF900895089508950C94BF
:102C40001E160C941F160E94211660931602709394
:102C5000170280931802909319020C9423120C947B
:102C600023160F931F9300911602109117022091C3
:102C7000180230911902602B712B822B932B1F911C
:102C80000F910C9423160F931F930091160210912D
:102C900017022091180230911902602371238223B8
:102CA00093231F910F910C9423160F931F93009160
:102CB0001602109117022091180230911902602714
:102CC0007127822793271F910F910C9423160C9440
:102CD0001E160E946716609312027093130280936F
:102CE0001402909315020C94231260E070E0CB0163
:102CF0000C9469160F931F9341E050E060E070E080
:102D00008A019B0104C0000F111F221F331F8A95E7
:102D1000D2F7C901B8011F910F910C9469160F9356
:102D20001F9341E050E060E070E004C0440F551F85
:102D3000661F771F8A95D2F7809112029091130235
:102D4000A0911402B09115028A019B01082B192B46
:102D50002A2B3B2BC901B8011F910F910C946916C6
:102D60000F931F9341E050E060E070E004C0440F17
:102D7000551F661F771F8A95D2F74095509560952D
:102D800070958091120290911302A0911402B0915B
:102D900015028A019B01082319232A233B23C90119
:102DA000B8011F910F910C9469160F931F9341E086
:102DB00050E060E070E004C0440F551F661F771FAD
:102DC0008A95D2F78091120290911302A091140279
:102DD000B09115028A019B01082719272A273B2752
:102DE000C901B8011F910F910C9469160F931F939D
:102DF00000911202109113022091140230911502D9
:102E0000602B712B822B932B1F910F910C946916C1
:102E10000F931F930091120210911302209114023C
:102E20003091150260237123822393231F910F9108
:102E30000C9469160F931F930091120210911302C4
:102E40002091140230911502602771278227932761
:102E50001F910F910C94691608952EE0929F800D9A
:102E60001124E82FE695E695E695877051E001C0BC
:102E7000550F8A95EAF785E0E89FF0011124EB51A0
:102E8000FE4F20E030E070E04081CB01022E02C016
:102E9000969587950A94E2F781708195842785231A
:102EA000842781932F5F3F4F2530310569F70895BF
:102EB0002EE0929F800D1124682F66956695669589
:102EC000982F977085E0689FB001112440E050E092
:102ED00080E0FB01E40FF51FEB51FE4F208130E055
:102EE000092E02C0369527950A94E2F72170332700
:102EF000042E01C0220F0A94EAF7822B4F5F5F4F26
:102F00004530510531F70895BF92CF92DF92EF928D
:102F1000FF920F931F93CF93DF938C01C090120207
:102F2000D0901302E0901402F090150280911602E6
:102F300090911702A0911802B0911902C82AD92ABB
:102F4000EA2AFB2ACFE1D0E0D701C6010C2E04C04B
:102F5000B695A795979587950A94D2F780FD04C0FA
:102F6000219790F7B12C07C0BC2EB8018C2F0E947E
:102F700075070197A9F38B2DDF91CF911F910F91C9
:102F8000FF90EF90DF90CF90BF900895CF93DF93A5
:102F9000EC010E948417BE010E947507DF91CF915A
:102FA00008951F93CF93DF93EB019091AC01992388
:102FB00021F0CB010E94C61713C0882349F0CB0132
:102FC0000E948417182F682FCE010E942D1704C06D
:102FD000CB010E945817182FBE01812F0E94750740
:102FE000DF91CF911F91089580911A028595859563
:102FF0008595089580911A028770089590911A021C
:10300000977081E009F480E0089580913E02089570
:1030100090913E02892B80933E0208958095909175
:103020003E02892380933E02089510923E02089545
:1030300090913D02892B80933D0208958095909157
:103040003D02892380933D02089510923D02089528
:1030500090913C02892B80933C0208958095909139
:103060003C02892380933C02089510923C0208950B
:1030700080911B02089508950C943B180C943C1801
:1030800090911B02981721F080931B020C943E181C
:10309000089580911B02882329F010921B0280E082
:1030A0000C943E180895E0910001F0910101809187
:1030B0003E028083E0910001F091010190818091B6
:1030C0003D02892B8083E0910001F0910101908104
:1030D00080913C02892B808380911B02882381F0A0
:1030E000E0910001F09101019081892B8083809112
:1030F0000001909101010E94871981110E944918D5
:1031000080910001909101010C94030D0C943B18E7
:1031100098E0899F90011124262B20931A020E9487
:103120008F1680911A028595859585950C94861841
:1031300010921A0280E00C94861820911A02809551
:10314000822380931A02982F977079F430E0482FE9
:10315000082E000C550B2417350739F085958595F9
:1031600085950E94B0160C94981808959093930139
:103170008093920108958295982F937344E0949FD1
:10318000900111248C7C86958695282B822F85753D
:10319000880F2A7A2695822B0895CF93DF93D92F13
:1031A0000E94BB18C82F8D2F0E94BB182C2F30E017
:1031B000322F2227A901482BCA01DF91CF91089510
:1031C00080E090E00E940D2621E08C3E9E4F09F0A9
:1031D00020E0822F089582E090E00C94052683E0A1
:1031E00090E00C940526CF9384E090E00E940526A1
:1031F000C82F81E290E00E9405262C2F30E0A90123
:10320000582BCA01CF910895CF93C92F682F84E01E
:1032100090E00E9413266C2F81E290E0CF910C94F5
:103220001326AB01BC018FE090E00C942526AB0186
:10323000BC0183E190E00C94252660E070E0CB01B6
:103240000C94171960E070E0CB010E9411190C94E6
:103250001D196CEE7EEF80E090E00E94312660E068
:1032600082E090E00E94132660E083E090E00E94FC
:103270001326109216021092170210921802109242
:10328000190260E084E090E00E94132660E081E291
:1032900090E00E94132660E085E090E00E941326F3
:1032A00060E086E090E00E9413266FEF87E090E0F8
:1032B0000E94132640E050E0BA0188E090E00E94AE
:1032C000252660E08DE090E00E94132640E050E06B
:1032D000BA0188E190E00E94252660E087E190E055
:1032E0000E94132640E050E0BA018CE190E00E9479
:1032F000252660E080E290E00E9413260C942219BB
:103300000C942919682F8EE090E00C941326FC0190
:10331000329680910C01882331F08091800287FFE2
:1033200002C09EE101C096E080E0915028F021911A
:103330002223D9F38F5FF9CF0895662351F12091AD
:103340000C012223E9F02091800227FF19C0462FAB
:103350004695469546954E31E0F4677021E030E0A1
:1033600002C0220F331F6A95E2F7FC01E40FF11D42
:10337000828190E02823392381E0232B69F409C05E
:10338000FC01329608962191621729F0E817F90797
:10339000D1F780E0089581E008959C01FC01329608
:1033A0009FEF80E04191461789F09F3F19F441114A
:1033B00001C0982F8F5F8630A9F79F3F39F0F90140
:1033C000E90FF11D97FDFA956283089508959C0118
:1033D0002A5F3F4FFC014281461301C012820196D1
:1033E00082179307B9F70895262F269526952695D7
:1033F0002E3170F4FC01E20FF11D677021E030E026
:1034000001C0220F6A95EAF78281282B2283089552
:1034100080913F0280FF0CC01F926F938AEB93E074
:103420009F938F930E945F060F900F900F900F90C5
:103430000895262F2695269526952E3178F4FC01A1
:10344000E20FF11D677021E030E001C0220F6A95A4
:10345000EAF72095828128232283089580913F02F4
:1034600080FF0CC01F926F938CE993E09F938F9322
:103470000E945F060F900F900F900F90089520917B
:103480000C01222329F02091800227FD0C94F419CD
:103490000C94CD1920910C01222329F02091800257
:1034A00027FD0C94191A0C94E71920910C01FC01CA
:1034B0003296222331F08091800287FF02C08EE194
:1034C00001C086E0DF011D928A95E9F7089508950D
:1034D0000C94671A0C94671ACF930E946A1A0E9480
:1034E000090A0E94681AC0E08C2F0E945E09892B8D
:1034F00029F4CF5FC530C1F780E001C081E0CF91F2
:1035000008950C94671A0C94811A0E94831A809172
:103510008602843049F11092400220E488E190E074
:103520000FB6F894A895809360000FBE20936000BA
:1035300080E00E94E5060E94831A83B7817F846041
:1035400083BF83B7816083BF7894889583B78E7F6C
:1035500083BF0FB6F894A89580916000886180932E
:103560006000109260000FBE08950C94671A0E94CC
:1035700039120E94F70C0E94E5060C94B51A1F92AE
:103580000F920FB60F9211248F939F93AF93BF9317
:1035900080914002811113C080917C0290917D0244
:1035A000A0917E02B0917F024196A11DB11D809332
:1035B0007C0290937D02A0937E02B0937F02BF9124
:1035C000AF919F918F910F900FBE0F901F90189504
:1035D00082E084BD93E095BD9AEF97BD80936E0025
:1035E00008952FB7F89480917C0290917D02A0916C
:1035F0007E02B0917F022FBF08952FB7F89460919B
:103600007C0270917D0280917E0290917F022FBF9B
:1036100008959C014FB7F89480917C0290917D02AF
:10362000A0917E02B0917F024FBF821B930B089541
:1036300078941F920F920FB60F9211248F939F933D
:10364000AF93BF9380917C0290917D02A0917E0206
:10365000B0917F020196A11DB11D80937C029093D1
:103660007D02A0937E02B0937F02BF91AF919F91A4
:103670008F910F900FBE0F901F90189581E080934F
:10368000E00080E28093D8001092C9008FE19EE4B0
:103690000197F1F700C0000087E090EBDC01809318
:1036A0008F0290939002A0939102B09392029CE0BB
:1036B00088E10FB6F894A895809360000FBE9093B0
:1036C0006000FFCF0E94E018811102C00E948019A3
:1036D0000E94EB1880933F020E94F318909381029E
:1036E000809380020E94EF18682F70E080E090E0E5
:1036F0000C942F16CF93C82F1F928F938EED93E0CB
:103700009F938F930E945F0681E090E0A0E0B0E07D
:10371000BC01CD0104C0660F771F881F991FCA9591
:10372000D2F70E942F160F900F900F900F90CF910D
:103730000C943912CF93DF93482F50E0FA0135975C
:10374000EF33F10508F063C2EC58FF4F0C94FF25EE
:1037500089E499E00E94C60585E898E00E94C605C4
:103760000E94EF181F928F9382E898E09F938F93A7
:103770000E945F0680E898E00E94C6050E94EB1850
:10378000C82F8DE698E00E94C6051F92CF9388E669
:1037900098E09F938F930E945F0686E698E00E94D0
:1037A000C6058CE598E00E94C6058C2F81701F929B
:1037B0008F9389E598E09F938F930E945F0687E53A
:1037C00098E00E94C6058DE498E00E94C605C1FB02
:1037D000882780F91F928F938AE498E09F938F93B4
:1037E0000E945F0688E498E00E94C6058CE398E09A
:1037F0000E94C605C2FB882780F91F928F9389E338
:1038000098E09F938F930E945F0687E398E00E9461
:10381000C6058EE298E00E94C605C3FBCC27C0F91E
:103820001F92CF938BE298E09F938F930E945F0645
:1038300089E298E00E94C6050E94F318EC0185E138
:1038400098E00E94C605DF93CF9380E198E09F93B4
:103850008F930E945F068EE098E00E94C60585EF78
:1038600097E00E94C6058C2F81701F928F9382EF84
:1038700097E09F938F930E945F068DB79EB78096C7
:103880000FB6F8949EBF0FBE8DBF80EF97E00E94E9
:10389000C60589ED97E00E94C605C1FB882780F91F
:1038A0001F928F9386ED97E09F938F930E945F0600
:1038B00084ED97E00E94C60582EC97E00E94C60561
:1038C0008D2F81701F928F938FEB97E09F938F9333
:1038D0000E945F068DEB97E00E94C6058BEA97E099
:1038E0000E94C605D695D1701F92DF9388EA97E0B3
:1038F0009F938F930E945F0686EA97E00E94C60519
:1039000084E997E00E94C605C2FB882780F91F92D0
:103910008F9381E997E09F938F930E945F068FE8D2
:1039200097E00E94C6058DE797E00E94C605C3FB9D
:10393000882780F91F928F938AE797E09F938F9350
:103940000E945F0688E797E00E94C6058EE697E032
:103950000E94C605C4FB882780F91F928F938BE6CF
:1039600097E09F938F930E945F0689E697E00E94FD
:10397000C60587E597E00E94C605C5FB882780F944
:103980001F928F9384E597E09F938F930E945F0629
:1039900082E597E00E94C60586E397E00E94C6058F
:1039A000C6FB882780F91F928F9383E397E09F934C
:1039B0008F930E945F068DB79EB780960FB6F894DE
:1039C0009EBF0FBE8DBF81E397E00E94C60589E2CE
:1039D00097E00E94C605C7FBCC27C0F91F92CF9382
:1039E00086E297E09F938F930E945F0684E297E0C0
:1039F0000E94C6050F900F900F900F9006C088E3AD
:103A000099E00E94C6050E948019C1E005C182E7C5
:103A100095E07FC080913F02817F8E7F80933F023F
:103A200087E595E00E94C60584E399E00E94C605FB
:103A300081E080934102E9CF0E94391288E199E048
:103A40000E94C6059FEF23ED80E391502040804007
:103A5000E1F700C000000E943E1BD7CF80913F02DB
:103A6000C82FC095C170C0FB80F980933F02CC2362
:103A700019F08CE099E0BDC08FEF98E00E94C60578
:103A800080913F02897F877F80933F02BECF9091D4
:103A90003F0291FBCC27C0F981E0C827892FC0FBEA
:103AA00081F980933F02CC2319F082EF98E027C080
:103AB00084EE98E02EC090913F0292FBCC27C0F993
:103AC00081E0C827892FC0FB82F980933F02CC2375
:103AD00019F085ED98E013C085EC98E01AC090913C
:103AE0003F0293FBCC27C0F981E0C827892FC0FB98
:103AF00083F980933F02CC2351F089EB98E00E9438
:103B0000C60580913F02816080933F0285C08CEAA8
:103B100098E00E94C60579CF88E495E00E94C6052A
:103B20008FE295E00E94C6058BEF94E00E94C605E7
:103B300081EC94E00E94C6058FE894E00E94C605DF
:103B400084E694E0E6CF86E594E00E94C6050E94F4
:103B5000F70C1F928F938CE394E09F938F930E94B6
:103B60005F0680910C011F928F9385E294E09F93F2
:103B70008F930E945F06809166021F928F9382E16D
:103B800094E09F938F930E945F068091800287FB51
:103B9000882780F91F928F938AEF93E09F938F93EA
:103BA0000E945F060E94FD1A9F938F937F936F93ED
:103BB00083EE93E09F938F930E945F068DB79EB72D
:103BC00046960FB6F8949EBF0FBE8DBF1ECF0E94C3
:103BD00039129091800297FBCC27C0F981E0C82769
:103BE000892FC0FB87F980938002CC2329F082EAD9
:103BF00098E00E94C60510C087E998E08ACF8953F3
:103C000003C08D5101C080E00E947A1BFECE85E981
:103C100098E00E94C605C0E08C2FDF91CF910895F7
:103C200080E008950C94101ECF93C82F809141021C
:103C3000882319F0813031F038C00E940518823293
:103C4000B1F504C00E940518823261F48C2F0E94E5
:103C5000121E811104C08C2F0E949A1B24C081E087
:103C600090E021C08C2F0E94101E81111BC0C43116
:103C700089F018F4CB3029F010C0C93259F0C8339C
:103C800061F487E595E00E94C6058AED93E00E9405
:103C9000C60508C0109241020CC088ED93E00E9456
:103CA000C60507C081E0817006C01092410280E025
:103CB00002C080E0F8CFCF91089580916502089509
:103CC00008959FB7F894109244029FBF9091860286
:103CD000943009F057C09091E9009F703091EC004A
:103CE000232F217030FD20E8922B23E02093E90060
:103CF0002091EB0020FF43C02091EE0027FF3FC042
:103D000020914202222321F02091E80025FF37C0B4
:103D10001092420226E03091E80035FD15C0309146
:103D20008602343061F53091EB0035FD28C021501A
:103D300021F481E08093420222C0EFE9FFE0319755
:103D4000F1F700C00000E7CF8093F1008091E80018
:103D500085FD0AC08091E80080FFFCCF8091E800DB
:103D60008E778093E80006C08FB7F89421E0209307
:103D700044028FBF9F709093E90080E008959F7088
:103D80009093E9008FEF0895CF93DF9300D01F92B7
:103D9000CDB7DEB790918602943019F589837B8385
:103DA0006A8382E08093E9008FEF9091E800815070
:103DB00095FD06C095ED9A95F1F700008111F5CFBC
:103DC0008091E80085FF0DC040E050E063E070E0C6
:103DD000CE0101960E9456218091E8008E77809353
:103DE000E8000F900F900F90DF91CF910895CF933F
:103DF000DF93EC010E943921823011F0843031F4DC
:103E0000BE0184E0DF91CF910C94C41EDF91CF916D
:103E10000895BC0183E00C94C41ECF93DF93EC01A2
:103E20000E943921823011F08430D9F580910C0143
:103E3000882339F08091800287FF03C060E282E02E
:103E400002C068E081E08093E9008FEF9091E80084
:103E5000815095FD06C095ED9A95F1F7000081110E
:103E6000F5CF8091E80085FF1CC080910C01811185
:103E700005C040E050E068E070E003C070E040E062
:103E800050E0CE010E9456218091E8008E77809309
:103E9000E80080E2FE01A5E4B2E001900D928A956F
:103EA000E1F7DF91CF91089589E799E00E94C60577
:103EB00080918502811109C00E94E7220E9444235B
:103EC0008091E20084608093E200089585E799E0A4
:103ED0000E94C60510928502089581E799E00C942E
:103EE000C6058DE699E00C94C60589E699E00E9426
:103EF000C6050C94B71A209143022F5F822F62E30C
:103F00000E94F325992319F02093430208951092FB
:103F1000430280914402882371F1809186028430AB
:103F200041F58091E9008F702091EC00922F917003
:103F300020FD90E8892B93E09093E9009091EB00AD
:103F400090FF14C09091EE0097FF10C09091E80090
:103F500095FF03C01092F100F9CF9091E80090FF17
:103F600005C09091E8009E779093E8008F70809351
:103F7000E90010924402089542E061EC81E00E9461
:103F8000602242E261EC82E00E94602242E261EC47
:103F900083E00C94602280918802833009F460C031
:103FA00030F4813071F0823009F499C008958A307C
:103FB00009F485C08B3009F46BC0893009F0A7C0C3
:103FC00020C080918702813A09F0A1C08091E80069
:103FD000877F8093E80080918B0290918C02892BDF
:103FE00021F460E285E492E003C060E080E090E0CC
:103FF00070E00E94A1218091E8008B778093E80017
:10400000089580918702813209F081C080918B02EE
:1040100090918C02029708F07AC08091E800877F27
:104020008093E8008091E80082FD05C080918602BF
:104030008111F8CF6CC02091F3008091F20090E0E4
:10404000922B029729F48091F1008B7F813021F42B
:104050008091F100809365028091E8008B7753C0D6
:1040600080918702813A09F052C080918B02909131
:104070008C02892B09F04BC08091E800877F8093E8
:10408000E8008091E80080FFFCCF80910C0136C0F1
:10409000809187028132D9F580918B0290918C02B8
:1040A000892BA9F58091E800877F8093E8000E9422
:1040B00095228091890280930C010C943912809191
:1040C0008702813221F58091E800877F8093E800A4
:1040D0000E94952280918A028093660208958091C1
:1040E0008702813AA1F48091E800877F8093E800FD
:1040F0008091E80080FFFCCF809166028093F10000
:104100008091E8008E778093E8000C9495220895C2
:1041100084B7877F84BF0FB6F894A895809160001C
:10412000886180936000109260000FBE90E080E88C
:104130000FB6F89480936100909361000FBE0E94C7
:10414000940D0E94E7220E9444238091E200846043
:104150008093E20081E69EE10E94B61878940E9466
:10416000D8250E949C0D82E091E00E94F20C88E527
:1041700099E00E94C60580918602853089F484E525
:1041800099E00E94C6050E94851A809184028823C6
:1041900091F30E946C1A882371F30E944021EBCFA7
:1041A0000E94CC0DE8CF0C94D520292F3327233043
:1041B0003105C9F060F42130310581F0223031053C
:1041C00009F047C08BE590E025EA39E046C021328E
:1041D000310511F12232310561F13BC082E190E0FD
:1041E00020E03AE03AC099278130910561F040F033
:1041F0008230910559F0039761F5EDE7F9E008C0C9
:10420000E1EAF9E005C0E7E9F9E002C0E3E8F9E036
:10421000849190E09F0121C063307105D0F4660F56
:10422000771FFB01E557FE4F2081318189E090E047
:1042300014C06330710568F4FB01EE0FFF1FEB57EC
:10424000FE4F20813181FB01EE57FE4F808190E0CF
:1042500004C080E090E020E030E0FA013183208368
:10426000089580918602843011F081E0089582E003
:10427000089580916702811102C00C943121089544
:1042800080E189BD82E189BD09B400FEFDCF809146
:10429000D8008F7D8093D8008091E0008260809369
:1042A000E0008091E00081FDFCCF0895CF92DF9285
:1042B000EF92FF920F931F93CF93DF93EC018B014B
:1042C0007A010E94B422811133C0E114F10439F063
:1042D000F70180819181081B190BC80FD91FC12CD0
:1042E000D12C0115110519F18091E80085FD16C04A
:1042F0008091E8008E778093E800E114F10449F0A2
:10430000F70180819181C80ED91ED182C08285E0DB
:104310000FC00E94B422882321F30AC089918093A0
:10432000F10001501109FFEFCF1ADF0ADACF80E068
:10433000DF91CF911F910F91FF90EF90DF90CF9081
:10434000089520918D0230918E022617370748F08C
:104350006115710539F42091E8002E772093E8006B
:1043600001C0B901FC0120E06115710579F180916E
:1043700086028823F1F18530F1F18091E80083FD18
:104380003CC08091E80082FD2EC08091E80080FF53
:10439000EBCF2091F3008091F20090E0922B611519
:1043A000710551F08830910538F421912093F10086
:1043B000615071090196F3CF21E0089709F020E0E0
:1043C0008091E8008E778093E800CECF2111CFCF87
:1043D0000AC080918602882361F0853061F0809167
:1043E000E80083FD0AC08091E80082FFF2CF80E000
:1043F000089582E0089583E0089581E00895209172
:104400008D0230918E022617370748F0611571052D
:1044100039F42091E8002E772093E80001C0B9011B
:10442000FC0120E06115710591F1809186028823DD
:1044300009F440C0853009F43FC08091E80083FD55
:104440003DC08091E80082FD2FC08091E80080FF90
:10445000E9CF2091F3008091F20090E0922B61155A
:10446000710559F08830910540F424912093F100B2
:104470003196615071090196F2CF21E0089709F059
:1044800020E08091E8008E778093E800CBCF211167
:10449000CCCF0AC080918602882361F0853061F01C
:1044A0008091E80083FD0AC08091E80082FFF2CF8E
:1044B00080E0089582E0089583E0089581E0089502
:1044C000982F973068F59093E900981739F070911C
:1044D000EC002091ED005091F00003C0242F762FC6
:1044E00050E021FD02C09F5FECCF3091EB003E7F9A
:1044F0003093EB003091ED003D7F3093ED00309133
:10450000EB0031603093EB007093EC002093ED00F2
:104510005093F0002091EE0027FDE5CF80E0089554
:104520008F708093E90081E008958091870287FF72
:1045300011C08091E80082FD05C080918602811142
:10454000F8CF11C08091E8008B770BC08091860274
:10455000882349F08091E80080FFF8CF8091E8003F
:104560008E778093E80008952091E4003091E50073
:1045700095E64091EC00842F817040FF23C080912C
:10458000E80080FD1DC080918602882399F0853067
:1045900099F08091EB0085FD11C04091E4005091AD
:1045A000E5002417350729F3915011F09A01E1CF66
:1045B00084E0089582E0089583E0089581E00895FD
:1045C00080E008954091E80042FFDDCF08950E9409
:1045D00055230E945D23E0EEF0E0808181608083BE
:1045E000E8EDF0E080818F77808319BCA7EDB0E023
:1045F0008C918E7F8C9380818F7E80831092850238
:1046000008950F931F93CF93DF930E9455230E9429
:104610005D23C8EDD0E088818F77888388818068AA
:10462000888388818F7D888319BC109286021092BE
:104630008202109284021092830200EE10E0F801D0
:1046400080818B7F808388818160888342E060E005
:1046500080E00E946022E1EEF0E080818E7F808326
:10466000E2EEF0E0808181608083808188608083D9
:10467000F80180818E7F8083888180618883DF91CB
:10468000CF911F910F910895E8EDF0E080818F7E2A
:104690008083E7EDF0E080818160808384E082BFE9
:1046A00081E0809385020C940123E8EDF0E08081A5
:1046B0008E7F80831092E20008951092DA001092AB
:1046C000E10008951F920F920FB60F9211242F93BD
:1046D0003F934F935F936F937F938F939F93AF938A
:1046E000BF93EF93FF938091E10082FF0BC0809115
:1046F000E20082FF07C08091E1008B7F8093E100A0
:104700000E947B1F8091DA0080FF1FC08091D8003B
:1047100080FF1BC08091DA008E7F8093DA00809149
:10472000D90080FF0DC080E189BD82E189BD09B457
:1047300000FEFDCF81E0809386020E94541F05C0D9
:1047400019BC109286020E94661F8091E10080FFD2
:1047500019C08091E20080FF15C08091E2008E7F39
:104760008093E2008091E20080618093E20080917A
:10477000D80080628093D80019BC85E080938602BF
:104780000E94711F8091E10084FF30C08091E2009F
:1047900084FF2CC080E189BD82E189BD09B400FE9F
:1047A000FDCF8091D8008F7D8093D8008091E1006B
:1047B0008F7E8093E1008091E2008F7E8093E20003
:1047C0008091E20081608093E200809182028823E0
:1047D00011F084E007C08091E30087FD02C081E012
:1047E00001C083E0809386020E94751F8091E100E2
:1047F00083FF29C08091E20083FF25C08091E10002
:10480000877F8093E10082E080938602109282028B
:104810008091E1008E7F8093E1008091E2008E7FA5
:104820008093E2008091E20080618093E20042E0A8
:1048300060E080E00E9460228091F00088608093B8
:10484000F0000E946D1FFF91EF91BF91AF919F917A
:104850008F917F916F915F914F913F912F910F9029
:104860000FBE0F901F9018951F920F920FB60F92C8
:1048700011242F933F934F935F936F937F938F9365
:104880009F93AF93BF93CF93DF93EF93FF93C09129
:10489000E900CF708091EC00D82FD17080FDD0E876
:1048A0001092E9008091F000877F8093F000789467
:1048B0000E9478241092E9008091F0008860809333
:1048C000F000CD2BCF70C093E900FF91EF91DF9105
:1048D000CF91BF91AF919F918F917F916F915F9198
:1048E0004F913F912F910F900FBE0F901F901895F1
:1048F0001F93CF93DF93CDB7DEB7AA970FB6F89487
:10490000DEBF0FBECDBFE7E8F2E08091F1008193FA
:1049100022E0EF38F207C9F70E94CB1F8091E80030
:1049200083FF2EC18091870290918802492F50E029
:104930004A30510508F024C1FA01ED54FF4F0C94A0
:10494000FF25803821F0823809F01AC108C0809113
:10495000830290918402992389F082600FC0809134
:104960008B028F70873008F00BC18093E900809133
:10497000EB0085FB882780F91092E9009091E80010
:10498000977F9093E8008093F1001092F100D1C0DE
:10499000282F2D7F09F0F4C0882319F0823061F0B0
:1049A000EFC080918902813009F0EAC0933009F0AC
:1049B00080E0809384022EC08091890281112AC0F8
:1049C00080918B028F702FEF280F263008F0D8C00F
:1049D0008093E9002091EB0020FF1CC0933021F46C
:1049E0008091EB00806214C09091EB0090619093F5
:1049F000EB0021E030E0A90102C0440F551F8A9569
:104A0000E2F74093EA001092EA008091EB008860A0
:104A10008093EB001092E9008091E800877F8093FB
:104A2000E8000E949522ACC08111AAC010918902B1
:104A30001F778091E3008078812B8093E300809141
:104A4000E800877F8093E8000E9495228091E8002B
:104A500080FFFCCF8091E30080688093E300111118
:104A600002C082E001C083E08093860289C0805842
:104A7000823008F085C08091890290918A028C3D35
:104A800053E0950779F583E08A838AE289834FB7FB
:104A9000F894DE01139620E03EE051E2E32FF0E0CF
:104AA00050935700E49120FF03C0E295EF703F5F01
:104AB000EF708E2F90E0EA3010F0C79601C0C096DC
:104AC0008D939D932F5F243149F74FBF8091E8006C
:104AD000877F8093E8006AE270E0CE0101960E9431
:104AE000A12116C060918B0270918C02AE014F5FC4
:104AF0005F4F0E94D320BC01892B09F441C09091E3
:104B0000E800977F9093E80089819A810E94FF21B5
:104B10008091E8008B778093E80032C0803881F57F
:104B20008091E800877F8093E800809182028093E3
:104B3000F1008091E8008E7772CF811121C08091C1
:104B4000890290918A0299270297D4F48091E80013
:104B5000877F8093E80080918902809382020E947F
:104B6000952280918202811106C08091E30087FD29
:104B700002C081E001C084E0809386020E94BC1FD5
:104B80008091E80083FF0AC08091E800877F8093CE
:104B9000E8008091EB0080628093EB00AA960FB64C
:104BA000F894DEBF0FBECDBFDF91CF911F91089566
:104BB000CF93809186028823A1F0C091E900CF7045
:104BC0009091EC00892F817090FD80E8C82B1092A5
:104BD000E9008091E80083FD0E947824CF70C093A3
:104BE000E900CF910895991B79E004C0991F9617A9
:104BF00008F0961B881F7A95C9F780950895EE0FE7
:104C0000FF1F0590F491E02D0994F999FECF92BD14
:104C100081BDF89A992780B50895A8E1B0E042E0F7
:104C200050E00C943926262FF999FECF92BD81BD14
:104C3000F89A019700B4021639F01FBA20BD0FB6DA
:104C4000F894FA9AF99A0FBE08950396272F0E94B6
:104C500014260E941326252F0E941426242F0C941C
:104C600014260196272F0E9414260C941326DC018B
:104C7000CB01FC01F999FECF06C0F2BDE1BDF89A67
:104C8000319600B40D9241505040B8F70895F89411
:024C9000FFCF54
:104C92001C025D1E0D1F601E091FF71E01E200E9C6
:104CA20000EA00B500B600B700CD008301CC008A4F
:104CB20001920194012102230224022502260227E5
:104CC200022A02B300B4006F007000818283F7C62B
:104CD200676697969594939237363530F0F1F4F5EE
:104CE200F6E200E900EA00B500B600B700CD0083A5
:104CF20001CC008A0192019401210223022402259F
:104D020002260227022A02B300B4006F007000815B
:104D12008283406D22A10A340A120AB709D009E936
:024D2200090086
:00000001FF
